{
  "_format": "hh-sol-artifact-1",
  "contractName": "XChainVault",
  "sourceName": "contracts/XChainReciever.sol",
  "abi": [
    {
      "anonymous": false,
      "inputs": [
        {
          "indexed": false,
          "internalType": "address",
          "name": "from",
          "type": "address"
        },
        {
          "indexed": false,
          "internalType": "uint256",
          "name": "tokenId",
          "type": "uint256"
        },
        {
          "indexed": false,
          "internalType": "uint256",
          "name": "internalId",
          "type": "uint256"
        },
        {
          "indexed": false,
          "internalType": "address",
          "name": "nftAddr",
          "type": "address"
        }
      ],
      "name": "XChainRecieved",
      "type": "event"
    },
    {
      "anonymous": false,
      "inputs": [
        {
          "indexed": false,
          "internalType": "address",
          "name": "to",
          "type": "address"
        },
        {
          "indexed": false,
          "internalType": "uint256",
          "name": "tokenId",
          "type": "uint256"
        },
        {
          "indexed": false,
          "internalType": "uint256",
          "name": "internalId",
          "type": "uint256"
        },
        {
          "indexed": false,
          "internalType": "address",
          "name": "nftAddr",
          "type": "address"
        }
      ],
      "name": "XChainReleased",
      "type": "event"
    },
    {
      "inputs": [],
      "name": "ORACLE_ROLE",
      "outputs": [
        {
          "internalType": "bytes32",
          "name": "",
          "type": "bytes32"
        }
      ],
      "stateMutability": "view",
      "type": "function"
    },
    {
      "inputs": [
        {
          "internalType": "uint256",
          "name": "internalId",
          "type": "uint256"
        }
      ],
      "name": "getERC721ContractAddr",
      "outputs": [
        {
          "internalType": "address",
          "name": "",
          "type": "address"
        }
      ],
      "stateMutability": "view",
      "type": "function"
    },
    {
      "inputs": [
        {
          "internalType": "uint256",
          "name": "internalId",
          "type": "uint256"
        }
      ],
      "name": "getERC721TokenId",
      "outputs": [
        {
          "internalType": "uint256",
          "name": "",
          "type": "uint256"
        }
      ],
      "stateMutability": "view",
      "type": "function"
    },
    {
      "inputs": [],
      "name": "getInternalIdCounter",
      "outputs": [
        {
          "internalType": "uint256",
          "name": "",
          "type": "uint256"
        }
      ],
      "stateMutability": "view",
      "type": "function"
    },
    {
      "inputs": [
        {
          "internalType": "address",
          "name": "account",
          "type": "address"
        }
      ],
      "name": "getNumIdsOwned",
      "outputs": [
        {
          "internalType": "uint256",
          "name": "",
          "type": "uint256"
        }
      ],
      "stateMutability": "view",
      "type": "function"
    },
    {
      "inputs": [],
      "name": "getNumberDepositedERC721s",
      "outputs": [
        {
          "internalType": "uint256",
          "name": "",
          "type": "uint256"
        }
      ],
      "stateMutability": "view",
      "type": "function"
    },
    {
      "inputs": [
        {
          "internalType": "uint256",
          "name": "internalId",
          "type": "uint256"
        }
      ],
      "name": "getOwned",
      "outputs": [
        {
          "internalType": "bool",
          "name": "",
          "type": "bool"
        }
      ],
      "stateMutability": "view",
      "type": "function"
    },
    {
      "inputs": [
        {
          "internalType": "address",
          "name": "account",
          "type": "address"
        }
      ],
      "name": "getOwnedInternalIds",
      "outputs": [
        {
          "internalType": "uint256[]",
          "name": "",
          "type": "uint256[]"
        }
      ],
      "stateMutability": "view",
      "type": "function"
    },
    {
      "inputs": [
        {
          "internalType": "address",
          "name": "operator",
          "type": "address"
        },
        {
          "internalType": "address",
          "name": "from",
          "type": "address"
        },
        {
          "internalType": "uint256",
          "name": "tokenId",
          "type": "uint256"
        },
        {
          "internalType": "bytes",
          "name": "data",
          "type": "bytes"
        }
      ],
      "name": "onERC721Received",
      "outputs": [
        {
          "internalType": "bytes4",
          "name": "",
          "type": "bytes4"
        }
      ],
      "stateMutability": "nonpayable",
      "type": "function"
    }
  ],
  "bytecode": "0x60806040526000805534801561001457600080fd5b50610f1f806100246000396000f3fe608060405234801561001057600080fd5b50600436106100935760003560e01c806340aa97ec1161006657806340aa97ec14610134578063742f23c71461016457806380168c7b14610194578063a919b74a146101c4578063b7cebb3e146101f457610093565b806307e2cea514610098578063102af748146100b6578063150b7a02146100e6578063397bafd614610116575b600080fd5b6100a0610212565b6040516100ad9190610bdb565b60405180910390f35b6100d060048036038101906100cb91906109a1565b610236565b6040516100dd9190610b9e565b60405180910390f35b61010060048036038101906100fb91906109ca565b61048b565b60405161010d9190610bf6565b60405180910390f35b61011e610799565b60405161012b9190610c11565b60405180910390f35b61014e600480360381019061014991906109a1565b6107af565b60405161015b9190610c11565b60405180910390f35b61017e60048036038101906101799190610a45565b6107f8565b60405161018b9190610b3e565b60405180910390f35b6101ae60048036038101906101a99190610a45565b610838565b6040516101bb9190610c11565b60405180910390f35b6101de60048036038101906101d99190610a45565b610858565b6040516101eb9190610bc0565b60405180910390f35b6101fc610885565b6040516102099190610c11565b60405180910390f35b7f68e79a7bf1e0bc45d0a330c573bc367f9cf464fd326078812f301165fbda4ef181565b60606000610243836107af565b905060008167ffffffffffffffff811115610287577f4e487b7100000000000000000000000000000000000000000000000000000000600052604160045260246000fd5b6040519080825280602002602001820160405280156102b55781602001602082028036833780820191505090505b5090506000805b600260008773ffffffffffffffffffffffffffffffffffffffff1673ffffffffffffffffffffffffffffffffffffffff1681526020019081526020016000208054905081101561047f57610390600260008873ffffffffffffffffffffffffffffffffffffffff1673ffffffffffffffffffffffffffffffffffffffff1681526020019081526020016000208281548110610380577f4e487b7100000000000000000000000000000000000000000000000000000000600052603260045260246000fd5b9060005260206000200154610858565b1561046c57600260008773ffffffffffffffffffffffffffffffffffffffff1673ffffffffffffffffffffffffffffffffffffffff168152602001908152602001600020818154811061040c577f4e487b7100000000000000000000000000000000000000000000000000000000600052603260045260246000fd5b9060005260206000200154838381518110610450577f4e487b7100000000000000000000000000000000000000000000000000000000600052603260045260246000fd5b6020026020010181815250506001826104699190610cbb565b91505b808061047790610e03565b9150506102bc565b50819350505050919050565b600061049561088e565b60005481600001818152505033816020019073ffffffffffffffffffffffffffffffffffffffff16908173ffffffffffffffffffffffffffffffffffffffff168152505084816060019073ffffffffffffffffffffffffffffffffffffffff16908173ffffffffffffffffffffffffffffffffffffffff16815250508381604001818152505060018160c00190151590811515815250508060016000805481526020019081526020016000206000820151816000015560208201518160010160006101000a81548173ffffffffffffffffffffffffffffffffffffffff021916908373ffffffffffffffffffffffffffffffffffffffff1602179055506040820151816002015560608201518160030160006101000a81548173ffffffffffffffffffffffffffffffffffffffff021916908373ffffffffffffffffffffffffffffffffffffffff16021790555060808201518160040160006101000a81548173ffffffffffffffffffffffffffffffffffffffff021916908373ffffffffffffffffffffffffffffffffffffffff16021790555060a0820151816005015560c08201518160060160006101000a81548160ff02191690831515021790555090505060026000826020015173ffffffffffffffffffffffffffffffffffffffff1673ffffffffffffffffffffffffffffffffffffffff16815260200190815260200160002081600001519080600181540180825580915050600190039060005260206000200160009091909190915055600160036000836020015173ffffffffffffffffffffffffffffffffffffffff1673ffffffffffffffffffffffffffffffffffffffff16815260200190815260200160002060008282546107199190610cbb565b925050819055507fc325cc28bae3e17b5e97cc28e2cd5734b029aa3d34628035c580062a6824484581606001518260400151836000015184602001516040516107659493929190610b59565b60405180910390a1600160008082825461077f9190610cbb565b9250508190555063150b7a0260e01b915050949350505050565b600060016000546107aa9190610d11565b905090565b6000600360008373ffffffffffffffffffffffffffffffffffffffff1673ffffffffffffffffffffffffffffffffffffffff168152602001908152602001600020549050919050565b60006001600083815260200190815260200160002060010160009054906101000a900473ffffffffffffffffffffffffffffffffffffffff169050919050565b600060016000838152602001908152602001600020600201549050919050565b60006001600083815260200190815260200160002060060160009054906101000a900460ff169050919050565b60008054905090565b6040518060e0016040528060008152602001600073ffffffffffffffffffffffffffffffffffffffff16815260200160008152602001600073ffffffffffffffffffffffffffffffffffffffff168152602001600073ffffffffffffffffffffffffffffffffffffffff168152602001600081526020016000151581525090565b600061092261091d84610c51565b610c2c565b90508281526020810184848401111561093a57600080fd5b610945848285610dc3565b509392505050565b60008135905061095c81610ebb565b92915050565b600082601f83011261097357600080fd5b813561098384826020860161090f565b91505092915050565b60008135905061099b81610ed2565b92915050565b6000602082840312156109b357600080fd5b60006109c18482850161094d565b91505092915050565b600080600080608085870312156109e057600080fd5b60006109ee8782880161094d565b94505060206109ff8782880161094d565b9350506040610a108782880161098c565b925050606085013567ffffffffffffffff811115610a2d57600080fd5b610a3987828801610962565b91505092959194509250565b600060208284031215610a5757600080fd5b6000610a658482850161098c565b91505092915050565b6000610a7a8383610b20565b60208301905092915050565b610a8f81610d45565b82525050565b6000610aa082610c92565b610aaa8185610caa565b9350610ab583610c82565b8060005b83811015610ae6578151610acd8882610a6e565b9750610ad883610c9d565b925050600181019050610ab9565b5085935050505092915050565b610afc81610d57565b82525050565b610b0b81610d63565b82525050565b610b1a81610d6d565b82525050565b610b2981610db9565b82525050565b610b3881610db9565b82525050565b6000602082019050610b536000830184610a86565b92915050565b6000608082019050610b6e6000830187610a86565b610b7b6020830186610b2f565b610b886040830185610b2f565b610b956060830184610a86565b95945050505050565b60006020820190508181036000830152610bb88184610a95565b905092915050565b6000602082019050610bd56000830184610af3565b92915050565b6000602082019050610bf06000830184610b02565b92915050565b6000602082019050610c0b6000830184610b11565b92915050565b6000602082019050610c266000830184610b2f565b92915050565b6000610c36610c47565b9050610c428282610dd2565b919050565b6000604051905090565b600067ffffffffffffffff821115610c6c57610c6b610e7b565b5b610c7582610eaa565b9050602081019050919050565b6000819050602082019050919050565b600081519050919050565b6000602082019050919050565b600082825260208201905092915050565b6000610cc682610db9565b9150610cd183610db9565b9250827fffffffffffffffffffffffffffffffffffffffffffffffffffffffffffffffff03821115610d0657610d05610e4c565b5b828201905092915050565b6000610d1c82610db9565b9150610d2783610db9565b925082821015610d3a57610d39610e4c565b5b828203905092915050565b6000610d5082610d99565b9050919050565b60008115159050919050565b6000819050919050565b60007fffffffff0000000000000000000000000000000000000000000000000000000082169050919050565b600073ffffffffffffffffffffffffffffffffffffffff82169050919050565b6000819050919050565b82818337600083830152505050565b610ddb82610eaa565b810181811067ffffffffffffffff82111715610dfa57610df9610e7b565b5b80604052505050565b6000610e0e82610db9565b91507fffffffffffffffffffffffffffffffffffffffffffffffffffffffffffffffff821415610e4157610e40610e4c565b5b600182019050919050565b7f4e487b7100000000000000000000000000000000000000000000000000000000600052601160045260246000fd5b7f4e487b7100000000000000000000000000000000000000000000000000000000600052604160045260246000fd5b6000601f19601f8301169050919050565b610ec481610d45565b8114610ecf57600080fd5b50565b610edb81610db9565b8114610ee657600080fd5b5056fea2646970667358221220956d2d4b9c59055d13eb3772c55c93cb00c128c00fa2cd790c6b248d9fce9cf664736f6c63430008040033",
  "linkReferences": {},
  "deployedLinkReferences": {}
}