{
  "_format": "hh-sol-artifact-1",
  "contractName": "wEth",
  "sourceName": "contracts/wEth.sol",
  "abi": [
    {
      "inputs": [
        {
          "internalType": "uint256",
          "name": "initialSupply",
          "type": "uint256"
        }
      ],
      "stateMutability": "nonpayable",
      "type": "constructor"
    },
    {
      "anonymous": false,
      "inputs": [
        {
          "indexed": true,
          "internalType": "address",
          "name": "owner",
          "type": "address"
        },
        {
          "indexed": true,
          "internalType": "address",
          "name": "spender",
          "type": "address"
        },
        {
          "indexed": false,
          "internalType": "uint256",
          "name": "value",
          "type": "uint256"
        }
      ],
      "name": "Approval",
      "type": "event"
    },
    {
      "anonymous": false,
      "inputs": [
        {
          "indexed": true,
          "internalType": "address",
          "name": "from",
          "type": "address"
        },
        {
          "indexed": true,
          "internalType": "address",
          "name": "to",
          "type": "address"
        },
        {
          "indexed": false,
          "internalType": "uint256",
          "name": "value",
          "type": "uint256"
        }
      ],
      "name": "Transfer",
      "type": "event"
    },
    {
      "inputs": [
        {
          "internalType": "address",
          "name": "owner",
          "type": "address"
        },
        {
          "internalType": "address",
          "name": "spender",
          "type": "address"
        }
      ],
      "name": "allowance",
      "outputs": [
        {
          "internalType": "uint256",
          "name": "",
          "type": "uint256"
        }
      ],
      "stateMutability": "view",
      "type": "function"
    },
    {
      "inputs": [
        {
          "internalType": "address",
          "name": "spender",
          "type": "address"
        },
        {
          "internalType": "uint256",
          "name": "amount",
          "type": "uint256"
        }
      ],
      "name": "approve",
      "outputs": [
        {
          "internalType": "bool",
          "name": "",
          "type": "bool"
        }
      ],
      "stateMutability": "nonpayable",
      "type": "function"
    },
    {
      "inputs": [
        {
          "internalType": "address",
          "name": "account",
          "type": "address"
        }
      ],
      "name": "balanceOf",
      "outputs": [
        {
          "internalType": "uint256",
          "name": "",
          "type": "uint256"
        }
      ],
      "stateMutability": "view",
      "type": "function"
    },
    {
      "inputs": [],
      "name": "decimals",
      "outputs": [
        {
          "internalType": "uint8",
          "name": "",
          "type": "uint8"
        }
      ],
      "stateMutability": "view",
      "type": "function"
    },
    {
      "inputs": [
        {
          "internalType": "address",
          "name": "spender",
          "type": "address"
        },
        {
          "internalType": "uint256",
          "name": "subtractedValue",
          "type": "uint256"
        }
      ],
      "name": "decreaseAllowance",
      "outputs": [
        {
          "internalType": "bool",
          "name": "",
          "type": "bool"
        }
      ],
      "stateMutability": "nonpayable",
      "type": "function"
    },
    {
      "inputs": [
        {
          "internalType": "uint256",
          "name": "amountToGive",
          "type": "uint256"
        }
      ],
      "name": "give",
      "outputs": [],
      "stateMutability": "nonpayable",
      "type": "function"
    },
    {
      "inputs": [
        {
          "internalType": "address",
          "name": "spender",
          "type": "address"
        },
        {
          "internalType": "uint256",
          "name": "addedValue",
          "type": "uint256"
        }
      ],
      "name": "increaseAllowance",
      "outputs": [
        {
          "internalType": "bool",
          "name": "",
          "type": "bool"
        }
      ],
      "stateMutability": "nonpayable",
      "type": "function"
    },
    {
      "inputs": [],
      "name": "name",
      "outputs": [
        {
          "internalType": "string",
          "name": "",
          "type": "string"
        }
      ],
      "stateMutability": "view",
      "type": "function"
    },
    {
      "inputs": [],
      "name": "symbol",
      "outputs": [
        {
          "internalType": "string",
          "name": "",
          "type": "string"
        }
      ],
      "stateMutability": "view",
      "type": "function"
    },
    {
      "inputs": [],
      "name": "totalSupply",
      "outputs": [
        {
          "internalType": "uint256",
          "name": "",
          "type": "uint256"
        }
      ],
      "stateMutability": "view",
      "type": "function"
    },
    {
      "inputs": [
        {
          "internalType": "address",
          "name": "recipient",
          "type": "address"
        },
        {
          "internalType": "uint256",
          "name": "amount",
          "type": "uint256"
        }
      ],
      "name": "transfer",
      "outputs": [
        {
          "internalType": "bool",
          "name": "",
          "type": "bool"
        }
      ],
      "stateMutability": "nonpayable",
      "type": "function"
    },
    {
      "inputs": [
        {
          "internalType": "address",
          "name": "sender",
          "type": "address"
        },
        {
          "internalType": "address",
          "name": "recipient",
          "type": "address"
        },
        {
          "internalType": "uint256",
          "name": "amount",
          "type": "uint256"
        }
      ],
      "name": "transferFrom",
      "outputs": [
        {
          "internalType": "bool",
          "name": "",
          "type": "bool"
        }
      ],
      "stateMutability": "nonpayable",
      "type": "function"
    }
  ],
  "bytecode": "0x60806040523480156200001157600080fd5b5060405162001afa38038062001afa83398181016040528101906200003791906200033a565b6040518060400160405280600481526020017f77457468000000000000000000000000000000000000000000000000000000008152506040518060400160405280600481526020017f77457468000000000000000000000000000000000000000000000000000000008152508160039080519060200190620000bb92919062000273565b508060049080519060200190620000d492919062000273565b505050620000e93382620000f060201b60201c565b506200052c565b600073ffffffffffffffffffffffffffffffffffffffff168273ffffffffffffffffffffffffffffffffffffffff16141562000163576040517f08c379a00000000000000000000000000000000000000000000000000000000081526004016200015a906200039e565b60405180910390fd5b62000177600083836200026960201b60201c565b80600260008282546200018b9190620003ee565b92505081905550806000808473ffffffffffffffffffffffffffffffffffffffff1673ffffffffffffffffffffffffffffffffffffffff1681526020019081526020016000206000828254620001e29190620003ee565b925050819055508173ffffffffffffffffffffffffffffffffffffffff16600073ffffffffffffffffffffffffffffffffffffffff167fddf252ad1be2c89b69c2b068fc378daa952ba7f163c4a11628f55a4df523b3ef83604051620002499190620003c0565b60405180910390a362000265600083836200026e60201b60201c565b5050565b505050565b505050565b828054620002819062000455565b90600052602060002090601f016020900481019282620002a55760008555620002f1565b82601f10620002c057805160ff1916838001178555620002f1565b82800160010185558215620002f1579182015b82811115620002f0578251825591602001919060010190620002d3565b5b50905062000300919062000304565b5090565b5b808211156200031f57600081600090555060010162000305565b5090565b600081519050620003348162000512565b92915050565b6000602082840312156200034d57600080fd5b60006200035d8482850162000323565b91505092915050565b600062000375601f83620003dd565b91506200038282620004e9565b602082019050919050565b62000398816200044b565b82525050565b60006020820190508181036000830152620003b98162000366565b9050919050565b6000602082019050620003d760008301846200038d565b92915050565b600082825260208201905092915050565b6000620003fb826200044b565b915062000408836200044b565b9250827fffffffffffffffffffffffffffffffffffffffffffffffffffffffffffffffff0382111562000440576200043f6200048b565b5b828201905092915050565b6000819050919050565b600060028204905060018216806200046e57607f821691505b60208210811415620004855762000484620004ba565b5b50919050565b7f4e487b7100000000000000000000000000000000000000000000000000000000600052601160045260246000fd5b7f4e487b7100000000000000000000000000000000000000000000000000000000600052602260045260246000fd5b7f45524332303a206d696e7420746f20746865207a65726f206164647265737300600082015250565b6200051d816200044b565b81146200052957600080fd5b50565b6115be806200053c6000396000f3fe608060405234801561001057600080fd5b50600436106100b45760003560e01c80633950935111610071578063395093511461018f57806370a08231146101bf57806395d89b41146101ef578063a457c2d71461020d578063a9059cbb1461023d578063dd62ed3e1461026d576100b4565b80630231ee26146100b957806306fdde03146100d5578063095ea7b3146100f357806318160ddd1461012357806323b872dd14610141578063313ce56714610171575b600080fd5b6100d360048036038101906100ce9190610e53565b61029d565b005b6100dd6102aa565b6040516100ea9190611015565b60405180910390f35b61010d60048036038101906101089190610e17565b61033c565b60405161011a9190610ffa565b60405180910390f35b61012b61035a565b6040516101389190611137565b60405180910390f35b61015b60048036038101906101569190610dc8565b610364565b6040516101689190610ffa565b60405180910390f35b61017961045c565b6040516101869190611152565b60405180910390f35b6101a960048036038101906101a49190610e17565b610465565b6040516101b69190610ffa565b60405180910390f35b6101d960048036038101906101d49190610d63565b610511565b6040516101e69190611137565b60405180910390f35b6101f7610559565b6040516102049190611015565b60405180910390f35b61022760048036038101906102229190610e17565b6105eb565b6040516102349190610ffa565b60405180910390f35b61025760048036038101906102529190610e17565b6106d6565b6040516102649190610ffa565b60405180910390f35b61028760048036038101906102829190610d8c565b6106f4565b6040516102949190611137565b60405180910390f35b6102a7338261077b565b50565b6060600380546102b990611267565b80601f01602080910402602001604051908101604052809291908181526020018280546102e590611267565b80156103325780601f1061030757610100808354040283529160200191610332565b820191906000526020600020905b81548152906001019060200180831161031557829003601f168201915b5050505050905090565b60006103506103496108db565b84846108e3565b6001905092915050565b6000600254905090565b6000610371848484610aae565b6000600160008673ffffffffffffffffffffffffffffffffffffffff1673ffffffffffffffffffffffffffffffffffffffff16815260200190815260200160002060006103bc6108db565b73ffffffffffffffffffffffffffffffffffffffff1673ffffffffffffffffffffffffffffffffffffffff1681526020019081526020016000205490508281101561043c576040517f08c379a000000000000000000000000000000000000000000000000000000000815260040161043390611097565b60405180910390fd5b610450856104486108db565b8584036108e3565b60019150509392505050565b60006012905090565b60006105076104726108db565b8484600160006104806108db565b73ffffffffffffffffffffffffffffffffffffffff1673ffffffffffffffffffffffffffffffffffffffff16815260200190815260200160002060008873ffffffffffffffffffffffffffffffffffffffff1673ffffffffffffffffffffffffffffffffffffffff168152602001908152602001600020546105029190611189565b6108e3565b6001905092915050565b60008060008373ffffffffffffffffffffffffffffffffffffffff1673ffffffffffffffffffffffffffffffffffffffff168152602001908152602001600020549050919050565b60606004805461056890611267565b80601f016020809104026020016040519081016040528092919081815260200182805461059490611267565b80156105e15780601f106105b6576101008083540402835291602001916105e1565b820191906000526020600020905b8154815290600101906020018083116105c457829003601f168201915b5050505050905090565b600080600160006105fa6108db565b73ffffffffffffffffffffffffffffffffffffffff1673ffffffffffffffffffffffffffffffffffffffff16815260200190815260200160002060008573ffffffffffffffffffffffffffffffffffffffff1673ffffffffffffffffffffffffffffffffffffffff168152602001908152602001600020549050828110156106b7576040517f08c379a00000000000000000000000000000000000000000000000000000000081526004016106ae906110f7565b60405180910390fd5b6106cb6106c26108db565b858584036108e3565b600191505092915050565b60006106ea6106e36108db565b8484610aae565b6001905092915050565b6000600160008473ffffffffffffffffffffffffffffffffffffffff1673ffffffffffffffffffffffffffffffffffffffff16815260200190815260200160002060008373ffffffffffffffffffffffffffffffffffffffff1673ffffffffffffffffffffffffffffffffffffffff16815260200190815260200160002054905092915050565b600073ffffffffffffffffffffffffffffffffffffffff168273ffffffffffffffffffffffffffffffffffffffff1614156107eb576040517f08c379a00000000000000000000000000000000000000000000000000000000081526004016107e290611117565b60405180910390fd5b6107f760008383610d2f565b80600260008282546108099190611189565b92505081905550806000808473ffffffffffffffffffffffffffffffffffffffff1673ffffffffffffffffffffffffffffffffffffffff168152602001908152602001600020600082825461085e9190611189565b925050819055508173ffffffffffffffffffffffffffffffffffffffff16600073ffffffffffffffffffffffffffffffffffffffff167fddf252ad1be2c89b69c2b068fc378daa952ba7f163c4a11628f55a4df523b3ef836040516108c39190611137565b60405180910390a36108d760008383610d34565b5050565b600033905090565b600073ffffffffffffffffffffffffffffffffffffffff168373ffffffffffffffffffffffffffffffffffffffff161415610953576040517f08c379a000000000000000000000000000000000000000000000000000000000815260040161094a906110d7565b60405180910390fd5b600073ffffffffffffffffffffffffffffffffffffffff168273ffffffffffffffffffffffffffffffffffffffff1614156109c3576040517f08c379a00000000000000000000000000000000000000000000000000000000081526004016109ba90611057565b60405180910390fd5b80600160008573ffffffffffffffffffffffffffffffffffffffff1673ffffffffffffffffffffffffffffffffffffffff16815260200190815260200160002060008473ffffffffffffffffffffffffffffffffffffffff1673ffffffffffffffffffffffffffffffffffffffff168152602001908152602001600020819055508173ffffffffffffffffffffffffffffffffffffffff168373ffffffffffffffffffffffffffffffffffffffff167f8c5be1e5ebec7d5bd14f71427d1e84f3dd0314c0f7b2291e5b200ac8c7c3b92583604051610aa19190611137565b60405180910390a3505050565b600073ffffffffffffffffffffffffffffffffffffffff168373ffffffffffffffffffffffffffffffffffffffff161415610b1e576040517f08c379a0000000000000000000000000000000000000000000000000000000008152600401610b15906110b7565b60405180910390fd5b600073ffffffffffffffffffffffffffffffffffffffff168273ffffffffffffffffffffffffffffffffffffffff161415610b8e576040517f08c379a0000000000000000000000000000000000000000000000000000000008152600401610b8590611037565b60405180910390fd5b610b99838383610d2f565b60008060008573ffffffffffffffffffffffffffffffffffffffff1673ffffffffffffffffffffffffffffffffffffffff16815260200190815260200160002054905081811015610c1f576040517f08c379a0000000000000000000000000000000000000000000000000000000008152600401610c1690611077565b60405180910390fd5b8181036000808673ffffffffffffffffffffffffffffffffffffffff1673ffffffffffffffffffffffffffffffffffffffff16815260200190815260200160002081905550816000808573ffffffffffffffffffffffffffffffffffffffff1673ffffffffffffffffffffffffffffffffffffffff1681526020019081526020016000206000828254610cb29190611189565b925050819055508273ffffffffffffffffffffffffffffffffffffffff168473ffffffffffffffffffffffffffffffffffffffff167fddf252ad1be2c89b69c2b068fc378daa952ba7f163c4a11628f55a4df523b3ef84604051610d169190611137565b60405180910390a3610d29848484610d34565b50505050565b505050565b505050565b600081359050610d488161155a565b92915050565b600081359050610d5d81611571565b92915050565b600060208284031215610d7557600080fd5b6000610d8384828501610d39565b91505092915050565b60008060408385031215610d9f57600080fd5b6000610dad85828601610d39565b9250506020610dbe85828601610d39565b9150509250929050565b600080600060608486031215610ddd57600080fd5b6000610deb86828701610d39565b9350506020610dfc86828701610d39565b9250506040610e0d86828701610d4e565b9150509250925092565b60008060408385031215610e2a57600080fd5b6000610e3885828601610d39565b9250506020610e4985828601610d4e565b9150509250929050565b600060208284031215610e6557600080fd5b6000610e7384828501610d4e565b91505092915050565b610e85816111f1565b82525050565b6000610e968261116d565b610ea08185611178565b9350610eb0818560208601611234565b610eb9816112f7565b840191505092915050565b6000610ed1602383611178565b9150610edc82611308565b604082019050919050565b6000610ef4602283611178565b9150610eff82611357565b604082019050919050565b6000610f17602683611178565b9150610f22826113a6565b604082019050919050565b6000610f3a602883611178565b9150610f45826113f5565b604082019050919050565b6000610f5d602583611178565b9150610f6882611444565b604082019050919050565b6000610f80602483611178565b9150610f8b82611493565b604082019050919050565b6000610fa3602583611178565b9150610fae826114e2565b604082019050919050565b6000610fc6601f83611178565b9150610fd182611531565b602082019050919050565b610fe58161121d565b82525050565b610ff481611227565b82525050565b600060208201905061100f6000830184610e7c565b92915050565b6000602082019050818103600083015261102f8184610e8b565b905092915050565b6000602082019050818103600083015261105081610ec4565b9050919050565b6000602082019050818103600083015261107081610ee7565b9050919050565b6000602082019050818103600083015261109081610f0a565b9050919050565b600060208201905081810360008301526110b081610f2d565b9050919050565b600060208201905081810360008301526110d081610f50565b9050919050565b600060208201905081810360008301526110f081610f73565b9050919050565b6000602082019050818103600083015261111081610f96565b9050919050565b6000602082019050818103600083015261113081610fb9565b9050919050565b600060208201905061114c6000830184610fdc565b92915050565b60006020820190506111676000830184610feb565b92915050565b600081519050919050565b600082825260208201905092915050565b60006111948261121d565b915061119f8361121d565b9250827fffffffffffffffffffffffffffffffffffffffffffffffffffffffffffffffff038211156111d4576111d3611299565b5b828201905092915050565b60006111ea826111fd565b9050919050565b60008115159050919050565b600073ffffffffffffffffffffffffffffffffffffffff82169050919050565b6000819050919050565b600060ff82169050919050565b60005b83811015611252578082015181840152602081019050611237565b83811115611261576000848401525b50505050565b6000600282049050600182168061127f57607f821691505b60208210811415611293576112926112c8565b5b50919050565b7f4e487b7100000000000000000000000000000000000000000000000000000000600052601160045260246000fd5b7f4e487b7100000000000000000000000000000000000000000000000000000000600052602260045260246000fd5b6000601f19601f8301169050919050565b7f45524332303a207472616e7366657220746f20746865207a65726f206164647260008201527f6573730000000000000000000000000000000000000000000000000000000000602082015250565b7f45524332303a20617070726f766520746f20746865207a65726f20616464726560008201527f7373000000000000000000000000000000000000000000000000000000000000602082015250565b7f45524332303a207472616e7366657220616d6f756e742065786365656473206260008201527f616c616e63650000000000000000000000000000000000000000000000000000602082015250565b7f45524332303a207472616e7366657220616d6f756e742065786365656473206160008201527f6c6c6f77616e6365000000000000000000000000000000000000000000000000602082015250565b7f45524332303a207472616e736665722066726f6d20746865207a65726f20616460008201527f6472657373000000000000000000000000000000000000000000000000000000602082015250565b7f45524332303a20617070726f76652066726f6d20746865207a65726f2061646460008201527f7265737300000000000000000000000000000000000000000000000000000000602082015250565b7f45524332303a2064656372656173656420616c6c6f77616e63652062656c6f7760008201527f207a65726f000000000000000000000000000000000000000000000000000000602082015250565b7f45524332303a206d696e7420746f20746865207a65726f206164647265737300600082015250565b611563816111df565b811461156e57600080fd5b50565b61157a8161121d565b811461158557600080fd5b5056fea2646970667358221220ae8e34a3e898ec8321e404d8fe0e75619bc969c7b9842ce5313da5df34056fbc64736f6c63430008040033",
  "linkReferences": {},
  "deployedLinkReferences": {}
}