{
  "_format": "hh-sol-artifact-1",
  "contractName": "XChainVault",
  "sourceName": "contracts/XChainVault.sol",
  "abi": [
    {
      "inputs": [
        {
          "internalType": "address",
          "name": "oracle",
          "type": "address"
        },
        {
          "internalType": "uint256",
          "name": "_chainId",
          "type": "uint256"
        }
      ],
      "stateMutability": "nonpayable",
      "type": "constructor"
    },
    {
      "anonymous": false,
      "inputs": [
        {
          "indexed": true,
          "internalType": "bytes32",
          "name": "role",
          "type": "bytes32"
        },
        {
          "indexed": true,
          "internalType": "bytes32",
          "name": "previousAdminRole",
          "type": "bytes32"
        },
        {
          "indexed": true,
          "internalType": "bytes32",
          "name": "newAdminRole",
          "type": "bytes32"
        }
      ],
      "name": "RoleAdminChanged",
      "type": "event"
    },
    {
      "anonymous": false,
      "inputs": [
        {
          "indexed": true,
          "internalType": "bytes32",
          "name": "role",
          "type": "bytes32"
        },
        {
          "indexed": true,
          "internalType": "address",
          "name": "account",
          "type": "address"
        },
        {
          "indexed": true,
          "internalType": "address",
          "name": "sender",
          "type": "address"
        }
      ],
      "name": "RoleGranted",
      "type": "event"
    },
    {
      "anonymous": false,
      "inputs": [
        {
          "indexed": true,
          "internalType": "bytes32",
          "name": "role",
          "type": "bytes32"
        },
        {
          "indexed": true,
          "internalType": "address",
          "name": "account",
          "type": "address"
        },
        {
          "indexed": true,
          "internalType": "address",
          "name": "sender",
          "type": "address"
        }
      ],
      "name": "RoleRevoked",
      "type": "event"
    },
    {
      "anonymous": false,
      "inputs": [
        {
          "indexed": false,
          "internalType": "address",
          "name": "from",
          "type": "address"
        },
        {
          "indexed": false,
          "internalType": "uint256",
          "name": "tokenId",
          "type": "uint256"
        },
        {
          "indexed": false,
          "internalType": "uint256",
          "name": "xChainInternalId",
          "type": "uint256"
        },
        {
          "indexed": false,
          "internalType": "address",
          "name": "nftAddr",
          "type": "address"
        },
        {
          "indexed": false,
          "internalType": "uint256",
          "name": "chainId",
          "type": "uint256"
        }
      ],
      "name": "XChainRecieved",
      "type": "event"
    },
    {
      "anonymous": false,
      "inputs": [
        {
          "indexed": false,
          "internalType": "address",
          "name": "to",
          "type": "address"
        },
        {
          "indexed": false,
          "internalType": "uint256",
          "name": "tokenId",
          "type": "uint256"
        },
        {
          "indexed": false,
          "internalType": "uint256",
          "name": "xChainInternalId",
          "type": "uint256"
        },
        {
          "indexed": false,
          "internalType": "address",
          "name": "nftAddr",
          "type": "address"
        },
        {
          "indexed": false,
          "internalType": "uint256",
          "name": "chainId",
          "type": "uint256"
        }
      ],
      "name": "XChainReleased",
      "type": "event"
    },
    {
      "inputs": [],
      "name": "DEFAULT_ADMIN_ROLE",
      "outputs": [
        {
          "internalType": "bytes32",
          "name": "",
          "type": "bytes32"
        }
      ],
      "stateMutability": "view",
      "type": "function"
    },
    {
      "inputs": [],
      "name": "ORACLE_ROLE",
      "outputs": [
        {
          "internalType": "bytes32",
          "name": "",
          "type": "bytes32"
        }
      ],
      "stateMutability": "view",
      "type": "function"
    },
    {
      "inputs": [],
      "name": "OWNER",
      "outputs": [
        {
          "internalType": "bytes32",
          "name": "",
          "type": "bytes32"
        }
      ],
      "stateMutability": "view",
      "type": "function"
    },
    {
      "inputs": [
        {
          "internalType": "uint256",
          "name": "internalId",
          "type": "uint256"
        }
      ],
      "name": "getERC721ContractAddr",
      "outputs": [
        {
          "internalType": "address",
          "name": "",
          "type": "address"
        }
      ],
      "stateMutability": "view",
      "type": "function"
    },
    {
      "inputs": [
        {
          "internalType": "uint256",
          "name": "internalId",
          "type": "uint256"
        }
      ],
      "name": "getERC721TokenId",
      "outputs": [
        {
          "internalType": "uint256",
          "name": "",
          "type": "uint256"
        }
      ],
      "stateMutability": "view",
      "type": "function"
    },
    {
      "inputs": [],
      "name": "getInternalIdCounter",
      "outputs": [
        {
          "internalType": "uint256",
          "name": "",
          "type": "uint256"
        }
      ],
      "stateMutability": "view",
      "type": "function"
    },
    {
      "inputs": [
        {
          "internalType": "address",
          "name": "account",
          "type": "address"
        }
      ],
      "name": "getNumIdsOwned",
      "outputs": [
        {
          "internalType": "uint256",
          "name": "",
          "type": "uint256"
        }
      ],
      "stateMutability": "view",
      "type": "function"
    },
    {
      "inputs": [],
      "name": "getNumberDepositedERC721s",
      "outputs": [
        {
          "internalType": "uint256",
          "name": "",
          "type": "uint256"
        }
      ],
      "stateMutability": "view",
      "type": "function"
    },
    {
      "inputs": [
        {
          "internalType": "uint256",
          "name": "internalId",
          "type": "uint256"
        }
      ],
      "name": "getOwned",
      "outputs": [
        {
          "internalType": "bool",
          "name": "",
          "type": "bool"
        }
      ],
      "stateMutability": "view",
      "type": "function"
    },
    {
      "inputs": [
        {
          "internalType": "address",
          "name": "account",
          "type": "address"
        }
      ],
      "name": "getOwnedInternalIds",
      "outputs": [
        {
          "internalType": "uint256[]",
          "name": "",
          "type": "uint256[]"
        }
      ],
      "stateMutability": "view",
      "type": "function"
    },
    {
      "inputs": [
        {
          "internalType": "bytes32",
          "name": "role",
          "type": "bytes32"
        }
      ],
      "name": "getRoleAdmin",
      "outputs": [
        {
          "internalType": "bytes32",
          "name": "",
          "type": "bytes32"
        }
      ],
      "stateMutability": "view",
      "type": "function"
    },
    {
      "inputs": [
        {
          "internalType": "address",
          "name": "account",
          "type": "address"
        }
      ],
      "name": "grantOracle",
      "outputs": [],
      "stateMutability": "nonpayable",
      "type": "function"
    },
    {
      "inputs": [
        {
          "internalType": "bytes32",
          "name": "role",
          "type": "bytes32"
        },
        {
          "internalType": "address",
          "name": "account",
          "type": "address"
        }
      ],
      "name": "grantRole",
      "outputs": [],
      "stateMutability": "nonpayable",
      "type": "function"
    },
    {
      "inputs": [
        {
          "internalType": "bytes32",
          "name": "role",
          "type": "bytes32"
        },
        {
          "internalType": "address",
          "name": "account",
          "type": "address"
        }
      ],
      "name": "hasRole",
      "outputs": [
        {
          "internalType": "bool",
          "name": "",
          "type": "bool"
        }
      ],
      "stateMutability": "view",
      "type": "function"
    },
    {
      "inputs": [
        {
          "internalType": "address",
          "name": "operator",
          "type": "address"
        },
        {
          "internalType": "address",
          "name": "from",
          "type": "address"
        },
        {
          "internalType": "uint256",
          "name": "tokenId",
          "type": "uint256"
        },
        {
          "internalType": "bytes",
          "name": "data",
          "type": "bytes"
        }
      ],
      "name": "onERC721Received",
      "outputs": [
        {
          "internalType": "bytes4",
          "name": "",
          "type": "bytes4"
        }
      ],
      "stateMutability": "nonpayable",
      "type": "function"
    },
    {
      "inputs": [
        {
          "internalType": "address",
          "name": "to",
          "type": "address"
        },
        {
          "internalType": "uint256",
          "name": "internalId",
          "type": "uint256"
        }
      ],
      "name": "releaseNFT",
      "outputs": [],
      "stateMutability": "nonpayable",
      "type": "function"
    },
    {
      "inputs": [
        {
          "internalType": "bytes32",
          "name": "role",
          "type": "bytes32"
        },
        {
          "internalType": "address",
          "name": "account",
          "type": "address"
        }
      ],
      "name": "renounceRole",
      "outputs": [],
      "stateMutability": "nonpayable",
      "type": "function"
    },
    {
      "inputs": [
        {
          "internalType": "bytes32",
          "name": "role",
          "type": "bytes32"
        },
        {
          "internalType": "address",
          "name": "account",
          "type": "address"
        }
      ],
      "name": "revokeRole",
      "outputs": [],
      "stateMutability": "nonpayable",
      "type": "function"
    },
    {
      "inputs": [
        {
          "internalType": "bytes4",
          "name": "interfaceId",
          "type": "bytes4"
        }
      ],
      "name": "supportsInterface",
      "outputs": [
        {
          "internalType": "bool",
          "name": "",
          "type": "bool"
        }
      ],
      "stateMutability": "view",
      "type": "function"
    }
  ],
  "bytecode": "0x608060405260006001553480156200001657600080fd5b506040516200235f3803806200235f83398181016040528101906200003c91906200032a565b80600281905550620000757f6270edb7c868f86fda4adedba75108201087268ea345934db8bad688e1feb91b336200010160201b60201c565b620000c77f68e79a7bf1e0bc45d0a330c573bc367f9cf464fd326078812f301165fbda4ef17f6270edb7c868f86fda4adedba75108201087268ea345934db8bad688e1feb91b6200011760201b60201c565b620000f97f68e79a7bf1e0bc45d0a330c573bc367f9cf464fd326078812f301165fbda4ef1836200010160201b60201c565b5050620003dd565b6200011382826200017a60201b60201c565b5050565b60006200012a836200026b60201b60201c565b905081600080858152602001908152602001600020600101819055508181847fbd79b86ffe0ab8e8776151514217cd7cacd52c909f66475c3af44e129f0b00ff60405160405180910390a4505050565b6200018c82826200028a60201b60201c565b6200026757600160008084815260200190815260200160002060000160008373ffffffffffffffffffffffffffffffffffffffff1673ffffffffffffffffffffffffffffffffffffffff16815260200190815260200160002060006101000a81548160ff0219169083151502179055506200020c620002f460201b60201c565b73ffffffffffffffffffffffffffffffffffffffff168173ffffffffffffffffffffffffffffffffffffffff16837f2f8788117e7eff1d82e926ec794901d17c78024a50270940304540a733656f0d60405160405180910390a45b5050565b6000806000838152602001908152602001600020600101549050919050565b600080600084815260200190815260200160002060000160008373ffffffffffffffffffffffffffffffffffffffff1673ffffffffffffffffffffffffffffffffffffffff16815260200190815260200160002060009054906101000a900460ff16905092915050565b600033905090565b6000815190506200030d81620003a9565b92915050565b6000815190506200032481620003c3565b92915050565b600080604083850312156200033e57600080fd5b60006200034e85828601620002fc565b9250506020620003618582860162000313565b9150509250929050565b600062000378826200037f565b9050919050565b600073ffffffffffffffffffffffffffffffffffffffff82169050919050565b6000819050919050565b620003b4816200036b565b8114620003c057600080fd5b50565b620003ce816200039f565b8114620003da57600080fd5b50565b611f7280620003ed6000396000f3fe608060405234801561001057600080fd5b50600436106101215760003560e01c806340aa97ec116100ad578063a919b74a11610071578063a919b74a14610356578063b7cebb3e14610386578063be7a1789146103a4578063c6f84afa146103c0578063d547741f146103dc57610121565b806340aa97ec14610278578063742f23c7146102a857806380168c7b146102d857806391d1485414610308578063a217fddf1461033857610121565b8063150b7a02116100f4578063150b7a02146101c2578063248a9ca3146101f25780632f2ff15d1461022257806336568abe1461023e578063397bafd61461025a57610121565b806301ffc9a71461012657806307e2cea514610156578063102af74814610174578063117803e3146101a4575b600080fd5b610140600480360381019061013b91906116c2565b6103f8565b60405161014d91906119db565b60405180910390f35b61015e610472565b60405161016b91906119f6565b60405180910390f35b61018e6004803603810190610189919061157d565b610496565b60405161019b91906119b9565b60405180910390f35b6101ac6106eb565b6040516101b991906119f6565b60405180910390f35b6101dc60048036038101906101d791906115a6565b61070f565b6040516101e99190611a11565b60405180910390f35b61020c6004803603810190610207919061165d565b610a22565b60405161021991906119f6565b60405180910390f35b61023c60048036038101906102379190611686565b610a41565b005b61025860048036038101906102539190611686565b610a6a565b005b610262610aed565b60405161026f9190611a8e565b60405180910390f35b610292600480360381019061028d919061157d565b610b02565b60405161029f9190611a8e565b60405180910390f35b6102c260048036038101906102bd91906116eb565b610b4b565b6040516102cf9190611914565b60405180910390f35b6102f260048036038101906102ed91906116eb565b610b8b565b6040516102ff9190611a8e565b60405180910390f35b610322600480360381019061031d9190611686565b610bab565b60405161032f91906119db565b60405180910390f35b610340610c15565b60405161034d91906119f6565b60405180910390f35b610370600480360381019061036b91906116eb565b610c1c565b60405161037d91906119db565b60405180910390f35b61038e610c49565b60405161039b9190611a8e565b60405180910390f35b6103be60048036038101906103b9919061157d565b610c53565b005b6103da60048036038101906103d59190611621565b610cb3565b005b6103f660048036038101906103f19190611686565b610e4d565b005b60007f7965db0b000000000000000000000000000000000000000000000000000000007bffffffffffffffffffffffffffffffffffffffffffffffffffffffff1916827bffffffffffffffffffffffffffffffffffffffffffffffffffffffff1916148061046b575061046a82610e76565b5b9050919050565b7f68e79a7bf1e0bc45d0a330c573bc367f9cf464fd326078812f301165fbda4ef181565b606060006104a383610b02565b905060008167ffffffffffffffff8111156104e7577f4e487b7100000000000000000000000000000000000000000000000000000000600052604160045260246000fd5b6040519080825280602002602001820160405280156105155781602001602082028036833780820191505090505b5090506000805b600460008773ffffffffffffffffffffffffffffffffffffffff1673ffffffffffffffffffffffffffffffffffffffff168152602001908152602001600020805490508110156106df576105f0600460008873ffffffffffffffffffffffffffffffffffffffff1673ffffffffffffffffffffffffffffffffffffffff16815260200190815260200160002082815481106105e0577f4e487b7100000000000000000000000000000000000000000000000000000000600052603260045260246000fd5b9060005260206000200154610c1c565b156106cc57600460008773ffffffffffffffffffffffffffffffffffffffff1673ffffffffffffffffffffffffffffffffffffffff168152602001908152602001600020818154811061066c577f4e487b7100000000000000000000000000000000000000000000000000000000600052603260045260246000fd5b90600052602060002001548383815181106106b0577f4e487b7100000000000000000000000000000000000000000000000000000000600052603260045260246000fd5b6020026020010181815250506001826106c99190611b5f565b91505b80806106d790611d5e565b91505061051c565b50819350505050919050565b7f6270edb7c868f86fda4adedba75108201087268ea345934db8bad688e1feb91b81565b6000610719611440565b60015481600001818152505033816020019073ffffffffffffffffffffffffffffffffffffffff16908173ffffffffffffffffffffffffffffffffffffffff168152505084816060019073ffffffffffffffffffffffffffffffffffffffff16908173ffffffffffffffffffffffffffffffffffffffff16815250508381604001818152505060018160c0019015159081151581525050806003600060015481526020019081526020016000206000820151816000015560208201518160010160006101000a81548173ffffffffffffffffffffffffffffffffffffffff021916908373ffffffffffffffffffffffffffffffffffffffff1602179055506040820151816002015560608201518160030160006101000a81548173ffffffffffffffffffffffffffffffffffffffff021916908373ffffffffffffffffffffffffffffffffffffffff16021790555060808201518160040160006101000a81548173ffffffffffffffffffffffffffffffffffffffff021916908373ffffffffffffffffffffffffffffffffffffffff16021790555060a0820151816005015560c08201518160060160006101000a81548160ff02191690831515021790555090505060046000826020015173ffffffffffffffffffffffffffffffffffffffff1673ffffffffffffffffffffffffffffffffffffffff16815260200190815260200160002081600001519080600181540180825580915050600190039060005260206000200160009091909190915055600160056000836020015173ffffffffffffffffffffffffffffffffffffffff1673ffffffffffffffffffffffffffffffffffffffff168152602001908152602001600020600082825461099e9190611b5f565b925050819055507f7a793f6fe3ce75cfdabba3e7559e6e3feb566e356281daf9c0f65f6689b312a781606001518260400151836000015184602001516002546040516109ee959493929190611966565b60405180910390a16001806000828254610a089190611b5f565b9250508190555063150b7a0260e01b915050949350505050565b6000806000838152602001908152602001600020600101549050919050565b610a4a82610a22565b610a5b81610a56610ee0565b610ee8565b610a658383610f85565b505050565b610a72610ee0565b73ffffffffffffffffffffffffffffffffffffffff168173ffffffffffffffffffffffffffffffffffffffff1614610adf576040517f08c379a0000000000000000000000000000000000000000000000000000000008152600401610ad690611a6e565b60405180910390fd5b610ae98282611065565b5050565b600060018054610afd9190611c0f565b905090565b6000600560008373ffffffffffffffffffffffffffffffffffffffff1673ffffffffffffffffffffffffffffffffffffffff168152602001908152602001600020549050919050565b60006003600083815260200190815260200160002060010160009054906101000a900473ffffffffffffffffffffffffffffffffffffffff169050919050565b600060036000838152602001908152602001600020600201549050919050565b600080600084815260200190815260200160002060000160008373ffffffffffffffffffffffffffffffffffffffff1673ffffffffffffffffffffffffffffffffffffffff16815260200190815260200160002060009054906101000a900460ff16905092915050565b6000801b81565b60006003600083815260200190815260200160002060060160009054906101000a900460ff169050919050565b6000600154905090565b7f6270edb7c868f86fda4adedba75108201087268ea345934db8bad688e1feb91b610c8581610c80610ee0565b610ee8565b610caf7f68e79a7bf1e0bc45d0a330c573bc367f9cf464fd326078812f301165fbda4ef183610f85565b5050565b7f68e79a7bf1e0bc45d0a330c573bc367f9cf464fd326078812f301165fbda4ef1610ce581610ce0610ee0565b610ee8565b6000610cf083610b4b565b90508073ffffffffffffffffffffffffffffffffffffffff166323b872dd3086610d1987610b8b565b6040518463ffffffff1660e01b8152600401610d379392919061192f565b600060405180830381600087803b158015610d5157600080fd5b505af1158015610d65573d6000803e3d6000fd5b505050506001600560006003600087815260200190815260200160002060030160009054906101000a900473ffffffffffffffffffffffffffffffffffffffff1673ffffffffffffffffffffffffffffffffffffffff1673ffffffffffffffffffffffffffffffffffffffff1681526020019081526020016000206000828254610def9190611c0f565b925050819055507fb24f26c91b2b2905bad20b638461087d173c368e3151d7ebc945b35af20df7eb84610e2185610b8b565b85610e2b87610b4b565b600254604051610e3f959493929190611966565b60405180910390a150505050565b610e5682610a22565b610e6781610e62610ee0565b610ee8565b610e718383611065565b505050565b60007f01ffc9a7000000000000000000000000000000000000000000000000000000007bffffffffffffffffffffffffffffffffffffffffffffffffffffffff1916827bffffffffffffffffffffffffffffffffffffffffffffffffffffffff1916149050919050565b600033905090565b610ef28282610bab565b610f8157610f178173ffffffffffffffffffffffffffffffffffffffff166014611146565b610f258360001c6020611146565b604051602001610f369291906118da565b6040516020818303038152906040526040517f08c379a0000000000000000000000000000000000000000000000000000000008152600401610f789190611a2c565b60405180910390fd5b5050565b610f8f8282610bab565b61106157600160008084815260200190815260200160002060000160008373ffffffffffffffffffffffffffffffffffffffff1673ffffffffffffffffffffffffffffffffffffffff16815260200190815260200160002060006101000a81548160ff021916908315150217905550611006610ee0565b73ffffffffffffffffffffffffffffffffffffffff168173ffffffffffffffffffffffffffffffffffffffff16837f2f8788117e7eff1d82e926ec794901d17c78024a50270940304540a733656f0d60405160405180910390a45b5050565b61106f8282610bab565b1561114257600080600084815260200190815260200160002060000160008373ffffffffffffffffffffffffffffffffffffffff1673ffffffffffffffffffffffffffffffffffffffff16815260200190815260200160002060006101000a81548160ff0219169083151502179055506110e7610ee0565b73ffffffffffffffffffffffffffffffffffffffff168173ffffffffffffffffffffffffffffffffffffffff16837ff6391f5c32d9c69d2a47ea670b442974b53935d1edc7fd64eb21e047a839171b60405160405180910390a45b5050565b6060600060028360026111599190611bb5565b6111639190611b5f565b67ffffffffffffffff8111156111a2577f4e487b7100000000000000000000000000000000000000000000000000000000600052604160045260246000fd5b6040519080825280601f01601f1916602001820160405280156111d45781602001600182028036833780820191505090505b5090507f300000000000000000000000000000000000000000000000000000000000000081600081518110611232577f4e487b7100000000000000000000000000000000000000000000000000000000600052603260045260246000fd5b60200101907effffffffffffffffffffffffffffffffffffffffffffffffffffffffffffff1916908160001a9053507f7800000000000000000000000000000000000000000000000000000000000000816001815181106112bc577f4e487b7100000000000000000000000000000000000000000000000000000000600052603260045260246000fd5b60200101907effffffffffffffffffffffffffffffffffffffffffffffffffffffffffffff1916908160001a905350600060018460026112fc9190611bb5565b6113069190611b5f565b90505b60018111156113f2577f3031323334353637383961626364656600000000000000000000000000000000600f86166010811061136e577f4e487b7100000000000000000000000000000000000000000000000000000000600052603260045260246000fd5b1a60f81b8282815181106113ab577f4e487b7100000000000000000000000000000000000000000000000000000000600052603260045260246000fd5b60200101907effffffffffffffffffffffffffffffffffffffffffffffffffffffffffffff1916908160001a905350600485901c9450806113eb90611d03565b9050611309565b5060008414611436576040517f08c379a000000000000000000000000000000000000000000000000000000000815260040161142d90611a4e565b60405180910390fd5b8091505092915050565b6040518060e0016040528060008152602001600073ffffffffffffffffffffffffffffffffffffffff16815260200160008152602001600073ffffffffffffffffffffffffffffffffffffffff168152602001600073ffffffffffffffffffffffffffffffffffffffff168152602001600081526020016000151581525090565b60006114d46114cf84611ace565b611aa9565b9050828152602081018484840111156114ec57600080fd5b6114f7848285611cc1565b509392505050565b60008135905061150e81611ee0565b92915050565b60008135905061152381611ef7565b92915050565b60008135905061153881611f0e565b92915050565b600082601f83011261154f57600080fd5b813561155f8482602086016114c1565b91505092915050565b60008135905061157781611f25565b92915050565b60006020828403121561158f57600080fd5b600061159d848285016114ff565b91505092915050565b600080600080608085870312156115bc57600080fd5b60006115ca878288016114ff565b94505060206115db878288016114ff565b93505060406115ec87828801611568565b925050606085013567ffffffffffffffff81111561160957600080fd5b6116158782880161153e565b91505092959194509250565b6000806040838503121561163457600080fd5b6000611642858286016114ff565b925050602061165385828601611568565b9150509250929050565b60006020828403121561166f57600080fd5b600061167d84828501611514565b91505092915050565b6000806040838503121561169957600080fd5b60006116a785828601611514565b92505060206116b8858286016114ff565b9150509250929050565b6000602082840312156116d457600080fd5b60006116e284828501611529565b91505092915050565b6000602082840312156116fd57600080fd5b600061170b84828501611568565b91505092915050565b600061172083836118bc565b60208301905092915050565b61173581611c43565b82525050565b600061174682611b0f565b6117508185611b32565b935061175b83611aff565b8060005b8381101561178c5781516117738882611714565b975061177e83611b25565b92505060018101905061175f565b5085935050505092915050565b6117a281611c55565b82525050565b6117b181611c61565b82525050565b6117c081611c6b565b82525050565b60006117d182611b1a565b6117db8185611b43565b93506117eb818560208601611cd0565b6117f481611e05565b840191505092915050565b600061180a82611b1a565b6118148185611b54565b9350611824818560208601611cd0565b80840191505092915050565b600061183d602083611b43565b915061184882611e16565b602082019050919050565b6000611860601783611b54565b915061186b82611e3f565b601782019050919050565b6000611883601183611b54565b915061188e82611e68565b601182019050919050565b60006118a6602f83611b43565b91506118b182611e91565b604082019050919050565b6118c581611cb7565b82525050565b6118d481611cb7565b82525050565b60006118e582611853565b91506118f182856117ff565b91506118fc82611876565b915061190882846117ff565b91508190509392505050565b6000602082019050611929600083018461172c565b92915050565b6000606082019050611944600083018661172c565b611951602083018561172c565b61195e60408301846118cb565b949350505050565b600060a08201905061197b600083018861172c565b61198860208301876118cb565b61199560408301866118cb565b6119a2606083018561172c565b6119af60808301846118cb565b9695505050505050565b600060208201905081810360008301526119d3818461173b565b905092915050565b60006020820190506119f06000830184611799565b92915050565b6000602082019050611a0b60008301846117a8565b92915050565b6000602082019050611a2660008301846117b7565b92915050565b60006020820190508181036000830152611a4681846117c6565b905092915050565b60006020820190508181036000830152611a6781611830565b9050919050565b60006020820190508181036000830152611a8781611899565b9050919050565b6000602082019050611aa360008301846118cb565b92915050565b6000611ab3611ac4565b9050611abf8282611d2d565b919050565b6000604051905090565b600067ffffffffffffffff821115611ae957611ae8611dd6565b5b611af282611e05565b9050602081019050919050565b6000819050602082019050919050565b600081519050919050565b600081519050919050565b6000602082019050919050565b600082825260208201905092915050565b600082825260208201905092915050565b600081905092915050565b6000611b6a82611cb7565b9150611b7583611cb7565b9250827fffffffffffffffffffffffffffffffffffffffffffffffffffffffffffffffff03821115611baa57611ba9611da7565b5b828201905092915050565b6000611bc082611cb7565b9150611bcb83611cb7565b9250817fffffffffffffffffffffffffffffffffffffffffffffffffffffffffffffffff0483118215151615611c0457611c03611da7565b5b828202905092915050565b6000611c1a82611cb7565b9150611c2583611cb7565b925082821015611c3857611c37611da7565b5b828203905092915050565b6000611c4e82611c97565b9050919050565b60008115159050919050565b6000819050919050565b60007fffffffff0000000000000000000000000000000000000000000000000000000082169050919050565b600073ffffffffffffffffffffffffffffffffffffffff82169050919050565b6000819050919050565b82818337600083830152505050565b60005b83811015611cee578082015181840152602081019050611cd3565b83811115611cfd576000848401525b50505050565b6000611d0e82611cb7565b91506000821415611d2257611d21611da7565b5b600182039050919050565b611d3682611e05565b810181811067ffffffffffffffff82111715611d5557611d54611dd6565b5b80604052505050565b6000611d6982611cb7565b91507fffffffffffffffffffffffffffffffffffffffffffffffffffffffffffffffff821415611d9c57611d9b611da7565b5b600182019050919050565b7f4e487b7100000000000000000000000000000000000000000000000000000000600052601160045260246000fd5b7f4e487b7100000000000000000000000000000000000000000000000000000000600052604160045260246000fd5b6000601f19601f8301169050919050565b7f537472696e67733a20686578206c656e67746820696e73756666696369656e74600082015250565b7f416363657373436f6e74726f6c3a206163636f756e7420000000000000000000600082015250565b7f206973206d697373696e6720726f6c6520000000000000000000000000000000600082015250565b7f416363657373436f6e74726f6c3a2063616e206f6e6c792072656e6f756e636560008201527f20726f6c657320666f722073656c660000000000000000000000000000000000602082015250565b611ee981611c43565b8114611ef457600080fd5b50565b611f0081611c61565b8114611f0b57600080fd5b50565b611f1781611c6b565b8114611f2257600080fd5b50565b611f2e81611cb7565b8114611f3957600080fd5b5056fea2646970667358221220c53b570e1835a27f167ad3f22ab490b8c0e7fcd4378e9876c12037c06ff0dd6664736f6c63430008040033",
  "linkReferences": {},
  "deployedLinkReferences": {}
}