{
  "_format": "hh-sol-artifact-1",
  "contractName": "XChainVault",
  "sourceName": "contracts/XChainVault.sol",
  "abi": [
    {
      "inputs": [
        {
          "internalType": "address",
          "name": "oracle",
          "type": "address"
        },
        {
          "internalType": "string",
          "name": "_chain",
          "type": "string"
        }
      ],
      "stateMutability": "nonpayable",
      "type": "constructor"
    },
    {
      "anonymous": false,
      "inputs": [
        {
          "indexed": true,
          "internalType": "bytes32",
          "name": "role",
          "type": "bytes32"
        },
        {
          "indexed": true,
          "internalType": "bytes32",
          "name": "previousAdminRole",
          "type": "bytes32"
        },
        {
          "indexed": true,
          "internalType": "bytes32",
          "name": "newAdminRole",
          "type": "bytes32"
        }
      ],
      "name": "RoleAdminChanged",
      "type": "event"
    },
    {
      "anonymous": false,
      "inputs": [
        {
          "indexed": true,
          "internalType": "bytes32",
          "name": "role",
          "type": "bytes32"
        },
        {
          "indexed": true,
          "internalType": "address",
          "name": "account",
          "type": "address"
        },
        {
          "indexed": true,
          "internalType": "address",
          "name": "sender",
          "type": "address"
        }
      ],
      "name": "RoleGranted",
      "type": "event"
    },
    {
      "anonymous": false,
      "inputs": [
        {
          "indexed": true,
          "internalType": "bytes32",
          "name": "role",
          "type": "bytes32"
        },
        {
          "indexed": true,
          "internalType": "address",
          "name": "account",
          "type": "address"
        },
        {
          "indexed": true,
          "internalType": "address",
          "name": "sender",
          "type": "address"
        }
      ],
      "name": "RoleRevoked",
      "type": "event"
    },
    {
      "anonymous": false,
      "inputs": [
        {
          "indexed": false,
          "internalType": "address",
          "name": "from",
          "type": "address"
        },
        {
          "indexed": false,
          "internalType": "uint256",
          "name": "tokenId",
          "type": "uint256"
        },
        {
          "indexed": false,
          "internalType": "uint256",
          "name": "internalId",
          "type": "uint256"
        },
        {
          "indexed": false,
          "internalType": "address",
          "name": "nftAddr",
          "type": "address"
        },
        {
          "indexed": false,
          "internalType": "string",
          "name": "chain",
          "type": "string"
        }
      ],
      "name": "XChainRecieved",
      "type": "event"
    },
    {
      "anonymous": false,
      "inputs": [
        {
          "indexed": false,
          "internalType": "address",
          "name": "to",
          "type": "address"
        },
        {
          "indexed": false,
          "internalType": "uint256",
          "name": "tokenId",
          "type": "uint256"
        },
        {
          "indexed": false,
          "internalType": "uint256",
          "name": "internalId",
          "type": "uint256"
        },
        {
          "indexed": false,
          "internalType": "address",
          "name": "nftAddr",
          "type": "address"
        },
        {
          "indexed": false,
          "internalType": "string",
          "name": "chain",
          "type": "string"
        }
      ],
      "name": "XChainReleased",
      "type": "event"
    },
    {
      "inputs": [],
      "name": "DEFAULT_ADMIN_ROLE",
      "outputs": [
        {
          "internalType": "bytes32",
          "name": "",
          "type": "bytes32"
        }
      ],
      "stateMutability": "view",
      "type": "function"
    },
    {
      "inputs": [],
      "name": "ORACLE_ROLE",
      "outputs": [
        {
          "internalType": "bytes32",
          "name": "",
          "type": "bytes32"
        }
      ],
      "stateMutability": "view",
      "type": "function"
    },
    {
      "inputs": [],
      "name": "OWNER",
      "outputs": [
        {
          "internalType": "bytes32",
          "name": "",
          "type": "bytes32"
        }
      ],
      "stateMutability": "view",
      "type": "function"
    },
    {
      "inputs": [
        {
          "internalType": "uint256",
          "name": "internalId",
          "type": "uint256"
        }
      ],
      "name": "getERC721ContractAddr",
      "outputs": [
        {
          "internalType": "address",
          "name": "",
          "type": "address"
        }
      ],
      "stateMutability": "view",
      "type": "function"
    },
    {
      "inputs": [
        {
          "internalType": "uint256",
          "name": "internalId",
          "type": "uint256"
        }
      ],
      "name": "getERC721TokenId",
      "outputs": [
        {
          "internalType": "uint256",
          "name": "",
          "type": "uint256"
        }
      ],
      "stateMutability": "view",
      "type": "function"
    },
    {
      "inputs": [],
      "name": "getInternalIdCounter",
      "outputs": [
        {
          "internalType": "uint256",
          "name": "",
          "type": "uint256"
        }
      ],
      "stateMutability": "view",
      "type": "function"
    },
    {
      "inputs": [
        {
          "internalType": "address",
          "name": "account",
          "type": "address"
        }
      ],
      "name": "getNumIdsOwned",
      "outputs": [
        {
          "internalType": "uint256",
          "name": "",
          "type": "uint256"
        }
      ],
      "stateMutability": "view",
      "type": "function"
    },
    {
      "inputs": [],
      "name": "getNumberDepositedERC721s",
      "outputs": [
        {
          "internalType": "uint256",
          "name": "",
          "type": "uint256"
        }
      ],
      "stateMutability": "view",
      "type": "function"
    },
    {
      "inputs": [
        {
          "internalType": "uint256",
          "name": "internalId",
          "type": "uint256"
        }
      ],
      "name": "getOwned",
      "outputs": [
        {
          "internalType": "bool",
          "name": "",
          "type": "bool"
        }
      ],
      "stateMutability": "view",
      "type": "function"
    },
    {
      "inputs": [
        {
          "internalType": "address",
          "name": "account",
          "type": "address"
        }
      ],
      "name": "getOwnedInternalIds",
      "outputs": [
        {
          "internalType": "uint256[]",
          "name": "",
          "type": "uint256[]"
        }
      ],
      "stateMutability": "view",
      "type": "function"
    },
    {
      "inputs": [
        {
          "internalType": "bytes32",
          "name": "role",
          "type": "bytes32"
        }
      ],
      "name": "getRoleAdmin",
      "outputs": [
        {
          "internalType": "bytes32",
          "name": "",
          "type": "bytes32"
        }
      ],
      "stateMutability": "view",
      "type": "function"
    },
    {
      "inputs": [
        {
          "internalType": "address",
          "name": "account",
          "type": "address"
        }
      ],
      "name": "grantOracle",
      "outputs": [],
      "stateMutability": "nonpayable",
      "type": "function"
    },
    {
      "inputs": [
        {
          "internalType": "bytes32",
          "name": "role",
          "type": "bytes32"
        },
        {
          "internalType": "address",
          "name": "account",
          "type": "address"
        }
      ],
      "name": "grantRole",
      "outputs": [],
      "stateMutability": "nonpayable",
      "type": "function"
    },
    {
      "inputs": [
        {
          "internalType": "bytes32",
          "name": "role",
          "type": "bytes32"
        },
        {
          "internalType": "address",
          "name": "account",
          "type": "address"
        }
      ],
      "name": "hasRole",
      "outputs": [
        {
          "internalType": "bool",
          "name": "",
          "type": "bool"
        }
      ],
      "stateMutability": "view",
      "type": "function"
    },
    {
      "inputs": [
        {
          "internalType": "address",
          "name": "operator",
          "type": "address"
        },
        {
          "internalType": "address",
          "name": "from",
          "type": "address"
        },
        {
          "internalType": "uint256",
          "name": "tokenId",
          "type": "uint256"
        },
        {
          "internalType": "bytes",
          "name": "data",
          "type": "bytes"
        }
      ],
      "name": "onERC721Received",
      "outputs": [
        {
          "internalType": "bytes4",
          "name": "",
          "type": "bytes4"
        }
      ],
      "stateMutability": "nonpayable",
      "type": "function"
    },
    {
      "inputs": [
        {
          "internalType": "address",
          "name": "to",
          "type": "address"
        },
        {
          "internalType": "uint256",
          "name": "internalId",
          "type": "uint256"
        }
      ],
      "name": "releaseNFT",
      "outputs": [],
      "stateMutability": "nonpayable",
      "type": "function"
    },
    {
      "inputs": [
        {
          "internalType": "bytes32",
          "name": "role",
          "type": "bytes32"
        },
        {
          "internalType": "address",
          "name": "account",
          "type": "address"
        }
      ],
      "name": "renounceRole",
      "outputs": [],
      "stateMutability": "nonpayable",
      "type": "function"
    },
    {
      "inputs": [
        {
          "internalType": "bytes32",
          "name": "role",
          "type": "bytes32"
        },
        {
          "internalType": "address",
          "name": "account",
          "type": "address"
        }
      ],
      "name": "revokeRole",
      "outputs": [],
      "stateMutability": "nonpayable",
      "type": "function"
    },
    {
      "inputs": [
        {
          "internalType": "bytes4",
          "name": "interfaceId",
          "type": "bytes4"
        }
      ],
      "name": "supportsInterface",
      "outputs": [
        {
          "internalType": "bool",
          "name": "",
          "type": "bool"
        }
      ],
      "stateMutability": "view",
      "type": "function"
    }
  ],
  "bytecode": "0x608060405260006001553480156200001657600080fd5b50604051620026dc380380620026dc83398181016040528101906200003c919062000447565b8060029080519060200190620000549291906200030e565b50620000877f6270edb7c868f86fda4adedba75108201087268ea345934db8bad688e1feb91b336200011360201b60201c565b620000d97f68e79a7bf1e0bc45d0a330c573bc367f9cf464fd326078812f301165fbda4ef17f6270edb7c868f86fda4adedba75108201087268ea345934db8bad688e1feb91b6200012960201b60201c565b6200010b7f68e79a7bf1e0bc45d0a330c573bc367f9cf464fd326078812f301165fbda4ef1836200011360201b60201c565b50506200065f565b6200012582826200018c60201b60201c565b5050565b60006200013c836200027d60201b60201c565b905081600080858152602001908152602001600020600101819055508181847fbd79b86ffe0ab8e8776151514217cd7cacd52c909f66475c3af44e129f0b00ff60405160405180910390a4505050565b6200019e82826200029c60201b60201c565b6200027957600160008084815260200190815260200160002060000160008373ffffffffffffffffffffffffffffffffffffffff1673ffffffffffffffffffffffffffffffffffffffff16815260200190815260200160002060006101000a81548160ff0219169083151502179055506200021e6200030660201b60201c565b73ffffffffffffffffffffffffffffffffffffffff168173ffffffffffffffffffffffffffffffffffffffff16837f2f8788117e7eff1d82e926ec794901d17c78024a50270940304540a733656f0d60405160405180910390a45b5050565b6000806000838152602001908152602001600020600101549050919050565b600080600084815260200190815260200160002060000160008373ffffffffffffffffffffffffffffffffffffffff1673ffffffffffffffffffffffffffffffffffffffff16815260200190815260200160002060009054906101000a900460ff16905092915050565b600033905090565b8280546200031c906200056a565b90600052602060002090601f0160209004810192826200034057600085556200038c565b82601f106200035b57805160ff19168380011785556200038c565b828001600101855582156200038c579182015b828111156200038b5782518255916020019190600101906200036e565b5b5090506200039b91906200039f565b5090565b5b80821115620003ba576000816000905550600101620003a0565b5090565b6000620003d5620003cf84620004ca565b620004a1565b905082815260208101848484011115620003ee57600080fd5b620003fb84828562000534565b509392505050565b600081519050620004148162000645565b92915050565b600082601f8301126200042c57600080fd5b81516200043e848260208601620003be565b91505092915050565b600080604083850312156200045b57600080fd5b60006200046b8582860162000403565b925050602083015167ffffffffffffffff8111156200048957600080fd5b62000497858286016200041a565b9150509250929050565b6000620004ad620004c0565b9050620004bb8282620005a0565b919050565b6000604051905090565b600067ffffffffffffffff821115620004e857620004e762000605565b5b620004f38262000634565b9050602081019050919050565b60006200050d8262000514565b9050919050565b600073ffffffffffffffffffffffffffffffffffffffff82169050919050565b60005b838110156200055457808201518184015260208101905062000537565b8381111562000564576000848401525b50505050565b600060028204905060018216806200058357607f821691505b602082108114156200059a5762000599620005d6565b5b50919050565b620005ab8262000634565b810181811067ffffffffffffffff82111715620005cd57620005cc62000605565b5b80604052505050565b7f4e487b7100000000000000000000000000000000000000000000000000000000600052602260045260246000fd5b7f4e487b7100000000000000000000000000000000000000000000000000000000600052604160045260246000fd5b6000601f19601f8301169050919050565b620006508162000500565b81146200065c57600080fd5b50565b61206d806200066f6000396000f3fe608060405234801561001057600080fd5b50600436106101215760003560e01c806340aa97ec116100ad578063a919b74a11610071578063a919b74a14610356578063b7cebb3e14610386578063be7a1789146103a4578063c6f84afa146103c0578063d547741f146103dc57610121565b806340aa97ec14610278578063742f23c7146102a857806380168c7b146102d857806391d1485414610308578063a217fddf1461033857610121565b8063150b7a02116100f4578063150b7a02146101c2578063248a9ca3146101f25780632f2ff15d1461022257806336568abe1461023e578063397bafd61461025a57610121565b806301ffc9a71461012657806307e2cea514610156578063102af74814610174578063117803e3146101a4575b600080fd5b610140600480360381019061013b91906116c0565b6103f8565b60405161014d9190611a60565b60405180910390f35b61015e610472565b60405161016b9190611a7b565b60405180910390f35b61018e6004803603810190610189919061157b565b610496565b60405161019b9190611a3e565b60405180910390f35b6101ac6106eb565b6040516101b99190611a7b565b60405180910390f35b6101dc60048036038101906101d791906115a4565b61070f565b6040516101e99190611a96565b60405180910390f35b61020c6004803603810190610207919061165b565b610a21565b6040516102199190611a7b565b60405180910390f35b61023c60048036038101906102379190611684565b610a40565b005b61025860048036038101906102539190611684565b610a69565b005b610262610aec565b60405161026f9190611b13565b60405180910390f35b610292600480360381019061028d919061157b565b610b01565b60405161029f9190611b13565b60405180910390f35b6102c260048036038101906102bd91906116e9565b610b4a565b6040516102cf9190611992565b60405180910390f35b6102f260048036038101906102ed91906116e9565b610b8a565b6040516102ff9190611b13565b60405180910390f35b610322600480360381019061031d9190611684565b610baa565b60405161032f9190611a60565b60405180910390f35b610340610c14565b60405161034d9190611a7b565b60405180910390f35b610370600480360381019061036b91906116e9565b610c1b565b60405161037d9190611a60565b60405180910390f35b61038e610c48565b60405161039b9190611b13565b60405180910390f35b6103be60048036038101906103b9919061157b565b610c52565b005b6103da60048036038101906103d5919061161f565b610cb2565b005b6103f660048036038101906103f19190611684565b610e4b565b005b60007f7965db0b000000000000000000000000000000000000000000000000000000007bffffffffffffffffffffffffffffffffffffffffffffffffffffffff1916827bffffffffffffffffffffffffffffffffffffffffffffffffffffffff1916148061046b575061046a82610e74565b5b9050919050565b7f68e79a7bf1e0bc45d0a330c573bc367f9cf464fd326078812f301165fbda4ef181565b606060006104a383610b01565b905060008167ffffffffffffffff8111156104e7577f4e487b7100000000000000000000000000000000000000000000000000000000600052604160045260246000fd5b6040519080825280602002602001820160405280156105155781602001602082028036833780820191505090505b5090506000805b600460008773ffffffffffffffffffffffffffffffffffffffff1673ffffffffffffffffffffffffffffffffffffffff168152602001908152602001600020805490508110156106df576105f0600460008873ffffffffffffffffffffffffffffffffffffffff1673ffffffffffffffffffffffffffffffffffffffff16815260200190815260200160002082815481106105e0577f4e487b7100000000000000000000000000000000000000000000000000000000600052603260045260246000fd5b9060005260206000200154610c1b565b156106cc57600460008773ffffffffffffffffffffffffffffffffffffffff1673ffffffffffffffffffffffffffffffffffffffff168152602001908152602001600020818154811061066c577f4e487b7100000000000000000000000000000000000000000000000000000000600052603260045260246000fd5b90600052602060002001548383815181106106b0577f4e487b7100000000000000000000000000000000000000000000000000000000600052603260045260246000fd5b6020026020010181815250506001826106c99190611bf9565b91505b80806106d790611e2a565b91505061051c565b50819350505050919050565b7f6270edb7c868f86fda4adedba75108201087268ea345934db8bad688e1feb91b81565b600061071961143e565b60015481600001818152505033816020019073ffffffffffffffffffffffffffffffffffffffff16908173ffffffffffffffffffffffffffffffffffffffff168152505084816060019073ffffffffffffffffffffffffffffffffffffffff16908173ffffffffffffffffffffffffffffffffffffffff16815250508381604001818152505060018160c0019015159081151581525050806003600060015481526020019081526020016000206000820151816000015560208201518160010160006101000a81548173ffffffffffffffffffffffffffffffffffffffff021916908373ffffffffffffffffffffffffffffffffffffffff1602179055506040820151816002015560608201518160030160006101000a81548173ffffffffffffffffffffffffffffffffffffffff021916908373ffffffffffffffffffffffffffffffffffffffff16021790555060808201518160040160006101000a81548173ffffffffffffffffffffffffffffffffffffffff021916908373ffffffffffffffffffffffffffffffffffffffff16021790555060a0820151816005015560c08201518160060160006101000a81548160ff02191690831515021790555090505060046000826020015173ffffffffffffffffffffffffffffffffffffffff1673ffffffffffffffffffffffffffffffffffffffff16815260200190815260200160002081600001519080600181540180825580915050600190039060005260206000200160009091909190915055600160056000836020015173ffffffffffffffffffffffffffffffffffffffff1673ffffffffffffffffffffffffffffffffffffffff168152602001908152602001600020600082825461099e9190611bf9565b925050819055507f7a51ab65cf18bb345807c602e4a21cf934b3db741ae4e24d9e3ff372cc21c2fb816060015182604001518360000151846020015160026040516109ed9594939291906119e4565b60405180910390a16001806000828254610a079190611bf9565b9250508190555063150b7a0260e01b915050949350505050565b6000806000838152602001908152602001600020600101549050919050565b610a4982610a21565b610a5a81610a55610ede565b610ee6565b610a648383610f83565b505050565b610a71610ede565b73ffffffffffffffffffffffffffffffffffffffff168173ffffffffffffffffffffffffffffffffffffffff1614610ade576040517f08c379a0000000000000000000000000000000000000000000000000000000008152600401610ad590611af3565b60405180910390fd5b610ae88282611063565b5050565b600060018054610afc9190611ca9565b905090565b6000600560008373ffffffffffffffffffffffffffffffffffffffff1673ffffffffffffffffffffffffffffffffffffffff168152602001908152602001600020549050919050565b60006003600083815260200190815260200160002060010160009054906101000a900473ffffffffffffffffffffffffffffffffffffffff169050919050565b600060036000838152602001908152602001600020600201549050919050565b600080600084815260200190815260200160002060000160008373ffffffffffffffffffffffffffffffffffffffff1673ffffffffffffffffffffffffffffffffffffffff16815260200190815260200160002060009054906101000a900460ff16905092915050565b6000801b81565b60006003600083815260200190815260200160002060060160009054906101000a900460ff169050919050565b6000600154905090565b7f6270edb7c868f86fda4adedba75108201087268ea345934db8bad688e1feb91b610c8481610c7f610ede565b610ee6565b610cae7f68e79a7bf1e0bc45d0a330c573bc367f9cf464fd326078812f301165fbda4ef183610f83565b5050565b7f68e79a7bf1e0bc45d0a330c573bc367f9cf464fd326078812f301165fbda4ef1610ce481610cdf610ede565b610ee6565b6000610cef83610b4a565b90508073ffffffffffffffffffffffffffffffffffffffff166323b872dd3086610d1887610b8a565b6040518463ffffffff1660e01b8152600401610d36939291906119ad565b600060405180830381600087803b158015610d5057600080fd5b505af1158015610d64573d6000803e3d6000fd5b505050506001600560006003600087815260200190815260200160002060030160009054906101000a900473ffffffffffffffffffffffffffffffffffffffff1673ffffffffffffffffffffffffffffffffffffffff1673ffffffffffffffffffffffffffffffffffffffff1681526020019081526020016000206000828254610dee9190611ca9565b925050819055507ff3d6c73fce4e71a09dd9a17d54f3cda294f1d56b4c9d36c5bf627e523904981c84610e2085610b8a565b85610e2a87610b4a565b6002604051610e3d9594939291906119e4565b60405180910390a150505050565b610e5482610a21565b610e6581610e60610ede565b610ee6565b610e6f8383611063565b505050565b60007f01ffc9a7000000000000000000000000000000000000000000000000000000007bffffffffffffffffffffffffffffffffffffffffffffffffffffffff1916827bffffffffffffffffffffffffffffffffffffffffffffffffffffffff1916149050919050565b600033905090565b610ef08282610baa565b610f7f57610f158173ffffffffffffffffffffffffffffffffffffffff166014611144565b610f238360001c6020611144565b604051602001610f34929190611958565b6040516020818303038152906040526040517f08c379a0000000000000000000000000000000000000000000000000000000008152600401610f769190611ab1565b60405180910390fd5b5050565b610f8d8282610baa565b61105f57600160008084815260200190815260200160002060000160008373ffffffffffffffffffffffffffffffffffffffff1673ffffffffffffffffffffffffffffffffffffffff16815260200190815260200160002060006101000a81548160ff021916908315150217905550611004610ede565b73ffffffffffffffffffffffffffffffffffffffff168173ffffffffffffffffffffffffffffffffffffffff16837f2f8788117e7eff1d82e926ec794901d17c78024a50270940304540a733656f0d60405160405180910390a45b5050565b61106d8282610baa565b1561114057600080600084815260200190815260200160002060000160008373ffffffffffffffffffffffffffffffffffffffff1673ffffffffffffffffffffffffffffffffffffffff16815260200190815260200160002060006101000a81548160ff0219169083151502179055506110e5610ede565b73ffffffffffffffffffffffffffffffffffffffff168173ffffffffffffffffffffffffffffffffffffffff16837ff6391f5c32d9c69d2a47ea670b442974b53935d1edc7fd64eb21e047a839171b60405160405180910390a45b5050565b6060600060028360026111579190611c4f565b6111619190611bf9565b67ffffffffffffffff8111156111a0577f4e487b7100000000000000000000000000000000000000000000000000000000600052604160045260246000fd5b6040519080825280601f01601f1916602001820160405280156111d25781602001600182028036833780820191505090505b5090507f300000000000000000000000000000000000000000000000000000000000000081600081518110611230577f4e487b7100000000000000000000000000000000000000000000000000000000600052603260045260246000fd5b60200101907effffffffffffffffffffffffffffffffffffffffffffffffffffffffffffff1916908160001a9053507f7800000000000000000000000000000000000000000000000000000000000000816001815181106112ba577f4e487b7100000000000000000000000000000000000000000000000000000000600052603260045260246000fd5b60200101907effffffffffffffffffffffffffffffffffffffffffffffffffffffffffffff1916908160001a905350600060018460026112fa9190611c4f565b6113049190611bf9565b90505b60018111156113f0577f3031323334353637383961626364656600000000000000000000000000000000600f86166010811061136c577f4e487b7100000000000000000000000000000000000000000000000000000000600052603260045260246000fd5b1a60f81b8282815181106113a9577f4e487b7100000000000000000000000000000000000000000000000000000000600052603260045260246000fd5b60200101907effffffffffffffffffffffffffffffffffffffffffffffffffffffffffffff1916908160001a905350600485901c9450806113e990611d9d565b9050611307565b5060008414611434576040517f08c379a000000000000000000000000000000000000000000000000000000000815260040161142b90611ad3565b60405180910390fd5b8091505092915050565b6040518060e0016040528060008152602001600073ffffffffffffffffffffffffffffffffffffffff16815260200160008152602001600073ffffffffffffffffffffffffffffffffffffffff168152602001600073ffffffffffffffffffffffffffffffffffffffff168152602001600081526020016000151581525090565b60006114d26114cd84611b53565b611b2e565b9050828152602081018484840111156114ea57600080fd5b6114f5848285611d5b565b509392505050565b60008135905061150c81611fdb565b92915050565b60008135905061152181611ff2565b92915050565b60008135905061153681612009565b92915050565b600082601f83011261154d57600080fd5b813561155d8482602086016114bf565b91505092915050565b60008135905061157581612020565b92915050565b60006020828403121561158d57600080fd5b600061159b848285016114fd565b91505092915050565b600080600080608085870312156115ba57600080fd5b60006115c8878288016114fd565b94505060206115d9878288016114fd565b93505060406115ea87828801611566565b925050606085013567ffffffffffffffff81111561160757600080fd5b6116138782880161153c565b91505092959194509250565b6000806040838503121561163257600080fd5b6000611640858286016114fd565b925050602061165185828601611566565b9150509250929050565b60006020828403121561166d57600080fd5b600061167b84828501611512565b91505092915050565b6000806040838503121561169757600080fd5b60006116a585828601611512565b92505060206116b6858286016114fd565b9150509250929050565b6000602082840312156116d257600080fd5b60006116e084828501611527565b91505092915050565b6000602082840312156116fb57600080fd5b600061170984828501611566565b91505092915050565b600061171e838361193a565b60208301905092915050565b61173381611cdd565b82525050565b600061174482611ba9565b61174e8185611bcc565b935061175983611b84565b8060005b8381101561178a5781516117718882611712565b975061177c83611bbf565b92505060018101905061175d565b5085935050505092915050565b6117a081611cef565b82525050565b6117af81611cfb565b82525050565b6117be81611d05565b82525050565b60006117cf82611bb4565b6117d98185611bdd565b93506117e9818560208601611d6a565b6117f281611f00565b840191505092915050565b600061180882611bb4565b6118128185611bee565b9350611822818560208601611d6a565b80840191505092915050565b6000815461183b81611dc7565b6118458186611bdd565b945060018216600081146118605760018114611872576118a5565b60ff19831686526020860193506118a5565b61187b85611b94565b60005b8381101561189d5781548189015260018201915060208101905061187e565b808801955050505b50505092915050565b60006118bb602083611bdd565b91506118c682611f11565b602082019050919050565b60006118de601783611bee565b91506118e982611f3a565b601782019050919050565b6000611901601183611bee565b915061190c82611f63565b601182019050919050565b6000611924602f83611bdd565b915061192f82611f8c565b604082019050919050565b61194381611d51565b82525050565b61195281611d51565b82525050565b6000611963826118d1565b915061196f82856117fd565b915061197a826118f4565b915061198682846117fd565b91508190509392505050565b60006020820190506119a7600083018461172a565b92915050565b60006060820190506119c2600083018661172a565b6119cf602083018561172a565b6119dc6040830184611949565b949350505050565b600060a0820190506119f9600083018861172a565b611a066020830187611949565b611a136040830186611949565b611a20606083018561172a565b8181036080830152611a32818461182e565b90509695505050505050565b60006020820190508181036000830152611a588184611739565b905092915050565b6000602082019050611a756000830184611797565b92915050565b6000602082019050611a9060008301846117a6565b92915050565b6000602082019050611aab60008301846117b5565b92915050565b60006020820190508181036000830152611acb81846117c4565b905092915050565b60006020820190508181036000830152611aec816118ae565b9050919050565b60006020820190508181036000830152611b0c81611917565b9050919050565b6000602082019050611b286000830184611949565b92915050565b6000611b38611b49565b9050611b448282611df9565b919050565b6000604051905090565b600067ffffffffffffffff821115611b6e57611b6d611ed1565b5b611b7782611f00565b9050602081019050919050565b6000819050602082019050919050565b60008190508160005260206000209050919050565b600081519050919050565b600081519050919050565b6000602082019050919050565b600082825260208201905092915050565b600082825260208201905092915050565b600081905092915050565b6000611c0482611d51565b9150611c0f83611d51565b9250827fffffffffffffffffffffffffffffffffffffffffffffffffffffffffffffffff03821115611c4457611c43611e73565b5b828201905092915050565b6000611c5a82611d51565b9150611c6583611d51565b9250817fffffffffffffffffffffffffffffffffffffffffffffffffffffffffffffffff0483118215151615611c9e57611c9d611e73565b5b828202905092915050565b6000611cb482611d51565b9150611cbf83611d51565b925082821015611cd257611cd1611e73565b5b828203905092915050565b6000611ce882611d31565b9050919050565b60008115159050919050565b6000819050919050565b60007fffffffff0000000000000000000000000000000000000000000000000000000082169050919050565b600073ffffffffffffffffffffffffffffffffffffffff82169050919050565b6000819050919050565b82818337600083830152505050565b60005b83811015611d88578082015181840152602081019050611d6d565b83811115611d97576000848401525b50505050565b6000611da882611d51565b91506000821415611dbc57611dbb611e73565b5b600182039050919050565b60006002820490506001821680611ddf57607f821691505b60208210811415611df357611df2611ea2565b5b50919050565b611e0282611f00565b810181811067ffffffffffffffff82111715611e2157611e20611ed1565b5b80604052505050565b6000611e3582611d51565b91507fffffffffffffffffffffffffffffffffffffffffffffffffffffffffffffffff821415611e6857611e67611e73565b5b600182019050919050565b7f4e487b7100000000000000000000000000000000000000000000000000000000600052601160045260246000fd5b7f4e487b7100000000000000000000000000000000000000000000000000000000600052602260045260246000fd5b7f4e487b7100000000000000000000000000000000000000000000000000000000600052604160045260246000fd5b6000601f19601f8301169050919050565b7f537472696e67733a20686578206c656e67746820696e73756666696369656e74600082015250565b7f416363657373436f6e74726f6c3a206163636f756e7420000000000000000000600082015250565b7f206973206d697373696e6720726f6c6520000000000000000000000000000000600082015250565b7f416363657373436f6e74726f6c3a2063616e206f6e6c792072656e6f756e636560008201527f20726f6c657320666f722073656c660000000000000000000000000000000000602082015250565b611fe481611cdd565b8114611fef57600080fd5b50565b611ffb81611cfb565b811461200657600080fd5b50565b61201281611d05565b811461201d57600080fd5b50565b61202981611d51565b811461203457600080fd5b5056fea2646970667358221220122abf38d84a0ab9a77b66a5acce131730bb309a9518a061d5b18b592700005564736f6c63430008040033",
  "linkReferences": {},
  "deployedLinkReferences": {}
}