{
  "_format": "hh-sol-artifact-1",
  "contractName": "Vault",
  "sourceName": "contracts/Vault.sol",
  "abi": [
    {
      "inputs": [
        {
          "internalType": "address",
          "name": "_wEthAddr",
          "type": "address"
        }
      ],
      "stateMutability": "nonpayable",
      "type": "constructor"
    },
    {
      "anonymous": false,
      "inputs": [
        {
          "indexed": false,
          "internalType": "address",
          "name": "from",
          "type": "address"
        },
        {
          "indexed": false,
          "internalType": "uint256",
          "name": "tokenId",
          "type": "uint256"
        },
        {
          "indexed": false,
          "internalType": "uint256",
          "name": "internalId",
          "type": "uint256"
        },
        {
          "indexed": false,
          "internalType": "address",
          "name": "nftAddr",
          "type": "address"
        }
      ],
      "name": "Recieved",
      "type": "event"
    },
    {
      "anonymous": false,
      "inputs": [
        {
          "indexed": false,
          "internalType": "address",
          "name": "to",
          "type": "address"
        },
        {
          "indexed": false,
          "internalType": "uint256",
          "name": "tokenId",
          "type": "uint256"
        },
        {
          "indexed": false,
          "internalType": "uint256",
          "name": "internalId",
          "type": "uint256"
        },
        {
          "indexed": false,
          "internalType": "address",
          "name": "nftAddr",
          "type": "address"
        }
      ],
      "name": "Released",
      "type": "event"
    },
    {
      "inputs": [
        {
          "internalType": "uint256",
          "name": "internalId",
          "type": "uint256"
        },
        {
          "internalType": "address",
          "name": "account",
          "type": "address"
        },
        {
          "internalType": "uint256",
          "name": "amount",
          "type": "uint256"
        }
      ],
      "name": "approveNFTokenTransfer",
      "outputs": [],
      "stateMutability": "nonpayable",
      "type": "function"
    },
    {
      "inputs": [
        {
          "internalType": "uint256",
          "name": "internalId",
          "type": "uint256"
        },
        {
          "internalType": "uint256",
          "name": "amountOfFrac",
          "type": "uint256"
        },
        {
          "internalType": "address",
          "name": "buyer",
          "type": "address"
        }
      ],
      "name": "buyTokens",
      "outputs": [],
      "stateMutability": "nonpayable",
      "type": "function"
    },
    {
      "inputs": [
        {
          "internalType": "uint256",
          "name": "internalId",
          "type": "uint256"
        },
        {
          "internalType": "uint256",
          "name": "amountOfFrac",
          "type": "uint256"
        }
      ],
      "name": "buyTokensIndividual",
      "outputs": [],
      "stateMutability": "nonpayable",
      "type": "function"
    },
    {
      "inputs": [
        {
          "internalType": "uint256",
          "name": "internalId",
          "type": "uint256"
        },
        {
          "internalType": "address",
          "name": "account",
          "type": "address"
        }
      ],
      "name": "buyoutERC721",
      "outputs": [],
      "stateMutability": "nonpayable",
      "type": "function"
    },
    {
      "inputs": [
        {
          "internalType": "uint256",
          "name": "_amountOfwEth",
          "type": "uint256"
        },
        {
          "internalType": "uint256",
          "name": "internalId",
          "type": "uint256"
        }
      ],
      "name": "calculateAmountOfFrac",
      "outputs": [
        {
          "internalType": "uint256",
          "name": "",
          "type": "uint256"
        }
      ],
      "stateMutability": "nonpayable",
      "type": "function"
    },
    {
      "inputs": [
        {
          "internalType": "uint256",
          "name": "_amountOfFrac",
          "type": "uint256"
        },
        {
          "internalType": "uint256",
          "name": "internalId",
          "type": "uint256"
        }
      ],
      "name": "calculateAmountOfwEth",
      "outputs": [
        {
          "internalType": "uint256",
          "name": "",
          "type": "uint256"
        }
      ],
      "stateMutability": "nonpayable",
      "type": "function"
    },
    {
      "inputs": [
        {
          "internalType": "uint256",
          "name": "internalId",
          "type": "uint256"
        },
        {
          "internalType": "address",
          "name": "account",
          "type": "address"
        },
        {
          "internalType": "uint256",
          "name": "amount",
          "type": "uint256"
        }
      ],
      "name": "depositNFToken",
      "outputs": [],
      "stateMutability": "nonpayable",
      "type": "function"
    },
    {
      "inputs": [
        {
          "internalType": "uint256",
          "name": "internalId",
          "type": "uint256"
        },
        {
          "internalType": "address",
          "name": "account",
          "type": "address"
        }
      ],
      "name": "getDepositAmount",
      "outputs": [
        {
          "internalType": "uint256",
          "name": "",
          "type": "uint256"
        }
      ],
      "stateMutability": "view",
      "type": "function"
    },
    {
      "inputs": [
        {
          "internalType": "uint256",
          "name": "internalId",
          "type": "uint256"
        }
      ],
      "name": "getERC721ContractAddr",
      "outputs": [
        {
          "internalType": "address",
          "name": "",
          "type": "address"
        }
      ],
      "stateMutability": "view",
      "type": "function"
    },
    {
      "inputs": [
        {
          "internalType": "uint256",
          "name": "internalId",
          "type": "uint256"
        }
      ],
      "name": "getERC721TokenId",
      "outputs": [
        {
          "internalType": "uint256",
          "name": "",
          "type": "uint256"
        }
      ],
      "stateMutability": "view",
      "type": "function"
    },
    {
      "inputs": [],
      "name": "getInternalIdCounter",
      "outputs": [
        {
          "internalType": "uint256",
          "name": "",
          "type": "uint256"
        }
      ],
      "stateMutability": "view",
      "type": "function"
    },
    {
      "inputs": [
        {
          "internalType": "uint256",
          "name": "internalId",
          "type": "uint256"
        }
      ],
      "name": "getNFTContractAddr",
      "outputs": [
        {
          "internalType": "address",
          "name": "",
          "type": "address"
        }
      ],
      "stateMutability": "view",
      "type": "function"
    },
    {
      "inputs": [
        {
          "internalType": "uint256",
          "name": "internalId",
          "type": "uint256"
        }
      ],
      "name": "getNFTokenAddr",
      "outputs": [
        {
          "internalType": "address",
          "name": "",
          "type": "address"
        }
      ],
      "stateMutability": "view",
      "type": "function"
    },
    {
      "inputs": [
        {
          "internalType": "uint256",
          "name": "internalId",
          "type": "uint256"
        },
        {
          "internalType": "address",
          "name": "account",
          "type": "address"
        }
      ],
      "name": "getNFTokenBalance",
      "outputs": [
        {
          "internalType": "uint256",
          "name": "",
          "type": "uint256"
        }
      ],
      "stateMutability": "view",
      "type": "function"
    },
    {
      "inputs": [
        {
          "internalType": "uint256",
          "name": "internalId",
          "type": "uint256"
        }
      ],
      "name": "getNFTokenSupply",
      "outputs": [
        {
          "internalType": "uint256",
          "name": "",
          "type": "uint256"
        }
      ],
      "stateMutability": "view",
      "type": "function"
    },
    {
      "inputs": [
        {
          "internalType": "address",
          "name": "account",
          "type": "address"
        }
      ],
      "name": "getNumIdsOwned",
      "outputs": [
        {
          "internalType": "uint256",
          "name": "",
          "type": "uint256"
        }
      ],
      "stateMutability": "view",
      "type": "function"
    },
    {
      "inputs": [],
      "name": "getNumberDepositedERC721s",
      "outputs": [
        {
          "internalType": "uint256",
          "name": "",
          "type": "uint256"
        }
      ],
      "stateMutability": "view",
      "type": "function"
    },
    {
      "inputs": [
        {
          "internalType": "uint256",
          "name": "internalId",
          "type": "uint256"
        }
      ],
      "name": "getOwned",
      "outputs": [
        {
          "internalType": "bool",
          "name": "",
          "type": "bool"
        }
      ],
      "stateMutability": "view",
      "type": "function"
    },
    {
      "inputs": [
        {
          "internalType": "address",
          "name": "account",
          "type": "address"
        }
      ],
      "name": "getOwnedInternalIds",
      "outputs": [
        {
          "internalType": "uint256[]",
          "name": "",
          "type": "uint256[]"
        }
      ],
      "stateMutability": "view",
      "type": "function"
    },
    {
      "inputs": [],
      "name": "getwEthAddr",
      "outputs": [
        {
          "internalType": "address",
          "name": "",
          "type": "address"
        }
      ],
      "stateMutability": "nonpayable",
      "type": "function"
    },
    {
      "inputs": [
        {
          "internalType": "uint256",
          "name": "supply",
          "type": "uint256"
        },
        {
          "internalType": "string",
          "name": "name",
          "type": "string"
        },
        {
          "internalType": "string",
          "name": "ticker",
          "type": "string"
        },
        {
          "internalType": "uint256",
          "name": "internalId",
          "type": "uint256"
        },
        {
          "internalType": "uint256",
          "name": "amountToKeep",
          "type": "uint256"
        }
      ],
      "name": "mintTokensForNFT",
      "outputs": [
        {
          "internalType": "contract NFToken",
          "name": "",
          "type": "address"
        }
      ],
      "stateMutability": "nonpayable",
      "type": "function"
    },
    {
      "inputs": [
        {
          "internalType": "address",
          "name": "operator",
          "type": "address"
        },
        {
          "internalType": "address",
          "name": "from",
          "type": "address"
        },
        {
          "internalType": "uint256",
          "name": "tokenId",
          "type": "uint256"
        },
        {
          "internalType": "bytes",
          "name": "data",
          "type": "bytes"
        }
      ],
      "name": "onERC721Received",
      "outputs": [
        {
          "internalType": "bytes4",
          "name": "",
          "type": "bytes4"
        }
      ],
      "stateMutability": "nonpayable",
      "type": "function"
    },
    {
      "inputs": [
        {
          "internalType": "uint256",
          "name": "internalId",
          "type": "uint256"
        },
        {
          "internalType": "uint256",
          "name": "amountOfwEth",
          "type": "uint256"
        },
        {
          "internalType": "address",
          "name": "seller",
          "type": "address"
        }
      ],
      "name": "sellTokens",
      "outputs": [],
      "stateMutability": "nonpayable",
      "type": "function"
    },
    {
      "inputs": [
        {
          "internalType": "uint256",
          "name": "internalId",
          "type": "uint256"
        },
        {
          "internalType": "uint256",
          "name": "amountOfwEth",
          "type": "uint256"
        }
      ],
      "name": "sellTokensIndividual",
      "outputs": [],
      "stateMutability": "nonpayable",
      "type": "function"
    },
    {
      "inputs": [
        {
          "internalType": "uint256",
          "name": "internalId",
          "type": "uint256"
        },
        {
          "internalType": "address",
          "name": "account",
          "type": "address"
        },
        {
          "internalType": "uint256",
          "name": "amount",
          "type": "uint256"
        }
      ],
      "name": "withdrawNFToken",
      "outputs": [],
      "stateMutability": "nonpayable",
      "type": "function"
    }
  ],
  "bytecode": "0x608060405260006001553480156200001657600080fd5b5060405162004b7538038062004b7583398181016040528101906200003c91906200009a565b806000806101000a81548173ffffffffffffffffffffffffffffffffffffffff021916908373ffffffffffffffffffffffffffffffffffffffff1602179055505062000114565b6000815190506200009481620000fa565b92915050565b600060208284031215620000ad57600080fd5b6000620000bd8482850162000083565b91505092915050565b6000620000d382620000da565b9050919050565b600073ffffffffffffffffffffffffffffffffffffffff82169050919050565b6200010581620000c6565b81146200011157600080fd5b50565b614a5180620001246000396000f3fe60806040523480156200001157600080fd5b5060043610620001965760003560e01c806380168c7b11620000f3578063bd3d433711620000a5578063cae244b4116200007b578063cae244b41462000549578063de75a5c0146200057f578063e683c23914620005b5578063ef569f9a14620005d55762000196565b8063bd3d433714620004e9578063c16878771462000509578063c44f7a1714620005295762000196565b806380168c7b14620003cf57806386b5e7ea14620004055780639eefad98146200043b578063a919b74a1462000471578063af3ddc1a14620004a7578063b7cebb3e14620004c75762000196565b806340aa97ec116200014d57806340aa97ec146200029f578063442f6bd914620002d557806349f1c753146200030b5780634debe86a146200034157806365d51d881462000363578063742f23c714620003995762000196565b80630b1a08e5146200019b578063102af74814620001d1578063150b7a0214620002075780631b2d83cd146200023d578063312f0d80146200025d578063397bafd6146200027d575b600080fd5b620001b96004803603810190620001b391906200220a565b620005f5565b604051620001c8919062002807565b60405180910390f35b620001ef6004803603810190620001e9919062001f8a565b62000623565b604051620001fe91906200265a565b60405180910390f35b6200022560048036038101906200021f919062001fb6565b62000888565b6040516200023491906200269b565b60405180910390f35b6200025b600480360381019062000255919062002100565b62000bc9565b005b6200027b6004803603810190620002759190620020bf565b62000c51565b005b6200028762000dcb565b60405162000296919062002807565b60405180910390f35b620002bd6004803603810190620002b7919062001f8a565b62000de2565b604051620002cc919062002807565b60405180910390f35b620002f36004803603810190620002ed919062002156565b62000e2b565b604051620003029190620026b8565b60405180910390f35b62000329600480360381019062000323919062002067565b6200114f565b6040516200033891906200252b565b60405180910390f35b6200034b6200118f565b6040516200035a91906200252b565b60405180910390f35b6200038160048036038101906200037b91906200220a565b620011b8565b60405162000390919062002807565b60405180910390f35b620003b76004803603810190620003b1919062002067565b620011e6565b604051620003c691906200252b565b60405180910390f35b620003ed6004803603810190620003e7919062002067565b62001226565b604051620003fc919062002807565b60405180910390f35b6200042360048036038101906200041d919062002067565b62001246565b6040516200043291906200252b565b60405180910390f35b62000459600480360381019062000453919062002067565b62001286565b60405162000468919062002807565b60405180910390f35b6200048f600480360381019062000489919062002067565b62001320565b6040516200049e91906200267e565b60405180910390f35b620004c56004803603810190620004bf919062002100565b6200134d565b005b620004d1620014b0565b604051620004e0919062002807565b60405180910390f35b6200050760048036038101906200050191906200220a565b620014ba565b005b6200052760048036038101906200052191906200224b565b620014cb565b005b62000547600480360381019062000541919062002100565b62001780565b005b620005676004803603810190620005619190620020bf565b620018e5565b60405162000576919062002807565b60405180910390f35b6200059d6004803603810190620005979190620020bf565b6200198d565b604051620005ac919062002807565b60405180910390f35b620005d36004803603810190620005cd91906200220a565b620019e8565b005b620005f36004803603810190620005ed91906200224b565b620019f9565b005b60008260026000848152602001908152602001600020600601546200061b9190620029a3565b905092915050565b60606000620006328362000de2565b905060008167ffffffffffffffff81111562000677577f4e487b7100000000000000000000000000000000000000000000000000000000600052604160045260246000fd5b604051908082528060200260200182016040528015620006a65781602001602082028036833780820191505090505b5090506000805b600460008773ffffffffffffffffffffffffffffffffffffffff1673ffffffffffffffffffffffffffffffffffffffff168152602001908152602001600020805490508110156200087c5762000785600460008873ffffffffffffffffffffffffffffffffffffffff1673ffffffffffffffffffffffffffffffffffffffff168152602001908152602001600020828154811062000774577f4e487b7100000000000000000000000000000000000000000000000000000000600052603260045260246000fd5b906000526020600020015462001320565b156200086657600460008773ffffffffffffffffffffffffffffffffffffffff1673ffffffffffffffffffffffffffffffffffffffff168152602001908152602001600020818154811062000803577f4e487b7100000000000000000000000000000000000000000000000000000000600052603260045260246000fd5b906000526020600020015483838151811062000848577f4e487b7100000000000000000000000000000000000000000000000000000000600052603260045260246000fd5b6020026020010181815250506001826200086391906200290e565b91505b8080620008739062002b8e565b915050620006ad565b50819350505050919050565b60006200089462001d03565b60015481602001818152505033816040019073ffffffffffffffffffffffffffffffffffffffff16908173ffffffffffffffffffffffffffffffffffffffff168152505084816080019073ffffffffffffffffffffffffffffffffffffffff16908173ffffffffffffffffffffffffffffffffffffffff16815250508381606001818152505060018160c001818152505060018160e00190151590811515815250508060026000600154815260200190815260200160002060008201518160000190805190602001906200096a92919062001d8c565b506020820151816001015560408201518160020160006101000a81548173ffffffffffffffffffffffffffffffffffffffff021916908373ffffffffffffffffffffffffffffffffffffffff1602179055506060820151816003015560808201518160040160006101000a81548173ffffffffffffffffffffffffffffffffffffffff021916908373ffffffffffffffffffffffffffffffffffffffff16021790555060a08201518160050160006101000a81548173ffffffffffffffffffffffffffffffffffffffff021916908373ffffffffffffffffffffffffffffffffffffffff16021790555060c0820151816006015560e08201518160070160006101000a81548160ff02191690831515021790555090505060046000826040015173ffffffffffffffffffffffffffffffffffffffff1673ffffffffffffffffffffffffffffffffffffffff16815260200190815260200160002081602001519080600181540180825580915050600190039060005260206000200160009091909190915055600160056000836040015173ffffffffffffffffffffffffffffffffffffffff1673ffffffffffffffffffffffffffffffffffffffff168152602001908152602001600020600082825462000b4591906200290e565b925050819055507f935d05cbf9fa27cbf03a09eb57f4384da509a8e34d406b8b8e1c21b249e25c16816080015182606001518360200151846040015160405162000b9394939291906200260d565b60405180910390a1600180600082825462000baf91906200290e565b9250508190555063150b7a0260e01b915050949350505050565b600062000bd68462001246565b90508073ffffffffffffffffffffffffffffffffffffffff1663ca56c18a8430856040518463ffffffff1660e01b815260040162000c179392919062002548565b600060405180830381600087803b15801562000c3257600080fd5b505af115801562000c47573d6000803e3d6000fd5b5050505050505050565b62000c5c8262001286565b62000c6883836200198d565b1462000cab576040517f08c379a000000000000000000000000000000000000000000000000000000000815260040162000ca290620026d5565b60405180910390fd5b600062000cb883620011e6565b90508073ffffffffffffffffffffffffffffffffffffffff166323b872dd308462000ce38762001226565b6040518463ffffffff1660e01b815260040162000d039392919062002548565b600060405180830381600087803b15801562000d1e57600080fd5b505af115801562000d33573d6000803e3d6000fd5b505050506001600560006002600087815260200190815260200160002060040160009054906101000a900473ffffffffffffffffffffffffffffffffffffffff1673ffffffffffffffffffffffffffffffffffffffff1673ffffffffffffffffffffffffffffffffffffffff168152602001908152602001600020600082825462000dbf919062002a04565b92505081905550505050565b60006001805462000ddd919062002a04565b905090565b6000600560008373ffffffffffffffffffffffffffffffffffffffff1673ffffffffffffffffffffffffffffffffffffffff168152602001908152602001600020549050919050565b60003373ffffffffffffffffffffffffffffffffffffffff166002600085815260200190815260200160002060040160009054906101000a900473ffffffffffffffffffffffffffffffffffffffff1673ffffffffffffffffffffffffffffffffffffffff161462000ed4576040517f08c379a000000000000000000000000000000000000000000000000000000000815260040162000ecb906200277f565b60405180910390fd5b600073ffffffffffffffffffffffffffffffffffffffff166002600085815260200190815260200160002060050160009054906101000a900473ffffffffffffffffffffffffffffffffffffffff1673ffffffffffffffffffffffffffffffffffffffff161462000f7c576040517f08c379a000000000000000000000000000000000000000000000000000000000815260040162000f73906200273b565b60405180910390fd5b600062000f8d308589898962001cae565b90508073ffffffffffffffffffffffffffffffffffffffff1663095ea7b330856040518363ffffffff1660e01b815260040162000fcc92919062002585565b602060405180830381600087803b15801562000fe757600080fd5b505af115801562000ffc573d6000803e3d6000fd5b505050506040513d601f19601f820116820180604052508101906200102291906200203b565b508073ffffffffffffffffffffffffffffffffffffffff1663a9059cbb6002600087815260200190815260200160002060040160009054906101000a900473ffffffffffffffffffffffffffffffffffffffff16856040518363ffffffff1660e01b81526004016200109692919062002585565b602060405180830381600087803b158015620010b157600080fd5b505af1158015620010c6573d6000803e3d6000fd5b505050506040513d601f19601f82011682018060405250810190620010ec91906200203b565b50806002600086815260200190815260200160002060050160006101000a81548173ffffffffffffffffffffffffffffffffffffffff021916908373ffffffffffffffffffffffffffffffffffffffff1602179055508091505095945050505050565b60006002600083815260200190815260200160002060020160009054906101000a900473ffffffffffffffffffffffffffffffffffffffff169050919050565b60008060009054906101000a900473ffffffffffffffffffffffffffffffffffffffff16905090565b6000600260008381526020019081526020016000206006015483620011de91906200296b565b905092915050565b60006002600083815260200190815260200160002060020160009054906101000a900473ffffffffffffffffffffffffffffffffffffffff169050919050565b600060026000838152602001908152602001600020600301549050919050565b60006002600083815260200190815260200160002060050160009054906101000a900473ffffffffffffffffffffffffffffffffffffffff169050919050565b600080620012948362001246565b90508073ffffffffffffffffffffffffffffffffffffffff166318160ddd6040518163ffffffff1660e01b815260040160206040518083038186803b158015620012dd57600080fd5b505afa158015620012f2573d6000803e3d6000fd5b505050506040513d601f19601f8201168201806040525081019062001318919062002093565b915050919050565b60006002600083815260200190815260200160002060070160009054906101000a900460ff169050919050565b6200135983836200198d565b8111156200139e576040517f08c379a00000000000000000000000000000000000000000000000000000000081526004016200139590620026f7565b60405180910390fd5b80600360008473ffffffffffffffffffffffffffffffffffffffff1673ffffffffffffffffffffffffffffffffffffffff1681526020019081526020016000206000858152602001908152602001600020600082825462001400919062002a04565b925050819055506000620014148462001246565b90508073ffffffffffffffffffffffffffffffffffffffff1663a9059cbb84846040518363ffffffff1660e01b81526004016200145392919062002585565b602060405180830381600087803b1580156200146e57600080fd5b505af115801562001483573d6000803e3d6000fd5b505050506040513d601f19601f82011682018060405250810190620014a991906200203b565b5050505050565b6000600154905090565b620014c7828233620019f9565b5050565b6000620014d88462001246565b90506000620014e66200118f565b90506000620014f68587620005f5565b9050848373ffffffffffffffffffffffffffffffffffffffff166370a08231306040518263ffffffff1660e01b81526004016200153491906200252b565b60206040518083038186803b1580156200154d57600080fd5b505afa15801562001562573d6000803e3d6000fd5b505050506040513d601f19601f8201168201806040525081019062001588919062002093565b1015620015cc576040517f08c379a0000000000000000000000000000000000000000000000000000000008152600401620015c390620027e5565b60405180910390fd5b8173ffffffffffffffffffffffffffffffffffffffff166323b872dd8530846040518463ffffffff1660e01b81526004016200160b9392919062002548565b602060405180830381600087803b1580156200162657600080fd5b505af11580156200163b573d6000803e3d6000fd5b505050506040513d601f19601f820116820180604052508101906200166191906200203b565b620016a3576040517f08c379a00000000000000000000000000000000000000000000000000000000081526004016200169a9062002719565b60405180910390fd5b8273ffffffffffffffffffffffffffffffffffffffff1663a9059cbb85876040518363ffffffff1660e01b8152600401620016e092919062002585565b602060405180830381600087803b158015620016fb57600080fd5b505af115801562001710573d6000803e3d6000fd5b505050506040513d601f19601f820116820180604052508101906200173691906200203b565b62001778576040517f08c379a00000000000000000000000000000000000000000000000000000000081526004016200176f906200275d565b60405180910390fd5b505050505050565b806200178d8484620018e5565b1015620017d1576040517f08c379a0000000000000000000000000000000000000000000000000000000008152600401620017c890620027a1565b60405180910390fd5b6000620017de8462001246565b90508073ffffffffffffffffffffffffffffffffffffffff166323b872dd8430856040518463ffffffff1660e01b81526004016200181f9392919062002548565b602060405180830381600087803b1580156200183a57600080fd5b505af11580156200184f573d6000803e3d6000fd5b505050506040513d601f19601f820116820180604052508101906200187591906200203b565b5081600360008573ffffffffffffffffffffffffffffffffffffffff1673ffffffffffffffffffffffffffffffffffffffff16815260200190815260200160002060008681526020019081526020016000206000828254620018d891906200290e565b9250508190555050505050565b600080620018f38462001246565b90508073ffffffffffffffffffffffffffffffffffffffff166370a08231846040518263ffffffff1660e01b81526004016200193091906200252b565b60206040518083038186803b1580156200194957600080fd5b505afa1580156200195e573d6000803e3d6000fd5b505050506040513d601f19601f8201168201806040525081019062001984919062002093565b91505092915050565b6000600360008373ffffffffffffffffffffffffffffffffffffffff1673ffffffffffffffffffffffffffffffffffffffff168152602001908152602001600020600084815260200190815260200160002054905092915050565b620019f5828233620014cb565b5050565b600062001a068462001246565b9050600062001a146200118f565b9050600062001a248587620011b8565b9050808373ffffffffffffffffffffffffffffffffffffffff166370a08231866040518263ffffffff1660e01b815260040162001a6291906200252b565b60206040518083038186803b15801562001a7b57600080fd5b505afa15801562001a90573d6000803e3d6000fd5b505050506040513d601f19601f8201168201806040525081019062001ab6919062002093565b101562001afa576040517f08c379a000000000000000000000000000000000000000000000000000000000815260040162001af190620027c3565b60405180910390fd5b8273ffffffffffffffffffffffffffffffffffffffff166323b872dd8530846040518463ffffffff1660e01b815260040162001b399392919062002548565b602060405180830381600087803b15801562001b5457600080fd5b505af115801562001b69573d6000803e3d6000fd5b505050506040513d601f19601f8201168201806040525081019062001b8f91906200203b565b62001bd1576040517f08c379a000000000000000000000000000000000000000000000000000000000815260040162001bc8906200275d565b60405180910390fd5b8173ffffffffffffffffffffffffffffffffffffffff1663a9059cbb85876040518363ffffffff1660e01b815260040162001c0e92919062002585565b602060405180830381600087803b15801562001c2957600080fd5b505af115801562001c3e573d6000803e3d6000fd5b505050506040513d601f19601f8201168201806040525081019062001c6491906200203b565b62001ca6576040517f08c379a000000000000000000000000000000000000000000000000000000000815260040162001c9d9062002719565b60405180910390fd5b505050505050565b6000606060008786868660405162001cc69062001e1d565b62001cd59493929190620025b2565b604051809103906000f08015801562001cf2573d6000803e3d6000fd5b509050809250505095945050505050565b6040518061010001604052806060815260200160008152602001600073ffffffffffffffffffffffffffffffffffffffff16815260200160008152602001600073ffffffffffffffffffffffffffffffffffffffff168152602001600073ffffffffffffffffffffffffffffffffffffffff168152602001600081526020016000151581525090565b82805462001d9a9062002b22565b90600052602060002090601f01602090048101928262001dbe576000855562001e0a565b82601f1062001dd957805160ff191683800117855562001e0a565b8280016001018555821562001e0a579182015b8281111562001e0957825182559160200191906001019062001dec565b5b50905062001e19919062001e2b565b5090565b611af58062002f2783390190565b5b8082111562001e4657600081600090555060010162001e2c565b5090565b600062001e6162001e5b846200284d565b62002824565b90508281526020810184848401111562001e7a57600080fd5b62001e8784828562002add565b509392505050565b600062001ea662001ea08462002883565b62002824565b90508281526020810184848401111562001ebf57600080fd5b62001ecc84828562002add565b509392505050565b60008135905062001ee58162002ed8565b92915050565b60008151905062001efc8162002ef2565b92915050565b600082601f83011262001f1457600080fd5b813562001f2684826020860162001e4a565b91505092915050565b600082601f83011262001f4157600080fd5b813562001f5384826020860162001e8f565b91505092915050565b60008135905062001f6d8162002f0c565b92915050565b60008151905062001f848162002f0c565b92915050565b60006020828403121562001f9d57600080fd5b600062001fad8482850162001ed4565b91505092915050565b6000806000806080858703121562001fcd57600080fd5b600062001fdd8782880162001ed4565b945050602062001ff08782880162001ed4565b9350506040620020038782880162001f5c565b925050606085013567ffffffffffffffff8111156200202157600080fd5b6200202f8782880162001f02565b91505092959194509250565b6000602082840312156200204e57600080fd5b60006200205e8482850162001eeb565b91505092915050565b6000602082840312156200207a57600080fd5b60006200208a8482850162001f5c565b91505092915050565b600060208284031215620020a657600080fd5b6000620020b68482850162001f73565b91505092915050565b60008060408385031215620020d357600080fd5b6000620020e38582860162001f5c565b9250506020620020f68582860162001ed4565b9150509250929050565b6000806000606084860312156200211657600080fd5b6000620021268682870162001f5c565b9350506020620021398682870162001ed4565b92505060406200214c8682870162001f5c565b9150509250925092565b600080600080600060a086880312156200216f57600080fd5b60006200217f8882890162001f5c565b955050602086013567ffffffffffffffff8111156200219d57600080fd5b620021ab8882890162001f2f565b945050604086013567ffffffffffffffff811115620021c957600080fd5b620021d78882890162001f2f565b9350506060620021ea8882890162001f5c565b9250506080620021fd8882890162001f5c565b9150509295509295909350565b600080604083850312156200221e57600080fd5b60006200222e8582860162001f5c565b9250506020620022418582860162001f5c565b9150509250929050565b6000806000606084860312156200226157600080fd5b6000620022718682870162001f5c565b9350506020620022848682870162001f5c565b9250506040620022978682870162001ed4565b9150509250925092565b6000620022af838362002509565b60208301905092915050565b620022c68162002a3f565b82525050565b6000620022d982620028c9565b620022e58185620028ec565b9350620022f283620028b9565b8060005b83811015620023295781516200230d8882620022a1565b97506200231a83620028df565b925050600181019050620022f6565b5085935050505092915050565b620023418162002a53565b82525050565b620023528162002a5f565b82525050565b620023638162002ab5565b82525050565b60006200237682620028d4565b620023828185620028fd565b93506200239481856020860162002aec565b6200239f8162002c98565b840191505092915050565b6000620023b9603783620028fd565b9150620023c68262002ca9565b604082019050919050565b6000620023e0602083620028fd565b9150620023ed8262002cf8565b602082019050919050565b600062002407601783620028fd565b9150620024148262002d21565b602082019050919050565b60006200242e602983620028fd565b91506200243b8262002d4a565b604082019050919050565b600062002455601d83620028fd565b9150620024628262002d99565b602082019050919050565b60006200247c601d83620028fd565b9150620024898262002dc2565b602082019050919050565b6000620024a3602183620028fd565b9150620024b08262002deb565b604082019050919050565b6000620024ca602283620028fd565b9150620024d78262002e3a565b604082019050919050565b6000620024f1602283620028fd565b9150620024fe8262002e89565b604082019050919050565b620025148162002aab565b82525050565b620025258162002aab565b82525050565b6000602082019050620025426000830184620022bb565b92915050565b60006060820190506200255f6000830186620022bb565b6200256e6020830185620022bb565b6200257d60408301846200251a565b949350505050565b60006040820190506200259c6000830185620022bb565b620025ab60208301846200251a565b9392505050565b6000608082019050620025c96000830187620022bb565b620025d860208301866200251a565b8181036040830152620025ec818562002369565b9050818103606083015262002602818462002369565b905095945050505050565b6000608082019050620026246000830187620022bb565b6200263360208301866200251a565b6200264260408301856200251a565b620026516060830184620022bb565b95945050505050565b60006020820190508181036000830152620026768184620022cc565b905092915050565b600060208201905062002695600083018462002336565b92915050565b6000602082019050620026b2600083018462002347565b92915050565b6000602082019050620026cf600083018462002358565b92915050565b60006020820190508181036000830152620026f081620023aa565b9050919050565b600060208201905081810360008301526200271281620023d1565b9050919050565b600060208201905081810360008301526200273481620023f8565b9050919050565b6000602082019050818103600083015262002756816200241f565b9050919050565b60006020820190508181036000830152620027788162002446565b9050919050565b600060208201905081810360008301526200279a816200246d565b9050919050565b60006020820190508181036000830152620027bc8162002494565b9050919050565b60006020820190508181036000830152620027de81620024bb565b9050919050565b600060208201905081810360008301526200280081620024e2565b9050919050565b60006020820190506200281e60008301846200251a565b92915050565b60006200283062002843565b90506200283e828262002b58565b919050565b6000604051905090565b600067ffffffffffffffff8211156200286b576200286a62002c69565b5b620028768262002c98565b9050602081019050919050565b600067ffffffffffffffff821115620028a157620028a062002c69565b5b620028ac8262002c98565b9050602081019050919050565b6000819050602082019050919050565b600081519050919050565b600081519050919050565b6000602082019050919050565b600082825260208201905092915050565b600082825260208201905092915050565b60006200291b8262002aab565b9150620029288362002aab565b9250827fffffffffffffffffffffffffffffffffffffffffffffffffffffffffffffffff0382111562002960576200295f62002bdc565b5b828201905092915050565b6000620029788262002aab565b9150620029858362002aab565b92508262002998576200299762002c0b565b5b828204905092915050565b6000620029b08262002aab565b9150620029bd8362002aab565b9250817fffffffffffffffffffffffffffffffffffffffffffffffffffffffffffffffff0483118215151615620029f957620029f862002bdc565b5b828202905092915050565b600062002a118262002aab565b915062002a1e8362002aab565b92508282101562002a345762002a3362002bdc565b5b828203905092915050565b600062002a4c8262002a8b565b9050919050565b60008115159050919050565b60007fffffffff0000000000000000000000000000000000000000000000000000000082169050919050565b600073ffffffffffffffffffffffffffffffffffffffff82169050919050565b6000819050919050565b600062002ac28262002ac9565b9050919050565b600062002ad68262002a8b565b9050919050565b82818337600083830152505050565b60005b8381101562002b0c57808201518184015260208101905062002aef565b8381111562002b1c576000848401525b50505050565b6000600282049050600182168062002b3b57607f821691505b6020821081141562002b525762002b5162002c3a565b5b50919050565b62002b638262002c98565b810181811067ffffffffffffffff8211171562002b855762002b8462002c69565b5b80604052505050565b600062002b9b8262002aab565b91507fffffffffffffffffffffffffffffffffffffffffffffffffffffffffffffffff82141562002bd15762002bd062002bdc565b5b600182019050919050565b7f4e487b7100000000000000000000000000000000000000000000000000000000600052601160045260246000fd5b7f4e487b7100000000000000000000000000000000000000000000000000000000600052601260045260246000fd5b7f4e487b7100000000000000000000000000000000000000000000000000000000600052602260045260246000fd5b7f4e487b7100000000000000000000000000000000000000000000000000000000600052604160045260246000fd5b6000601f19601f8301169050919050565b7f596f752068617665206e6f74206465706f736974656420414c4c206f6620746860008201527f65206672616374696f6e616c697a656420746f6b656e73000000000000000000602082015250565b7f596f7520646f206e6f7420686176652074686174206d616e7920746f6b656e73600082015250565b7f5472616e73666572206f662077457468206661696c6564000000000000000000600082015250565b7f54686973204e46542068617320616c7265616479206265656e2066726163746960008201527f6f6e616c697a65642e0000000000000000000000000000000000000000000000602082015250565b7f5472616e73666572206f66206672616320746f6b656e206661696c6564000000600082015250565b7f596f7520646964206e6f74206465706f7369742074686973204e46542e000000600082015250565b7f596f7520646f206e6f7420686176652074686174206d616e7920746f6b656e7360008201527f2e00000000000000000000000000000000000000000000000000000000000000602082015250565b7f596f7520646f206e6f74206861766520656e6f756768206672616320746f6b6560008201527f6e73000000000000000000000000000000000000000000000000000000000000602082015250565b7f546865726520617265206e6f7420656e6f75676820746f6b656e7320746f206260008201527f7579000000000000000000000000000000000000000000000000000000000000602082015250565b62002ee38162002a3f565b811462002eef57600080fd5b50565b62002efd8162002a53565b811462002f0957600080fd5b50565b62002f178162002aab565b811462002f2357600080fd5b5056fe60806040523480156200001157600080fd5b5060405162001af538038062001af583398181016040528101906200003791906200035c565b81818160039080519060200190620000519291906200020c565b5080600490805190602001906200006a9291906200020c565b5050506200007f84846200008960201b60201c565b5050505062000719565b600073ffffffffffffffffffffffffffffffffffffffff168273ffffffffffffffffffffffffffffffffffffffff161415620000fc576040517f08c379a0000000000000000000000000000000000000000000000000000000008152600401620000f39062000432565b60405180910390fd5b62000110600083836200020260201b60201c565b8060026000828254620001249190620004e1565b92505081905550806000808473ffffffffffffffffffffffffffffffffffffffff1673ffffffffffffffffffffffffffffffffffffffff16815260200190815260200160002060008282546200017b9190620004e1565b925050819055508173ffffffffffffffffffffffffffffffffffffffff16600073ffffffffffffffffffffffffffffffffffffffff167fddf252ad1be2c89b69c2b068fc378daa952ba7f163c4a11628f55a4df523b3ef83604051620001e2919062000454565b60405180910390a3620001fe600083836200020760201b60201c565b5050565b505050565b505050565b8280546200021a90620005b2565b90600052602060002090601f0160209004810192826200023e57600085556200028a565b82601f106200025957805160ff19168380011785556200028a565b828001600101855582156200028a579182015b82811115620002895782518255916020019190600101906200026c565b5b5090506200029991906200029d565b5090565b5b80821115620002b85760008160009055506001016200029e565b5090565b6000620002d3620002cd846200049a565b62000471565b905082815260208101848484011115620002ec57600080fd5b620002f98482856200057c565b509392505050565b6000815190506200031281620006e5565b92915050565b600082601f8301126200032a57600080fd5b81516200033c848260208601620002bc565b91505092915050565b6000815190506200035681620006ff565b92915050565b600080600080608085870312156200037357600080fd5b6000620003838782880162000301565b9450506020620003968782880162000345565b935050604085015167ffffffffffffffff811115620003b457600080fd5b620003c28782880162000318565b925050606085015167ffffffffffffffff811115620003e057600080fd5b620003ee8782880162000318565b91505092959194509250565b600062000409601f83620004d0565b91506200041682620006bc565b602082019050919050565b6200042c8162000572565b82525050565b600060208201905081810360008301526200044d81620003fa565b9050919050565b60006020820190506200046b600083018462000421565b92915050565b60006200047d62000490565b90506200048b8282620005e8565b919050565b6000604051905090565b600067ffffffffffffffff821115620004b857620004b76200067c565b5b620004c382620006ab565b9050602081019050919050565b600082825260208201905092915050565b6000620004ee8262000572565b9150620004fb8362000572565b9250827fffffffffffffffffffffffffffffffffffffffffffffffffffffffffffffffff038211156200053357620005326200061e565b5b828201905092915050565b60006200054b8262000552565b9050919050565b600073ffffffffffffffffffffffffffffffffffffffff82169050919050565b6000819050919050565b60005b838110156200059c5780820151818401526020810190506200057f565b83811115620005ac576000848401525b50505050565b60006002820490506001821680620005cb57607f821691505b60208210811415620005e257620005e16200064d565b5b50919050565b620005f382620006ab565b810181811067ffffffffffffffff821117156200061557620006146200067c565b5b80604052505050565b7f4e487b7100000000000000000000000000000000000000000000000000000000600052601160045260246000fd5b7f4e487b7100000000000000000000000000000000000000000000000000000000600052602260045260246000fd5b7f4e487b7100000000000000000000000000000000000000000000000000000000600052604160045260246000fd5b6000601f19601f8301169050919050565b7f45524332303a206d696e7420746f20746865207a65726f206164647265737300600082015250565b620006f0816200053e565b8114620006fc57600080fd5b50565b6200070a8162000572565b81146200071657600080fd5b50565b6113cc80620007296000396000f3fe608060405234801561001057600080fd5b50600436106100b45760003560e01c806370a082311161007157806370a08231146101a357806395d89b41146101d3578063a457c2d7146101f1578063a9059cbb14610221578063ca56c18a14610251578063dd62ed3e1461026d576100b4565b806306fdde03146100b9578063095ea7b3146100d757806318160ddd1461010757806323b872dd14610125578063313ce567146101555780633950935114610173575b600080fd5b6100c161029d565b6040516100ce9190610e6c565b60405180910390f35b6100f160048036038101906100ec9190610cba565b61032f565b6040516100fe9190610e51565b60405180910390f35b61010f61034d565b60405161011c9190610f6e565b60405180910390f35b61013f600480360381019061013a9190610c6b565b610357565b60405161014c9190610e51565b60405180910390f35b61015d61044f565b60405161016a9190610f89565b60405180910390f35b61018d60048036038101906101889190610cba565b610458565b60405161019a9190610e51565b60405180910390f35b6101bd60048036038101906101b89190610c06565b610504565b6040516101ca9190610f6e565b60405180910390f35b6101db61054c565b6040516101e89190610e6c565b60405180910390f35b61020b60048036038101906102069190610cba565b6105de565b6040516102189190610e51565b60405180910390f35b61023b60048036038101906102369190610cba565b6106c9565b6040516102489190610e51565b60405180910390f35b61026b60048036038101906102669190610c6b565b6106e7565b005b61028760048036038101906102829190610c2f565b6106f7565b6040516102949190610f6e565b60405180910390f35b6060600380546102ac9061109e565b80601f01602080910402602001604051908101604052809291908181526020018280546102d89061109e565b80156103255780601f106102fa57610100808354040283529160200191610325565b820191906000526020600020905b81548152906001019060200180831161030857829003601f168201915b5050505050905090565b600061034361033c61077e565b8484610786565b6001905092915050565b6000600254905090565b6000610364848484610951565b6000600160008673ffffffffffffffffffffffffffffffffffffffff1673ffffffffffffffffffffffffffffffffffffffff16815260200190815260200160002060006103af61077e565b73ffffffffffffffffffffffffffffffffffffffff1673ffffffffffffffffffffffffffffffffffffffff1681526020019081526020016000205490508281101561042f576040517f08c379a000000000000000000000000000000000000000000000000000000000815260040161042690610eee565b60405180910390fd5b6104438561043b61077e565b858403610786565b60019150509392505050565b60006012905090565b60006104fa61046561077e565b84846001600061047361077e565b73ffffffffffffffffffffffffffffffffffffffff1673ffffffffffffffffffffffffffffffffffffffff16815260200190815260200160002060008873ffffffffffffffffffffffffffffffffffffffff1673ffffffffffffffffffffffffffffffffffffffff168152602001908152602001600020546104f59190610fc0565b610786565b6001905092915050565b60008060008373ffffffffffffffffffffffffffffffffffffffff1673ffffffffffffffffffffffffffffffffffffffff168152602001908152602001600020549050919050565b60606004805461055b9061109e565b80601f01602080910402602001604051908101604052809291908181526020018280546105879061109e565b80156105d45780601f106105a9576101008083540402835291602001916105d4565b820191906000526020600020905b8154815290600101906020018083116105b757829003601f168201915b5050505050905090565b600080600160006105ed61077e565b73ffffffffffffffffffffffffffffffffffffffff1673ffffffffffffffffffffffffffffffffffffffff16815260200190815260200160002060008573ffffffffffffffffffffffffffffffffffffffff1673ffffffffffffffffffffffffffffffffffffffff168152602001908152602001600020549050828110156106aa576040517f08c379a00000000000000000000000000000000000000000000000000000000081526004016106a190610f4e565b60405180910390fd5b6106be6106b561077e565b85858403610786565b600191505092915050565b60006106dd6106d661077e565b8484610951565b6001905092915050565b6106f2838383610786565b505050565b6000600160008473ffffffffffffffffffffffffffffffffffffffff1673ffffffffffffffffffffffffffffffffffffffff16815260200190815260200160002060008373ffffffffffffffffffffffffffffffffffffffff1673ffffffffffffffffffffffffffffffffffffffff16815260200190815260200160002054905092915050565b600033905090565b600073ffffffffffffffffffffffffffffffffffffffff168373ffffffffffffffffffffffffffffffffffffffff1614156107f6576040517f08c379a00000000000000000000000000000000000000000000000000000000081526004016107ed90610f2e565b60405180910390fd5b600073ffffffffffffffffffffffffffffffffffffffff168273ffffffffffffffffffffffffffffffffffffffff161415610866576040517f08c379a000000000000000000000000000000000000000000000000000000000815260040161085d90610eae565b60405180910390fd5b80600160008573ffffffffffffffffffffffffffffffffffffffff1673ffffffffffffffffffffffffffffffffffffffff16815260200190815260200160002060008473ffffffffffffffffffffffffffffffffffffffff1673ffffffffffffffffffffffffffffffffffffffff168152602001908152602001600020819055508173ffffffffffffffffffffffffffffffffffffffff168373ffffffffffffffffffffffffffffffffffffffff167f8c5be1e5ebec7d5bd14f71427d1e84f3dd0314c0f7b2291e5b200ac8c7c3b925836040516109449190610f6e565b60405180910390a3505050565b600073ffffffffffffffffffffffffffffffffffffffff168373ffffffffffffffffffffffffffffffffffffffff1614156109c1576040517f08c379a00000000000000000000000000000000000000000000000000000000081526004016109b890610f0e565b60405180910390fd5b600073ffffffffffffffffffffffffffffffffffffffff168273ffffffffffffffffffffffffffffffffffffffff161415610a31576040517f08c379a0000000000000000000000000000000000000000000000000000000008152600401610a2890610e8e565b60405180910390fd5b610a3c838383610bd2565b60008060008573ffffffffffffffffffffffffffffffffffffffff1673ffffffffffffffffffffffffffffffffffffffff16815260200190815260200160002054905081811015610ac2576040517f08c379a0000000000000000000000000000000000000000000000000000000008152600401610ab990610ece565b60405180910390fd5b8181036000808673ffffffffffffffffffffffffffffffffffffffff1673ffffffffffffffffffffffffffffffffffffffff16815260200190815260200160002081905550816000808573ffffffffffffffffffffffffffffffffffffffff1673ffffffffffffffffffffffffffffffffffffffff1681526020019081526020016000206000828254610b559190610fc0565b925050819055508273ffffffffffffffffffffffffffffffffffffffff168473ffffffffffffffffffffffffffffffffffffffff167fddf252ad1be2c89b69c2b068fc378daa952ba7f163c4a11628f55a4df523b3ef84604051610bb99190610f6e565b60405180910390a3610bcc848484610bd7565b50505050565b505050565b505050565b600081359050610beb81611368565b92915050565b600081359050610c008161137f565b92915050565b600060208284031215610c1857600080fd5b6000610c2684828501610bdc565b91505092915050565b60008060408385031215610c4257600080fd5b6000610c5085828601610bdc565b9250506020610c6185828601610bdc565b9150509250929050565b600080600060608486031215610c8057600080fd5b6000610c8e86828701610bdc565b9350506020610c9f86828701610bdc565b9250506040610cb086828701610bf1565b9150509250925092565b60008060408385031215610ccd57600080fd5b6000610cdb85828601610bdc565b9250506020610cec85828601610bf1565b9150509250929050565b610cff81611028565b82525050565b6000610d1082610fa4565b610d1a8185610faf565b9350610d2a81856020860161106b565b610d338161112e565b840191505092915050565b6000610d4b602383610faf565b9150610d568261113f565b604082019050919050565b6000610d6e602283610faf565b9150610d798261118e565b604082019050919050565b6000610d91602683610faf565b9150610d9c826111dd565b604082019050919050565b6000610db4602883610faf565b9150610dbf8261122c565b604082019050919050565b6000610dd7602583610faf565b9150610de28261127b565b604082019050919050565b6000610dfa602483610faf565b9150610e05826112ca565b604082019050919050565b6000610e1d602583610faf565b9150610e2882611319565b604082019050919050565b610e3c81611054565b82525050565b610e4b8161105e565b82525050565b6000602082019050610e666000830184610cf6565b92915050565b60006020820190508181036000830152610e868184610d05565b905092915050565b60006020820190508181036000830152610ea781610d3e565b9050919050565b60006020820190508181036000830152610ec781610d61565b9050919050565b60006020820190508181036000830152610ee781610d84565b9050919050565b60006020820190508181036000830152610f0781610da7565b9050919050565b60006020820190508181036000830152610f2781610dca565b9050919050565b60006020820190508181036000830152610f4781610ded565b9050919050565b60006020820190508181036000830152610f6781610e10565b9050919050565b6000602082019050610f836000830184610e33565b92915050565b6000602082019050610f9e6000830184610e42565b92915050565b600081519050919050565b600082825260208201905092915050565b6000610fcb82611054565b9150610fd683611054565b9250827fffffffffffffffffffffffffffffffffffffffffffffffffffffffffffffffff0382111561100b5761100a6110d0565b5b828201905092915050565b600061102182611034565b9050919050565b60008115159050919050565b600073ffffffffffffffffffffffffffffffffffffffff82169050919050565b6000819050919050565b600060ff82169050919050565b60005b8381101561108957808201518184015260208101905061106e565b83811115611098576000848401525b50505050565b600060028204905060018216806110b657607f821691505b602082108114156110ca576110c96110ff565b5b50919050565b7f4e487b7100000000000000000000000000000000000000000000000000000000600052601160045260246000fd5b7f4e487b7100000000000000000000000000000000000000000000000000000000600052602260045260246000fd5b6000601f19601f8301169050919050565b7f45524332303a207472616e7366657220746f20746865207a65726f206164647260008201527f6573730000000000000000000000000000000000000000000000000000000000602082015250565b7f45524332303a20617070726f766520746f20746865207a65726f20616464726560008201527f7373000000000000000000000000000000000000000000000000000000000000602082015250565b7f45524332303a207472616e7366657220616d6f756e742065786365656473206260008201527f616c616e63650000000000000000000000000000000000000000000000000000602082015250565b7f45524332303a207472616e7366657220616d6f756e742065786365656473206160008201527f6c6c6f77616e6365000000000000000000000000000000000000000000000000602082015250565b7f45524332303a207472616e736665722066726f6d20746865207a65726f20616460008201527f6472657373000000000000000000000000000000000000000000000000000000602082015250565b7f45524332303a20617070726f76652066726f6d20746865207a65726f2061646460008201527f7265737300000000000000000000000000000000000000000000000000000000602082015250565b7f45524332303a2064656372656173656420616c6c6f77616e63652062656c6f7760008201527f207a65726f000000000000000000000000000000000000000000000000000000602082015250565b61137181611016565b811461137c57600080fd5b50565b61138881611054565b811461139357600080fd5b5056fea2646970667358221220204ef60e4a3379fb11a8ec48da6df7e9f6ac278a78b78df73ec9c4fb0d4af84064736f6c63430008040033a26469706673582212206817b4f491db046b8c5773db4c605ee21054714bbd0453c2985f6be2298e12f164736f6c63430008040033",
  "linkReferences": {},
  "deployedLinkReferences": {}
}