{
  "_format": "hh-sol-artifact-1",
  "contractName": "Vault",
  "sourceName": "contracts/Vault.sol",
  "abi": [
    {
      "inputs": [
        {
          "internalType": "address",
          "name": "_wEthAddr",
          "type": "address"
        },
        {
          "internalType": "address",
          "name": "oracle",
          "type": "address"
        }
      ],
      "stateMutability": "nonpayable",
      "type": "constructor"
    },
    {
      "anonymous": false,
      "inputs": [
        {
          "indexed": false,
          "internalType": "address",
          "name": "from",
          "type": "address"
        },
        {
          "indexed": false,
          "internalType": "uint256",
          "name": "tokenId",
          "type": "uint256"
        },
        {
          "indexed": false,
          "internalType": "uint256",
          "name": "internalId",
          "type": "uint256"
        },
        {
          "indexed": false,
          "internalType": "address",
          "name": "nftAddr",
          "type": "address"
        }
      ],
      "name": "Recieved",
      "type": "event"
    },
    {
      "anonymous": false,
      "inputs": [
        {
          "indexed": false,
          "internalType": "address",
          "name": "to",
          "type": "address"
        },
        {
          "indexed": false,
          "internalType": "uint256",
          "name": "tokenId",
          "type": "uint256"
        },
        {
          "indexed": false,
          "internalType": "uint256",
          "name": "internalId",
          "type": "uint256"
        },
        {
          "indexed": false,
          "internalType": "address",
          "name": "nftAddr",
          "type": "address"
        }
      ],
      "name": "Released",
      "type": "event"
    },
    {
      "anonymous": false,
      "inputs": [
        {
          "indexed": true,
          "internalType": "bytes32",
          "name": "role",
          "type": "bytes32"
        },
        {
          "indexed": true,
          "internalType": "bytes32",
          "name": "previousAdminRole",
          "type": "bytes32"
        },
        {
          "indexed": true,
          "internalType": "bytes32",
          "name": "newAdminRole",
          "type": "bytes32"
        }
      ],
      "name": "RoleAdminChanged",
      "type": "event"
    },
    {
      "anonymous": false,
      "inputs": [
        {
          "indexed": true,
          "internalType": "bytes32",
          "name": "role",
          "type": "bytes32"
        },
        {
          "indexed": true,
          "internalType": "address",
          "name": "account",
          "type": "address"
        },
        {
          "indexed": true,
          "internalType": "address",
          "name": "sender",
          "type": "address"
        }
      ],
      "name": "RoleGranted",
      "type": "event"
    },
    {
      "anonymous": false,
      "inputs": [
        {
          "indexed": true,
          "internalType": "bytes32",
          "name": "role",
          "type": "bytes32"
        },
        {
          "indexed": true,
          "internalType": "address",
          "name": "account",
          "type": "address"
        },
        {
          "indexed": true,
          "internalType": "address",
          "name": "sender",
          "type": "address"
        }
      ],
      "name": "RoleRevoked",
      "type": "event"
    },
    {
      "anonymous": false,
      "inputs": [
        {
          "indexed": false,
          "internalType": "address",
          "name": "from",
          "type": "address"
        },
        {
          "indexed": false,
          "internalType": "uint256",
          "name": "tokenId",
          "type": "uint256"
        },
        {
          "indexed": false,
          "internalType": "uint256",
          "name": "internalId",
          "type": "uint256"
        },
        {
          "indexed": false,
          "internalType": "address",
          "name": "nftAddr",
          "type": "address"
        },
        {
          "indexed": false,
          "internalType": "string",
          "name": "chain",
          "type": "string"
        }
      ],
      "name": "XChainRegistered",
      "type": "event"
    },
    {
      "anonymous": false,
      "inputs": [
        {
          "indexed": false,
          "internalType": "address",
          "name": "to",
          "type": "address"
        },
        {
          "indexed": false,
          "internalType": "uint256",
          "name": "tokenId",
          "type": "uint256"
        },
        {
          "indexed": false,
          "internalType": "uint256",
          "name": "internalId",
          "type": "uint256"
        },
        {
          "indexed": false,
          "internalType": "address",
          "name": "nftAddr",
          "type": "address"
        },
        {
          "indexed": false,
          "internalType": "string",
          "name": "chain",
          "type": "string"
        }
      ],
      "name": "XChainRelease",
      "type": "event"
    },
    {
      "inputs": [],
      "name": "DEFAULT_ADMIN_ROLE",
      "outputs": [
        {
          "internalType": "bytes32",
          "name": "",
          "type": "bytes32"
        }
      ],
      "stateMutability": "view",
      "type": "function"
    },
    {
      "inputs": [],
      "name": "ORACLE_ROLE",
      "outputs": [
        {
          "internalType": "bytes32",
          "name": "",
          "type": "bytes32"
        }
      ],
      "stateMutability": "view",
      "type": "function"
    },
    {
      "inputs": [],
      "name": "OWNER",
      "outputs": [
        {
          "internalType": "bytes32",
          "name": "",
          "type": "bytes32"
        }
      ],
      "stateMutability": "view",
      "type": "function"
    },
    {
      "inputs": [
        {
          "internalType": "uint256",
          "name": "internalId",
          "type": "uint256"
        },
        {
          "internalType": "address",
          "name": "account",
          "type": "address"
        },
        {
          "internalType": "uint256",
          "name": "amount",
          "type": "uint256"
        }
      ],
      "name": "approveNFTokenTransfer",
      "outputs": [],
      "stateMutability": "nonpayable",
      "type": "function"
    },
    {
      "inputs": [
        {
          "internalType": "uint256",
          "name": "internalId",
          "type": "uint256"
        },
        {
          "internalType": "uint256",
          "name": "amountOfFrac",
          "type": "uint256"
        },
        {
          "internalType": "address",
          "name": "buyer",
          "type": "address"
        }
      ],
      "name": "buyTokens",
      "outputs": [],
      "stateMutability": "nonpayable",
      "type": "function"
    },
    {
      "inputs": [
        {
          "internalType": "uint256",
          "name": "internalId",
          "type": "uint256"
        },
        {
          "internalType": "uint256",
          "name": "amountOfFrac",
          "type": "uint256"
        }
      ],
      "name": "buyTokensIndividual",
      "outputs": [],
      "stateMutability": "nonpayable",
      "type": "function"
    },
    {
      "inputs": [
        {
          "internalType": "uint256",
          "name": "internalId",
          "type": "uint256"
        },
        {
          "internalType": "address",
          "name": "account",
          "type": "address"
        }
      ],
      "name": "buyoutERC721",
      "outputs": [],
      "stateMutability": "nonpayable",
      "type": "function"
    },
    {
      "inputs": [
        {
          "internalType": "uint256",
          "name": "_amountOfwEth",
          "type": "uint256"
        },
        {
          "internalType": "uint256",
          "name": "internalId",
          "type": "uint256"
        }
      ],
      "name": "calculateAmountOfFrac",
      "outputs": [
        {
          "internalType": "uint256",
          "name": "",
          "type": "uint256"
        }
      ],
      "stateMutability": "nonpayable",
      "type": "function"
    },
    {
      "inputs": [
        {
          "internalType": "uint256",
          "name": "_amountOfFrac",
          "type": "uint256"
        },
        {
          "internalType": "uint256",
          "name": "internalId",
          "type": "uint256"
        }
      ],
      "name": "calculateAmountOfwEth",
      "outputs": [
        {
          "internalType": "uint256",
          "name": "",
          "type": "uint256"
        }
      ],
      "stateMutability": "nonpayable",
      "type": "function"
    },
    {
      "inputs": [
        {
          "internalType": "uint256",
          "name": "internalId",
          "type": "uint256"
        },
        {
          "internalType": "address",
          "name": "account",
          "type": "address"
        },
        {
          "internalType": "uint256",
          "name": "amount",
          "type": "uint256"
        }
      ],
      "name": "depositNFToken",
      "outputs": [],
      "stateMutability": "nonpayable",
      "type": "function"
    },
    {
      "inputs": [
        {
          "internalType": "uint256",
          "name": "internalId",
          "type": "uint256"
        },
        {
          "internalType": "address",
          "name": "account",
          "type": "address"
        }
      ],
      "name": "getDepositAmount",
      "outputs": [
        {
          "internalType": "uint256",
          "name": "",
          "type": "uint256"
        }
      ],
      "stateMutability": "view",
      "type": "function"
    },
    {
      "inputs": [
        {
          "internalType": "uint256",
          "name": "internalId",
          "type": "uint256"
        }
      ],
      "name": "getERC721Chain",
      "outputs": [
        {
          "internalType": "string",
          "name": "",
          "type": "string"
        }
      ],
      "stateMutability": "view",
      "type": "function"
    },
    {
      "inputs": [
        {
          "internalType": "uint256",
          "name": "internalId",
          "type": "uint256"
        }
      ],
      "name": "getERC721ContractAddr",
      "outputs": [
        {
          "internalType": "address",
          "name": "",
          "type": "address"
        }
      ],
      "stateMutability": "view",
      "type": "function"
    },
    {
      "inputs": [
        {
          "internalType": "uint256",
          "name": "internalId",
          "type": "uint256"
        }
      ],
      "name": "getERC721Native",
      "outputs": [
        {
          "internalType": "bool",
          "name": "",
          "type": "bool"
        }
      ],
      "stateMutability": "view",
      "type": "function"
    },
    {
      "inputs": [
        {
          "internalType": "uint256",
          "name": "internalId",
          "type": "uint256"
        }
      ],
      "name": "getERC721TokenId",
      "outputs": [
        {
          "internalType": "uint256",
          "name": "",
          "type": "uint256"
        }
      ],
      "stateMutability": "view",
      "type": "function"
    },
    {
      "inputs": [],
      "name": "getInternalIdCounter",
      "outputs": [
        {
          "internalType": "uint256",
          "name": "",
          "type": "uint256"
        }
      ],
      "stateMutability": "view",
      "type": "function"
    },
    {
      "inputs": [
        {
          "internalType": "uint256",
          "name": "internalId",
          "type": "uint256"
        }
      ],
      "name": "getNFTContractAddr",
      "outputs": [
        {
          "internalType": "address",
          "name": "",
          "type": "address"
        }
      ],
      "stateMutability": "view",
      "type": "function"
    },
    {
      "inputs": [
        {
          "internalType": "uint256",
          "name": "internalId",
          "type": "uint256"
        }
      ],
      "name": "getNFTokenAddr",
      "outputs": [
        {
          "internalType": "address",
          "name": "",
          "type": "address"
        }
      ],
      "stateMutability": "view",
      "type": "function"
    },
    {
      "inputs": [
        {
          "internalType": "uint256",
          "name": "internalId",
          "type": "uint256"
        },
        {
          "internalType": "address",
          "name": "account",
          "type": "address"
        }
      ],
      "name": "getNFTokenBalance",
      "outputs": [
        {
          "internalType": "uint256",
          "name": "",
          "type": "uint256"
        }
      ],
      "stateMutability": "view",
      "type": "function"
    },
    {
      "inputs": [
        {
          "internalType": "uint256",
          "name": "internalId",
          "type": "uint256"
        }
      ],
      "name": "getNFTokenSupply",
      "outputs": [
        {
          "internalType": "uint256",
          "name": "",
          "type": "uint256"
        }
      ],
      "stateMutability": "view",
      "type": "function"
    },
    {
      "inputs": [
        {
          "internalType": "address",
          "name": "account",
          "type": "address"
        }
      ],
      "name": "getNumIdsOwned",
      "outputs": [
        {
          "internalType": "uint256",
          "name": "",
          "type": "uint256"
        }
      ],
      "stateMutability": "view",
      "type": "function"
    },
    {
      "inputs": [],
      "name": "getNumberDepositedERC721s",
      "outputs": [
        {
          "internalType": "uint256",
          "name": "",
          "type": "uint256"
        }
      ],
      "stateMutability": "view",
      "type": "function"
    },
    {
      "inputs": [
        {
          "internalType": "uint256",
          "name": "internalId",
          "type": "uint256"
        }
      ],
      "name": "getOwned",
      "outputs": [
        {
          "internalType": "bool",
          "name": "",
          "type": "bool"
        }
      ],
      "stateMutability": "view",
      "type": "function"
    },
    {
      "inputs": [
        {
          "internalType": "address",
          "name": "account",
          "type": "address"
        }
      ],
      "name": "getOwnedInternalIds",
      "outputs": [
        {
          "internalType": "uint256[]",
          "name": "",
          "type": "uint256[]"
        }
      ],
      "stateMutability": "view",
      "type": "function"
    },
    {
      "inputs": [
        {
          "internalType": "bytes32",
          "name": "role",
          "type": "bytes32"
        }
      ],
      "name": "getRoleAdmin",
      "outputs": [
        {
          "internalType": "bytes32",
          "name": "",
          "type": "bytes32"
        }
      ],
      "stateMutability": "view",
      "type": "function"
    },
    {
      "inputs": [],
      "name": "getwEthAddr",
      "outputs": [
        {
          "internalType": "address",
          "name": "",
          "type": "address"
        }
      ],
      "stateMutability": "nonpayable",
      "type": "function"
    },
    {
      "inputs": [
        {
          "internalType": "address",
          "name": "account",
          "type": "address"
        }
      ],
      "name": "grantOracle",
      "outputs": [],
      "stateMutability": "nonpayable",
      "type": "function"
    },
    {
      "inputs": [
        {
          "internalType": "bytes32",
          "name": "role",
          "type": "bytes32"
        },
        {
          "internalType": "address",
          "name": "account",
          "type": "address"
        }
      ],
      "name": "grantRole",
      "outputs": [],
      "stateMutability": "nonpayable",
      "type": "function"
    },
    {
      "inputs": [
        {
          "internalType": "bytes32",
          "name": "role",
          "type": "bytes32"
        },
        {
          "internalType": "address",
          "name": "account",
          "type": "address"
        }
      ],
      "name": "hasRole",
      "outputs": [
        {
          "internalType": "bool",
          "name": "",
          "type": "bool"
        }
      ],
      "stateMutability": "view",
      "type": "function"
    },
    {
      "inputs": [
        {
          "internalType": "uint256",
          "name": "supply",
          "type": "uint256"
        },
        {
          "internalType": "string",
          "name": "name",
          "type": "string"
        },
        {
          "internalType": "string",
          "name": "ticker",
          "type": "string"
        },
        {
          "internalType": "uint256",
          "name": "internalId",
          "type": "uint256"
        },
        {
          "internalType": "uint256",
          "name": "amountToKeep",
          "type": "uint256"
        }
      ],
      "name": "mintTokensForNFT",
      "outputs": [
        {
          "internalType": "contract NFToken",
          "name": "",
          "type": "address"
        }
      ],
      "stateMutability": "nonpayable",
      "type": "function"
    },
    {
      "inputs": [
        {
          "internalType": "address",
          "name": "operator",
          "type": "address"
        },
        {
          "internalType": "address",
          "name": "from",
          "type": "address"
        },
        {
          "internalType": "uint256",
          "name": "tokenId",
          "type": "uint256"
        },
        {
          "internalType": "bytes",
          "name": "data",
          "type": "bytes"
        }
      ],
      "name": "onERC721Received",
      "outputs": [
        {
          "internalType": "bytes4",
          "name": "",
          "type": "bytes4"
        }
      ],
      "stateMutability": "nonpayable",
      "type": "function"
    },
    {
      "inputs": [
        {
          "internalType": "address",
          "name": "sender",
          "type": "address"
        },
        {
          "internalType": "uint256",
          "name": "tokenId",
          "type": "uint256"
        },
        {
          "internalType": "uint256",
          "name": "internalId",
          "type": "uint256"
        },
        {
          "internalType": "address",
          "name": "nftAddr",
          "type": "address"
        },
        {
          "internalType": "string",
          "name": "chain",
          "type": "string"
        }
      ],
      "name": "registerXChainNFT",
      "outputs": [],
      "stateMutability": "nonpayable",
      "type": "function"
    },
    {
      "inputs": [
        {
          "internalType": "bytes32",
          "name": "role",
          "type": "bytes32"
        },
        {
          "internalType": "address",
          "name": "account",
          "type": "address"
        }
      ],
      "name": "renounceRole",
      "outputs": [],
      "stateMutability": "nonpayable",
      "type": "function"
    },
    {
      "inputs": [
        {
          "internalType": "bytes32",
          "name": "role",
          "type": "bytes32"
        },
        {
          "internalType": "address",
          "name": "account",
          "type": "address"
        }
      ],
      "name": "revokeRole",
      "outputs": [],
      "stateMutability": "nonpayable",
      "type": "function"
    },
    {
      "inputs": [
        {
          "internalType": "uint256",
          "name": "internalId",
          "type": "uint256"
        },
        {
          "internalType": "uint256",
          "name": "amountOfwEth",
          "type": "uint256"
        },
        {
          "internalType": "address",
          "name": "seller",
          "type": "address"
        }
      ],
      "name": "sellTokens",
      "outputs": [],
      "stateMutability": "nonpayable",
      "type": "function"
    },
    {
      "inputs": [
        {
          "internalType": "uint256",
          "name": "internalId",
          "type": "uint256"
        },
        {
          "internalType": "uint256",
          "name": "amountOfwEth",
          "type": "uint256"
        }
      ],
      "name": "sellTokensIndividual",
      "outputs": [],
      "stateMutability": "nonpayable",
      "type": "function"
    },
    {
      "inputs": [
        {
          "internalType": "bytes4",
          "name": "interfaceId",
          "type": "bytes4"
        }
      ],
      "name": "supportsInterface",
      "outputs": [
        {
          "internalType": "bool",
          "name": "",
          "type": "bool"
        }
      ],
      "stateMutability": "view",
      "type": "function"
    },
    {
      "inputs": [
        {
          "internalType": "uint256",
          "name": "internalId",
          "type": "uint256"
        },
        {
          "internalType": "address",
          "name": "account",
          "type": "address"
        },
        {
          "internalType": "uint256",
          "name": "amount",
          "type": "uint256"
        }
      ],
      "name": "withdrawNFToken",
      "outputs": [],
      "stateMutability": "nonpayable",
      "type": "function"
    }
  ],
  "bytecode": "0x608060405260006002553480156200001657600080fd5b506040516200639e3803806200639e83398181016040528101906200003c91906200034d565b81600160006101000a81548173ffffffffffffffffffffffffffffffffffffffff021916908373ffffffffffffffffffffffffffffffffffffffff160217905550620000af7f6270edb7c868f86fda4adedba75108201087268ea345934db8bad688e1feb91b336200013b60201b60201c565b620000e17f68e79a7bf1e0bc45d0a330c573bc367f9cf464fd326078812f301165fbda4ef1826200013b60201b60201c565b620001337f68e79a7bf1e0bc45d0a330c573bc367f9cf464fd326078812f301165fbda4ef17f6270edb7c868f86fda4adedba75108201087268ea345934db8bad688e1feb91b6200015160201b60201c565b5050620003dc565b6200014d8282620001b460201b60201c565b5050565b60006200016483620002a560201b60201c565b905081600080858152602001908152602001600020600101819055508181847fbd79b86ffe0ab8e8776151514217cd7cacd52c909f66475c3af44e129f0b00ff60405160405180910390a4505050565b620001c68282620002c460201b60201c565b620002a157600160008084815260200190815260200160002060000160008373ffffffffffffffffffffffffffffffffffffffff1673ffffffffffffffffffffffffffffffffffffffff16815260200190815260200160002060006101000a81548160ff021916908315150217905550620002466200032e60201b60201c565b73ffffffffffffffffffffffffffffffffffffffff168173ffffffffffffffffffffffffffffffffffffffff16837f2f8788117e7eff1d82e926ec794901d17c78024a50270940304540a733656f0d60405160405180910390a45b5050565b6000806000838152602001908152602001600020600101549050919050565b600080600084815260200190815260200160002060000160008373ffffffffffffffffffffffffffffffffffffffff1673ffffffffffffffffffffffffffffffffffffffff16815260200190815260200160002060009054906101000a900460ff16905092915050565b600033905090565b6000815190506200034781620003c2565b92915050565b600080604083850312156200036157600080fd5b6000620003718582860162000336565b9250506020620003848582860162000336565b9150509250929050565b60006200039b82620003a2565b9050919050565b600073ffffffffffffffffffffffffffffffffffffffff82169050919050565b620003cd816200038e565b8114620003d957600080fd5b50565b615fb280620003ec6000396000f3fe60806040523480156200001157600080fd5b5060043610620002685760003560e01c806386b5e7ea116200014d578063c168787711620000c9578063de75a5c01162000087578063de75a5c014620007f9578063e683c239146200082f578063ef569f9a146200084f578063f2484045146200086f578063f605a25414620008a55762000268565b8063c16878771462000743578063c44f7a171462000763578063c4cc23101462000783578063cae244b414620007a3578063d547741f14620007d95762000268565b8063a919b74a1162000117578063a919b74a146200068b578063af3ddc1a14620006c1578063b7cebb3e14620006e1578063bd3d43371462000703578063be7a178914620007235762000268565b806386b5e7ea14620005c757806391d1485414620005fd5780639eefad981462000633578063a217fddf14620006695762000268565b8063312f0d8011620001e957806349f1c75311620001a757806349f1c75314620004cd5780634debe86a146200050357806365d51d881462000525578063742f23c7146200055b57806380168c7b14620005915762000268565b8063312f0d8014620003ff57806336568abe146200041f578063397bafd6146200043f57806340aa97ec1462000461578063442f6bd914620004975762000268565b8063117803e31162000237578063117803e31462000331578063150b7a0214620003535780631b2d83cd1462000389578063248a9ca314620003a95780632f2ff15d14620003df5762000268565b806301ffc9a7146200026d57806307e2cea514620002a35780630b1a08e514620002c5578063102af74814620002fb575b600080fd5b6200028b60048036038101906200028591906200324b565b620008db565b6040516200029a919062003a18565b60405180910390f35b620002ad62000958565b604051620002bc919062003a35565b60405180910390f35b620002e36004803603810190620002dd91906200341a565b6200097c565b604051620002f2919062003c26565b60405180910390f35b62000319600480360381019062000313919062003066565b620009aa565b604051620003289190620039f4565b60405180910390f35b6200033b62000c0f565b6040516200034a919062003a35565b60405180910390f35b6200037160048036038101906200036b919062003092565b62000c33565b60405162000380919062003a52565b60405180910390f35b620003a76004803603810190620003a1919062003310565b62000fa8565b005b620003c76004803603810190620003c19190620031de565b62001030565b604051620003d6919062003a35565b60405180910390f35b620003fd6004803603810190620003f791906200320a565b6200104f565b005b6200041d6004803603810190620004179190620032cf565b62001080565b005b6200043d60048036038101906200043791906200320a565b62001271565b005b62000449620012fb565b60405162000458919062003c26565b60405180910390f35b6200047f600480360381019062000479919062003066565b62001313565b6040516200048e919062003c26565b60405180910390f35b620004b56004803603810190620004af919062003366565b6200135c565b604051620004c4919062003a6f565b60405180910390f35b620004eb6004803603810190620004e5919062003277565b62001680565b604051620004fa919062003861565b60405180910390f35b6200050d620016c0565b6040516200051c919062003861565b60405180910390f35b6200054360048036038101906200053d91906200341a565b620016ea565b60405162000552919062003c26565b60405180910390f35b62000579600480360381019062000573919062003277565b62001718565b60405162000588919062003861565b60405180910390f35b620005af6004803603810190620005a9919062003277565b62001758565b604051620005be919062003c26565b60405180910390f35b620005e56004803603810190620005df919062003277565b62001778565b604051620005f4919062003861565b60405180910390f35b6200061b60048036038101906200061591906200320a565b620017b8565b6040516200062a919062003a18565b60405180910390f35b6200065160048036038101906200064b919062003277565b62001822565b60405162000660919062003c26565b60405180910390f35b62000673620018bc565b60405162000682919062003a35565b60405180910390f35b620006a96004803603810190620006a3919062003277565b620018c3565b604051620006b8919062003a18565b60405180910390f35b620006df6004803603810190620006d9919062003310565b620018f0565b005b620006eb62001a53565b604051620006fa919062003c26565b60405180910390f35b6200072160048036038101906200071b91906200341a565b62001a5d565b005b6200074160048036038101906200073b919062003066565b62001a6e565b005b6200076160048036038101906200075b91906200345b565b62001ad4565b005b6200078160048036038101906200077b919062003310565b62001d89565b005b620007a160048036038101906200079b919062003117565b62001eee565b005b620007c16004803603810190620007bb9190620032cf565b62002288565b604051620007d0919062003c26565b60405180910390f35b620007f76004803603810190620007f191906200320a565b62002330565b005b620008176004803603810190620008119190620032cf565b62002361565b60405162000826919062003c26565b60405180910390f35b6200084d60048036038101906200084791906200341a565b620023bc565b005b6200086d60048036038101906200086791906200345b565b620023cd565b005b6200088d600480360381019062000887919062003277565b62002682565b6040516200089c919062003a8c565b60405180910390f35b620008c36004803603810190620008bd919062003277565b62002732565b604051620008d2919062003a18565b60405180910390f35b60007f7965db0b000000000000000000000000000000000000000000000000000000007bffffffffffffffffffffffffffffffffffffffffffffffffffffffff1916827bffffffffffffffffffffffffffffffffffffffffffffffffffffffff1916148062000951575062000950826200275f565b5b9050919050565b7f68e79a7bf1e0bc45d0a330c573bc367f9cf464fd326078812f301165fbda4ef181565b6000826003600084815260200190815260200160002060070154620009a2919062003dcd565b905092915050565b60606000620009b98362001313565b905060008167ffffffffffffffff811115620009fe577f4e487b7100000000000000000000000000000000000000000000000000000000600052604160045260246000fd5b60405190808252806020026020018201604052801562000a2d5781602001602082028036833780820191505090505b5090506000805b600560008773ffffffffffffffffffffffffffffffffffffffff1673ffffffffffffffffffffffffffffffffffffffff1681526020019081526020016000208054905081101562000c035762000b0c600560008873ffffffffffffffffffffffffffffffffffffffff1673ffffffffffffffffffffffffffffffffffffffff168152602001908152602001600020828154811062000afb577f4e487b7100000000000000000000000000000000000000000000000000000000600052603260045260246000fd5b9060005260206000200154620018c3565b1562000bed57600560008773ffffffffffffffffffffffffffffffffffffffff1673ffffffffffffffffffffffffffffffffffffffff168152602001908152602001600020818154811062000b8a577f4e487b7100000000000000000000000000000000000000000000000000000000600052603260045260246000fd5b906000526020600020015483838151811062000bcf577f4e487b7100000000000000000000000000000000000000000000000000000000600052603260045260246000fd5b60200260200101818152505060018262000bea919062003d38565b91505b808062000bfa9062003ff1565b91505062000a34565b50819350505050919050565b7f6270edb7c868f86fda4adedba75108201087268ea345934db8bad688e1feb91b81565b600062000c3f62002da8565b60025481604001818152505033816060019073ffffffffffffffffffffffffffffffffffffffff16908173ffffffffffffffffffffffffffffffffffffffff1681525050848160a0019073ffffffffffffffffffffffffffffffffffffffff16908173ffffffffffffffffffffffffffffffffffffffff16815250508381608001818152505060018160e0018181525050600181610100019015159081151581525050600181602001901515908115158152505080600360006002548152602001908152602001600020600082015181600001908051906020019062000d2792919062002e3a565b5060208201518160010160006101000a81548160ff0219169083151502179055506040820151816002015560608201518160030160006101000a81548173ffffffffffffffffffffffffffffffffffffffff021916908373ffffffffffffffffffffffffffffffffffffffff1602179055506080820151816004015560a08201518160050160006101000a81548173ffffffffffffffffffffffffffffffffffffffff021916908373ffffffffffffffffffffffffffffffffffffffff16021790555060c08201518160060160006101000a81548173ffffffffffffffffffffffffffffffffffffffff021916908373ffffffffffffffffffffffffffffffffffffffff16021790555060e082015181600701556101008201518160080160006101000a81548160ff02191690831515021790555090505060056000826060015173ffffffffffffffffffffffffffffffffffffffff1673ffffffffffffffffffffffffffffffffffffffff16815260200190815260200160002081604001519080600181540180825580915050600190039060005260206000200160009091909190915055600160066000836060015173ffffffffffffffffffffffffffffffffffffffff1673ffffffffffffffffffffffffffffffffffffffff168152602001908152602001600020600082825462000f23919062003d38565b925050819055507f935d05cbf9fa27cbf03a09eb57f4384da509a8e34d406b8b8e1c21b249e25c168160a0015182608001518360400151846060015160405162000f71949392919062003943565b60405180910390a160016002600082825462000f8e919062003d38565b9250508190555063150b7a0260e01b915050949350505050565b600062000fb58462001778565b90508073ffffffffffffffffffffffffffffffffffffffff1663ca56c18a8430856040518463ffffffff1660e01b815260040162000ff6939291906200387e565b600060405180830381600087803b1580156200101157600080fd5b505af115801562001026573d6000803e3d6000fd5b5050505050505050565b6000806000838152602001908152602001600020600101549050919050565b6200105a8262001030565b6200106f8162001069620027c9565b620027d1565b6200107b838362002879565b505050565b6200108b8262001822565b62001097838362002361565b14620010da576040517f08c379a0000000000000000000000000000000000000000000000000000000008152600401620010d19062003ad2565b60405180910390fd5b620010e58262002732565b156200117e576000620010f88362001718565b90508073ffffffffffffffffffffffffffffffffffffffff166323b872dd3084620011238762001758565b6040518463ffffffff1660e01b815260040162001143939291906200387e565b600060405180830381600087803b1580156200115e57600080fd5b505af115801562001173573d6000803e3d6000fd5b5050505050620011de565b7fce4aa2b7a1e4f262227e14de48a45fd81c1973345b61541ee9a975c72e918ecd81620011ab8462001758565b84620011b78662001718565b620011c28762002682565b604051620011d595949392919062003990565b60405180910390a15b6001600660006003600086815260200190815260200160002060050160009054906101000a900473ffffffffffffffffffffffffffffffffffffffff1673ffffffffffffffffffffffffffffffffffffffff1673ffffffffffffffffffffffffffffffffffffffff168152602001908152602001600020600082825462001266919062003e2e565b925050819055505050565b6200127b620027c9565b73ffffffffffffffffffffffffffffffffffffffff168173ffffffffffffffffffffffffffffffffffffffff1614620012eb576040517f08c379a0000000000000000000000000000000000000000000000000000000008152600401620012e29062003be2565b60405180910390fd5b620012f782826200295e565b5050565b600060016002546200130e919062003e2e565b905090565b6000600660008373ffffffffffffffffffffffffffffffffffffffff1673ffffffffffffffffffffffffffffffffffffffff168152602001908152602001600020549050919050565b60003373ffffffffffffffffffffffffffffffffffffffff166003600085815260200190815260200160002060050160009054906101000a900473ffffffffffffffffffffffffffffffffffffffff1673ffffffffffffffffffffffffffffffffffffffff161462001405576040517f08c379a0000000000000000000000000000000000000000000000000000000008152600401620013fc9062003b7c565b60405180910390fd5b600073ffffffffffffffffffffffffffffffffffffffff166003600085815260200190815260200160002060060160009054906101000a900473ffffffffffffffffffffffffffffffffffffffff1673ffffffffffffffffffffffffffffffffffffffff1614620014ad576040517f08c379a0000000000000000000000000000000000000000000000000000000008152600401620014a49062003b38565b60405180910390fd5b6000620014be308589898962002a44565b90508073ffffffffffffffffffffffffffffffffffffffff1663095ea7b330856040518363ffffffff1660e01b8152600401620014fd929190620038bb565b602060405180830381600087803b1580156200151857600080fd5b505af11580156200152d573d6000803e3d6000fd5b505050506040513d601f19601f82011682018060405250810190620015539190620031b2565b508073ffffffffffffffffffffffffffffffffffffffff1663a9059cbb6003600087815260200190815260200160002060050160009054906101000a900473ffffffffffffffffffffffffffffffffffffffff16856040518363ffffffff1660e01b8152600401620015c7929190620038bb565b602060405180830381600087803b158015620015e257600080fd5b505af1158015620015f7573d6000803e3d6000fd5b505050506040513d601f19601f820116820180604052508101906200161d9190620031b2565b50806003600086815260200190815260200160002060060160006101000a81548173ffffffffffffffffffffffffffffffffffffffff021916908373ffffffffffffffffffffffffffffffffffffffff1602179055508091505095945050505050565b60006003600083815260200190815260200160002060030160009054906101000a900473ffffffffffffffffffffffffffffffffffffffff169050919050565b6000600160009054906101000a900473ffffffffffffffffffffffffffffffffffffffff16905090565b600060036000838152602001908152602001600020600701548362001710919062003d95565b905092915050565b60006003600083815260200190815260200160002060030160009054906101000a900473ffffffffffffffffffffffffffffffffffffffff169050919050565b600060036000838152602001908152602001600020600401549050919050565b60006003600083815260200190815260200160002060060160009054906101000a900473ffffffffffffffffffffffffffffffffffffffff169050919050565b600080600084815260200190815260200160002060000160008373ffffffffffffffffffffffffffffffffffffffff1673ffffffffffffffffffffffffffffffffffffffff16815260200190815260200160002060009054906101000a900460ff16905092915050565b600080620018308362001778565b90508073ffffffffffffffffffffffffffffffffffffffff166318160ddd6040518163ffffffff1660e01b815260040160206040518083038186803b1580156200187957600080fd5b505afa1580156200188e573d6000803e3d6000fd5b505050506040513d601f19601f82011682018060405250810190620018b49190620032a3565b915050919050565b6000801b81565b60006003600083815260200190815260200160002060080160009054906101000a900460ff169050919050565b620018fc838362002361565b81111562001941576040517f08c379a0000000000000000000000000000000000000000000000000000000008152600401620019389062003af4565b60405180910390fd5b80600460008473ffffffffffffffffffffffffffffffffffffffff1673ffffffffffffffffffffffffffffffffffffffff16815260200190815260200160002060008581526020019081526020016000206000828254620019a3919062003e2e565b925050819055506000620019b78462001778565b90508073ffffffffffffffffffffffffffffffffffffffff1663a9059cbb84846040518363ffffffff1660e01b8152600401620019f6929190620038bb565b602060405180830381600087803b15801562001a1157600080fd5b505af115801562001a26573d6000803e3d6000fd5b505050506040513d601f19601f8201168201806040525081019062001a4c9190620031b2565b5050505050565b6000600254905090565b62001a6a828233620023cd565b5050565b7f6270edb7c868f86fda4adedba75108201087268ea345934db8bad688e1feb91b62001aa48162001a9e620027c9565b620027d1565b62001ad07f68e79a7bf1e0bc45d0a330c573bc367f9cf464fd326078812f301165fbda4ef18362002879565b5050565b600062001ae18462001778565b9050600062001aef620016c0565b9050600062001aff85876200097c565b9050848373ffffffffffffffffffffffffffffffffffffffff166370a08231306040518263ffffffff1660e01b815260040162001b3d919062003861565b60206040518083038186803b15801562001b5657600080fd5b505afa15801562001b6b573d6000803e3d6000fd5b505050506040513d601f19601f8201168201806040525081019062001b919190620032a3565b101562001bd5576040517f08c379a000000000000000000000000000000000000000000000000000000000815260040162001bcc9062003c04565b60405180910390fd5b8173ffffffffffffffffffffffffffffffffffffffff166323b872dd8530846040518463ffffffff1660e01b815260040162001c14939291906200387e565b602060405180830381600087803b15801562001c2f57600080fd5b505af115801562001c44573d6000803e3d6000fd5b505050506040513d601f19601f8201168201806040525081019062001c6a9190620031b2565b62001cac576040517f08c379a000000000000000000000000000000000000000000000000000000000815260040162001ca39062003b16565b60405180910390fd5b8273ffffffffffffffffffffffffffffffffffffffff1663a9059cbb85876040518363ffffffff1660e01b815260040162001ce9929190620038bb565b602060405180830381600087803b15801562001d0457600080fd5b505af115801562001d19573d6000803e3d6000fd5b505050506040513d601f19601f8201168201806040525081019062001d3f9190620031b2565b62001d81576040517f08c379a000000000000000000000000000000000000000000000000000000000815260040162001d789062003b5a565b60405180910390fd5b505050505050565b8062001d96848462002288565b101562001dda576040517f08c379a000000000000000000000000000000000000000000000000000000000815260040162001dd19062003b9e565b60405180910390fd5b600062001de78462001778565b90508073ffffffffffffffffffffffffffffffffffffffff166323b872dd8430856040518463ffffffff1660e01b815260040162001e28939291906200387e565b602060405180830381600087803b15801562001e4357600080fd5b505af115801562001e58573d6000803e3d6000fd5b505050506040513d601f19601f8201168201806040525081019062001e7e9190620031b2565b5081600460008573ffffffffffffffffffffffffffffffffffffffff1673ffffffffffffffffffffffffffffffffffffffff1681526020019081526020016000206000868152602001908152602001600020600082825462001ee1919062003d38565b9250508190555050505050565b7f68e79a7bf1e0bc45d0a330c573bc367f9cf464fd326078812f301165fbda4ef162001f248162001f1e620027c9565b620027d1565b62001f2e62002da8565b60025481604001818152505083816060019073ffffffffffffffffffffffffffffffffffffffff16908173ffffffffffffffffffffffffffffffffffffffff1681525050868160a0019073ffffffffffffffffffffffffffffffffffffffff16908173ffffffffffffffffffffffffffffffffffffffff16815250508581608001818152505060018160e001818152505060018161010001901515908115158152505082816000018190525060008160200190151590811515815250508060036000600254815260200190815260200160002060008201518160000190805190602001906200201f92919062002e3a565b5060208201518160010160006101000a81548160ff0219169083151502179055506040820151816002015560608201518160030160006101000a81548173ffffffffffffffffffffffffffffffffffffffff021916908373ffffffffffffffffffffffffffffffffffffffff1602179055506080820151816004015560a08201518160050160006101000a81548173ffffffffffffffffffffffffffffffffffffffff021916908373ffffffffffffffffffffffffffffffffffffffff16021790555060c08201518160060160006101000a81548173ffffffffffffffffffffffffffffffffffffffff021916908373ffffffffffffffffffffffffffffffffffffffff16021790555060e082015181600701556101008201518160080160006101000a81548160ff02191690831515021790555090505060056000826060015173ffffffffffffffffffffffffffffffffffffffff1673ffffffffffffffffffffffffffffffffffffffff16815260200190815260200160002081604001519080600181540180825580915050600190039060005260206000200160009091909190915055600160066000836060015173ffffffffffffffffffffffffffffffffffffffff1673ffffffffffffffffffffffffffffffffffffffff16815260200190815260200160002060008282546200221b919062003d38565b925050819055507ffbadd334d5c7d90775197262dbdf7fef084ae495bcb788e8aaab340c8f3848c487878787876040516200225b95949392919062003990565b60405180910390a160016002600082825462002278919062003d38565b9250508190555050505050505050565b600080620022968462001778565b90508073ffffffffffffffffffffffffffffffffffffffff166370a08231846040518263ffffffff1660e01b8152600401620022d3919062003861565b60206040518083038186803b158015620022ec57600080fd5b505afa15801562002301573d6000803e3d6000fd5b505050506040513d601f19601f82011682018060405250810190620023279190620032a3565b91505092915050565b6200233b8262001030565b62002350816200234a620027c9565b620027d1565b6200235c83836200295e565b505050565b6000600460008373ffffffffffffffffffffffffffffffffffffffff1673ffffffffffffffffffffffffffffffffffffffff168152602001908152602001600020600084815260200190815260200160002054905092915050565b620023c982823362001ad4565b5050565b6000620023da8462001778565b90506000620023e8620016c0565b90506000620023f88587620016ea565b9050808373ffffffffffffffffffffffffffffffffffffffff166370a08231866040518263ffffffff1660e01b815260040162002436919062003861565b60206040518083038186803b1580156200244f57600080fd5b505afa15801562002464573d6000803e3d6000fd5b505050506040513d601f19601f820116820180604052508101906200248a9190620032a3565b1015620024ce576040517f08c379a0000000000000000000000000000000000000000000000000000000008152600401620024c59062003bc0565b60405180910390fd5b8273ffffffffffffffffffffffffffffffffffffffff166323b872dd8530846040518463ffffffff1660e01b81526004016200250d939291906200387e565b602060405180830381600087803b1580156200252857600080fd5b505af11580156200253d573d6000803e3d6000fd5b505050506040513d601f19601f82011682018060405250810190620025639190620031b2565b620025a5576040517f08c379a00000000000000000000000000000000000000000000000000000000081526004016200259c9062003b5a565b60405180910390fd5b8173ffffffffffffffffffffffffffffffffffffffff1663a9059cbb85876040518363ffffffff1660e01b8152600401620025e2929190620038bb565b602060405180830381600087803b158015620025fd57600080fd5b505af115801562002612573d6000803e3d6000fd5b505050506040513d601f19601f82011682018060405250810190620026389190620031b2565b6200267a576040517f08c379a0000000000000000000000000000000000000000000000000000000008152600401620026719062003b16565b60405180910390fd5b505050505050565b6060600360008381526020019081526020016000206000018054620026a79062003f85565b80601f0160208091040260200160405190810160405280929190818152602001828054620026d59062003f85565b8015620027265780601f10620026fa5761010080835404028352916020019162002726565b820191906000526020600020905b8154815290600101906020018083116200270857829003601f168201915b50505050509050919050565b60006003600083815260200190815260200160002060010160009054906101000a900460ff169050919050565b60007f01ffc9a7000000000000000000000000000000000000000000000000000000007bffffffffffffffffffffffffffffffffffffffffffffffffffffffff1916827bffffffffffffffffffffffffffffffffffffffffffffffffffffffff1916149050919050565b600033905090565b620027dd8282620017b8565b6200287557620028058173ffffffffffffffffffffffffffffffffffffffff16601462002a99565b620028158360001c602062002a99565b604051602001620028289291906200381f565b6040516020818303038152906040526040517f08c379a00000000000000000000000000000000000000000000000000000000081526004016200286c919062003a8c565b60405180910390fd5b5050565b620028858282620017b8565b6200295a57600160008084815260200190815260200160002060000160008373ffffffffffffffffffffffffffffffffffffffff1673ffffffffffffffffffffffffffffffffffffffff16815260200190815260200160002060006101000a81548160ff021916908315150217905550620028ff620027c9565b73ffffffffffffffffffffffffffffffffffffffff168173ffffffffffffffffffffffffffffffffffffffff16837f2f8788117e7eff1d82e926ec794901d17c78024a50270940304540a733656f0d60405160405180910390a45b5050565b6200296a8282620017b8565b1562002a4057600080600084815260200190815260200160002060000160008373ffffffffffffffffffffffffffffffffffffffff1673ffffffffffffffffffffffffffffffffffffffff16815260200190815260200160002060006101000a81548160ff021916908315150217905550620029e5620027c9565b73ffffffffffffffffffffffffffffffffffffffff168173ffffffffffffffffffffffffffffffffffffffff16837ff6391f5c32d9c69d2a47ea670b442974b53935d1edc7fd64eb21e047a839171b60405160405180910390a45b5050565b6000606060008786868660405162002a5c9062002ecb565b62002a6b9493929190620038e8565b604051809103906000f08015801562002a88573d6000803e3d6000fd5b509050809250505095945050505050565b60606000600283600262002aae919062003dcd565b62002aba919062003d38565b67ffffffffffffffff81111562002afa577f4e487b7100000000000000000000000000000000000000000000000000000000600052604160045260246000fd5b6040519080825280601f01601f19166020018201604052801562002b2d5781602001600182028036833780820191505090505b5090507f30000000000000000000000000000000000000000000000000000000000000008160008151811062002b8c577f4e487b7100000000000000000000000000000000000000000000000000000000600052603260045260246000fd5b60200101907effffffffffffffffffffffffffffffffffffffffffffffffffffffffffffff1916908160001a9053507f78000000000000000000000000000000000000000000000000000000000000008160018151811062002c17577f4e487b7100000000000000000000000000000000000000000000000000000000600052603260045260246000fd5b60200101907effffffffffffffffffffffffffffffffffffffffffffffffffffffffffffff1916908160001a9053506000600184600262002c59919062003dcd565b62002c65919062003d38565b90505b600181111562002d57577f3031323334353637383961626364656600000000000000000000000000000000600f86166010811062002ccf577f4e487b7100000000000000000000000000000000000000000000000000000000600052603260045260246000fd5b1a60f81b82828151811062002d0d577f4e487b7100000000000000000000000000000000000000000000000000000000600052603260045260246000fd5b60200101907effffffffffffffffffffffffffffffffffffffffffffffffffffffffffffff1916908160001a905350600485901c94508062002d4f9062003f56565b905062002c68565b506000841462002d9e576040517f08c379a000000000000000000000000000000000000000000000000000000000815260040162002d959062003ab0565b60405180910390fd5b8091505092915050565b6040518061012001604052806060815260200160001515815260200160008152602001600073ffffffffffffffffffffffffffffffffffffffff16815260200160008152602001600073ffffffffffffffffffffffffffffffffffffffff168152602001600073ffffffffffffffffffffffffffffffffffffffff168152602001600081526020016000151581525090565b82805462002e489062003f85565b90600052602060002090601f01602090048101928262002e6c576000855562002eb8565b82601f1062002e8757805160ff191683800117855562002eb8565b8280016001018555821562002eb8579182015b8281111562002eb757825182559160200191906001019062002e9a565b5b50905062002ec7919062002ed9565b5090565b611af5806200448883390190565b5b8082111562002ef457600081600090555060010162002eda565b5090565b600062002f0f62002f098462003c6c565b62003c43565b90508281526020810184848401111562002f2857600080fd5b62002f3584828562003f11565b509392505050565b600062002f5462002f4e8462003ca2565b62003c43565b90508281526020810184848401111562002f6d57600080fd5b62002f7a84828562003f11565b509392505050565b60008135905062002f938162004405565b92915050565b60008151905062002faa816200441f565b92915050565b60008135905062002fc18162004439565b92915050565b60008135905062002fd88162004453565b92915050565b600082601f83011262002ff057600080fd5b81356200300284826020860162002ef8565b91505092915050565b600082601f8301126200301d57600080fd5b81356200302f84826020860162002f3d565b91505092915050565b60008135905062003049816200446d565b92915050565b60008151905062003060816200446d565b92915050565b6000602082840312156200307957600080fd5b6000620030898482850162002f82565b91505092915050565b60008060008060808587031215620030a957600080fd5b6000620030b98782880162002f82565b9450506020620030cc8782880162002f82565b9350506040620030df8782880162003038565b925050606085013567ffffffffffffffff811115620030fd57600080fd5b6200310b8782880162002fde565b91505092959194509250565b600080600080600060a086880312156200313057600080fd5b6000620031408882890162002f82565b9550506020620031538882890162003038565b9450506040620031668882890162003038565b9350506060620031798882890162002f82565b925050608086013567ffffffffffffffff8111156200319757600080fd5b620031a5888289016200300b565b9150509295509295909350565b600060208284031215620031c557600080fd5b6000620031d58482850162002f99565b91505092915050565b600060208284031215620031f157600080fd5b6000620032018482850162002fb0565b91505092915050565b600080604083850312156200321e57600080fd5b60006200322e8582860162002fb0565b9250506020620032418582860162002f82565b9150509250929050565b6000602082840312156200325e57600080fd5b60006200326e8482850162002fc7565b91505092915050565b6000602082840312156200328a57600080fd5b60006200329a8482850162003038565b91505092915050565b600060208284031215620032b657600080fd5b6000620032c6848285016200304f565b91505092915050565b60008060408385031215620032e357600080fd5b6000620032f38582860162003038565b9250506020620033068582860162002f82565b9150509250929050565b6000806000606084860312156200332657600080fd5b6000620033368682870162003038565b9350506020620033498682870162002f82565b92505060406200335c8682870162003038565b9150509250925092565b600080600080600060a086880312156200337f57600080fd5b60006200338f8882890162003038565b955050602086013567ffffffffffffffff811115620033ad57600080fd5b620033bb888289016200300b565b945050604086013567ffffffffffffffff811115620033d957600080fd5b620033e7888289016200300b565b9350506060620033fa8882890162003038565b92505060806200340d8882890162003038565b9150509295509295909350565b600080604083850312156200342e57600080fd5b60006200343e8582860162003038565b9250506020620034518582860162003038565b9150509250929050565b6000806000606084860312156200347157600080fd5b6000620034818682870162003038565b9350506020620034948682870162003038565b9250506040620034a78682870162002f82565b9150509250925092565b6000620034bf8383620037fd565b60208301905092915050565b620034d68162003e69565b82525050565b6000620034e98262003ce8565b620034f5818562003d0b565b9350620035028362003cd8565b8060005b83811015620035395781516200351d8882620034b1565b97506200352a8362003cfe565b92505060018101905062003506565b5085935050505092915050565b620035518162003e7d565b82525050565b620035628162003e89565b82525050565b620035738162003e93565b82525050565b620035848162003ee9565b82525050565b6000620035978262003cf3565b620035a3818562003d1c565b9350620035b581856020860162003f20565b620035c081620040fb565b840191505092915050565b6000620035d88262003cf3565b620035e4818562003d2d565b9350620035f681856020860162003f20565b80840191505092915050565b60006200361160208362003d1c565b91506200361e826200410c565b602082019050919050565b60006200363860378362003d1c565b9150620036458262004135565b604082019050919050565b60006200365f60208362003d1c565b91506200366c8262004184565b602082019050919050565b60006200368660178362003d1c565b91506200369382620041ad565b602082019050919050565b6000620036ad60298362003d1c565b9150620036ba82620041d6565b604082019050919050565b6000620036d4601d8362003d1c565b9150620036e18262004225565b602082019050919050565b6000620036fb601d8362003d1c565b915062003708826200424e565b602082019050919050565b60006200372260178362003d2d565b91506200372f8262004277565b601782019050919050565b60006200374960218362003d1c565b91506200375682620042a0565b604082019050919050565b60006200377060118362003d2d565b91506200377d82620042ef565b601182019050919050565b60006200379760228362003d1c565b9150620037a48262004318565b604082019050919050565b6000620037be602f8362003d1c565b9150620037cb8262004367565b604082019050919050565b6000620037e560228362003d1c565b9150620037f282620043b6565b604082019050919050565b620038088162003edf565b82525050565b620038198162003edf565b82525050565b60006200382c8262003713565b91506200383a8285620035cb565b9150620038478262003761565b9150620038558284620035cb565b91508190509392505050565b6000602082019050620038786000830184620034cb565b92915050565b6000606082019050620038956000830186620034cb565b620038a46020830185620034cb565b620038b360408301846200380e565b949350505050565b6000604082019050620038d26000830185620034cb565b620038e160208301846200380e565b9392505050565b6000608082019050620038ff6000830187620034cb565b6200390e60208301866200380e565b81810360408301526200392281856200358a565b905081810360608301526200393881846200358a565b905095945050505050565b60006080820190506200395a6000830187620034cb565b6200396960208301866200380e565b6200397860408301856200380e565b620039876060830184620034cb565b95945050505050565b600060a082019050620039a76000830188620034cb565b620039b660208301876200380e565b620039c560408301866200380e565b620039d46060830185620034cb565b8181036080830152620039e881846200358a565b90509695505050505050565b6000602082019050818103600083015262003a108184620034dc565b905092915050565b600060208201905062003a2f600083018462003546565b92915050565b600060208201905062003a4c600083018462003557565b92915050565b600060208201905062003a69600083018462003568565b92915050565b600060208201905062003a86600083018462003579565b92915050565b6000602082019050818103600083015262003aa881846200358a565b905092915050565b6000602082019050818103600083015262003acb8162003602565b9050919050565b6000602082019050818103600083015262003aed8162003629565b9050919050565b6000602082019050818103600083015262003b0f8162003650565b9050919050565b6000602082019050818103600083015262003b318162003677565b9050919050565b6000602082019050818103600083015262003b53816200369e565b9050919050565b6000602082019050818103600083015262003b7581620036c5565b9050919050565b6000602082019050818103600083015262003b9781620036ec565b9050919050565b6000602082019050818103600083015262003bb9816200373a565b9050919050565b6000602082019050818103600083015262003bdb8162003788565b9050919050565b6000602082019050818103600083015262003bfd81620037af565b9050919050565b6000602082019050818103600083015262003c1f81620037d6565b9050919050565b600060208201905062003c3d60008301846200380e565b92915050565b600062003c4f62003c62565b905062003c5d828262003fbb565b919050565b6000604051905090565b600067ffffffffffffffff82111562003c8a5762003c89620040cc565b5b62003c9582620040fb565b9050602081019050919050565b600067ffffffffffffffff82111562003cc05762003cbf620040cc565b5b62003ccb82620040fb565b9050602081019050919050565b6000819050602082019050919050565b600081519050919050565b600081519050919050565b6000602082019050919050565b600082825260208201905092915050565b600082825260208201905092915050565b600081905092915050565b600062003d458262003edf565b915062003d528362003edf565b9250827fffffffffffffffffffffffffffffffffffffffffffffffffffffffffffffffff0382111562003d8a5762003d896200403f565b5b828201905092915050565b600062003da28262003edf565b915062003daf8362003edf565b92508262003dc25762003dc16200406e565b5b828204905092915050565b600062003dda8262003edf565b915062003de78362003edf565b9250817fffffffffffffffffffffffffffffffffffffffffffffffffffffffffffffffff048311821515161562003e235762003e226200403f565b5b828202905092915050565b600062003e3b8262003edf565b915062003e488362003edf565b92508282101562003e5e5762003e5d6200403f565b5b828203905092915050565b600062003e768262003ebf565b9050919050565b60008115159050919050565b6000819050919050565b60007fffffffff0000000000000000000000000000000000000000000000000000000082169050919050565b600073ffffffffffffffffffffffffffffffffffffffff82169050919050565b6000819050919050565b600062003ef68262003efd565b9050919050565b600062003f0a8262003ebf565b9050919050565b82818337600083830152505050565b60005b8381101562003f4057808201518184015260208101905062003f23565b8381111562003f50576000848401525b50505050565b600062003f638262003edf565b9150600082141562003f7a5762003f796200403f565b5b600182039050919050565b6000600282049050600182168062003f9e57607f821691505b6020821081141562003fb55762003fb46200409d565b5b50919050565b62003fc682620040fb565b810181811067ffffffffffffffff8211171562003fe85762003fe7620040cc565b5b80604052505050565b600062003ffe8262003edf565b91507fffffffffffffffffffffffffffffffffffffffffffffffffffffffffffffffff8214156200403457620040336200403f565b5b600182019050919050565b7f4e487b7100000000000000000000000000000000000000000000000000000000600052601160045260246000fd5b7f4e487b7100000000000000000000000000000000000000000000000000000000600052601260045260246000fd5b7f4e487b7100000000000000000000000000000000000000000000000000000000600052602260045260246000fd5b7f4e487b7100000000000000000000000000000000000000000000000000000000600052604160045260246000fd5b6000601f19601f8301169050919050565b7f537472696e67733a20686578206c656e67746820696e73756666696369656e74600082015250565b7f596f752068617665206e6f74206465706f736974656420414c4c206f6620746860008201527f65206672616374696f6e616c697a656420746f6b656e73000000000000000000602082015250565b7f596f7520646f206e6f7420686176652074686174206d616e7920746f6b656e73600082015250565b7f5472616e73666572206f662077457468206661696c6564000000000000000000600082015250565b7f54686973204e46542068617320616c7265616479206265656e2066726163746960008201527f6f6e616c697a65642e0000000000000000000000000000000000000000000000602082015250565b7f5472616e73666572206f66206672616320746f6b656e206661696c6564000000600082015250565b7f596f7520646964206e6f74206465706f7369742074686973204e46542e000000600082015250565b7f416363657373436f6e74726f6c3a206163636f756e7420000000000000000000600082015250565b7f596f7520646f206e6f7420686176652074686174206d616e7920746f6b656e7360008201527f2e00000000000000000000000000000000000000000000000000000000000000602082015250565b7f206973206d697373696e6720726f6c6520000000000000000000000000000000600082015250565b7f596f7520646f206e6f74206861766520656e6f756768206672616320746f6b6560008201527f6e73000000000000000000000000000000000000000000000000000000000000602082015250565b7f416363657373436f6e74726f6c3a2063616e206f6e6c792072656e6f756e636560008201527f20726f6c657320666f722073656c660000000000000000000000000000000000602082015250565b7f546865726520617265206e6f7420656e6f75676820746f6b656e7320746f206260008201527f7579000000000000000000000000000000000000000000000000000000000000602082015250565b620044108162003e69565b81146200441c57600080fd5b50565b6200442a8162003e7d565b81146200443657600080fd5b50565b620044448162003e89565b81146200445057600080fd5b50565b6200445e8162003e93565b81146200446a57600080fd5b50565b620044788162003edf565b81146200448457600080fd5b5056fe60806040523480156200001157600080fd5b5060405162001af538038062001af583398181016040528101906200003791906200035c565b81818160039080519060200190620000519291906200020c565b5080600490805190602001906200006a9291906200020c565b5050506200007f84846200008960201b60201c565b5050505062000719565b600073ffffffffffffffffffffffffffffffffffffffff168273ffffffffffffffffffffffffffffffffffffffff161415620000fc576040517f08c379a0000000000000000000000000000000000000000000000000000000008152600401620000f39062000432565b60405180910390fd5b62000110600083836200020260201b60201c565b8060026000828254620001249190620004e1565b92505081905550806000808473ffffffffffffffffffffffffffffffffffffffff1673ffffffffffffffffffffffffffffffffffffffff16815260200190815260200160002060008282546200017b9190620004e1565b925050819055508173ffffffffffffffffffffffffffffffffffffffff16600073ffffffffffffffffffffffffffffffffffffffff167fddf252ad1be2c89b69c2b068fc378daa952ba7f163c4a11628f55a4df523b3ef83604051620001e2919062000454565b60405180910390a3620001fe600083836200020760201b60201c565b5050565b505050565b505050565b8280546200021a90620005b2565b90600052602060002090601f0160209004810192826200023e57600085556200028a565b82601f106200025957805160ff19168380011785556200028a565b828001600101855582156200028a579182015b82811115620002895782518255916020019190600101906200026c565b5b5090506200029991906200029d565b5090565b5b80821115620002b85760008160009055506001016200029e565b5090565b6000620002d3620002cd846200049a565b62000471565b905082815260208101848484011115620002ec57600080fd5b620002f98482856200057c565b509392505050565b6000815190506200031281620006e5565b92915050565b600082601f8301126200032a57600080fd5b81516200033c848260208601620002bc565b91505092915050565b6000815190506200035681620006ff565b92915050565b600080600080608085870312156200037357600080fd5b6000620003838782880162000301565b9450506020620003968782880162000345565b935050604085015167ffffffffffffffff811115620003b457600080fd5b620003c28782880162000318565b925050606085015167ffffffffffffffff811115620003e057600080fd5b620003ee8782880162000318565b91505092959194509250565b600062000409601f83620004d0565b91506200041682620006bc565b602082019050919050565b6200042c8162000572565b82525050565b600060208201905081810360008301526200044d81620003fa565b9050919050565b60006020820190506200046b600083018462000421565b92915050565b60006200047d62000490565b90506200048b8282620005e8565b919050565b6000604051905090565b600067ffffffffffffffff821115620004b857620004b76200067c565b5b620004c382620006ab565b9050602081019050919050565b600082825260208201905092915050565b6000620004ee8262000572565b9150620004fb8362000572565b9250827fffffffffffffffffffffffffffffffffffffffffffffffffffffffffffffffff038211156200053357620005326200061e565b5b828201905092915050565b60006200054b8262000552565b9050919050565b600073ffffffffffffffffffffffffffffffffffffffff82169050919050565b6000819050919050565b60005b838110156200059c5780820151818401526020810190506200057f565b83811115620005ac576000848401525b50505050565b60006002820490506001821680620005cb57607f821691505b60208210811415620005e257620005e16200064d565b5b50919050565b620005f382620006ab565b810181811067ffffffffffffffff821117156200061557620006146200067c565b5b80604052505050565b7f4e487b7100000000000000000000000000000000000000000000000000000000600052601160045260246000fd5b7f4e487b7100000000000000000000000000000000000000000000000000000000600052602260045260246000fd5b7f4e487b7100000000000000000000000000000000000000000000000000000000600052604160045260246000fd5b6000601f19601f8301169050919050565b7f45524332303a206d696e7420746f20746865207a65726f206164647265737300600082015250565b620006f0816200053e565b8114620006fc57600080fd5b50565b6200070a8162000572565b81146200071657600080fd5b50565b6113cc80620007296000396000f3fe608060405234801561001057600080fd5b50600436106100b45760003560e01c806370a082311161007157806370a08231146101a357806395d89b41146101d3578063a457c2d7146101f1578063a9059cbb14610221578063ca56c18a14610251578063dd62ed3e1461026d576100b4565b806306fdde03146100b9578063095ea7b3146100d757806318160ddd1461010757806323b872dd14610125578063313ce567146101555780633950935114610173575b600080fd5b6100c161029d565b6040516100ce9190610e6c565b60405180910390f35b6100f160048036038101906100ec9190610cba565b61032f565b6040516100fe9190610e51565b60405180910390f35b61010f61034d565b60405161011c9190610f6e565b60405180910390f35b61013f600480360381019061013a9190610c6b565b610357565b60405161014c9190610e51565b60405180910390f35b61015d61044f565b60405161016a9190610f89565b60405180910390f35b61018d60048036038101906101889190610cba565b610458565b60405161019a9190610e51565b60405180910390f35b6101bd60048036038101906101b89190610c06565b610504565b6040516101ca9190610f6e565b60405180910390f35b6101db61054c565b6040516101e89190610e6c565b60405180910390f35b61020b60048036038101906102069190610cba565b6105de565b6040516102189190610e51565b60405180910390f35b61023b60048036038101906102369190610cba565b6106c9565b6040516102489190610e51565b60405180910390f35b61026b60048036038101906102669190610c6b565b6106e7565b005b61028760048036038101906102829190610c2f565b6106f7565b6040516102949190610f6e565b60405180910390f35b6060600380546102ac9061109e565b80601f01602080910402602001604051908101604052809291908181526020018280546102d89061109e565b80156103255780601f106102fa57610100808354040283529160200191610325565b820191906000526020600020905b81548152906001019060200180831161030857829003601f168201915b5050505050905090565b600061034361033c61077e565b8484610786565b6001905092915050565b6000600254905090565b6000610364848484610951565b6000600160008673ffffffffffffffffffffffffffffffffffffffff1673ffffffffffffffffffffffffffffffffffffffff16815260200190815260200160002060006103af61077e565b73ffffffffffffffffffffffffffffffffffffffff1673ffffffffffffffffffffffffffffffffffffffff1681526020019081526020016000205490508281101561042f576040517f08c379a000000000000000000000000000000000000000000000000000000000815260040161042690610eee565b60405180910390fd5b6104438561043b61077e565b858403610786565b60019150509392505050565b60006012905090565b60006104fa61046561077e565b84846001600061047361077e565b73ffffffffffffffffffffffffffffffffffffffff1673ffffffffffffffffffffffffffffffffffffffff16815260200190815260200160002060008873ffffffffffffffffffffffffffffffffffffffff1673ffffffffffffffffffffffffffffffffffffffff168152602001908152602001600020546104f59190610fc0565b610786565b6001905092915050565b60008060008373ffffffffffffffffffffffffffffffffffffffff1673ffffffffffffffffffffffffffffffffffffffff168152602001908152602001600020549050919050565b60606004805461055b9061109e565b80601f01602080910402602001604051908101604052809291908181526020018280546105879061109e565b80156105d45780601f106105a9576101008083540402835291602001916105d4565b820191906000526020600020905b8154815290600101906020018083116105b757829003601f168201915b5050505050905090565b600080600160006105ed61077e565b73ffffffffffffffffffffffffffffffffffffffff1673ffffffffffffffffffffffffffffffffffffffff16815260200190815260200160002060008573ffffffffffffffffffffffffffffffffffffffff1673ffffffffffffffffffffffffffffffffffffffff168152602001908152602001600020549050828110156106aa576040517f08c379a00000000000000000000000000000000000000000000000000000000081526004016106a190610f4e565b60405180910390fd5b6106be6106b561077e565b85858403610786565b600191505092915050565b60006106dd6106d661077e565b8484610951565b6001905092915050565b6106f2838383610786565b505050565b6000600160008473ffffffffffffffffffffffffffffffffffffffff1673ffffffffffffffffffffffffffffffffffffffff16815260200190815260200160002060008373ffffffffffffffffffffffffffffffffffffffff1673ffffffffffffffffffffffffffffffffffffffff16815260200190815260200160002054905092915050565b600033905090565b600073ffffffffffffffffffffffffffffffffffffffff168373ffffffffffffffffffffffffffffffffffffffff1614156107f6576040517f08c379a00000000000000000000000000000000000000000000000000000000081526004016107ed90610f2e565b60405180910390fd5b600073ffffffffffffffffffffffffffffffffffffffff168273ffffffffffffffffffffffffffffffffffffffff161415610866576040517f08c379a000000000000000000000000000000000000000000000000000000000815260040161085d90610eae565b60405180910390fd5b80600160008573ffffffffffffffffffffffffffffffffffffffff1673ffffffffffffffffffffffffffffffffffffffff16815260200190815260200160002060008473ffffffffffffffffffffffffffffffffffffffff1673ffffffffffffffffffffffffffffffffffffffff168152602001908152602001600020819055508173ffffffffffffffffffffffffffffffffffffffff168373ffffffffffffffffffffffffffffffffffffffff167f8c5be1e5ebec7d5bd14f71427d1e84f3dd0314c0f7b2291e5b200ac8c7c3b925836040516109449190610f6e565b60405180910390a3505050565b600073ffffffffffffffffffffffffffffffffffffffff168373ffffffffffffffffffffffffffffffffffffffff1614156109c1576040517f08c379a00000000000000000000000000000000000000000000000000000000081526004016109b890610f0e565b60405180910390fd5b600073ffffffffffffffffffffffffffffffffffffffff168273ffffffffffffffffffffffffffffffffffffffff161415610a31576040517f08c379a0000000000000000000000000000000000000000000000000000000008152600401610a2890610e8e565b60405180910390fd5b610a3c838383610bd2565b60008060008573ffffffffffffffffffffffffffffffffffffffff1673ffffffffffffffffffffffffffffffffffffffff16815260200190815260200160002054905081811015610ac2576040517f08c379a0000000000000000000000000000000000000000000000000000000008152600401610ab990610ece565b60405180910390fd5b8181036000808673ffffffffffffffffffffffffffffffffffffffff1673ffffffffffffffffffffffffffffffffffffffff16815260200190815260200160002081905550816000808573ffffffffffffffffffffffffffffffffffffffff1673ffffffffffffffffffffffffffffffffffffffff1681526020019081526020016000206000828254610b559190610fc0565b925050819055508273ffffffffffffffffffffffffffffffffffffffff168473ffffffffffffffffffffffffffffffffffffffff167fddf252ad1be2c89b69c2b068fc378daa952ba7f163c4a11628f55a4df523b3ef84604051610bb99190610f6e565b60405180910390a3610bcc848484610bd7565b50505050565b505050565b505050565b600081359050610beb81611368565b92915050565b600081359050610c008161137f565b92915050565b600060208284031215610c1857600080fd5b6000610c2684828501610bdc565b91505092915050565b60008060408385031215610c4257600080fd5b6000610c5085828601610bdc565b9250506020610c6185828601610bdc565b9150509250929050565b600080600060608486031215610c8057600080fd5b6000610c8e86828701610bdc565b9350506020610c9f86828701610bdc565b9250506040610cb086828701610bf1565b9150509250925092565b60008060408385031215610ccd57600080fd5b6000610cdb85828601610bdc565b9250506020610cec85828601610bf1565b9150509250929050565b610cff81611028565b82525050565b6000610d1082610fa4565b610d1a8185610faf565b9350610d2a81856020860161106b565b610d338161112e565b840191505092915050565b6000610d4b602383610faf565b9150610d568261113f565b604082019050919050565b6000610d6e602283610faf565b9150610d798261118e565b604082019050919050565b6000610d91602683610faf565b9150610d9c826111dd565b604082019050919050565b6000610db4602883610faf565b9150610dbf8261122c565b604082019050919050565b6000610dd7602583610faf565b9150610de28261127b565b604082019050919050565b6000610dfa602483610faf565b9150610e05826112ca565b604082019050919050565b6000610e1d602583610faf565b9150610e2882611319565b604082019050919050565b610e3c81611054565b82525050565b610e4b8161105e565b82525050565b6000602082019050610e666000830184610cf6565b92915050565b60006020820190508181036000830152610e868184610d05565b905092915050565b60006020820190508181036000830152610ea781610d3e565b9050919050565b60006020820190508181036000830152610ec781610d61565b9050919050565b60006020820190508181036000830152610ee781610d84565b9050919050565b60006020820190508181036000830152610f0781610da7565b9050919050565b60006020820190508181036000830152610f2781610dca565b9050919050565b60006020820190508181036000830152610f4781610ded565b9050919050565b60006020820190508181036000830152610f6781610e10565b9050919050565b6000602082019050610f836000830184610e33565b92915050565b6000602082019050610f9e6000830184610e42565b92915050565b600081519050919050565b600082825260208201905092915050565b6000610fcb82611054565b9150610fd683611054565b9250827fffffffffffffffffffffffffffffffffffffffffffffffffffffffffffffffff0382111561100b5761100a6110d0565b5b828201905092915050565b600061102182611034565b9050919050565b60008115159050919050565b600073ffffffffffffffffffffffffffffffffffffffff82169050919050565b6000819050919050565b600060ff82169050919050565b60005b8381101561108957808201518184015260208101905061106e565b83811115611098576000848401525b50505050565b600060028204905060018216806110b657607f821691505b602082108114156110ca576110c96110ff565b5b50919050565b7f4e487b7100000000000000000000000000000000000000000000000000000000600052601160045260246000fd5b7f4e487b7100000000000000000000000000000000000000000000000000000000600052602260045260246000fd5b6000601f19601f8301169050919050565b7f45524332303a207472616e7366657220746f20746865207a65726f206164647260008201527f6573730000000000000000000000000000000000000000000000000000000000602082015250565b7f45524332303a20617070726f766520746f20746865207a65726f20616464726560008201527f7373000000000000000000000000000000000000000000000000000000000000602082015250565b7f45524332303a207472616e7366657220616d6f756e742065786365656473206260008201527f616c616e63650000000000000000000000000000000000000000000000000000602082015250565b7f45524332303a207472616e7366657220616d6f756e742065786365656473206160008201527f6c6c6f77616e6365000000000000000000000000000000000000000000000000602082015250565b7f45524332303a207472616e736665722066726f6d20746865207a65726f20616460008201527f6472657373000000000000000000000000000000000000000000000000000000602082015250565b7f45524332303a20617070726f76652066726f6d20746865207a65726f2061646460008201527f7265737300000000000000000000000000000000000000000000000000000000602082015250565b7f45524332303a2064656372656173656420616c6c6f77616e63652062656c6f7760008201527f207a65726f000000000000000000000000000000000000000000000000000000602082015250565b61137181611016565b811461137c57600080fd5b50565b61138881611054565b811461139357600080fd5b5056fea2646970667358221220204ef60e4a3379fb11a8ec48da6df7e9f6ac278a78b78df73ec9c4fb0d4af84064736f6c63430008040033a26469706673582212206a581c1b39a018d06db15d7ec9f5926679b1550375c71d94a62308542bbd234864736f6c63430008040033",
  "linkReferences": {},
  "deployedLinkReferences": {}
}