{
  "_format": "hh-sol-artifact-1",
  "contractName": "Vault",
  "sourceName": "contracts/Vault.sol",
  "abi": [
    {
      "inputs": [
        {
          "internalType": "address",
          "name": "_wEthAddr",
          "type": "address"
        }
      ],
      "stateMutability": "nonpayable",
      "type": "constructor"
    },
    {
      "anonymous": false,
      "inputs": [
        {
          "indexed": false,
          "internalType": "address",
          "name": "from",
          "type": "address"
        },
        {
          "indexed": false,
          "internalType": "uint256",
          "name": "tokenId",
          "type": "uint256"
        },
        {
          "indexed": false,
          "internalType": "uint256",
          "name": "internalId",
          "type": "uint256"
        },
        {
          "indexed": false,
          "internalType": "address",
          "name": "nftAddr",
          "type": "address"
        }
      ],
      "name": "Recieved",
      "type": "event"
    },
    {
      "anonymous": false,
      "inputs": [
        {
          "indexed": false,
          "internalType": "address",
          "name": "to",
          "type": "address"
        },
        {
          "indexed": false,
          "internalType": "uint256",
          "name": "tokenId",
          "type": "uint256"
        },
        {
          "indexed": false,
          "internalType": "uint256",
          "name": "internalId",
          "type": "uint256"
        },
        {
          "indexed": false,
          "internalType": "address",
          "name": "nftAddr",
          "type": "address"
        }
      ],
      "name": "Released",
      "type": "event"
    },
    {
      "inputs": [
        {
          "internalType": "uint256",
          "name": "internalId",
          "type": "uint256"
        },
        {
          "internalType": "address",
          "name": "account",
          "type": "address"
        },
        {
          "internalType": "uint256",
          "name": "amount",
          "type": "uint256"
        }
      ],
      "name": "approveNFTokenTransfer",
      "outputs": [],
      "stateMutability": "nonpayable",
      "type": "function"
    },
    {
      "inputs": [
        {
          "internalType": "uint256",
          "name": "internalId",
          "type": "uint256"
        },
        {
          "internalType": "uint256",
          "name": "amountOfFrac",
          "type": "uint256"
        },
        {
          "internalType": "address",
          "name": "buyer",
          "type": "address"
        }
      ],
      "name": "buyTokens",
      "outputs": [],
      "stateMutability": "nonpayable",
      "type": "function"
    },
    {
      "inputs": [
        {
          "internalType": "uint256",
          "name": "internalId",
          "type": "uint256"
        },
        {
          "internalType": "uint256",
          "name": "amountOfFrac",
          "type": "uint256"
        }
      ],
      "name": "buyTokensIndividual",
      "outputs": [],
      "stateMutability": "nonpayable",
      "type": "function"
    },
    {
      "inputs": [
        {
          "internalType": "uint256",
          "name": "internalId",
          "type": "uint256"
        },
        {
          "internalType": "address",
          "name": "account",
          "type": "address"
        }
      ],
      "name": "buyoutERC721",
      "outputs": [],
      "stateMutability": "nonpayable",
      "type": "function"
    },
    {
      "inputs": [
        {
          "internalType": "uint256",
          "name": "_amountOfwEth",
          "type": "uint256"
        },
        {
          "internalType": "uint256",
          "name": "internalId",
          "type": "uint256"
        }
      ],
      "name": "calculateAmountOfFrac",
      "outputs": [
        {
          "internalType": "uint256",
          "name": "",
          "type": "uint256"
        }
      ],
      "stateMutability": "nonpayable",
      "type": "function"
    },
    {
      "inputs": [
        {
          "internalType": "uint256",
          "name": "_amountOfFrac",
          "type": "uint256"
        },
        {
          "internalType": "uint256",
          "name": "internalId",
          "type": "uint256"
        }
      ],
      "name": "calculateAmountOfwEth",
      "outputs": [
        {
          "internalType": "uint256",
          "name": "",
          "type": "uint256"
        }
      ],
      "stateMutability": "nonpayable",
      "type": "function"
    },
    {
      "inputs": [
        {
          "internalType": "uint256",
          "name": "internalId",
          "type": "uint256"
        },
        {
          "internalType": "address",
          "name": "account",
          "type": "address"
        },
        {
          "internalType": "uint256",
          "name": "amount",
          "type": "uint256"
        }
      ],
      "name": "depositNFToken",
      "outputs": [],
      "stateMutability": "nonpayable",
      "type": "function"
    },
    {
      "inputs": [
        {
          "internalType": "uint256",
          "name": "internalId",
          "type": "uint256"
        },
        {
          "internalType": "address",
          "name": "account",
          "type": "address"
        }
      ],
      "name": "getDepositAmount",
      "outputs": [
        {
          "internalType": "uint256",
          "name": "",
          "type": "uint256"
        }
      ],
      "stateMutability": "view",
      "type": "function"
    },
    {
      "inputs": [
        {
          "internalType": "uint256",
          "name": "internalId",
          "type": "uint256"
        }
      ],
      "name": "getERC721ContractAddr",
      "outputs": [
        {
          "internalType": "address",
          "name": "",
          "type": "address"
        }
      ],
      "stateMutability": "view",
      "type": "function"
    },
    {
      "inputs": [
        {
          "internalType": "uint256",
          "name": "internalId",
          "type": "uint256"
        }
      ],
      "name": "getERC721TokenId",
      "outputs": [
        {
          "internalType": "uint256",
          "name": "",
          "type": "uint256"
        }
      ],
      "stateMutability": "view",
      "type": "function"
    },
    {
      "inputs": [],
      "name": "getInternalIdCounter",
      "outputs": [
        {
          "internalType": "uint256",
          "name": "",
          "type": "uint256"
        }
      ],
      "stateMutability": "view",
      "type": "function"
    },
    {
      "inputs": [
        {
          "internalType": "uint256",
          "name": "internalId",
          "type": "uint256"
        }
      ],
      "name": "getNFTContractAddr",
      "outputs": [
        {
          "internalType": "address",
          "name": "",
          "type": "address"
        }
      ],
      "stateMutability": "view",
      "type": "function"
    },
    {
      "inputs": [
        {
          "internalType": "uint256",
          "name": "internalId",
          "type": "uint256"
        }
      ],
      "name": "getNFTokenAddr",
      "outputs": [
        {
          "internalType": "address",
          "name": "",
          "type": "address"
        }
      ],
      "stateMutability": "view",
      "type": "function"
    },
    {
      "inputs": [
        {
          "internalType": "uint256",
          "name": "internalId",
          "type": "uint256"
        },
        {
          "internalType": "address",
          "name": "account",
          "type": "address"
        }
      ],
      "name": "getNFTokenBalance",
      "outputs": [
        {
          "internalType": "uint256",
          "name": "",
          "type": "uint256"
        }
      ],
      "stateMutability": "view",
      "type": "function"
    },
    {
      "inputs": [
        {
          "internalType": "uint256",
          "name": "internalId",
          "type": "uint256"
        }
      ],
      "name": "getNFTokenSupply",
      "outputs": [
        {
          "internalType": "uint256",
          "name": "",
          "type": "uint256"
        }
      ],
      "stateMutability": "view",
      "type": "function"
    },
    {
      "inputs": [
        {
          "internalType": "address",
          "name": "account",
          "type": "address"
        }
      ],
      "name": "getNumIdsOwned",
      "outputs": [
        {
          "internalType": "uint256",
          "name": "",
          "type": "uint256"
        }
      ],
      "stateMutability": "view",
      "type": "function"
    },
    {
      "inputs": [],
      "name": "getNumberDepositedERC721s",
      "outputs": [
        {
          "internalType": "uint256",
          "name": "",
          "type": "uint256"
        }
      ],
      "stateMutability": "view",
      "type": "function"
    },
    {
      "inputs": [
        {
          "internalType": "uint256",
          "name": "internalId",
          "type": "uint256"
        }
      ],
      "name": "getOwned",
      "outputs": [
        {
          "internalType": "bool",
          "name": "",
          "type": "bool"
        }
      ],
      "stateMutability": "view",
      "type": "function"
    },
    {
      "inputs": [
        {
          "internalType": "address",
          "name": "account",
          "type": "address"
        }
      ],
      "name": "getOwnedInternalIds",
      "outputs": [
        {
          "internalType": "uint256[]",
          "name": "",
          "type": "uint256[]"
        }
      ],
      "stateMutability": "view",
      "type": "function"
    },
    {
      "inputs": [],
      "name": "getwEthAddr",
      "outputs": [
        {
          "internalType": "address",
          "name": "",
          "type": "address"
        }
      ],
      "stateMutability": "nonpayable",
      "type": "function"
    },
    {
      "inputs": [
        {
          "internalType": "uint256",
          "name": "supply",
          "type": "uint256"
        },
        {
          "internalType": "string",
          "name": "name",
          "type": "string"
        },
        {
          "internalType": "string",
          "name": "ticker",
          "type": "string"
        },
        {
          "internalType": "uint256",
          "name": "internalId",
          "type": "uint256"
        },
        {
          "internalType": "uint256",
          "name": "amountToKeep",
          "type": "uint256"
        }
      ],
      "name": "mintTokensForNFT",
      "outputs": [
        {
          "internalType": "contract NFToken",
          "name": "",
          "type": "address"
        }
      ],
      "stateMutability": "nonpayable",
      "type": "function"
    },
    {
      "inputs": [
        {
          "internalType": "address",
          "name": "operator",
          "type": "address"
        },
        {
          "internalType": "address",
          "name": "from",
          "type": "address"
        },
        {
          "internalType": "uint256",
          "name": "tokenId",
          "type": "uint256"
        },
        {
          "internalType": "bytes",
          "name": "data",
          "type": "bytes"
        }
      ],
      "name": "onERC721Received",
      "outputs": [
        {
          "internalType": "bytes4",
          "name": "",
          "type": "bytes4"
        }
      ],
      "stateMutability": "nonpayable",
      "type": "function"
    },
    {
      "inputs": [
        {
          "internalType": "uint256",
          "name": "internalId",
          "type": "uint256"
        },
        {
          "internalType": "uint256",
          "name": "amountOfwEth",
          "type": "uint256"
        },
        {
          "internalType": "address",
          "name": "seller",
          "type": "address"
        }
      ],
      "name": "sellTokens",
      "outputs": [],
      "stateMutability": "nonpayable",
      "type": "function"
    },
    {
      "inputs": [
        {
          "internalType": "uint256",
          "name": "internalId",
          "type": "uint256"
        },
        {
          "internalType": "uint256",
          "name": "amountOfwEth",
          "type": "uint256"
        }
      ],
      "name": "sellTokensIndividual",
      "outputs": [],
      "stateMutability": "nonpayable",
      "type": "function"
    },
    {
      "inputs": [
        {
          "internalType": "int256",
          "name": "a",
          "type": "int256"
        },
        {
          "internalType": "int256",
          "name": "b",
          "type": "int256"
        },
        {
          "internalType": "int256",
          "name": "c",
          "type": "int256"
        },
        {
          "internalType": "int256",
          "name": "x",
          "type": "int256"
        }
      ],
      "name": "sigmoid",
      "outputs": [
        {
          "internalType": "int256",
          "name": "",
          "type": "int256"
        }
      ],
      "stateMutability": "nonpayable",
      "type": "function"
    },
    {
      "inputs": [
        {
          "internalType": "uint256",
          "name": "internalId",
          "type": "uint256"
        },
        {
          "internalType": "address",
          "name": "account",
          "type": "address"
        },
        {
          "internalType": "uint256",
          "name": "amount",
          "type": "uint256"
        }
      ],
      "name": "withdrawNFToken",
      "outputs": [],
      "stateMutability": "nonpayable",
      "type": "function"
    }
  ],
  "bytecode": "0x608060405260006001553480156200001657600080fd5b506040516200540f3803806200540f83398181016040528101906200003c91906200009a565b806000806101000a81548173ffffffffffffffffffffffffffffffffffffffff021916908373ffffffffffffffffffffffffffffffffffffffff1602179055505062000114565b6000815190506200009481620000fa565b92915050565b600060208284031215620000ad57600080fd5b6000620000bd8482850162000083565b91505092915050565b6000620000d382620000da565b9050919050565b600073ffffffffffffffffffffffffffffffffffffffff82169050919050565b6200010581620000c6565b81146200011157600080fd5b50565b6152eb80620001246000396000f3fe60806040523480156200001157600080fd5b5060043610620001b45760003560e01c806380168c7b11620000f3578063bd3d433711620000a5578063cae244b4116200007b578063cae244b4146200059d578063de75a5c014620005d3578063e683c2391462000609578063ef569f9a146200062957620001b4565b8063bd3d4337146200053d578063c1687877146200055d578063c44f7a17146200057d57620001b4565b806380168c7b146200042357806386b5e7ea14620004595780639eefad98146200048f578063a919b74a14620004c5578063af3ddc1a14620004fb578063b7cebb3e146200051b57620001b4565b8063397bafd6116200016b57806349f1c753116200014157806349f1c753146200035f5780634debe86a146200039557806365d51d8814620003b7578063742f23c714620003ed57620001b4565b8063397bafd614620002d157806340aa97ec14620002f3578063442f6bd9146200032957620001b4565b80630b1a08e514620001b9578063102af74814620001ef578063150b7a0214620002255780631b2d83cd146200025b578063225c21c6146200027b578063312f0d8014620002b1575b600080fd5b620001d76004803603810190620001d19190620026c7565b62000649565b604051620001e6919062002d8b565b60405180910390f35b6200020d6004803603810190620002079190620023af565b62000677565b6040516200021c919062002b4a565b60405180910390f35b6200024360048036038101906200023d9190620023db565b620008dc565b60405162000252919062002b8b565b60405180910390f35b620002796004803603810190620002739190620025bd565b62000c1d565b005b620002996004803603810190620002939190620024b8565b62000ca5565b604051620002a8919062002be2565b60405180910390f35b620002cf6004803603810190620002c991906200257c565b62001048565b005b620002db620011c2565b604051620002ea919062002d8b565b60405180910390f35b6200031160048036038101906200030b9190620023af565b620011d9565b60405162000320919062002d8b565b60405180910390f35b62000347600480360381019062000341919062002613565b62001222565b60405162000356919062002ba8565b60405180910390f35b6200037d600480360381019062000377919062002524565b62001546565b6040516200038c919062002a1b565b60405180910390f35b6200039f62001586565b604051620003ae919062002a1b565b60405180910390f35b620003d56004803603810190620003cf9190620026c7565b620015af565b604051620003e4919062002d8b565b60405180910390f35b6200040b600480360381019062000405919062002524565b620015dd565b6040516200041a919062002a1b565b60405180910390f35b6200044160048036038101906200043b919062002524565b6200161d565b60405162000450919062002d8b565b60405180910390f35b62000477600480360381019062000471919062002524565b6200163d565b60405162000486919062002a1b565b60405180910390f35b620004ad6004803603810190620004a7919062002524565b6200167d565b604051620004bc919062002d8b565b60405180910390f35b620004e36004803603810190620004dd919062002524565b62001717565b604051620004f2919062002b6e565b60405180910390f35b620005196004803603810190620005139190620025bd565b62001744565b005b62000525620018a7565b60405162000534919062002d8b565b60405180910390f35b6200055b6004803603810190620005559190620026c7565b620018b1565b005b6200057b600480360381019062000575919062002708565b620018c2565b005b6200059b6004803603810190620005959190620025bd565b62001b77565b005b620005bb6004803603810190620005b591906200257c565b62001cdc565b604051620005ca919062002d8b565b60405180910390f35b620005f16004803603810190620005eb91906200257c565b62001d84565b60405162000600919062002d8b565b60405180910390f35b620006276004803603810190620006219190620026c7565b62001ddf565b005b62000647600480360381019062000641919062002708565b62001df0565b005b60008260026000848152602001908152602001600020600601546200066f9190620030ff565b905092915050565b606060006200068683620011d9565b905060008167ffffffffffffffff811115620006cb577f4e487b7100000000000000000000000000000000000000000000000000000000600052604160045260246000fd5b604051908082528060200260200182016040528015620006fa5781602001602082028036833780820191505090505b5090506000805b600460008773ffffffffffffffffffffffffffffffffffffffff1673ffffffffffffffffffffffffffffffffffffffff16815260200190815260200160002080549050811015620008d057620007d9600460008873ffffffffffffffffffffffffffffffffffffffff1673ffffffffffffffffffffffffffffffffffffffff1681526020019081526020016000208281548110620007c8577f4e487b7100000000000000000000000000000000000000000000000000000000600052603260045260246000fd5b906000526020600020015462001717565b15620008ba57600460008773ffffffffffffffffffffffffffffffffffffffff1673ffffffffffffffffffffffffffffffffffffffff168152602001908152602001600020818154811062000857577f4e487b7100000000000000000000000000000000000000000000000000000000600052603260045260246000fd5b90600052602060002001548383815181106200089c577f4e487b7100000000000000000000000000000000000000000000000000000000600052603260045260246000fd5b602002602001018181525050600182620008b7919062002e92565b91505b8080620008c790620033b3565b91505062000701565b50819350505050919050565b6000620008e8620020fa565b60015481602001818152505033816040019073ffffffffffffffffffffffffffffffffffffffff16908173ffffffffffffffffffffffffffffffffffffffff168152505084816080019073ffffffffffffffffffffffffffffffffffffffff16908173ffffffffffffffffffffffffffffffffffffffff16815250508381606001818152505060018160c001818152505060018160e0019015159081151581525050806002600060015481526020019081526020016000206000820151816000019080519060200190620009be92919062002183565b506020820151816001015560408201518160020160006101000a81548173ffffffffffffffffffffffffffffffffffffffff021916908373ffffffffffffffffffffffffffffffffffffffff1602179055506060820151816003015560808201518160040160006101000a81548173ffffffffffffffffffffffffffffffffffffffff021916908373ffffffffffffffffffffffffffffffffffffffff16021790555060a08201518160050160006101000a81548173ffffffffffffffffffffffffffffffffffffffff021916908373ffffffffffffffffffffffffffffffffffffffff16021790555060c0820151816006015560e08201518160070160006101000a81548160ff02191690831515021790555090505060046000826040015173ffffffffffffffffffffffffffffffffffffffff1673ffffffffffffffffffffffffffffffffffffffff16815260200190815260200160002081602001519080600181540180825580915050600190039060005260206000200160009091909190915055600160056000836040015173ffffffffffffffffffffffffffffffffffffffff1673ffffffffffffffffffffffffffffffffffffffff168152602001908152602001600020600082825462000b99919062002e92565b925050819055507f935d05cbf9fa27cbf03a09eb57f4384da509a8e34d406b8b8e1c21b249e25c16816080015182606001518360200151846040015160405162000be7949392919062002afd565b60405180910390a1600180600082825462000c03919062002e92565b9250508190555063150b7a0260e01b915050949350505050565b600062000c2a846200163d565b90508073ffffffffffffffffffffffffffffffffffffffff1663ca56c18a8430856040518463ffffffff1660e01b815260040162000c6b9392919062002a38565b600060405180830381600087803b15801562000c8657600080fd5b505af115801562000c9b573d6000803e3d6000fd5b5050505050505050565b60008073__$78827766868fbfa7b31de48993c6ed9f34$__63665df46073__$78827766868fbfa7b31de48993c6ed9f34$__63a5f3c23b87600273__$78827766868fbfa7b31de48993c6ed9f34$__63a5f3c23b8a8d62000d069062003401565b6040518363ffffffff1660e01b815260040162000d2592919062002bff565b60206040518083038186803b15801562000d3e57600080fd5b505af415801562000d53573d6000803e3d6000fd5b505050506040513d601f19601f8201168201806040525081019062000d7991906200248c565b62000d8591906200308d565b6040518363ffffffff1660e01b815260040162000da492919062002bff565b60206040518083038186803b15801562000dbd57600080fd5b505af415801562000dd2573d6000803e3d6000fd5b505050506040513d601f19601f8201168201806040525081019062000df891906200248c565b6040518263ffffffff1660e01b815260040162000e16919062002bc5565b60206040518083038186803b15801562000e2f57600080fd5b505af415801562000e44573d6000803e3d6000fd5b505050506040513d601f19601f8201168201806040525081019062000e6a91906200248c565b90506000858462000e7c919062003160565b9050600073__$78827766868fbfa7b31de48993c6ed9f34$__63f598423683856040518363ffffffff1660e01b815260040162000ebb92919062002bff565b60206040518083038186803b15801562000ed457600080fd5b505af415801562000ee9573d6000803e3d6000fd5b505050506040513d601f19601f8201168201806040525081019062000f0f91906200248c565b9050600073__$78827766868fbfa7b31de48993c6ed9f34$__63a5f3c23b6001846040518363ffffffff1660e01b815260040162000f4f92919062002c2c565b60206040518083038186803b15801562000f6857600080fd5b505af415801562000f7d573d6000803e3d6000fd5b505050506040513d601f19601f8201168201806040525081019062000fa391906200248c565b9050600073__$78827766868fbfa7b31de48993c6ed9f34$__633c4308a88b846040518363ffffffff1660e01b815260040162000fe292919062002bff565b60206040518083038186803b15801562000ffb57600080fd5b505af415801562001010573d6000803e3d6000fd5b505050506040513d601f19601f820116820180604052508101906200103691906200248c565b90508095505050505050949350505050565b62001053826200167d565b6200105f838362001d84565b14620010a2576040517f08c379a0000000000000000000000000000000000000000000000000000000008152600401620010999062002c59565b60405180910390fd5b6000620010af83620015dd565b90508073ffffffffffffffffffffffffffffffffffffffff166323b872dd3084620010da876200161d565b6040518463ffffffff1660e01b8152600401620010fa9392919062002a38565b600060405180830381600087803b1580156200111557600080fd5b505af11580156200112a573d6000803e3d6000fd5b505050506001600560006002600087815260200190815260200160002060040160009054906101000a900473ffffffffffffffffffffffffffffffffffffffff1673ffffffffffffffffffffffffffffffffffffffff1673ffffffffffffffffffffffffffffffffffffffff1681526020019081526020016000206000828254620011b69190620031fe565b92505081905550505050565b600060018054620011d49190620031fe565b905090565b6000600560008373ffffffffffffffffffffffffffffffffffffffff1673ffffffffffffffffffffffffffffffffffffffff168152602001908152602001600020549050919050565b60003373ffffffffffffffffffffffffffffffffffffffff166002600085815260200190815260200160002060040160009054906101000a900473ffffffffffffffffffffffffffffffffffffffff1673ffffffffffffffffffffffffffffffffffffffff1614620012cb576040517f08c379a0000000000000000000000000000000000000000000000000000000008152600401620012c29062002d03565b60405180910390fd5b600073ffffffffffffffffffffffffffffffffffffffff166002600085815260200190815260200160002060050160009054906101000a900473ffffffffffffffffffffffffffffffffffffffff1673ffffffffffffffffffffffffffffffffffffffff161462001373576040517f08c379a00000000000000000000000000000000000000000000000000000000081526004016200136a9062002cbf565b60405180910390fd5b6000620013843085898989620020a5565b90508073ffffffffffffffffffffffffffffffffffffffff1663095ea7b330856040518363ffffffff1660e01b8152600401620013c392919062002a75565b602060405180830381600087803b158015620013de57600080fd5b505af1158015620013f3573d6000803e3d6000fd5b505050506040513d601f19601f8201168201806040525081019062001419919062002460565b508073ffffffffffffffffffffffffffffffffffffffff1663a9059cbb6002600087815260200190815260200160002060040160009054906101000a900473ffffffffffffffffffffffffffffffffffffffff16856040518363ffffffff1660e01b81526004016200148d92919062002a75565b602060405180830381600087803b158015620014a857600080fd5b505af1158015620014bd573d6000803e3d6000fd5b505050506040513d601f19601f82011682018060405250810190620014e3919062002460565b50806002600086815260200190815260200160002060050160006101000a81548173ffffffffffffffffffffffffffffffffffffffff021916908373ffffffffffffffffffffffffffffffffffffffff1602179055508091505095945050505050565b60006002600083815260200190815260200160002060020160009054906101000a900473ffffffffffffffffffffffffffffffffffffffff169050919050565b60008060009054906101000a900473ffffffffffffffffffffffffffffffffffffffff16905090565b6000600260008381526020019081526020016000206006015483620015d5919062002eef565b905092915050565b60006002600083815260200190815260200160002060020160009054906101000a900473ffffffffffffffffffffffffffffffffffffffff169050919050565b600060026000838152602001908152602001600020600301549050919050565b60006002600083815260200190815260200160002060050160009054906101000a900473ffffffffffffffffffffffffffffffffffffffff169050919050565b6000806200168b836200163d565b90508073ffffffffffffffffffffffffffffffffffffffff166318160ddd6040518163ffffffff1660e01b815260040160206040518083038186803b158015620016d457600080fd5b505afa158015620016e9573d6000803e3d6000fd5b505050506040513d601f19601f820116820180604052508101906200170f919062002550565b915050919050565b60006002600083815260200190815260200160002060070160009054906101000a900460ff169050919050565b62001750838362001d84565b81111562001795576040517f08c379a00000000000000000000000000000000000000000000000000000000081526004016200178c9062002c7b565b60405180910390fd5b80600360008473ffffffffffffffffffffffffffffffffffffffff1673ffffffffffffffffffffffffffffffffffffffff16815260200190815260200160002060008581526020019081526020016000206000828254620017f79190620031fe565b9250508190555060006200180b846200163d565b90508073ffffffffffffffffffffffffffffffffffffffff1663a9059cbb84846040518363ffffffff1660e01b81526004016200184a92919062002a75565b602060405180830381600087803b1580156200186557600080fd5b505af11580156200187a573d6000803e3d6000fd5b505050506040513d601f19601f82011682018060405250810190620018a0919062002460565b5050505050565b6000600154905090565b620018be82823362001df0565b5050565b6000620018cf846200163d565b90506000620018dd62001586565b90506000620018ed858762000649565b9050848373ffffffffffffffffffffffffffffffffffffffff166370a08231306040518263ffffffff1660e01b81526004016200192b919062002a1b565b60206040518083038186803b1580156200194457600080fd5b505afa15801562001959573d6000803e3d6000fd5b505050506040513d601f19601f820116820180604052508101906200197f919062002550565b1015620019c3576040517f08c379a0000000000000000000000000000000000000000000000000000000008152600401620019ba9062002d69565b60405180910390fd5b8173ffffffffffffffffffffffffffffffffffffffff166323b872dd8530846040518463ffffffff1660e01b815260040162001a029392919062002a38565b602060405180830381600087803b15801562001a1d57600080fd5b505af115801562001a32573d6000803e3d6000fd5b505050506040513d601f19601f8201168201806040525081019062001a58919062002460565b62001a9a576040517f08c379a000000000000000000000000000000000000000000000000000000000815260040162001a919062002c9d565b60405180910390fd5b8273ffffffffffffffffffffffffffffffffffffffff1663a9059cbb85876040518363ffffffff1660e01b815260040162001ad792919062002a75565b602060405180830381600087803b15801562001af257600080fd5b505af115801562001b07573d6000803e3d6000fd5b505050506040513d601f19601f8201168201806040525081019062001b2d919062002460565b62001b6f576040517f08c379a000000000000000000000000000000000000000000000000000000000815260040162001b669062002ce1565b60405180910390fd5b505050505050565b8062001b84848462001cdc565b101562001bc8576040517f08c379a000000000000000000000000000000000000000000000000000000000815260040162001bbf9062002d25565b60405180910390fd5b600062001bd5846200163d565b90508073ffffffffffffffffffffffffffffffffffffffff166323b872dd8430856040518463ffffffff1660e01b815260040162001c169392919062002a38565b602060405180830381600087803b15801562001c3157600080fd5b505af115801562001c46573d6000803e3d6000fd5b505050506040513d601f19601f8201168201806040525081019062001c6c919062002460565b5081600360008573ffffffffffffffffffffffffffffffffffffffff1673ffffffffffffffffffffffffffffffffffffffff1681526020019081526020016000206000868152602001908152602001600020600082825462001ccf919062002e92565b9250508190555050505050565b60008062001cea846200163d565b90508073ffffffffffffffffffffffffffffffffffffffff166370a08231846040518263ffffffff1660e01b815260040162001d27919062002a1b565b60206040518083038186803b15801562001d4057600080fd5b505afa15801562001d55573d6000803e3d6000fd5b505050506040513d601f19601f8201168201806040525081019062001d7b919062002550565b91505092915050565b6000600360008373ffffffffffffffffffffffffffffffffffffffff1673ffffffffffffffffffffffffffffffffffffffff168152602001908152602001600020600084815260200190815260200160002054905092915050565b62001dec828233620018c2565b5050565b600062001dfd846200163d565b9050600062001e0b62001586565b9050600062001e1b8587620015af565b9050808373ffffffffffffffffffffffffffffffffffffffff166370a08231866040518263ffffffff1660e01b815260040162001e59919062002a1b565b60206040518083038186803b15801562001e7257600080fd5b505afa15801562001e87573d6000803e3d6000fd5b505050506040513d601f19601f8201168201806040525081019062001ead919062002550565b101562001ef1576040517f08c379a000000000000000000000000000000000000000000000000000000000815260040162001ee89062002d47565b60405180910390fd5b8273ffffffffffffffffffffffffffffffffffffffff166323b872dd8530846040518463ffffffff1660e01b815260040162001f309392919062002a38565b602060405180830381600087803b15801562001f4b57600080fd5b505af115801562001f60573d6000803e3d6000fd5b505050506040513d601f19601f8201168201806040525081019062001f86919062002460565b62001fc8576040517f08c379a000000000000000000000000000000000000000000000000000000000815260040162001fbf9062002ce1565b60405180910390fd5b8173ffffffffffffffffffffffffffffffffffffffff1663a9059cbb85876040518363ffffffff1660e01b81526004016200200592919062002a75565b602060405180830381600087803b1580156200202057600080fd5b505af115801562002035573d6000803e3d6000fd5b505050506040513d601f19601f820116820180604052508101906200205b919062002460565b6200209d576040517f08c379a0000000000000000000000000000000000000000000000000000000008152600401620020949062002c9d565b60405180910390fd5b505050505050565b60006060600087868686604051620020bd9062002214565b620020cc949392919062002aa2565b604051809103906000f080158015620020e9573d6000803e3d6000fd5b509050809250505095945050505050565b6040518061010001604052806060815260200160008152602001600073ffffffffffffffffffffffffffffffffffffffff16815260200160008152602001600073ffffffffffffffffffffffffffffffffffffffff168152602001600073ffffffffffffffffffffffffffffffffffffffff168152602001600081526020016000151581525090565b828054620021919062003347565b90600052602060002090601f016020900481019282620021b5576000855562002201565b82601f10620021d057805160ff191683800117855562002201565b8280016001018555821562002201579182015b8281111562002200578251825591602001919060010190620021e3565b5b50905062002210919062002222565b5090565b611af580620037c183390190565b5b808211156200223d57600081600090555060010162002223565b5090565b600062002258620022528462002dd1565b62002da8565b9050828152602081018484840111156200227157600080fd5b6200227e84828562003302565b509392505050565b60006200229d620022978462002e07565b62002da8565b905082815260208101848484011115620022b657600080fd5b620022c384828562003302565b509392505050565b600081359050620022dc8162003758565b92915050565b600081519050620022f38162003772565b92915050565b600082601f8301126200230b57600080fd5b81356200231d84826020860162002241565b91505092915050565b60008135905062002337816200378c565b92915050565b6000815190506200234e816200378c565b92915050565b600082601f8301126200236657600080fd5b81356200237884826020860162002286565b91505092915050565b6000813590506200239281620037a6565b92915050565b600081519050620023a981620037a6565b92915050565b600060208284031215620023c257600080fd5b6000620023d284828501620022cb565b91505092915050565b60008060008060808587031215620023f257600080fd5b60006200240287828801620022cb565b94505060206200241587828801620022cb565b9350506040620024288782880162002381565b925050606085013567ffffffffffffffff8111156200244657600080fd5b6200245487828801620022f9565b91505092959194509250565b6000602082840312156200247357600080fd5b60006200248384828501620022e2565b91505092915050565b6000602082840312156200249f57600080fd5b6000620024af848285016200233d565b91505092915050565b60008060008060808587031215620024cf57600080fd5b6000620024df8782880162002326565b9450506020620024f28782880162002326565b9350506040620025058782880162002326565b9250506060620025188782880162002326565b91505092959194509250565b6000602082840312156200253757600080fd5b6000620025478482850162002381565b91505092915050565b6000602082840312156200256357600080fd5b6000620025738482850162002398565b91505092915050565b600080604083850312156200259057600080fd5b6000620025a08582860162002381565b9250506020620025b385828601620022cb565b9150509250929050565b600080600060608486031215620025d357600080fd5b6000620025e38682870162002381565b9350506020620025f686828701620022cb565b9250506040620026098682870162002381565b9150509250925092565b600080600080600060a086880312156200262c57600080fd5b60006200263c8882890162002381565b955050602086013567ffffffffffffffff8111156200265a57600080fd5b620026688882890162002354565b945050604086013567ffffffffffffffff8111156200268657600080fd5b620026948882890162002354565b9350506060620026a78882890162002381565b9250506080620026ba8882890162002381565b9150509295509295909350565b60008060408385031215620026db57600080fd5b6000620026eb8582860162002381565b9250506020620026fe8582860162002381565b9150509250929050565b6000806000606084860312156200271e57600080fd5b60006200272e8682870162002381565b9350506020620027418682870162002381565b92505060406200275486828701620022cb565b9150509250925092565b60006200276c8383620029f9565b60208301905092915050565b620027838162003239565b82525050565b6000620027968262002e4d565b620027a2818562002e70565b9350620027af8362002e3d565b8060005b83811015620027e6578151620027ca88826200275e565b9750620027d78362002e63565b925050600181019050620027b3565b5085935050505092915050565b620027fe816200324d565b82525050565b6200280f8162003259565b82525050565b6200282081620032c6565b82525050565b620028318162003285565b82525050565b620028428162003285565b82525050565b6200285381620032ee565b82525050565b6000620028668262002e58565b62002872818562002e81565b93506200288481856020860162003311565b6200288f816200350b565b840191505092915050565b6000620028a960378362002e81565b9150620028b68262003529565b604082019050919050565b6000620028d060208362002e81565b9150620028dd8262003578565b602082019050919050565b6000620028f760178362002e81565b91506200290482620035a1565b602082019050919050565b60006200291e60298362002e81565b91506200292b82620035ca565b604082019050919050565b600062002945601d8362002e81565b9150620029528262003619565b602082019050919050565b60006200296c601d8362002e81565b9150620029798262003642565b602082019050919050565b60006200299360218362002e81565b9150620029a0826200366b565b604082019050919050565b6000620029ba60228362002e81565b9150620029c782620036ba565b604082019050919050565b6000620029e160228362002e81565b9150620029ee8262003709565b604082019050919050565b62002a0481620032af565b82525050565b62002a1581620032af565b82525050565b600060208201905062002a32600083018462002778565b92915050565b600060608201905062002a4f600083018662002778565b62002a5e602083018562002778565b62002a6d604083018462002a0a565b949350505050565b600060408201905062002a8c600083018562002778565b62002a9b602083018462002a0a565b9392505050565b600060808201905062002ab9600083018762002778565b62002ac8602083018662002a0a565b818103604083015262002adc818562002859565b9050818103606083015262002af2818462002859565b905095945050505050565b600060808201905062002b14600083018762002778565b62002b23602083018662002a0a565b62002b32604083018562002a0a565b62002b41606083018462002778565b95945050505050565b6000602082019050818103600083015262002b66818462002789565b905092915050565b600060208201905062002b856000830184620027f3565b92915050565b600060208201905062002ba2600083018462002804565b92915050565b600060208201905062002bbf600083018462002815565b92915050565b600060208201905062002bdc600083018462002837565b92915050565b600060208201905062002bf9600083018462002826565b92915050565b600060408201905062002c16600083018562002837565b62002c25602083018462002837565b9392505050565b600060408201905062002c43600083018562002848565b62002c52602083018462002837565b9392505050565b6000602082019050818103600083015262002c74816200289a565b9050919050565b6000602082019050818103600083015262002c9681620028c1565b9050919050565b6000602082019050818103600083015262002cb881620028e8565b9050919050565b6000602082019050818103600083015262002cda816200290f565b9050919050565b6000602082019050818103600083015262002cfc8162002936565b9050919050565b6000602082019050818103600083015262002d1e816200295d565b9050919050565b6000602082019050818103600083015262002d408162002984565b9050919050565b6000602082019050818103600083015262002d6281620029ab565b9050919050565b6000602082019050818103600083015262002d8481620029d2565b9050919050565b600060208201905062002da2600083018462002a0a565b92915050565b600062002db462002dc7565b905062002dc282826200337d565b919050565b6000604051905090565b600067ffffffffffffffff82111562002def5762002dee620034dc565b5b62002dfa826200350b565b9050602081019050919050565b600067ffffffffffffffff82111562002e255762002e24620034dc565b5b62002e30826200350b565b9050602081019050919050565b6000819050602082019050919050565b600081519050919050565b600081519050919050565b6000602082019050919050565b600082825260208201905092915050565b600082825260208201905092915050565b600062002e9f82620032af565b915062002eac83620032af565b9250827fffffffffffffffffffffffffffffffffffffffffffffffffffffffffffffffff0382111562002ee45762002ee36200344f565b5b828201905092915050565b600062002efc82620032af565b915062002f0983620032af565b92508262002f1c5762002f1b6200347e565b5b828204905092915050565b6000808291508390505b600185111562002f795780860481111562002f515762002f506200344f565b5b600185161562002f615780820291505b808102905062002f71856200351c565b945062002f31565b94509492505050565b6000826000811462002f9d576001811462002fa85762002fb2565b600191505062003085565b8291505062003085565b508162002fc3576000905062003085565b60019050600082136001811462002fe3576000811462002fff5762003016565b82860483111562002ff95762002ff86200344f565b5b62003016565b8286058312156200301557620030146200344f565b5b5b50600183161562003025578190505b818202915062003035836200351c565b9250620030458584848462002f27565b9250905081850481116000821316156200306457620030636200344f565b5b81840581126000821216156200307f576200307e6200344f565b5b81810290505b949350505050565b60006200309a8262003285565b9150620030a783620032b9565b9250620030f77f7fffffffffffffffffffffffffffffffffffffffffffffffffffffffffffffff7f8000000000000000000000000000000000000000000000000000000000000000858562002f82565b905092915050565b60006200310c82620032af565b91506200311983620032af565b9250817fffffffffffffffffffffffffffffffffffffffffffffffffffffffffffffffff04831182151516156200315557620031546200344f565b5b828202905092915050565b60006200316d8262003285565b91506200317a8362003285565b9250827f800000000000000000000000000000000000000000000000000000000000000001821260008412151615620031b857620031b76200344f565b5b827f7fffffffffffffffffffffffffffffffffffffffffffffffffffffffffffffff018213600084121615620031f357620031f26200344f565b5b828203905092915050565b60006200320b82620032af565b91506200321883620032af565b9250828210156200322e576200322d6200344f565b5b828203905092915050565b600062003246826200328f565b9050919050565b60008115159050919050565b60007fffffffff0000000000000000000000000000000000000000000000000000000082169050919050565b6000819050919050565b600073ffffffffffffffffffffffffffffffffffffffff82169050919050565b6000819050919050565b600060ff82169050919050565b6000620032d382620032da565b9050919050565b6000620032e7826200328f565b9050919050565b6000620032fb8262003285565b9050919050565b82818337600083830152505050565b60005b838110156200333157808201518184015260208101905062003314565b8381111562003341576000848401525b50505050565b600060028204905060018216806200336057607f821691505b60208210811415620033775762003376620034ad565b5b50919050565b62003388826200350b565b810181811067ffffffffffffffff82111715620033aa57620033a9620034dc565b5b80604052505050565b6000620033c082620032af565b91507fffffffffffffffffffffffffffffffffffffffffffffffffffffffffffffffff821415620033f657620033f56200344f565b5b600182019050919050565b60006200340e8262003285565b91507f80000000000000000000000000000000000000000000000000000000000000008214156200344457620034436200344f565b5b816000039050919050565b7f4e487b7100000000000000000000000000000000000000000000000000000000600052601160045260246000fd5b7f4e487b7100000000000000000000000000000000000000000000000000000000600052601260045260246000fd5b7f4e487b7100000000000000000000000000000000000000000000000000000000600052602260045260246000fd5b7f4e487b7100000000000000000000000000000000000000000000000000000000600052604160045260246000fd5b6000601f19601f8301169050919050565b60008160011c9050919050565b7f596f752068617665206e6f74206465706f736974656420414c4c206f6620746860008201527f65206672616374696f6e616c697a656420746f6b656e73000000000000000000602082015250565b7f596f7520646f206e6f7420686176652074686174206d616e7920746f6b656e73600082015250565b7f5472616e73666572206f662077457468206661696c6564000000000000000000600082015250565b7f54686973204e46542068617320616c7265616479206265656e2066726163746960008201527f6f6e616c697a65642e0000000000000000000000000000000000000000000000602082015250565b7f5472616e73666572206f66206672616320746f6b656e206661696c6564000000600082015250565b7f596f7520646964206e6f74206465706f7369742074686973204e46542e000000600082015250565b7f596f7520646f206e6f7420686176652074686174206d616e7920746f6b656e7360008201527f2e00000000000000000000000000000000000000000000000000000000000000602082015250565b7f596f7520646f206e6f74206861766520656e6f756768206672616320746f6b6560008201527f6e73000000000000000000000000000000000000000000000000000000000000602082015250565b7f546865726520617265206e6f7420656e6f75676820746f6b656e7320746f206260008201527f7579000000000000000000000000000000000000000000000000000000000000602082015250565b620037638162003239565b81146200376f57600080fd5b50565b6200377d816200324d565b81146200378957600080fd5b50565b620037978162003285565b8114620037a357600080fd5b50565b620037b181620032af565b8114620037bd57600080fd5b5056fe60806040523480156200001157600080fd5b5060405162001af538038062001af583398181016040528101906200003791906200035c565b81818160039080519060200190620000519291906200020c565b5080600490805190602001906200006a9291906200020c565b5050506200007f84846200008960201b60201c565b5050505062000719565b600073ffffffffffffffffffffffffffffffffffffffff168273ffffffffffffffffffffffffffffffffffffffff161415620000fc576040517f08c379a0000000000000000000000000000000000000000000000000000000008152600401620000f39062000432565b60405180910390fd5b62000110600083836200020260201b60201c565b8060026000828254620001249190620004e1565b92505081905550806000808473ffffffffffffffffffffffffffffffffffffffff1673ffffffffffffffffffffffffffffffffffffffff16815260200190815260200160002060008282546200017b9190620004e1565b925050819055508173ffffffffffffffffffffffffffffffffffffffff16600073ffffffffffffffffffffffffffffffffffffffff167fddf252ad1be2c89b69c2b068fc378daa952ba7f163c4a11628f55a4df523b3ef83604051620001e2919062000454565b60405180910390a3620001fe600083836200020760201b60201c565b5050565b505050565b505050565b8280546200021a90620005b2565b90600052602060002090601f0160209004810192826200023e57600085556200028a565b82601f106200025957805160ff19168380011785556200028a565b828001600101855582156200028a579182015b82811115620002895782518255916020019190600101906200026c565b5b5090506200029991906200029d565b5090565b5b80821115620002b85760008160009055506001016200029e565b5090565b6000620002d3620002cd846200049a565b62000471565b905082815260208101848484011115620002ec57600080fd5b620002f98482856200057c565b509392505050565b6000815190506200031281620006e5565b92915050565b600082601f8301126200032a57600080fd5b81516200033c848260208601620002bc565b91505092915050565b6000815190506200035681620006ff565b92915050565b600080600080608085870312156200037357600080fd5b6000620003838782880162000301565b9450506020620003968782880162000345565b935050604085015167ffffffffffffffff811115620003b457600080fd5b620003c28782880162000318565b925050606085015167ffffffffffffffff811115620003e057600080fd5b620003ee8782880162000318565b91505092959194509250565b600062000409601f83620004d0565b91506200041682620006bc565b602082019050919050565b6200042c8162000572565b82525050565b600060208201905081810360008301526200044d81620003fa565b9050919050565b60006020820190506200046b600083018462000421565b92915050565b60006200047d62000490565b90506200048b8282620005e8565b919050565b6000604051905090565b600067ffffffffffffffff821115620004b857620004b76200067c565b5b620004c382620006ab565b9050602081019050919050565b600082825260208201905092915050565b6000620004ee8262000572565b9150620004fb8362000572565b9250827fffffffffffffffffffffffffffffffffffffffffffffffffffffffffffffffff038211156200053357620005326200061e565b5b828201905092915050565b60006200054b8262000552565b9050919050565b600073ffffffffffffffffffffffffffffffffffffffff82169050919050565b6000819050919050565b60005b838110156200059c5780820151818401526020810190506200057f565b83811115620005ac576000848401525b50505050565b60006002820490506001821680620005cb57607f821691505b60208210811415620005e257620005e16200064d565b5b50919050565b620005f382620006ab565b810181811067ffffffffffffffff821117156200061557620006146200067c565b5b80604052505050565b7f4e487b7100000000000000000000000000000000000000000000000000000000600052601160045260246000fd5b7f4e487b7100000000000000000000000000000000000000000000000000000000600052602260045260246000fd5b7f4e487b7100000000000000000000000000000000000000000000000000000000600052604160045260246000fd5b6000601f19601f8301169050919050565b7f45524332303a206d696e7420746f20746865207a65726f206164647265737300600082015250565b620006f0816200053e565b8114620006fc57600080fd5b50565b6200070a8162000572565b81146200071657600080fd5b50565b6113cc80620007296000396000f3fe608060405234801561001057600080fd5b50600436106100b45760003560e01c806370a082311161007157806370a08231146101a357806395d89b41146101d3578063a457c2d7146101f1578063a9059cbb14610221578063ca56c18a14610251578063dd62ed3e1461026d576100b4565b806306fdde03146100b9578063095ea7b3146100d757806318160ddd1461010757806323b872dd14610125578063313ce567146101555780633950935114610173575b600080fd5b6100c161029d565b6040516100ce9190610e6c565b60405180910390f35b6100f160048036038101906100ec9190610cba565b61032f565b6040516100fe9190610e51565b60405180910390f35b61010f61034d565b60405161011c9190610f6e565b60405180910390f35b61013f600480360381019061013a9190610c6b565b610357565b60405161014c9190610e51565b60405180910390f35b61015d61044f565b60405161016a9190610f89565b60405180910390f35b61018d60048036038101906101889190610cba565b610458565b60405161019a9190610e51565b60405180910390f35b6101bd60048036038101906101b89190610c06565b610504565b6040516101ca9190610f6e565b60405180910390f35b6101db61054c565b6040516101e89190610e6c565b60405180910390f35b61020b60048036038101906102069190610cba565b6105de565b6040516102189190610e51565b60405180910390f35b61023b60048036038101906102369190610cba565b6106c9565b6040516102489190610e51565b60405180910390f35b61026b60048036038101906102669190610c6b565b6106e7565b005b61028760048036038101906102829190610c2f565b6106f7565b6040516102949190610f6e565b60405180910390f35b6060600380546102ac9061109e565b80601f01602080910402602001604051908101604052809291908181526020018280546102d89061109e565b80156103255780601f106102fa57610100808354040283529160200191610325565b820191906000526020600020905b81548152906001019060200180831161030857829003601f168201915b5050505050905090565b600061034361033c61077e565b8484610786565b6001905092915050565b6000600254905090565b6000610364848484610951565b6000600160008673ffffffffffffffffffffffffffffffffffffffff1673ffffffffffffffffffffffffffffffffffffffff16815260200190815260200160002060006103af61077e565b73ffffffffffffffffffffffffffffffffffffffff1673ffffffffffffffffffffffffffffffffffffffff1681526020019081526020016000205490508281101561042f576040517f08c379a000000000000000000000000000000000000000000000000000000000815260040161042690610eee565b60405180910390fd5b6104438561043b61077e565b858403610786565b60019150509392505050565b60006012905090565b60006104fa61046561077e565b84846001600061047361077e565b73ffffffffffffffffffffffffffffffffffffffff1673ffffffffffffffffffffffffffffffffffffffff16815260200190815260200160002060008873ffffffffffffffffffffffffffffffffffffffff1673ffffffffffffffffffffffffffffffffffffffff168152602001908152602001600020546104f59190610fc0565b610786565b6001905092915050565b60008060008373ffffffffffffffffffffffffffffffffffffffff1673ffffffffffffffffffffffffffffffffffffffff168152602001908152602001600020549050919050565b60606004805461055b9061109e565b80601f01602080910402602001604051908101604052809291908181526020018280546105879061109e565b80156105d45780601f106105a9576101008083540402835291602001916105d4565b820191906000526020600020905b8154815290600101906020018083116105b757829003601f168201915b5050505050905090565b600080600160006105ed61077e565b73ffffffffffffffffffffffffffffffffffffffff1673ffffffffffffffffffffffffffffffffffffffff16815260200190815260200160002060008573ffffffffffffffffffffffffffffffffffffffff1673ffffffffffffffffffffffffffffffffffffffff168152602001908152602001600020549050828110156106aa576040517f08c379a00000000000000000000000000000000000000000000000000000000081526004016106a190610f4e565b60405180910390fd5b6106be6106b561077e565b85858403610786565b600191505092915050565b60006106dd6106d661077e565b8484610951565b6001905092915050565b6106f2838383610786565b505050565b6000600160008473ffffffffffffffffffffffffffffffffffffffff1673ffffffffffffffffffffffffffffffffffffffff16815260200190815260200160002060008373ffffffffffffffffffffffffffffffffffffffff1673ffffffffffffffffffffffffffffffffffffffff16815260200190815260200160002054905092915050565b600033905090565b600073ffffffffffffffffffffffffffffffffffffffff168373ffffffffffffffffffffffffffffffffffffffff1614156107f6576040517f08c379a00000000000000000000000000000000000000000000000000000000081526004016107ed90610f2e565b60405180910390fd5b600073ffffffffffffffffffffffffffffffffffffffff168273ffffffffffffffffffffffffffffffffffffffff161415610866576040517f08c379a000000000000000000000000000000000000000000000000000000000815260040161085d90610eae565b60405180910390fd5b80600160008573ffffffffffffffffffffffffffffffffffffffff1673ffffffffffffffffffffffffffffffffffffffff16815260200190815260200160002060008473ffffffffffffffffffffffffffffffffffffffff1673ffffffffffffffffffffffffffffffffffffffff168152602001908152602001600020819055508173ffffffffffffffffffffffffffffffffffffffff168373ffffffffffffffffffffffffffffffffffffffff167f8c5be1e5ebec7d5bd14f71427d1e84f3dd0314c0f7b2291e5b200ac8c7c3b925836040516109449190610f6e565b60405180910390a3505050565b600073ffffffffffffffffffffffffffffffffffffffff168373ffffffffffffffffffffffffffffffffffffffff1614156109c1576040517f08c379a00000000000000000000000000000000000000000000000000000000081526004016109b890610f0e565b60405180910390fd5b600073ffffffffffffffffffffffffffffffffffffffff168273ffffffffffffffffffffffffffffffffffffffff161415610a31576040517f08c379a0000000000000000000000000000000000000000000000000000000008152600401610a2890610e8e565b60405180910390fd5b610a3c838383610bd2565b60008060008573ffffffffffffffffffffffffffffffffffffffff1673ffffffffffffffffffffffffffffffffffffffff16815260200190815260200160002054905081811015610ac2576040517f08c379a0000000000000000000000000000000000000000000000000000000008152600401610ab990610ece565b60405180910390fd5b8181036000808673ffffffffffffffffffffffffffffffffffffffff1673ffffffffffffffffffffffffffffffffffffffff16815260200190815260200160002081905550816000808573ffffffffffffffffffffffffffffffffffffffff1673ffffffffffffffffffffffffffffffffffffffff1681526020019081526020016000206000828254610b559190610fc0565b925050819055508273ffffffffffffffffffffffffffffffffffffffff168473ffffffffffffffffffffffffffffffffffffffff167fddf252ad1be2c89b69c2b068fc378daa952ba7f163c4a11628f55a4df523b3ef84604051610bb99190610f6e565b60405180910390a3610bcc848484610bd7565b50505050565b505050565b505050565b600081359050610beb81611368565b92915050565b600081359050610c008161137f565b92915050565b600060208284031215610c1857600080fd5b6000610c2684828501610bdc565b91505092915050565b60008060408385031215610c4257600080fd5b6000610c5085828601610bdc565b9250506020610c6185828601610bdc565b9150509250929050565b600080600060608486031215610c8057600080fd5b6000610c8e86828701610bdc565b9350506020610c9f86828701610bdc565b9250506040610cb086828701610bf1565b9150509250925092565b60008060408385031215610ccd57600080fd5b6000610cdb85828601610bdc565b9250506020610cec85828601610bf1565b9150509250929050565b610cff81611028565b82525050565b6000610d1082610fa4565b610d1a8185610faf565b9350610d2a81856020860161106b565b610d338161112e565b840191505092915050565b6000610d4b602383610faf565b9150610d568261113f565b604082019050919050565b6000610d6e602283610faf565b9150610d798261118e565b604082019050919050565b6000610d91602683610faf565b9150610d9c826111dd565b604082019050919050565b6000610db4602883610faf565b9150610dbf8261122c565b604082019050919050565b6000610dd7602583610faf565b9150610de28261127b565b604082019050919050565b6000610dfa602483610faf565b9150610e05826112ca565b604082019050919050565b6000610e1d602583610faf565b9150610e2882611319565b604082019050919050565b610e3c81611054565b82525050565b610e4b8161105e565b82525050565b6000602082019050610e666000830184610cf6565b92915050565b60006020820190508181036000830152610e868184610d05565b905092915050565b60006020820190508181036000830152610ea781610d3e565b9050919050565b60006020820190508181036000830152610ec781610d61565b9050919050565b60006020820190508181036000830152610ee781610d84565b9050919050565b60006020820190508181036000830152610f0781610da7565b9050919050565b60006020820190508181036000830152610f2781610dca565b9050919050565b60006020820190508181036000830152610f4781610ded565b9050919050565b60006020820190508181036000830152610f6781610e10565b9050919050565b6000602082019050610f836000830184610e33565b92915050565b6000602082019050610f9e6000830184610e42565b92915050565b600081519050919050565b600082825260208201905092915050565b6000610fcb82611054565b9150610fd683611054565b9250827fffffffffffffffffffffffffffffffffffffffffffffffffffffffffffffffff0382111561100b5761100a6110d0565b5b828201905092915050565b600061102182611034565b9050919050565b60008115159050919050565b600073ffffffffffffffffffffffffffffffffffffffff82169050919050565b6000819050919050565b600060ff82169050919050565b60005b8381101561108957808201518184015260208101905061106e565b83811115611098576000848401525b50505050565b600060028204905060018216806110b657607f821691505b602082108114156110ca576110c96110ff565b5b50919050565b7f4e487b7100000000000000000000000000000000000000000000000000000000600052601160045260246000fd5b7f4e487b7100000000000000000000000000000000000000000000000000000000600052602260045260246000fd5b6000601f19601f8301169050919050565b7f45524332303a207472616e7366657220746f20746865207a65726f206164647260008201527f6573730000000000000000000000000000000000000000000000000000000000602082015250565b7f45524332303a20617070726f766520746f20746865207a65726f20616464726560008201527f7373000000000000000000000000000000000000000000000000000000000000602082015250565b7f45524332303a207472616e7366657220616d6f756e742065786365656473206260008201527f616c616e63650000000000000000000000000000000000000000000000000000602082015250565b7f45524332303a207472616e7366657220616d6f756e742065786365656473206160008201527f6c6c6f77616e6365000000000000000000000000000000000000000000000000602082015250565b7f45524332303a207472616e736665722066726f6d20746865207a65726f20616460008201527f6472657373000000000000000000000000000000000000000000000000000000602082015250565b7f45524332303a20617070726f76652066726f6d20746865207a65726f2061646460008201527f7265737300000000000000000000000000000000000000000000000000000000602082015250565b7f45524332303a2064656372656173656420616c6c6f77616e63652062656c6f7760008201527f207a65726f000000000000000000000000000000000000000000000000000000602082015250565b61137181611016565b811461137c57600080fd5b50565b61138881611054565b811461139357600080fd5b5056fea2646970667358221220204ef60e4a3379fb11a8ec48da6df7e9f6ac278a78b78df73ec9c4fb0d4af84064736f6c63430008040033a264697066735822122023bafd67f9456fe5faab8e4fe57084ecdcc20c52394224423d8efe3aa1eb8c8564736f6c63430008040033",
  "linkReferences": {
    "contracts/FixedMath.sol": {
      "FixedMath": [
        {
          "length": 20,
          "start": 3534
        },
        {
          "length": 20,
          "start": 3560
        },
        {
          "length": 20,
          "start": 3589
        },
        {
          "length": 20,
          "start": 4006
        },
        {
          "length": 20,
          "start": 4153
        },
        {
          "length": 20,
          "start": 4301
        }
      ]
    }
  },
  "deployedLinkReferences": {
    "contracts/FixedMath.sol": {
      "FixedMath": [
        {
          "length": 20,
          "start": 3242
        },
        {
          "length": 20,
          "start": 3268
        },
        {
          "length": 20,
          "start": 3297
        },
        {
          "length": 20,
          "start": 3714
        },
        {
          "length": 20,
          "start": 3861
        },
        {
          "length": 20,
          "start": 4009
        }
      ]
    }
  }
}