{
  "_format": "hh-sol-artifact-1",
  "contractName": "Vault",
  "sourceName": "contracts/Vault.sol",
  "abi": [
    {
      "inputs": [
        {
          "internalType": "address",
          "name": "_wEthAddr",
          "type": "address"
        }
      ],
      "stateMutability": "nonpayable",
      "type": "constructor"
    },
    {
      "anonymous": false,
      "inputs": [
        {
          "indexed": false,
          "internalType": "address",
          "name": "from",
          "type": "address"
        },
        {
          "indexed": false,
          "internalType": "uint256",
          "name": "tokenId",
          "type": "uint256"
        },
        {
          "indexed": false,
          "internalType": "uint256",
          "name": "internalId",
          "type": "uint256"
        },
        {
          "indexed": false,
          "internalType": "address",
          "name": "nftAddr",
          "type": "address"
        }
      ],
      "name": "Recieved",
      "type": "event"
    },
    {
      "inputs": [
        {
          "internalType": "uint256",
          "name": "internalId",
          "type": "uint256"
        },
        {
          "internalType": "address",
          "name": "account",
          "type": "address"
        },
        {
          "internalType": "uint256",
          "name": "amount",
          "type": "uint256"
        }
      ],
      "name": "approveNFTokenTransfer",
      "outputs": [],
      "stateMutability": "nonpayable",
      "type": "function"
    },
    {
      "inputs": [
        {
          "internalType": "uint256",
          "name": "internalId",
          "type": "uint256"
        },
        {
          "internalType": "uint256",
          "name": "amountOfFrac",
          "type": "uint256"
        },
        {
          "internalType": "address",
          "name": "buyer",
          "type": "address"
        }
      ],
      "name": "buyTokens",
      "outputs": [],
      "stateMutability": "nonpayable",
      "type": "function"
    },
    {
      "inputs": [
        {
          "internalType": "uint256",
          "name": "internalId",
          "type": "uint256"
        },
        {
          "internalType": "uint256",
          "name": "amount",
          "type": "uint256"
        }
      ],
      "name": "buyTokensIndividual",
      "outputs": [],
      "stateMutability": "nonpayable",
      "type": "function"
    },
    {
      "inputs": [
        {
          "internalType": "uint256",
          "name": "internalId",
          "type": "uint256"
        },
        {
          "internalType": "address",
          "name": "account",
          "type": "address"
        }
      ],
      "name": "buyoutERC721",
      "outputs": [],
      "stateMutability": "nonpayable",
      "type": "function"
    },
    {
      "inputs": [
        {
          "internalType": "uint256",
          "name": "_amountOfwEth",
          "type": "uint256"
        },
        {
          "internalType": "uint256",
          "name": "internalId",
          "type": "uint256"
        }
      ],
      "name": "calculateAmountOfFrac",
      "outputs": [
        {
          "internalType": "uint256",
          "name": "",
          "type": "uint256"
        }
      ],
      "stateMutability": "nonpayable",
      "type": "function"
    },
    {
      "inputs": [
        {
          "internalType": "uint256",
          "name": "_amountOfFrac",
          "type": "uint256"
        },
        {
          "internalType": "uint256",
          "name": "internalId",
          "type": "uint256"
        }
      ],
      "name": "calculateAmountOfwEth",
      "outputs": [
        {
          "internalType": "uint256",
          "name": "",
          "type": "uint256"
        }
      ],
      "stateMutability": "nonpayable",
      "type": "function"
    },
    {
      "inputs": [
        {
          "internalType": "uint256",
          "name": "internalId",
          "type": "uint256"
        },
        {
          "internalType": "address",
          "name": "account",
          "type": "address"
        },
        {
          "internalType": "uint256",
          "name": "amount",
          "type": "uint256"
        }
      ],
      "name": "depositNFToken",
      "outputs": [],
      "stateMutability": "nonpayable",
      "type": "function"
    },
    {
      "inputs": [
        {
          "internalType": "uint256",
          "name": "internalId",
          "type": "uint256"
        },
        {
          "internalType": "address",
          "name": "account",
          "type": "address"
        }
      ],
      "name": "getDepositAmount",
      "outputs": [
        {
          "internalType": "uint256",
          "name": "",
          "type": "uint256"
        }
      ],
      "stateMutability": "view",
      "type": "function"
    },
    {
      "inputs": [
        {
          "internalType": "uint256",
          "name": "internalId",
          "type": "uint256"
        }
      ],
      "name": "getERC721ContractAddr",
      "outputs": [
        {
          "internalType": "address",
          "name": "",
          "type": "address"
        }
      ],
      "stateMutability": "view",
      "type": "function"
    },
    {
      "inputs": [
        {
          "internalType": "uint256",
          "name": "internalId",
          "type": "uint256"
        }
      ],
      "name": "getERC721TokenId",
      "outputs": [
        {
          "internalType": "uint256",
          "name": "",
          "type": "uint256"
        }
      ],
      "stateMutability": "view",
      "type": "function"
    },
    {
      "inputs": [],
      "name": "getInternalIdCounter",
      "outputs": [
        {
          "internalType": "uint256",
          "name": "",
          "type": "uint256"
        }
      ],
      "stateMutability": "view",
      "type": "function"
    },
    {
      "inputs": [
        {
          "internalType": "uint256",
          "name": "internalId",
          "type": "uint256"
        }
      ],
      "name": "getNFTContractAddr",
      "outputs": [
        {
          "internalType": "address",
          "name": "",
          "type": "address"
        }
      ],
      "stateMutability": "view",
      "type": "function"
    },
    {
      "inputs": [
        {
          "internalType": "uint256",
          "name": "internalId",
          "type": "uint256"
        }
      ],
      "name": "getNFTokenAddr",
      "outputs": [
        {
          "internalType": "address",
          "name": "",
          "type": "address"
        }
      ],
      "stateMutability": "view",
      "type": "function"
    },
    {
      "inputs": [
        {
          "internalType": "uint256",
          "name": "internalId",
          "type": "uint256"
        },
        {
          "internalType": "address",
          "name": "account",
          "type": "address"
        }
      ],
      "name": "getNFTokenBalance",
      "outputs": [
        {
          "internalType": "uint256",
          "name": "",
          "type": "uint256"
        }
      ],
      "stateMutability": "view",
      "type": "function"
    },
    {
      "inputs": [
        {
          "internalType": "uint256",
          "name": "internalId",
          "type": "uint256"
        }
      ],
      "name": "getNFTokenSupply",
      "outputs": [
        {
          "internalType": "uint256",
          "name": "",
          "type": "uint256"
        }
      ],
      "stateMutability": "view",
      "type": "function"
    },
    {
      "inputs": [
        {
          "internalType": "address",
          "name": "account",
          "type": "address"
        }
      ],
      "name": "getNumIdsOwned",
      "outputs": [
        {
          "internalType": "uint256",
          "name": "",
          "type": "uint256"
        }
      ],
      "stateMutability": "view",
      "type": "function"
    },
    {
      "inputs": [],
      "name": "getNumberDepositedERC721s",
      "outputs": [
        {
          "internalType": "uint256",
          "name": "",
          "type": "uint256"
        }
      ],
      "stateMutability": "view",
      "type": "function"
    },
    {
      "inputs": [
        {
          "internalType": "uint256",
          "name": "internalId",
          "type": "uint256"
        }
      ],
      "name": "getOwned",
      "outputs": [
        {
          "internalType": "bool",
          "name": "",
          "type": "bool"
        }
      ],
      "stateMutability": "view",
      "type": "function"
    },
    {
      "inputs": [
        {
          "internalType": "address",
          "name": "account",
          "type": "address"
        }
      ],
      "name": "getOwnedInternalIds",
      "outputs": [
        {
          "internalType": "uint256[]",
          "name": "",
          "type": "uint256[]"
        }
      ],
      "stateMutability": "view",
      "type": "function"
    },
    {
      "inputs": [],
      "name": "getwEthAddr",
      "outputs": [
        {
          "internalType": "address",
          "name": "",
          "type": "address"
        }
      ],
      "stateMutability": "nonpayable",
      "type": "function"
    },
    {
      "inputs": [
        {
          "internalType": "uint256",
          "name": "supply",
          "type": "uint256"
        },
        {
          "internalType": "string",
          "name": "name",
          "type": "string"
        },
        {
          "internalType": "string",
          "name": "ticker",
          "type": "string"
        },
        {
          "internalType": "uint256",
          "name": "internalId",
          "type": "uint256"
        },
        {
          "internalType": "uint256",
          "name": "amountToKeep",
          "type": "uint256"
        }
      ],
      "name": "mintTokensForNFT",
      "outputs": [
        {
          "internalType": "contract NFToken",
          "name": "",
          "type": "address"
        }
      ],
      "stateMutability": "nonpayable",
      "type": "function"
    },
    {
      "inputs": [
        {
          "internalType": "address",
          "name": "operator",
          "type": "address"
        },
        {
          "internalType": "address",
          "name": "from",
          "type": "address"
        },
        {
          "internalType": "uint256",
          "name": "tokenId",
          "type": "uint256"
        },
        {
          "internalType": "bytes",
          "name": "data",
          "type": "bytes"
        }
      ],
      "name": "onERC721Received",
      "outputs": [
        {
          "internalType": "bytes4",
          "name": "",
          "type": "bytes4"
        }
      ],
      "stateMutability": "nonpayable",
      "type": "function"
    },
    {
      "inputs": [
        {
          "internalType": "uint256",
          "name": "internalId",
          "type": "uint256"
        },
        {
          "internalType": "uint256",
          "name": "amountOfwEth",
          "type": "uint256"
        },
        {
          "internalType": "address",
          "name": "seller",
          "type": "address"
        }
      ],
      "name": "sellTokens",
      "outputs": [],
      "stateMutability": "nonpayable",
      "type": "function"
    },
    {
      "inputs": [
        {
          "internalType": "uint256",
          "name": "internalId",
          "type": "uint256"
        },
        {
          "internalType": "uint256",
          "name": "amountOfwEth",
          "type": "uint256"
        }
      ],
      "name": "sellTokensIndividual",
      "outputs": [],
      "stateMutability": "nonpayable",
      "type": "function"
    },
    {
      "inputs": [
        {
          "internalType": "uint256",
          "name": "internalId",
          "type": "uint256"
        },
        {
          "internalType": "address",
          "name": "account",
          "type": "address"
        },
        {
          "internalType": "uint256",
          "name": "amount",
          "type": "uint256"
        }
      ],
      "name": "withdrawNFToken",
      "outputs": [],
      "stateMutability": "nonpayable",
      "type": "function"
    }
  ],
  "bytecode": "0x608060405260006001553480156200001657600080fd5b5060405162004b9338038062004b9383398181016040528101906200003c91906200009a565b806000806101000a81548173ffffffffffffffffffffffffffffffffffffffff021916908373ffffffffffffffffffffffffffffffffffffffff1602179055505062000114565b6000815190506200009481620000fa565b92915050565b600060208284031215620000ad57600080fd5b6000620000bd8482850162000083565b91505092915050565b6000620000d382620000da565b9050919050565b600073ffffffffffffffffffffffffffffffffffffffff82169050919050565b6200010581620000c6565b81146200011157600080fd5b50565b614a6f80620001246000396000f3fe60806040523480156200001157600080fd5b5060043610620001965760003560e01c806380168c7b11620000f3578063bd3d433711620000a5578063cae244b4116200007b578063cae244b41462000549578063de75a5c0146200057f578063e683c23914620005b5578063ef569f9a14620005d55762000196565b8063bd3d433714620004e9578063c16878771462000509578063c44f7a1714620005295762000196565b806380168c7b14620003cf57806386b5e7ea14620004055780639eefad98146200043b578063a919b74a1462000471578063af3ddc1a14620004a7578063b7cebb3e14620004c75762000196565b806340aa97ec116200014d57806340aa97ec146200029f578063442f6bd914620002d557806349f1c753146200030b5780634debe86a146200034157806365d51d881462000363578063742f23c714620003995762000196565b80630b1a08e5146200019b578063102af74814620001d1578063150b7a0214620002075780631b2d83cd146200023d578063312f0d80146200025d578063397bafd6146200027d575b600080fd5b620001b96004803603810190620001b39190620021aa565b620005f5565b604051620001c89190620027a7565b60405180910390f35b620001ef6004803603810190620001e9919062001f2a565b62000623565b604051620001fe9190620025fa565b60405180910390f35b6200022560048036038101906200021f919062001f56565b62000888565b6040516200023491906200263b565b60405180910390f35b6200025b6004803603810190620002559190620020a0565b62000b9f565b005b6200027b60048036038101906200027591906200205f565b62000c27565b005b6200028762000da1565b604051620002969190620027a7565b60405180910390f35b620002bd6004803603810190620002b7919062001f2a565b62000db8565b604051620002cc9190620027a7565b60405180910390f35b620002f36004803603810190620002ed9190620020f6565b62000e01565b60405162000302919062002658565b60405180910390f35b62000329600480360381019062000323919062002007565b6200114f565b604051620003389190620024cb565b60405180910390f35b6200034b6200118f565b6040516200035a9190620024cb565b60405180910390f35b6200038160048036038101906200037b9190620021aa565b620011b8565b604051620003909190620027a7565b60405180910390f35b620003b76004803603810190620003b1919062002007565b620011e6565b604051620003c69190620024cb565b60405180910390f35b620003ed6004803603810190620003e7919062002007565b62001226565b604051620003fc9190620027a7565b60405180910390f35b6200042360048036038101906200041d919062002007565b62001246565b604051620004329190620024cb565b60405180910390f35b62000459600480360381019062000453919062002007565b62001286565b604051620004689190620027a7565b60405180910390f35b6200048f600480360381019062000489919062002007565b62001335565b6040516200049e91906200261e565b60405180910390f35b620004c56004803603810190620004bf9190620020a0565b62001362565b005b620004d1620014da565b604051620004e09190620027a7565b60405180910390f35b620005076004803603810190620005019190620021aa565b620014e4565b005b620005276004803603810190620005219190620021eb565b620014f5565b005b620005476004803603810190620005419190620020a0565b620017ac565b005b6200056760048036038101906200056191906200205f565b62001926565b604051620005769190620027a7565b60405180910390f35b6200059d60048036038101906200059791906200205f565b620019e3565b604051620005ac9190620027a7565b60405180910390f35b620005d36004803603810190620005cd9190620021aa565b62001a3e565b005b620005f36004803603810190620005ed9190620021eb565b62001a4f565b005b60008260026000848152602001908152602001600020600501546200061b919062002943565b905092915050565b60606000620006328362000db8565b905060008167ffffffffffffffff81111562000677577f4e487b7100000000000000000000000000000000000000000000000000000000600052604160045260246000fd5b604051908082528060200260200182016040528015620006a65781602001602082028036833780820191505090505b5090506000805b600460008773ffffffffffffffffffffffffffffffffffffffff1673ffffffffffffffffffffffffffffffffffffffff168152602001908152602001600020805490508110156200087c5762000785600460008873ffffffffffffffffffffffffffffffffffffffff1673ffffffffffffffffffffffffffffffffffffffff168152602001908152602001600020828154811062000774577f4e487b7100000000000000000000000000000000000000000000000000000000600052603260045260246000fd5b906000526020600020015462001335565b156200086657600460008773ffffffffffffffffffffffffffffffffffffffff1673ffffffffffffffffffffffffffffffffffffffff168152602001908152602001600020818154811062000803577f4e487b7100000000000000000000000000000000000000000000000000000000600052603260045260246000fd5b906000526020600020015483838151811062000848577f4e487b7100000000000000000000000000000000000000000000000000000000600052603260045260246000fd5b602002602001018181525050600182620008639190620028ae565b91505b8080620008739062002af8565b915050620006ad565b50819350505050919050565b60006200089462001d5b565b60015481600001818152505033816020019073ffffffffffffffffffffffffffffffffffffffff16908173ffffffffffffffffffffffffffffffffffffffff168152505084816060019073ffffffffffffffffffffffffffffffffffffffff16908173ffffffffffffffffffffffffffffffffffffffff16815250508381604001818152505060018160c0019015159081151581525050806002600060015481526020019081526020016000206000820151816000015560208201518160010160006101000a81548173ffffffffffffffffffffffffffffffffffffffff021916908373ffffffffffffffffffffffffffffffffffffffff1602179055506040820151816002015560608201518160030160006101000a81548173ffffffffffffffffffffffffffffffffffffffff021916908373ffffffffffffffffffffffffffffffffffffffff16021790555060808201518160040160006101000a81548173ffffffffffffffffffffffffffffffffffffffff021916908373ffffffffffffffffffffffffffffffffffffffff16021790555060a0820151816005015560c08201518160060160006101000a81548160ff02191690831515021790555090505060046000826020015173ffffffffffffffffffffffffffffffffffffffff1673ffffffffffffffffffffffffffffffffffffffff16815260200190815260200160002081600001519080600181540180825580915050600190039060005260206000200160009091909190915055600160056000836020015173ffffffffffffffffffffffffffffffffffffffff1673ffffffffffffffffffffffffffffffffffffffff168152602001908152602001600020600082825462000b1b9190620028ae565b925050819055507f935d05cbf9fa27cbf03a09eb57f4384da509a8e34d406b8b8e1c21b249e25c16816060015182604001518360000151846020015160405162000b699493929190620025ad565b60405180910390a1600180600082825462000b859190620028ae565b9250508190555063150b7a0260e01b915050949350505050565b600062000bac8462001246565b90508073ffffffffffffffffffffffffffffffffffffffff1663ca56c18a8430856040518463ffffffff1660e01b815260040162000bed93929190620024e8565b600060405180830381600087803b15801562000c0857600080fd5b505af115801562000c1d573d6000803e3d6000fd5b5050505050505050565b62000c328262001286565b62000c3e8383620019e3565b1462000c81576040517f08c379a000000000000000000000000000000000000000000000000000000000815260040162000c789062002675565b60405180910390fd5b600062000c8e83620011e6565b90508073ffffffffffffffffffffffffffffffffffffffff166323b872dd308462000cb98762001226565b6040518463ffffffff1660e01b815260040162000cd993929190620024e8565b600060405180830381600087803b15801562000cf457600080fd5b505af115801562000d09573d6000803e3d6000fd5b505050506001600560006002600087815260200190815260200160002060030160009054906101000a900473ffffffffffffffffffffffffffffffffffffffff1673ffffffffffffffffffffffffffffffffffffffff1673ffffffffffffffffffffffffffffffffffffffff168152602001908152602001600020600082825462000d959190620029a4565b92505081905550505050565b60006001805462000db39190620029a4565b905090565b6000600560008373ffffffffffffffffffffffffffffffffffffffff1673ffffffffffffffffffffffffffffffffffffffff168152602001908152602001600020549050919050565b60003373ffffffffffffffffffffffffffffffffffffffff166002600085815260200190815260200160002060030160009054906101000a900473ffffffffffffffffffffffffffffffffffffffff1673ffffffffffffffffffffffffffffffffffffffff161462000eaa576040517f08c379a000000000000000000000000000000000000000000000000000000000815260040162000ea1906200271f565b60405180910390fd5b600073ffffffffffffffffffffffffffffffffffffffff166002600085815260200190815260200160002060040160009054906101000a900473ffffffffffffffffffffffffffffffffffffffff1673ffffffffffffffffffffffffffffffffffffffff161462000f52576040517f08c379a000000000000000000000000000000000000000000000000000000000815260040162000f4990620026db565b60405180910390fd5b600062000f63308589898962001d06565b90508073ffffffffffffffffffffffffffffffffffffffff1663095ea7b330670de0b6b3a76400008662000f98919062002943565b6040518363ffffffff1660e01b815260040162000fb792919062002525565b602060405180830381600087803b15801562000fd257600080fd5b505af115801562000fe7573d6000803e3d6000fd5b505050506040513d601f19601f820116820180604052508101906200100d919062001fdb565b508073ffffffffffffffffffffffffffffffffffffffff1663a9059cbb6002600087815260200190815260200160002060030160009054906101000a900473ffffffffffffffffffffffffffffffffffffffff16670de0b6b3a76400008662001077919062002943565b6040518363ffffffff1660e01b81526004016200109692919062002525565b602060405180830381600087803b158015620010b157600080fd5b505af1158015620010c6573d6000803e3d6000fd5b505050506040513d601f19601f82011682018060405250810190620010ec919062001fdb565b50806002600086815260200190815260200160002060040160006101000a81548173ffffffffffffffffffffffffffffffffffffffff021916908373ffffffffffffffffffffffffffffffffffffffff1602179055508091505095945050505050565b60006002600083815260200190815260200160002060010160009054906101000a900473ffffffffffffffffffffffffffffffffffffffff169050919050565b60008060009054906101000a900473ffffffffffffffffffffffffffffffffffffffff16905090565b6000600260008381526020019081526020016000206005015483620011de91906200290b565b905092915050565b60006002600083815260200190815260200160002060010160009054906101000a900473ffffffffffffffffffffffffffffffffffffffff169050919050565b600060026000838152602001908152602001600020600201549050919050565b60006002600083815260200190815260200160002060040160009054906101000a900473ffffffffffffffffffffffffffffffffffffffff169050919050565b600080620012948362001246565b9050670de0b6b3a76400008173ffffffffffffffffffffffffffffffffffffffff166318160ddd6040518163ffffffff1660e01b815260040160206040518083038186803b158015620012e657600080fd5b505afa158015620012fb573d6000803e3d6000fd5b505050506040513d601f19601f8201168201806040525081019062001321919062002033565b6200132d91906200290b565b915050919050565b60006002600083815260200190815260200160002060060160009054906101000a900460ff169050919050565b6200136e8383620019e3565b811115620013b3576040517f08c379a0000000000000000000000000000000000000000000000000000000008152600401620013aa9062002697565b60405180910390fd5b80600360008473ffffffffffffffffffffffffffffffffffffffff1673ffffffffffffffffffffffffffffffffffffffff16815260200190815260200160002060008581526020019081526020016000206000828254620014159190620029a4565b925050819055506000620014298462001246565b90508073ffffffffffffffffffffffffffffffffffffffff1663a9059cbb84670de0b6b3a7640000856200145e919062002943565b6040518363ffffffff1660e01b81526004016200147d92919062002525565b602060405180830381600087803b1580156200149857600080fd5b505af1158015620014ad573d6000803e3d6000fd5b505050506040513d601f19601f82011682018060405250810190620014d3919062001fdb565b5050505050565b6000600154905090565b620014f182823362001a4f565b5050565b6000620015028462001246565b90506000620015106200118f565b90506000620015208587620005f5565b9050848373ffffffffffffffffffffffffffffffffffffffff166370a08231306040518263ffffffff1660e01b81526004016200155e9190620024cb565b60206040518083038186803b1580156200157757600080fd5b505afa1580156200158c573d6000803e3d6000fd5b505050506040513d601f19601f82011682018060405250810190620015b2919062002033565b1015620015f6576040517f08c379a0000000000000000000000000000000000000000000000000000000008152600401620015ed9062002785565b60405180910390fd5b8173ffffffffffffffffffffffffffffffffffffffff166323b872dd8530846040518463ffffffff1660e01b81526004016200163593929190620024e8565b602060405180830381600087803b1580156200165057600080fd5b505af115801562001665573d6000803e3d6000fd5b505050506040513d601f19601f820116820180604052508101906200168b919062001fdb565b620016cd576040517f08c379a0000000000000000000000000000000000000000000000000000000008152600401620016c490620026b9565b60405180910390fd5b8273ffffffffffffffffffffffffffffffffffffffff166323b872dd3086886040518463ffffffff1660e01b81526004016200170c93929190620024e8565b602060405180830381600087803b1580156200172757600080fd5b505af11580156200173c573d6000803e3d6000fd5b505050506040513d601f19601f8201168201806040525081019062001762919062001fdb565b620017a4576040517f08c379a00000000000000000000000000000000000000000000000000000000081526004016200179b90620026fd565b60405180910390fd5b505050505050565b80620017b9848462001926565b1015620017fd576040517f08c379a0000000000000000000000000000000000000000000000000000000008152600401620017f49062002741565b60405180910390fd5b60006200180a8462001246565b90508073ffffffffffffffffffffffffffffffffffffffff166323b872dd8430670de0b6b3a76400008662001840919062002943565b6040518463ffffffff1660e01b81526004016200186093929190620024e8565b602060405180830381600087803b1580156200187b57600080fd5b505af115801562001890573d6000803e3d6000fd5b505050506040513d601f19601f82011682018060405250810190620018b6919062001fdb565b5081600360008573ffffffffffffffffffffffffffffffffffffffff1673ffffffffffffffffffffffffffffffffffffffff16815260200190815260200160002060008681526020019081526020016000206000828254620019199190620028ae565b9250508190555050505050565b600080620019348462001246565b9050670de0b6b3a76400008173ffffffffffffffffffffffffffffffffffffffff166370a08231856040518263ffffffff1660e01b81526004016200197a9190620024cb565b60206040518083038186803b1580156200199357600080fd5b505afa158015620019a8573d6000803e3d6000fd5b505050506040513d601f19601f82011682018060405250810190620019ce919062002033565b620019da91906200290b565b91505092915050565b6000600360008373ffffffffffffffffffffffffffffffffffffffff1673ffffffffffffffffffffffffffffffffffffffff168152602001908152602001600020600084815260200190815260200160002054905092915050565b62001a4b828233620014f5565b5050565b600062001a5c8462001246565b9050600062001a6a6200118f565b9050600062001a7a8587620011b8565b9050808373ffffffffffffffffffffffffffffffffffffffff166370a08231866040518263ffffffff1660e01b815260040162001ab89190620024cb565b60206040518083038186803b15801562001ad157600080fd5b505afa15801562001ae6573d6000803e3d6000fd5b505050506040513d601f19601f8201168201806040525081019062001b0c919062002033565b101562001b50576040517f08c379a000000000000000000000000000000000000000000000000000000000815260040162001b479062002763565b60405180910390fd5b8273ffffffffffffffffffffffffffffffffffffffff166323b872dd8530846040518463ffffffff1660e01b815260040162001b8f93929190620024e8565b602060405180830381600087803b15801562001baa57600080fd5b505af115801562001bbf573d6000803e3d6000fd5b505050506040513d601f19601f8201168201806040525081019062001be5919062001fdb565b62001c27576040517f08c379a000000000000000000000000000000000000000000000000000000000815260040162001c1e90620026fd565b60405180910390fd5b8173ffffffffffffffffffffffffffffffffffffffff166323b872dd3086886040518463ffffffff1660e01b815260040162001c6693929190620024e8565b602060405180830381600087803b15801562001c8157600080fd5b505af115801562001c96573d6000803e3d6000fd5b505050506040513d601f19601f8201168201806040525081019062001cbc919062001fdb565b62001cfe576040517f08c379a000000000000000000000000000000000000000000000000000000000815260040162001cf590620026b9565b60405180910390fd5b505050505050565b6000606060008786868660405162001d1e9062001ddc565b62001d2d949392919062002552565b604051809103906000f08015801562001d4a573d6000803e3d6000fd5b509050809250505095945050505050565b6040518060e0016040528060008152602001600073ffffffffffffffffffffffffffffffffffffffff16815260200160008152602001600073ffffffffffffffffffffffffffffffffffffffff168152602001600073ffffffffffffffffffffffffffffffffffffffff168152602001600081526020016000151581525090565b611bd88062002e6283390190565b600062001e0162001dfb84620027ed565b620027c4565b90508281526020810184848401111562001e1a57600080fd5b62001e2784828562002a7d565b509392505050565b600062001e4662001e408462002823565b620027c4565b90508281526020810184848401111562001e5f57600080fd5b62001e6c84828562002a7d565b509392505050565b60008135905062001e858162002e13565b92915050565b60008151905062001e9c8162002e2d565b92915050565b600082601f83011262001eb457600080fd5b813562001ec684826020860162001dea565b91505092915050565b600082601f83011262001ee157600080fd5b813562001ef384826020860162001e2f565b91505092915050565b60008135905062001f0d8162002e47565b92915050565b60008151905062001f248162002e47565b92915050565b60006020828403121562001f3d57600080fd5b600062001f4d8482850162001e74565b91505092915050565b6000806000806080858703121562001f6d57600080fd5b600062001f7d8782880162001e74565b945050602062001f908782880162001e74565b935050604062001fa38782880162001efc565b925050606085013567ffffffffffffffff81111562001fc157600080fd5b62001fcf8782880162001ea2565b91505092959194509250565b60006020828403121562001fee57600080fd5b600062001ffe8482850162001e8b565b91505092915050565b6000602082840312156200201a57600080fd5b60006200202a8482850162001efc565b91505092915050565b6000602082840312156200204657600080fd5b6000620020568482850162001f13565b91505092915050565b600080604083850312156200207357600080fd5b6000620020838582860162001efc565b9250506020620020968582860162001e74565b9150509250929050565b600080600060608486031215620020b657600080fd5b6000620020c68682870162001efc565b9350506020620020d98682870162001e74565b9250506040620020ec8682870162001efc565b9150509250925092565b600080600080600060a086880312156200210f57600080fd5b60006200211f8882890162001efc565b955050602086013567ffffffffffffffff8111156200213d57600080fd5b6200214b8882890162001ecf565b945050604086013567ffffffffffffffff8111156200216957600080fd5b620021778882890162001ecf565b93505060606200218a8882890162001efc565b92505060806200219d8882890162001efc565b9150509295509295909350565b60008060408385031215620021be57600080fd5b6000620021ce8582860162001efc565b9250506020620021e18582860162001efc565b9150509250929050565b6000806000606084860312156200220157600080fd5b6000620022118682870162001efc565b9350506020620022248682870162001efc565b9250506040620022378682870162001e74565b9150509250925092565b60006200224f8383620024a9565b60208301905092915050565b6200226681620029df565b82525050565b6000620022798262002869565b6200228581856200288c565b9350620022928362002859565b8060005b83811015620022c9578151620022ad888262002241565b9750620022ba836200287f565b92505060018101905062002296565b5085935050505092915050565b620022e181620029f3565b82525050565b620022f281620029ff565b82525050565b620023038162002a55565b82525050565b6000620023168262002874565b6200232281856200289d565b93506200233481856020860162002a8c565b6200233f8162002bd3565b840191505092915050565b6000620023596037836200289d565b9150620023668262002be4565b604082019050919050565b6000620023806020836200289d565b91506200238d8262002c33565b602082019050919050565b6000620023a76017836200289d565b9150620023b48262002c5c565b602082019050919050565b6000620023ce6029836200289d565b9150620023db8262002c85565b604082019050919050565b6000620023f5601d836200289d565b9150620024028262002cd4565b602082019050919050565b60006200241c601d836200289d565b9150620024298262002cfd565b602082019050919050565b6000620024436021836200289d565b9150620024508262002d26565b604082019050919050565b60006200246a6022836200289d565b9150620024778262002d75565b604082019050919050565b6000620024916022836200289d565b91506200249e8262002dc4565b604082019050919050565b620024b48162002a4b565b82525050565b620024c58162002a4b565b82525050565b6000602082019050620024e260008301846200225b565b92915050565b6000606082019050620024ff60008301866200225b565b6200250e60208301856200225b565b6200251d6040830184620024ba565b949350505050565b60006040820190506200253c60008301856200225b565b6200254b6020830184620024ba565b9392505050565b60006080820190506200256960008301876200225b565b620025786020830186620024ba565b81810360408301526200258c818562002309565b90508181036060830152620025a2818462002309565b905095945050505050565b6000608082019050620025c460008301876200225b565b620025d36020830186620024ba565b620025e26040830185620024ba565b620025f160608301846200225b565b95945050505050565b600060208201905081810360008301526200261681846200226c565b905092915050565b6000602082019050620026356000830184620022d6565b92915050565b6000602082019050620026526000830184620022e7565b92915050565b60006020820190506200266f6000830184620022f8565b92915050565b6000602082019050818103600083015262002690816200234a565b9050919050565b60006020820190508181036000830152620026b28162002371565b9050919050565b60006020820190508181036000830152620026d48162002398565b9050919050565b60006020820190508181036000830152620026f681620023bf565b9050919050565b600060208201905081810360008301526200271881620023e6565b9050919050565b600060208201905081810360008301526200273a816200240d565b9050919050565b600060208201905081810360008301526200275c8162002434565b9050919050565b600060208201905081810360008301526200277e816200245b565b9050919050565b60006020820190508181036000830152620027a08162002482565b9050919050565b6000602082019050620027be6000830184620024ba565b92915050565b6000620027d0620027e3565b9050620027de828262002ac2565b919050565b6000604051905090565b600067ffffffffffffffff8211156200280b576200280a62002ba4565b5b620028168262002bd3565b9050602081019050919050565b600067ffffffffffffffff82111562002841576200284062002ba4565b5b6200284c8262002bd3565b9050602081019050919050565b6000819050602082019050919050565b600081519050919050565b600081519050919050565b6000602082019050919050565b600082825260208201905092915050565b600082825260208201905092915050565b6000620028bb8262002a4b565b9150620028c88362002a4b565b9250827fffffffffffffffffffffffffffffffffffffffffffffffffffffffffffffffff038211156200290057620028ff62002b46565b5b828201905092915050565b6000620029188262002a4b565b9150620029258362002a4b565b92508262002938576200293762002b75565b5b828204905092915050565b6000620029508262002a4b565b91506200295d8362002a4b565b9250817fffffffffffffffffffffffffffffffffffffffffffffffffffffffffffffffff048311821515161562002999576200299862002b46565b5b828202905092915050565b6000620029b18262002a4b565b9150620029be8362002a4b565b925082821015620029d457620029d362002b46565b5b828203905092915050565b6000620029ec8262002a2b565b9050919050565b60008115159050919050565b60007fffffffff0000000000000000000000000000000000000000000000000000000082169050919050565b600073ffffffffffffffffffffffffffffffffffffffff82169050919050565b6000819050919050565b600062002a628262002a69565b9050919050565b600062002a768262002a2b565b9050919050565b82818337600083830152505050565b60005b8381101562002aac57808201518184015260208101905062002a8f565b8381111562002abc576000848401525b50505050565b62002acd8262002bd3565b810181811067ffffffffffffffff8211171562002aef5762002aee62002ba4565b5b80604052505050565b600062002b058262002a4b565b91507fffffffffffffffffffffffffffffffffffffffffffffffffffffffffffffffff82141562002b3b5762002b3a62002b46565b5b600182019050919050565b7f4e487b7100000000000000000000000000000000000000000000000000000000600052601160045260246000fd5b7f4e487b7100000000000000000000000000000000000000000000000000000000600052601260045260246000fd5b7f4e487b7100000000000000000000000000000000000000000000000000000000600052604160045260246000fd5b6000601f19601f8301169050919050565b7f596f752068617665206e6f74206465706f736974656420414c4c206f6620746860008201527f65206672616374696f6e616c697a656420746f6b656e73000000000000000000602082015250565b7f596f7520646f206e6f7420686176652074686174206d616e7920746f6b656e73600082015250565b7f5472616e73666572206f662077457468206661696c6564000000000000000000600082015250565b7f54686973204e46542068617320616c7265616479206265656e2066726163746960008201527f6f6e616c697a65642e0000000000000000000000000000000000000000000000602082015250565b7f5472616e73666572206f66206672616320746f6b656e206661696c6564000000600082015250565b7f596f7520646964206e6f74206465706f7369742074686973204e46542e000000600082015250565b7f596f7520646f206e6f7420686176652074686174206d616e7920746f6b656e7360008201527f2e00000000000000000000000000000000000000000000000000000000000000602082015250565b7f596f7520646f206e6f74206861766520656e6f756768206672616320746f6b6560008201527f6e73000000000000000000000000000000000000000000000000000000000000602082015250565b7f546865726520617265206e6f7420656e6f75676820746f6b656e7320746f206260008201527f7579000000000000000000000000000000000000000000000000000000000000602082015250565b62002e1e81620029df565b811462002e2a57600080fd5b50565b62002e3881620029f3565b811462002e4457600080fd5b50565b62002e528162002a4b565b811462002e5e57600080fd5b5056fe60806040523480156200001157600080fd5b5060405162001bd838038062001bd8833981810160405281019062000037919062000371565b818181600390805190602001906200005192919062000221565b5080600490805190602001906200006a92919062000221565b5050506200009484670de0b6b3a76400008562000088919062000553565b6200009e60201b60201c565b505050506200078f565b600073ffffffffffffffffffffffffffffffffffffffff168273ffffffffffffffffffffffffffffffffffffffff16141562000111576040517f08c379a0000000000000000000000000000000000000000000000000000000008152600401620001089062000447565b60405180910390fd5b62000125600083836200021760201b60201c565b8060026000828254620001399190620004f6565b92505081905550806000808473ffffffffffffffffffffffffffffffffffffffff1673ffffffffffffffffffffffffffffffffffffffff1681526020019081526020016000206000828254620001909190620004f6565b925050819055508173ffffffffffffffffffffffffffffffffffffffff16600073ffffffffffffffffffffffffffffffffffffffff167fddf252ad1be2c89b69c2b068fc378daa952ba7f163c4a11628f55a4df523b3ef83604051620001f7919062000469565b60405180910390a362000213600083836200021c60201b60201c565b5050565b505050565b505050565b8280546200022f9062000628565b90600052602060002090601f0160209004810192826200025357600085556200029f565b82601f106200026e57805160ff19168380011785556200029f565b828001600101855582156200029f579182015b828111156200029e57825182559160200191906001019062000281565b5b509050620002ae9190620002b2565b5090565b5b80821115620002cd576000816000905550600101620002b3565b5090565b6000620002e8620002e284620004af565b62000486565b9050828152602081018484840111156200030157600080fd5b6200030e848285620005f2565b509392505050565b60008151905062000327816200075b565b92915050565b600082601f8301126200033f57600080fd5b815162000351848260208601620002d1565b91505092915050565b6000815190506200036b8162000775565b92915050565b600080600080608085870312156200038857600080fd5b6000620003988782880162000316565b9450506020620003ab878288016200035a565b935050604085015167ffffffffffffffff811115620003c957600080fd5b620003d7878288016200032d565b925050606085015167ffffffffffffffff811115620003f557600080fd5b62000403878288016200032d565b91505092959194509250565b60006200041e601f83620004e5565b91506200042b8262000732565b602082019050919050565b6200044181620005e8565b82525050565b6000602082019050818103600083015262000462816200040f565b9050919050565b600060208201905062000480600083018462000436565b92915050565b600062000492620004a5565b9050620004a082826200065e565b919050565b6000604051905090565b600067ffffffffffffffff821115620004cd57620004cc620006f2565b5b620004d88262000721565b9050602081019050919050565b600082825260208201905092915050565b60006200050382620005e8565b91506200051083620005e8565b9250827fffffffffffffffffffffffffffffffffffffffffffffffffffffffffffffffff0382111562000548576200054762000694565b5b828201905092915050565b60006200056082620005e8565b91506200056d83620005e8565b9250817fffffffffffffffffffffffffffffffffffffffffffffffffffffffffffffffff0483118215151615620005a957620005a862000694565b5b828202905092915050565b6000620005c182620005c8565b9050919050565b600073ffffffffffffffffffffffffffffffffffffffff82169050919050565b6000819050919050565b60005b8381101562000612578082015181840152602081019050620005f5565b8381111562000622576000848401525b50505050565b600060028204905060018216806200064157607f821691505b60208210811415620006585762000657620006c3565b5b50919050565b620006698262000721565b810181811067ffffffffffffffff821117156200068b576200068a620006f2565b5b80604052505050565b7f4e487b7100000000000000000000000000000000000000000000000000000000600052601160045260246000fd5b7f4e487b7100000000000000000000000000000000000000000000000000000000600052602260045260246000fd5b7f4e487b7100000000000000000000000000000000000000000000000000000000600052604160045260246000fd5b6000601f19601f8301169050919050565b7f45524332303a206d696e7420746f20746865207a65726f206164647265737300600082015250565b6200076681620005b4565b81146200077257600080fd5b50565b6200078081620005e8565b81146200078c57600080fd5b50565b611439806200079f6000396000f3fe608060405234801561001057600080fd5b50600436106100b45760003560e01c806370a082311161007157806370a08231146101a357806395d89b41146101d3578063a457c2d7146101f1578063a9059cbb14610221578063ca56c18a14610251578063dd62ed3e1461026d576100b4565b806306fdde03146100b9578063095ea7b3146100d757806318160ddd1461010757806323b872dd14610125578063313ce567146101555780633950935114610173575b600080fd5b6100c161029d565b6040516100ce9190610e7f565b60405180910390f35b6100f160048036038101906100ec9190610ccd565b61032f565b6040516100fe9190610e64565b60405180910390f35b61010f61034d565b60405161011c9190610f81565b60405180910390f35b61013f600480360381019061013a9190610c7e565b610357565b60405161014c9190610e64565b60405180910390f35b61015d61044f565b60405161016a9190610f9c565b60405180910390f35b61018d60048036038101906101889190610ccd565b610458565b60405161019a9190610e64565b60405180910390f35b6101bd60048036038101906101b89190610c19565b610504565b6040516101ca9190610f81565b60405180910390f35b6101db61054c565b6040516101e89190610e7f565b60405180910390f35b61020b60048036038101906102069190610ccd565b6105de565b6040516102189190610e64565b60405180910390f35b61023b60048036038101906102369190610ccd565b6106c9565b6040516102489190610e64565b60405180910390f35b61026b60048036038101906102669190610c7e565b6106e7565b005b61028760048036038101906102829190610c42565b61070a565b6040516102949190610f81565b60405180910390f35b6060600380546102ac9061110b565b80601f01602080910402602001604051908101604052809291908181526020018280546102d89061110b565b80156103255780601f106102fa57610100808354040283529160200191610325565b820191906000526020600020905b81548152906001019060200180831161030857829003601f168201915b5050505050905090565b600061034361033c610791565b8484610799565b6001905092915050565b6000600254905090565b6000610364848484610964565b6000600160008673ffffffffffffffffffffffffffffffffffffffff1673ffffffffffffffffffffffffffffffffffffffff16815260200190815260200160002060006103af610791565b73ffffffffffffffffffffffffffffffffffffffff1673ffffffffffffffffffffffffffffffffffffffff1681526020019081526020016000205490508281101561042f576040517f08c379a000000000000000000000000000000000000000000000000000000000815260040161042690610f01565b60405180910390fd5b6104438561043b610791565b858403610799565b60019150509392505050565b60006012905090565b60006104fa610465610791565b848460016000610473610791565b73ffffffffffffffffffffffffffffffffffffffff1673ffffffffffffffffffffffffffffffffffffffff16815260200190815260200160002060008873ffffffffffffffffffffffffffffffffffffffff1673ffffffffffffffffffffffffffffffffffffffff168152602001908152602001600020546104f59190610fd3565b610799565b6001905092915050565b60008060008373ffffffffffffffffffffffffffffffffffffffff1673ffffffffffffffffffffffffffffffffffffffff168152602001908152602001600020549050919050565b60606004805461055b9061110b565b80601f01602080910402602001604051908101604052809291908181526020018280546105879061110b565b80156105d45780601f106105a9576101008083540402835291602001916105d4565b820191906000526020600020905b8154815290600101906020018083116105b757829003601f168201915b5050505050905090565b600080600160006105ed610791565b73ffffffffffffffffffffffffffffffffffffffff1673ffffffffffffffffffffffffffffffffffffffff16815260200190815260200160002060008573ffffffffffffffffffffffffffffffffffffffff1673ffffffffffffffffffffffffffffffffffffffff168152602001908152602001600020549050828110156106aa576040517f08c379a00000000000000000000000000000000000000000000000000000000081526004016106a190610f61565b60405180910390fd5b6106be6106b5610791565b85858403610799565b600191505092915050565b60006106dd6106d6610791565b8484610964565b6001905092915050565b6107058383670de0b6b3a7640000846107009190611029565b610799565b505050565b6000600160008473ffffffffffffffffffffffffffffffffffffffff1673ffffffffffffffffffffffffffffffffffffffff16815260200190815260200160002060008373ffffffffffffffffffffffffffffffffffffffff1673ffffffffffffffffffffffffffffffffffffffff16815260200190815260200160002054905092915050565b600033905090565b600073ffffffffffffffffffffffffffffffffffffffff168373ffffffffffffffffffffffffffffffffffffffff161415610809576040517f08c379a000000000000000000000000000000000000000000000000000000000815260040161080090610f41565b60405180910390fd5b600073ffffffffffffffffffffffffffffffffffffffff168273ffffffffffffffffffffffffffffffffffffffff161415610879576040517f08c379a000000000000000000000000000000000000000000000000000000000815260040161087090610ec1565b60405180910390fd5b80600160008573ffffffffffffffffffffffffffffffffffffffff1673ffffffffffffffffffffffffffffffffffffffff16815260200190815260200160002060008473ffffffffffffffffffffffffffffffffffffffff1673ffffffffffffffffffffffffffffffffffffffff168152602001908152602001600020819055508173ffffffffffffffffffffffffffffffffffffffff168373ffffffffffffffffffffffffffffffffffffffff167f8c5be1e5ebec7d5bd14f71427d1e84f3dd0314c0f7b2291e5b200ac8c7c3b925836040516109579190610f81565b60405180910390a3505050565b600073ffffffffffffffffffffffffffffffffffffffff168373ffffffffffffffffffffffffffffffffffffffff1614156109d4576040517f08c379a00000000000000000000000000000000000000000000000000000000081526004016109cb90610f21565b60405180910390fd5b600073ffffffffffffffffffffffffffffffffffffffff168273ffffffffffffffffffffffffffffffffffffffff161415610a44576040517f08c379a0000000000000000000000000000000000000000000000000000000008152600401610a3b90610ea1565b60405180910390fd5b610a4f838383610be5565b60008060008573ffffffffffffffffffffffffffffffffffffffff1673ffffffffffffffffffffffffffffffffffffffff16815260200190815260200160002054905081811015610ad5576040517f08c379a0000000000000000000000000000000000000000000000000000000008152600401610acc90610ee1565b60405180910390fd5b8181036000808673ffffffffffffffffffffffffffffffffffffffff1673ffffffffffffffffffffffffffffffffffffffff16815260200190815260200160002081905550816000808573ffffffffffffffffffffffffffffffffffffffff1673ffffffffffffffffffffffffffffffffffffffff1681526020019081526020016000206000828254610b689190610fd3565b925050819055508273ffffffffffffffffffffffffffffffffffffffff168473ffffffffffffffffffffffffffffffffffffffff167fddf252ad1be2c89b69c2b068fc378daa952ba7f163c4a11628f55a4df523b3ef84604051610bcc9190610f81565b60405180910390a3610bdf848484610bea565b50505050565b505050565b505050565b600081359050610bfe816113d5565b92915050565b600081359050610c13816113ec565b92915050565b600060208284031215610c2b57600080fd5b6000610c3984828501610bef565b91505092915050565b60008060408385031215610c5557600080fd5b6000610c6385828601610bef565b9250506020610c7485828601610bef565b9150509250929050565b600080600060608486031215610c9357600080fd5b6000610ca186828701610bef565b9350506020610cb286828701610bef565b9250506040610cc386828701610c04565b9150509250925092565b60008060408385031215610ce057600080fd5b6000610cee85828601610bef565b9250506020610cff85828601610c04565b9150509250929050565b610d1281611095565b82525050565b6000610d2382610fb7565b610d2d8185610fc2565b9350610d3d8185602086016110d8565b610d468161119b565b840191505092915050565b6000610d5e602383610fc2565b9150610d69826111ac565b604082019050919050565b6000610d81602283610fc2565b9150610d8c826111fb565b604082019050919050565b6000610da4602683610fc2565b9150610daf8261124a565b604082019050919050565b6000610dc7602883610fc2565b9150610dd282611299565b604082019050919050565b6000610dea602583610fc2565b9150610df5826112e8565b604082019050919050565b6000610e0d602483610fc2565b9150610e1882611337565b604082019050919050565b6000610e30602583610fc2565b9150610e3b82611386565b604082019050919050565b610e4f816110c1565b82525050565b610e5e816110cb565b82525050565b6000602082019050610e796000830184610d09565b92915050565b60006020820190508181036000830152610e998184610d18565b905092915050565b60006020820190508181036000830152610eba81610d51565b9050919050565b60006020820190508181036000830152610eda81610d74565b9050919050565b60006020820190508181036000830152610efa81610d97565b9050919050565b60006020820190508181036000830152610f1a81610dba565b9050919050565b60006020820190508181036000830152610f3a81610ddd565b9050919050565b60006020820190508181036000830152610f5a81610e00565b9050919050565b60006020820190508181036000830152610f7a81610e23565b9050919050565b6000602082019050610f966000830184610e46565b92915050565b6000602082019050610fb16000830184610e55565b92915050565b600081519050919050565b600082825260208201905092915050565b6000610fde826110c1565b9150610fe9836110c1565b9250827fffffffffffffffffffffffffffffffffffffffffffffffffffffffffffffffff0382111561101e5761101d61113d565b5b828201905092915050565b6000611034826110c1565b915061103f836110c1565b9250817fffffffffffffffffffffffffffffffffffffffffffffffffffffffffffffffff04831182151516156110785761107761113d565b5b828202905092915050565b600061108e826110a1565b9050919050565b60008115159050919050565b600073ffffffffffffffffffffffffffffffffffffffff82169050919050565b6000819050919050565b600060ff82169050919050565b60005b838110156110f65780820151818401526020810190506110db565b83811115611105576000848401525b50505050565b6000600282049050600182168061112357607f821691505b602082108114156111375761113661116c565b5b50919050565b7f4e487b7100000000000000000000000000000000000000000000000000000000600052601160045260246000fd5b7f4e487b7100000000000000000000000000000000000000000000000000000000600052602260045260246000fd5b6000601f19601f8301169050919050565b7f45524332303a207472616e7366657220746f20746865207a65726f206164647260008201527f6573730000000000000000000000000000000000000000000000000000000000602082015250565b7f45524332303a20617070726f766520746f20746865207a65726f20616464726560008201527f7373000000000000000000000000000000000000000000000000000000000000602082015250565b7f45524332303a207472616e7366657220616d6f756e742065786365656473206260008201527f616c616e63650000000000000000000000000000000000000000000000000000602082015250565b7f45524332303a207472616e7366657220616d6f756e742065786365656473206160008201527f6c6c6f77616e6365000000000000000000000000000000000000000000000000602082015250565b7f45524332303a207472616e736665722066726f6d20746865207a65726f20616460008201527f6472657373000000000000000000000000000000000000000000000000000000602082015250565b7f45524332303a20617070726f76652066726f6d20746865207a65726f2061646460008201527f7265737300000000000000000000000000000000000000000000000000000000602082015250565b7f45524332303a2064656372656173656420616c6c6f77616e63652062656c6f7760008201527f207a65726f000000000000000000000000000000000000000000000000000000602082015250565b6113de81611083565b81146113e957600080fd5b50565b6113f5816110c1565b811461140057600080fd5b5056fea264697066735822122000b73c0bab7d5d5da5cf985f8c672484d9bf207d58f44c8afc44ec5e00a60cc564736f6c63430008040033a2646970667358221220a1c266f2e78d4b7fcf182ac6ac10007a927ec701db2efcffd6e7e06cba569ffe64736f6c63430008040033",
  "linkReferences": {},
  "deployedLinkReferences": {}
}