{
  "_format": "hh-sol-artifact-1",
  "contractName": "Vault",
  "sourceName": "contracts/Vault.sol",
  "abi": [
    {
      "inputs": [
        {
          "internalType": "address",
          "name": "_wEthAddr",
          "type": "address"
        },
        {
          "internalType": "address",
          "name": "oracle",
          "type": "address"
        }
      ],
      "stateMutability": "nonpayable",
      "type": "constructor"
    },
    {
      "anonymous": false,
      "inputs": [
        {
          "indexed": true,
          "internalType": "address",
          "name": "previousOwner",
          "type": "address"
        },
        {
          "indexed": true,
          "internalType": "address",
          "name": "newOwner",
          "type": "address"
        }
      ],
      "name": "OwnershipTransferred",
      "type": "event"
    },
    {
      "anonymous": false,
      "inputs": [
        {
          "indexed": false,
          "internalType": "address",
          "name": "from",
          "type": "address"
        },
        {
          "indexed": false,
          "internalType": "uint256",
          "name": "tokenId",
          "type": "uint256"
        },
        {
          "indexed": false,
          "internalType": "uint256",
          "name": "internalId",
          "type": "uint256"
        },
        {
          "indexed": false,
          "internalType": "address",
          "name": "nftAddr",
          "type": "address"
        }
      ],
      "name": "Recieved",
      "type": "event"
    },
    {
      "anonymous": false,
      "inputs": [
        {
          "indexed": false,
          "internalType": "address",
          "name": "to",
          "type": "address"
        },
        {
          "indexed": false,
          "internalType": "uint256",
          "name": "tokenId",
          "type": "uint256"
        },
        {
          "indexed": false,
          "internalType": "uint256",
          "name": "internalId",
          "type": "uint256"
        },
        {
          "indexed": false,
          "internalType": "address",
          "name": "nftAddr",
          "type": "address"
        }
      ],
      "name": "Released",
      "type": "event"
    },
    {
      "anonymous": false,
      "inputs": [
        {
          "indexed": false,
          "internalType": "address",
          "name": "from",
          "type": "address"
        },
        {
          "indexed": false,
          "internalType": "uint256",
          "name": "tokenId",
          "type": "uint256"
        },
        {
          "indexed": false,
          "internalType": "uint256",
          "name": "internalId",
          "type": "uint256"
        },
        {
          "indexed": false,
          "internalType": "uint256",
          "name": "xChainInternalId",
          "type": "uint256"
        },
        {
          "indexed": false,
          "internalType": "address",
          "name": "nftAddr",
          "type": "address"
        },
        {
          "indexed": false,
          "internalType": "uint256",
          "name": "chainId",
          "type": "uint256"
        }
      ],
      "name": "XChainRegistered",
      "type": "event"
    },
    {
      "anonymous": false,
      "inputs": [
        {
          "indexed": false,
          "internalType": "address",
          "name": "to",
          "type": "address"
        },
        {
          "indexed": false,
          "internalType": "uint256",
          "name": "tokenId",
          "type": "uint256"
        },
        {
          "indexed": false,
          "internalType": "uint256",
          "name": "internalId",
          "type": "uint256"
        },
        {
          "indexed": false,
          "internalType": "uint256",
          "name": "xChainInternalId",
          "type": "uint256"
        },
        {
          "indexed": false,
          "internalType": "address",
          "name": "nftAddr",
          "type": "address"
        },
        {
          "indexed": false,
          "internalType": "uint256",
          "name": "chainId",
          "type": "uint256"
        }
      ],
      "name": "XChainRelease",
      "type": "event"
    },
    {
      "inputs": [
        {
          "internalType": "uint256",
          "name": "internalId",
          "type": "uint256"
        },
        {
          "internalType": "address",
          "name": "account",
          "type": "address"
        },
        {
          "internalType": "uint256",
          "name": "amount",
          "type": "uint256"
        }
      ],
      "name": "approveNFTokenTransfer",
      "outputs": [],
      "stateMutability": "nonpayable",
      "type": "function"
    },
    {
      "inputs": [
        {
          "internalType": "uint256",
          "name": "_internalId",
          "type": "uint256"
        },
        {
          "internalType": "uint256",
          "name": "_FracToBuy",
          "type": "uint256"
        },
        {
          "internalType": "address",
          "name": "_buyer",
          "type": "address"
        }
      ],
      "name": "buyTokens",
      "outputs": [],
      "stateMutability": "nonpayable",
      "type": "function"
    },
    {
      "inputs": [
        {
          "internalType": "uint256",
          "name": "internalId",
          "type": "uint256"
        },
        {
          "internalType": "uint256",
          "name": "FracToBuy",
          "type": "uint256"
        }
      ],
      "name": "buyTokensIndividual",
      "outputs": [],
      "stateMutability": "nonpayable",
      "type": "function"
    },
    {
      "inputs": [
        {
          "internalType": "uint256",
          "name": "internalId",
          "type": "uint256"
        },
        {
          "internalType": "address",
          "name": "account",
          "type": "address"
        }
      ],
      "name": "buyoutERC721",
      "outputs": [],
      "stateMutability": "nonpayable",
      "type": "function"
    },
    {
      "inputs": [
        {
          "internalType": "uint256",
          "name": "_amountOfwEth",
          "type": "uint256"
        },
        {
          "internalType": "uint256",
          "name": "_internalId",
          "type": "uint256"
        }
      ],
      "name": "calculateAmountOfFrac",
      "outputs": [
        {
          "internalType": "uint256",
          "name": "",
          "type": "uint256"
        }
      ],
      "stateMutability": "view",
      "type": "function"
    },
    {
      "inputs": [
        {
          "internalType": "uint256",
          "name": "_amountOfFrac",
          "type": "uint256"
        },
        {
          "internalType": "uint256",
          "name": "_internalId",
          "type": "uint256"
        }
      ],
      "name": "calculateAmountOfwEth",
      "outputs": [
        {
          "internalType": "uint256",
          "name": "",
          "type": "uint256"
        }
      ],
      "stateMutability": "view",
      "type": "function"
    },
    {
      "inputs": [
        {
          "internalType": "uint256",
          "name": "internalId",
          "type": "uint256"
        },
        {
          "internalType": "address",
          "name": "account",
          "type": "address"
        },
        {
          "internalType": "uint256",
          "name": "amount",
          "type": "uint256"
        }
      ],
      "name": "depositNFToken",
      "outputs": [],
      "stateMutability": "nonpayable",
      "type": "function"
    },
    {
      "inputs": [
        {
          "internalType": "uint256",
          "name": "internalId",
          "type": "uint256"
        },
        {
          "internalType": "address",
          "name": "account",
          "type": "address"
        }
      ],
      "name": "getDepositAmount",
      "outputs": [
        {
          "internalType": "uint256",
          "name": "",
          "type": "uint256"
        }
      ],
      "stateMutability": "view",
      "type": "function"
    },
    {
      "inputs": [
        {
          "internalType": "uint256",
          "name": "internalId",
          "type": "uint256"
        }
      ],
      "name": "getERC721ChainId",
      "outputs": [
        {
          "internalType": "uint256",
          "name": "",
          "type": "uint256"
        }
      ],
      "stateMutability": "view",
      "type": "function"
    },
    {
      "inputs": [
        {
          "internalType": "uint256",
          "name": "internalId",
          "type": "uint256"
        }
      ],
      "name": "getERC721ContractAddr",
      "outputs": [
        {
          "internalType": "address",
          "name": "",
          "type": "address"
        }
      ],
      "stateMutability": "view",
      "type": "function"
    },
    {
      "inputs": [
        {
          "internalType": "uint256",
          "name": "internalId",
          "type": "uint256"
        }
      ],
      "name": "getERC721Native",
      "outputs": [
        {
          "internalType": "bool",
          "name": "",
          "type": "bool"
        }
      ],
      "stateMutability": "view",
      "type": "function"
    },
    {
      "inputs": [
        {
          "internalType": "uint256",
          "name": "internalId",
          "type": "uint256"
        }
      ],
      "name": "getERC721TokenId",
      "outputs": [
        {
          "internalType": "uint256",
          "name": "",
          "type": "uint256"
        }
      ],
      "stateMutability": "view",
      "type": "function"
    },
    {
      "inputs": [],
      "name": "getInternalIdCounter",
      "outputs": [
        {
          "internalType": "uint256",
          "name": "",
          "type": "uint256"
        }
      ],
      "stateMutability": "view",
      "type": "function"
    },
    {
      "inputs": [
        {
          "internalType": "uint256",
          "name": "internalId",
          "type": "uint256"
        }
      ],
      "name": "getNFTContractAddr",
      "outputs": [
        {
          "internalType": "address",
          "name": "",
          "type": "address"
        }
      ],
      "stateMutability": "view",
      "type": "function"
    },
    {
      "inputs": [
        {
          "internalType": "uint256",
          "name": "internalId",
          "type": "uint256"
        }
      ],
      "name": "getNFTokenAddr",
      "outputs": [
        {
          "internalType": "address",
          "name": "",
          "type": "address"
        }
      ],
      "stateMutability": "view",
      "type": "function"
    },
    {
      "inputs": [
        {
          "internalType": "uint256",
          "name": "internalId",
          "type": "uint256"
        },
        {
          "internalType": "address",
          "name": "account",
          "type": "address"
        }
      ],
      "name": "getNFTokenBalance",
      "outputs": [
        {
          "internalType": "uint256",
          "name": "",
          "type": "uint256"
        }
      ],
      "stateMutability": "view",
      "type": "function"
    },
    {
      "inputs": [
        {
          "internalType": "uint256",
          "name": "internalId",
          "type": "uint256"
        }
      ],
      "name": "getNFTokenSupply",
      "outputs": [
        {
          "internalType": "uint256",
          "name": "",
          "type": "uint256"
        }
      ],
      "stateMutability": "view",
      "type": "function"
    },
    {
      "inputs": [
        {
          "internalType": "address",
          "name": "account",
          "type": "address"
        }
      ],
      "name": "getNumIdsOwned",
      "outputs": [
        {
          "internalType": "uint256",
          "name": "",
          "type": "uint256"
        }
      ],
      "stateMutability": "view",
      "type": "function"
    },
    {
      "inputs": [],
      "name": "getNumberDepositedERC721s",
      "outputs": [
        {
          "internalType": "uint256",
          "name": "",
          "type": "uint256"
        }
      ],
      "stateMutability": "view",
      "type": "function"
    },
    {
      "inputs": [
        {
          "internalType": "uint256",
          "name": "internalId",
          "type": "uint256"
        }
      ],
      "name": "getOwned",
      "outputs": [
        {
          "internalType": "bool",
          "name": "",
          "type": "bool"
        }
      ],
      "stateMutability": "view",
      "type": "function"
    },
    {
      "inputs": [
        {
          "internalType": "address",
          "name": "account",
          "type": "address"
        }
      ],
      "name": "getOwnedInternalIds",
      "outputs": [
        {
          "internalType": "uint256[]",
          "name": "",
          "type": "uint256[]"
        }
      ],
      "stateMutability": "view",
      "type": "function"
    },
    {
      "inputs": [],
      "name": "getwEthAddr",
      "outputs": [
        {
          "internalType": "address",
          "name": "",
          "type": "address"
        }
      ],
      "stateMutability": "view",
      "type": "function"
    },
    {
      "inputs": [
        {
          "internalType": "uint256",
          "name": "supply",
          "type": "uint256"
        },
        {
          "internalType": "string",
          "name": "name",
          "type": "string"
        },
        {
          "internalType": "string",
          "name": "ticker",
          "type": "string"
        },
        {
          "internalType": "uint256",
          "name": "internalId",
          "type": "uint256"
        },
        {
          "internalType": "uint256",
          "name": "amountToKeep",
          "type": "uint256"
        }
      ],
      "name": "mintTokensForNFT",
      "outputs": [
        {
          "internalType": "contract NFToken",
          "name": "",
          "type": "address"
        }
      ],
      "stateMutability": "nonpayable",
      "type": "function"
    },
    {
      "inputs": [
        {
          "internalType": "address",
          "name": "operator",
          "type": "address"
        },
        {
          "internalType": "address",
          "name": "from",
          "type": "address"
        },
        {
          "internalType": "uint256",
          "name": "tokenId",
          "type": "uint256"
        },
        {
          "internalType": "bytes",
          "name": "data",
          "type": "bytes"
        }
      ],
      "name": "onERC721Received",
      "outputs": [
        {
          "internalType": "bytes4",
          "name": "",
          "type": "bytes4"
        }
      ],
      "stateMutability": "nonpayable",
      "type": "function"
    },
    {
      "inputs": [],
      "name": "owner",
      "outputs": [
        {
          "internalType": "address",
          "name": "",
          "type": "address"
        }
      ],
      "stateMutability": "view",
      "type": "function"
    },
    {
      "inputs": [
        {
          "internalType": "address",
          "name": "sender",
          "type": "address"
        },
        {
          "internalType": "uint256",
          "name": "tokenId",
          "type": "uint256"
        },
        {
          "internalType": "uint256",
          "name": "xChainInternalId",
          "type": "uint256"
        },
        {
          "internalType": "address",
          "name": "nftAddr",
          "type": "address"
        },
        {
          "internalType": "uint256",
          "name": "chainId",
          "type": "uint256"
        }
      ],
      "name": "registerXChainNFT",
      "outputs": [],
      "stateMutability": "nonpayable",
      "type": "function"
    },
    {
      "inputs": [],
      "name": "renounceOwnership",
      "outputs": [],
      "stateMutability": "nonpayable",
      "type": "function"
    },
    {
      "inputs": [
        {
          "internalType": "uint256",
          "name": "_internalId",
          "type": "uint256"
        },
        {
          "internalType": "uint256",
          "name": "_FracToSell",
          "type": "uint256"
        },
        {
          "internalType": "address",
          "name": "_seller",
          "type": "address"
        }
      ],
      "name": "sellTokens",
      "outputs": [],
      "stateMutability": "nonpayable",
      "type": "function"
    },
    {
      "inputs": [
        {
          "internalType": "uint256",
          "name": "internalId",
          "type": "uint256"
        },
        {
          "internalType": "uint256",
          "name": "amountOfwEth",
          "type": "uint256"
        }
      ],
      "name": "sellTokensIndividual",
      "outputs": [],
      "stateMutability": "nonpayable",
      "type": "function"
    },
    {
      "inputs": [
        {
          "internalType": "address",
          "name": "newOwner",
          "type": "address"
        }
      ],
      "name": "transferOwnership",
      "outputs": [],
      "stateMutability": "nonpayable",
      "type": "function"
    }
  ],
  "bytecode": "0x608060405260006002553480156200001657600080fd5b50604051620060353803806200603583398181016040528101906200003c919062000188565b6200005c62000050620000a560201b60201c565b620000ad60201b60201c565b81600160006101000a81548173ffffffffffffffffffffffffffffffffffffffff021916908373ffffffffffffffffffffffffffffffffffffffff160217905550505062000217565b600033905090565b60008060009054906101000a900473ffffffffffffffffffffffffffffffffffffffff169050816000806101000a81548173ffffffffffffffffffffffffffffffffffffffff021916908373ffffffffffffffffffffffffffffffffffffffff1602179055508173ffffffffffffffffffffffffffffffffffffffff168173ffffffffffffffffffffffffffffffffffffffff167f8be0079c531659141344cd1fd0a4f28419497f9722a3daafe3b4186f6b6457e060405160405180910390a35050565b6000815190506200018281620001fd565b92915050565b600080604083850312156200019c57600080fd5b6000620001ac8582860162000171565b9250506020620001bf8582860162000171565b9150509250929050565b6000620001d682620001dd565b9050919050565b600073ffffffffffffffffffffffffffffffffffffffff82169050919050565b6200020881620001c9565b81146200021457600080fd5b50565b615e0e80620002276000396000f3fe60806040523480156200001157600080fd5b5060043610620002085760003560e01c806386b5e7ea116200011d578063c168787711620000b1578063e683c239116200007b578063e683c239146200068b578063ef569f9a14620006ab578063f2fde38b14620006cb578063f605a25414620006eb5762000208565b8063c168787714620005df578063c44f7a1714620005ff578063cae244b4146200061f578063de75a5c014620006555762000208565b8063a919b74a11620000f3578063a919b74a1462000531578063b7cebb3e1462000567578063b9ca98381462000589578063bd3d433714620005bf5762000208565b806386b5e7ea14620004a35780638da5cb5b14620004d95780639eefad9814620004fb5762000208565b8063442f6bd911620001a157806365d51d88116200016b57806365d51d8814620003f5578063715018a6146200042b578063742f23c7146200043757806380168c7b146200046d5762000208565b8063442f6bd9146200034757806349f1c753146200037d5780634debe86a14620003b35780635a34a27214620003d55762000208565b80631b2d83cd11620001e35780631b2d83cd14620002af578063312f0d8014620002cf578063397bafd614620002ef57806340aa97ec14620003115762000208565b80630b1a08e5146200020d578063102af7481462000243578063150b7a021462000279575b600080fd5b6200022b60048036038101906200022591906200294d565b62000721565b6040516200023a919062003049565b60405180910390f35b6200026160048036038101906200025b91906200264b565b62000754565b60405162000270919062002e58565b60405180910390f35b62000297600480360381019062000291919062002677565b620009b9565b604051620002a6919062002e99565b60405180910390f35b620002cd6004803603810190620002c7919062002843565b62000d25565b005b620002ed6004803603810190620002e7919062002802565b62000dad565b005b620002f962000fb6565b60405162000308919062003049565b60405180910390f35b6200032f60048036038101906200032991906200264b565b62000fce565b6040516200033e919062003049565b60405180910390f35b6200036560048036038101906200035f919062002899565b62001017565b60405162000374919062002eb6565b60405180910390f35b6200039b6004803603810190620003959190620027aa565b6200133a565b604051620003aa919062002cbc565b60405180910390f35b620003bd6200137a565b604051620003cc919062002cbc565b60405180910390f35b620003f36004803603810190620003ed9190620026fc565b620013a4565b005b6200041360048036038101906200040d91906200294d565b620017a6565b60405162000422919062003049565b60405180910390f35b62000435620017d4565b005b6200045560048036038101906200044f9190620027aa565b62001865565b60405162000464919062002cbc565b60405180910390f35b6200048b6004803603810190620004859190620027aa565b620018a5565b6040516200049a919062003049565b60405180910390f35b620004c16004803603810190620004bb9190620027aa565b620018c5565b604051620004d0919062002cbc565b60405180910390f35b620004e362001905565b604051620004f2919062002cbc565b60405180910390f35b620005196004803603810190620005139190620027aa565b6200192e565b60405162000528919062003049565b60405180910390f35b6200054f6004803603810190620005499190620027aa565b620019c8565b6040516200055e919062002e7c565b60405180910390f35b62000571620019f5565b60405162000580919062003049565b60405180910390f35b620005a76004803603810190620005a19190620027aa565b620019ff565b604051620005b6919062003049565b60405180910390f35b620005dd6004803603810190620005d791906200294d565b62001a1f565b005b620005fd6004803603810190620005f791906200298e565b62001a30565b005b6200061d600480360381019062000617919062002843565b62001ce5565b005b6200063d600480360381019062000637919062002802565b62001e4a565b6040516200064c919062003049565b60405180910390f35b6200067360048036038101906200066d919062002802565b62001ef2565b60405162000682919062003049565b60405180910390f35b620006a96004803603810190620006a391906200294d565b62001f4d565b005b620006c96004803603810190620006c391906200298e565b62001f5e565b005b620006e96004803603810190620006e391906200264b565b62002213565b005b620007096004803603810190620007039190620027aa565b62002317565b60405162000718919062002e7c565b60405180910390f35b600080600360008481526020019081526020016000206008015484620007489190620031e5565b90508091505092915050565b60606000620007638362000fce565b905060008167ffffffffffffffff811115620007a8577f4e487b7100000000000000000000000000000000000000000000000000000000600052604160045260246000fd5b604051908082528060200260200182016040528015620007d75781602001602082028036833780820191505090505b5090506000805b600560008773ffffffffffffffffffffffffffffffffffffffff1673ffffffffffffffffffffffffffffffffffffffff16815260200190815260200160002080549050811015620009ad57620008b6600560008873ffffffffffffffffffffffffffffffffffffffff1673ffffffffffffffffffffffffffffffffffffffff1681526020019081526020016000208281548110620008a5577f4e487b7100000000000000000000000000000000000000000000000000000000600052603260045260246000fd5b9060005260206000200154620019c8565b156200099757600560008773ffffffffffffffffffffffffffffffffffffffff1673ffffffffffffffffffffffffffffffffffffffff168152602001908152602001600020818154811062000934577f4e487b7100000000000000000000000000000000000000000000000000000000600052603260045260246000fd5b906000526020600020015483838151811062000979577f4e487b7100000000000000000000000000000000000000000000000000000000600052603260045260246000fd5b60200260200101818152505060018262000994919062003150565b91505b8080620009a4906200339a565b915050620007de565b50819350505050919050565b6000620009c562002464565b60025481606001818152505033816080019073ffffffffffffffffffffffffffffffffffffffff16908173ffffffffffffffffffffffffffffffffffffffff1681525050848160c0019073ffffffffffffffffffffffffffffffffffffffff16908173ffffffffffffffffffffffffffffffffffffffff1681525050838160a0018181525050600181610100018181525050600181610120019015159081151581525050600181604001901515908115158152505080600360006002548152602001908152602001600020600082015181600001556020820151816001015560408201518160020160006101000a81548160ff0219169083151502179055506060820151816003015560808201518160040160006101000a81548173ffffffffffffffffffffffffffffffffffffffff021916908373ffffffffffffffffffffffffffffffffffffffff16021790555060a0820151816005015560c08201518160060160006101000a81548173ffffffffffffffffffffffffffffffffffffffff021916908373ffffffffffffffffffffffffffffffffffffffff16021790555060e08201518160070160006101000a81548173ffffffffffffffffffffffffffffffffffffffff021916908373ffffffffffffffffffffffffffffffffffffffff16021790555061010082015181600801556101208201518160090160006101000a81548160ff021916908315150217905550905050600560008260c0015173ffffffffffffffffffffffffffffffffffffffff1673ffffffffffffffffffffffffffffffffffffffff168152602001908152602001600020816060015190806001815401808255809150506001900390600052602060002001600090919091909150556001600660008360c0015173ffffffffffffffffffffffffffffffffffffffff1673ffffffffffffffffffffffffffffffffffffffff168152602001908152602001600020600082825462000ca0919062003150565b925050819055507f935d05cbf9fa27cbf03a09eb57f4384da509a8e34d406b8b8e1c21b249e25c168160c001518260a001518360600151846080015160405162000cee949392919062002d9e565b60405180910390a160016002600082825462000d0b919062003150565b9250508190555063150b7a0260e01b915050949350505050565b600062000d3284620018c5565b90508073ffffffffffffffffffffffffffffffffffffffff1663ca56c18a8430856040518463ffffffff1660e01b815260040162000d739392919062002cd9565b600060405180830381600087803b15801562000d8e57600080fd5b505af115801562000da3573d6000803e3d6000fd5b5050505050505050565b62000db8826200192e565b62000dc4838362001ef2565b1462000e07576040517f08c379a000000000000000000000000000000000000000000000000000000000815260040162000dfe9062002ef5565b60405180910390fd5b62000e128262002317565b1562000eab57600062000e258362001865565b90508073ffffffffffffffffffffffffffffffffffffffff166323b872dd308462000e5087620018a5565b6040518463ffffffff1660e01b815260040162000e709392919062002cd9565b600060405180830381600087803b15801562000e8b57600080fd5b505af115801562000ea0573d6000803e3d6000fd5b505050505062000f23565b7f76a0fab679374dab1ee841100d0531e687faff72d4d5a449c25134cf0321dcb58162000ed884620018a5565b84600360008781526020019081526020016000206001015462000efb8762001865565b62000f0688620019ff565b60405162000f1a9695949392919062002deb565b60405180910390a15b6001600660006003600086815260200190815260200160002060060160009054906101000a900473ffffffffffffffffffffffffffffffffffffffff1673ffffffffffffffffffffffffffffffffffffffff1673ffffffffffffffffffffffffffffffffffffffff168152602001908152602001600020600082825462000fab919062003246565b925050819055505050565b6000600160025462000fc9919062003246565b905090565b6000600660008373ffffffffffffffffffffffffffffffffffffffff1673ffffffffffffffffffffffffffffffffffffffff168152602001908152602001600020549050919050565b60003373ffffffffffffffffffffffffffffffffffffffff166003600085815260200190815260200160002060060160009054906101000a900473ffffffffffffffffffffffffffffffffffffffff1673ffffffffffffffffffffffffffffffffffffffff1614620010c0576040517f08c379a0000000000000000000000000000000000000000000000000000000008152600401620010b79062002fc1565b60405180910390fd5b600073ffffffffffffffffffffffffffffffffffffffff166003600085815260200190815260200160002060070160009054906101000a900473ffffffffffffffffffffffffffffffffffffffff1673ffffffffffffffffffffffffffffffffffffffff161462001168576040517f08c379a00000000000000000000000000000000000000000000000000000000081526004016200115f9062002f5b565b60405180910390fd5b6000620011783088888862002344565b90508073ffffffffffffffffffffffffffffffffffffffff1663095ea7b330856040518363ffffffff1660e01b8152600401620011b792919062002d16565b602060405180830381600087803b158015620011d257600080fd5b505af1158015620011e7573d6000803e3d6000fd5b505050506040513d601f19601f820116820180604052508101906200120d91906200277e565b508073ffffffffffffffffffffffffffffffffffffffff1663a9059cbb6003600087815260200190815260200160002060060160009054906101000a900473ffffffffffffffffffffffffffffffffffffffff16856040518363ffffffff1660e01b81526004016200128192919062002d16565b602060405180830381600087803b1580156200129c57600080fd5b505af1158015620012b1573d6000803e3d6000fd5b505050506040513d601f19601f82011682018060405250810190620012d791906200277e565b50806003600086815260200190815260200160002060070160006101000a81548173ffffffffffffffffffffffffffffffffffffffff021916908373ffffffffffffffffffffffffffffffffffffffff1602179055508091505095945050505050565b60006003600083815260200190815260200160002060040160009054906101000a900473ffffffffffffffffffffffffffffffffffffffff169050919050565b6000600160009054906101000a900473ffffffffffffffffffffffffffffffffffffffff16905090565b620013ae62002398565b73ffffffffffffffffffffffffffffffffffffffff16620013ce62001905565b73ffffffffffffffffffffffffffffffffffffffff161462001427576040517f08c379a00000000000000000000000000000000000000000000000000000000081526004016200141e9062002f7d565b60405180910390fd5b6200143162002464565b60025481606001818152505082816080019073ffffffffffffffffffffffffffffffffffffffff16908173ffffffffffffffffffffffffffffffffffffffff1681525050858160c0019073ffffffffffffffffffffffffffffffffffffffff16908173ffffffffffffffffffffffffffffffffffffffff1681525050848160a00181815250506001816101000181815250506001816101200190151590811515815250508181600001818152505083816020018181525050600081604001901515908115158152505080600360006002548152602001908152602001600020600082015181600001556020820151816001015560408201518160020160006101000a81548160ff0219169083151502179055506060820151816003015560808201518160040160006101000a81548173ffffffffffffffffffffffffffffffffffffffff021916908373ffffffffffffffffffffffffffffffffffffffff16021790555060a0820151816005015560c08201518160060160006101000a81548173ffffffffffffffffffffffffffffffffffffffff021916908373ffffffffffffffffffffffffffffffffffffffff16021790555060e08201518160070160006101000a81548173ffffffffffffffffffffffffffffffffffffffff021916908373ffffffffffffffffffffffffffffffffffffffff16021790555061010082015181600801556101208201518160090160006101000a81548160ff021916908315150217905550905050600560008260c0015173ffffffffffffffffffffffffffffffffffffffff1673ffffffffffffffffffffffffffffffffffffffff168152602001908152602001600020816060015190806001815401808255809150506001900390600052602060002001600090919091909150556001600660008360c0015173ffffffffffffffffffffffffffffffffffffffff1673ffffffffffffffffffffffffffffffffffffffff168152602001908152602001600020600082825462001720919062003150565b925050819055507fc5117017542cd2066296045c1cadec88af60d3c7d575eb1971351d3e1927167a8160c001518260a0015183606001518460200151856080015186600001516040516200177a9695949392919062002deb565b60405180910390a160016002600082825462001797919062003150565b92505081905550505050505050565b6000600360008381526020019081526020016000206008015483620017cc9190620031ad565b905092915050565b620017de62002398565b73ffffffffffffffffffffffffffffffffffffffff16620017fe62001905565b73ffffffffffffffffffffffffffffffffffffffff161462001857576040517f08c379a00000000000000000000000000000000000000000000000000000000081526004016200184e9062002f7d565b60405180910390fd5b620018636000620023a0565b565b60006003600083815260200190815260200160002060040160009054906101000a900473ffffffffffffffffffffffffffffffffffffffff169050919050565b600060036000838152602001908152602001600020600501549050919050565b60006003600083815260200190815260200160002060070160009054906101000a900473ffffffffffffffffffffffffffffffffffffffff169050919050565b60008060009054906101000a900473ffffffffffffffffffffffffffffffffffffffff16905090565b6000806200193c83620018c5565b90508073ffffffffffffffffffffffffffffffffffffffff166318160ddd6040518163ffffffff1660e01b815260040160206040518083038186803b1580156200198557600080fd5b505afa1580156200199a573d6000803e3d6000fd5b505050506040513d601f19601f82011682018060405250810190620019c09190620027d6565b915050919050565b60006003600083815260200190815260200160002060090160009054906101000a900460ff169050919050565b6000600254905090565b600060036000838152602001908152602001600020600001549050919050565b62001a2c82823362001f5e565b5050565b600062001a3d84620018c5565b9050600062001a4b6200137a565b9050600062001a5b858762000721565b9050848373ffffffffffffffffffffffffffffffffffffffff166370a08231306040518263ffffffff1660e01b815260040162001a99919062002cbc565b60206040518083038186803b15801562001ab257600080fd5b505afa15801562001ac7573d6000803e3d6000fd5b505050506040513d601f19601f8201168201806040525081019062001aed9190620027d6565b101562001b31576040517f08c379a000000000000000000000000000000000000000000000000000000000815260040162001b289062003027565b60405180910390fd5b8173ffffffffffffffffffffffffffffffffffffffff166323b872dd8530846040518463ffffffff1660e01b815260040162001b709392919062002cd9565b602060405180830381600087803b15801562001b8b57600080fd5b505af115801562001ba0573d6000803e3d6000fd5b505050506040513d601f19601f8201168201806040525081019062001bc691906200277e565b62001c08576040517f08c379a000000000000000000000000000000000000000000000000000000000815260040162001bff9062002f39565b60405180910390fd5b8273ffffffffffffffffffffffffffffffffffffffff1663a9059cbb85876040518363ffffffff1660e01b815260040162001c4592919062002d16565b602060405180830381600087803b15801562001c6057600080fd5b505af115801562001c75573d6000803e3d6000fd5b505050506040513d601f19601f8201168201806040525081019062001c9b91906200277e565b62001cdd576040517f08c379a000000000000000000000000000000000000000000000000000000000815260040162001cd49062002ed3565b60405180910390fd5b505050505050565b8062001cf2848462001e4a565b101562001d36576040517f08c379a000000000000000000000000000000000000000000000000000000000815260040162001d2d9062002fe3565b60405180910390fd5b600062001d4384620018c5565b90508073ffffffffffffffffffffffffffffffffffffffff166323b872dd8430856040518463ffffffff1660e01b815260040162001d849392919062002cd9565b602060405180830381600087803b15801562001d9f57600080fd5b505af115801562001db4573d6000803e3d6000fd5b505050506040513d601f19601f8201168201806040525081019062001dda91906200277e565b5081600460008573ffffffffffffffffffffffffffffffffffffffff1673ffffffffffffffffffffffffffffffffffffffff1681526020019081526020016000206000868152602001908152602001600020600082825462001e3d919062003150565b9250508190555050505050565b60008062001e5884620018c5565b90508073ffffffffffffffffffffffffffffffffffffffff166370a08231846040518263ffffffff1660e01b815260040162001e95919062002cbc565b60206040518083038186803b15801562001eae57600080fd5b505afa15801562001ec3573d6000803e3d6000fd5b505050506040513d601f19601f8201168201806040525081019062001ee99190620027d6565b91505092915050565b6000600460008373ffffffffffffffffffffffffffffffffffffffff1673ffffffffffffffffffffffffffffffffffffffff168152602001908152602001600020600084815260200190815260200160002054905092915050565b62001f5a82823362001a30565b5050565b600062001f6b84620018c5565b9050600062001f796200137a565b9050600062001f89858762000721565b9050848373ffffffffffffffffffffffffffffffffffffffff166370a08231866040518263ffffffff1660e01b815260040162001fc7919062002cbc565b60206040518083038186803b15801562001fe057600080fd5b505afa15801562001ff5573d6000803e3d6000fd5b505050506040513d601f19601f820116820180604052508101906200201b9190620027d6565b10156200205f576040517f08c379a0000000000000000000000000000000000000000000000000000000008152600401620020569062003005565b60405180910390fd5b8273ffffffffffffffffffffffffffffffffffffffff166323b872dd8530886040518463ffffffff1660e01b81526004016200209e9392919062002cd9565b602060405180830381600087803b158015620020b957600080fd5b505af1158015620020ce573d6000803e3d6000fd5b505050506040513d601f19601f82011682018060405250810190620020f491906200277e565b62002136576040517f08c379a00000000000000000000000000000000000000000000000000000000081526004016200212d9062002f9f565b60405180910390fd5b8173ffffffffffffffffffffffffffffffffffffffff1663a9059cbb85836040518363ffffffff1660e01b81526004016200217392919062002d16565b602060405180830381600087803b1580156200218e57600080fd5b505af1158015620021a3573d6000803e3d6000fd5b505050506040513d601f19601f82011682018060405250810190620021c991906200277e565b6200220b576040517f08c379a0000000000000000000000000000000000000000000000000000000008152600401620022029062002f39565b60405180910390fd5b505050505050565b6200221d62002398565b73ffffffffffffffffffffffffffffffffffffffff166200223d62001905565b73ffffffffffffffffffffffffffffffffffffffff161462002296576040517f08c379a00000000000000000000000000000000000000000000000000000000081526004016200228d9062002f7d565b60405180910390fd5b600073ffffffffffffffffffffffffffffffffffffffff168173ffffffffffffffffffffffffffffffffffffffff16141562002309576040517f08c379a0000000000000000000000000000000000000000000000000000000008152600401620023009062002f17565b60405180910390fd5b6200231481620023a0565b50565b60006003600083815260200190815260200160002060020160009054906101000a900460ff169050919050565b600060606000868686866040516200235c90620024fd565b6200236b949392919062002d43565b604051809103906000f08015801562002388573d6000803e3d6000fd5b5090508092505050949350505050565b600033905090565b60008060009054906101000a900473ffffffffffffffffffffffffffffffffffffffff169050816000806101000a81548173ffffffffffffffffffffffffffffffffffffffff021916908373ffffffffffffffffffffffffffffffffffffffff1602179055508173ffffffffffffffffffffffffffffffffffffffff168173ffffffffffffffffffffffffffffffffffffffff167f8be0079c531659141344cd1fd0a4f28419497f9722a3daafe3b4186f6b6457e060405160405180910390a35050565b604051806101400160405280600081526020016000815260200160001515815260200160008152602001600073ffffffffffffffffffffffffffffffffffffffff16815260200160008152602001600073ffffffffffffffffffffffffffffffffffffffff168152602001600073ffffffffffffffffffffffffffffffffffffffff168152602001600081526020016000151581525090565b61265d806200377c83390190565b6000620025226200251c846200308f565b62003066565b9050828152602081018484840111156200253b57600080fd5b620025488482856200331f565b509392505050565b6000620025676200256184620030c5565b62003066565b9050828152602081018484840111156200258057600080fd5b6200258d8482856200331f565b509392505050565b600081359050620025a6816200372d565b92915050565b600081519050620025bd8162003747565b92915050565b600082601f830112620025d557600080fd5b8135620025e78482602086016200250b565b91505092915050565b600082601f8301126200260257600080fd5b81356200261484826020860162002550565b91505092915050565b6000813590506200262e8162003761565b92915050565b600081519050620026458162003761565b92915050565b6000602082840312156200265e57600080fd5b60006200266e8482850162002595565b91505092915050565b600080600080608085870312156200268e57600080fd5b60006200269e8782880162002595565b9450506020620026b18782880162002595565b9350506040620026c4878288016200261d565b925050606085013567ffffffffffffffff811115620026e257600080fd5b620026f087828801620025c3565b91505092959194509250565b600080600080600060a086880312156200271557600080fd5b6000620027258882890162002595565b955050602062002738888289016200261d565b94505060406200274b888289016200261d565b93505060606200275e8882890162002595565b925050608062002771888289016200261d565b9150509295509295909350565b6000602082840312156200279157600080fd5b6000620027a184828501620025ac565b91505092915050565b600060208284031215620027bd57600080fd5b6000620027cd848285016200261d565b91505092915050565b600060208284031215620027e957600080fd5b6000620027f98482850162002634565b91505092915050565b600080604083850312156200281657600080fd5b600062002826858286016200261d565b9250506020620028398582860162002595565b9150509250929050565b6000806000606084860312156200285957600080fd5b600062002869868287016200261d565b93505060206200287c8682870162002595565b92505060406200288f868287016200261d565b9150509250925092565b600080600080600060a08688031215620028b257600080fd5b6000620028c2888289016200261d565b955050602086013567ffffffffffffffff811115620028e057600080fd5b620028ee88828901620025f0565b945050604086013567ffffffffffffffff8111156200290c57600080fd5b6200291a88828901620025f0565b93505060606200292d888289016200261d565b925050608062002940888289016200261d565b9150509295509295909350565b600080604083850312156200296157600080fd5b600062002971858286016200261d565b925050602062002984858286016200261d565b9150509250929050565b600080600060608486031215620029a457600080fd5b6000620029b4868287016200261d565b9350506020620029c7868287016200261d565b9250506040620029da8682870162002595565b9150509250925092565b6000620029f2838362002c9a565b60208301905092915050565b62002a098162003281565b82525050565b600062002a1c826200310b565b62002a2881856200312e565b935062002a3583620030fb565b8060005b8381101562002a6c57815162002a508882620029e4565b975062002a5d8362003121565b92505060018101905062002a39565b5085935050505092915050565b62002a848162003295565b82525050565b62002a9581620032a1565b82525050565b62002aa681620032f7565b82525050565b600062002ab98262003116565b62002ac581856200313f565b935062002ad78185602086016200332e565b62002ae28162003475565b840191505092915050565b600062002afc601d836200313f565b915062002b098262003486565b602082019050919050565b600062002b236037836200313f565b915062002b3082620034af565b604082019050919050565b600062002b4a6026836200313f565b915062002b5782620034fe565b604082019050919050565b600062002b716017836200313f565b915062002b7e826200354d565b602082019050919050565b600062002b986029836200313f565b915062002ba58262003576565b604082019050919050565b600062002bbf6020836200313f565b915062002bcc82620035c5565b602082019050919050565b600062002be6601d836200313f565b915062002bf382620035ee565b602082019050919050565b600062002c0d601d836200313f565b915062002c1a8262003617565b602082019050919050565b600062002c346021836200313f565b915062002c418262003640565b604082019050919050565b600062002c5b6022836200313f565b915062002c68826200368f565b604082019050919050565b600062002c826027836200313f565b915062002c8f82620036de565b604082019050919050565b62002ca581620032ed565b82525050565b62002cb681620032ed565b82525050565b600060208201905062002cd36000830184620029fe565b92915050565b600060608201905062002cf06000830186620029fe565b62002cff6020830185620029fe565b62002d0e604083018462002cab565b949350505050565b600060408201905062002d2d6000830185620029fe565b62002d3c602083018462002cab565b9392505050565b600060808201905062002d5a6000830187620029fe565b62002d69602083018662002cab565b818103604083015262002d7d818562002aac565b9050818103606083015262002d93818462002aac565b905095945050505050565b600060808201905062002db56000830187620029fe565b62002dc4602083018662002cab565b62002dd3604083018562002cab565b62002de26060830184620029fe565b95945050505050565b600060c08201905062002e026000830189620029fe565b62002e11602083018862002cab565b62002e20604083018762002cab565b62002e2f606083018662002cab565b62002e3e6080830185620029fe565b62002e4d60a083018462002cab565b979650505050505050565b6000602082019050818103600083015262002e74818462002a0f565b905092915050565b600060208201905062002e93600083018462002a79565b92915050565b600060208201905062002eb0600083018462002a8a565b92915050565b600060208201905062002ecd600083018462002a9b565b92915050565b6000602082019050818103600083015262002eee8162002aed565b9050919050565b6000602082019050818103600083015262002f108162002b14565b9050919050565b6000602082019050818103600083015262002f328162002b3b565b9050919050565b6000602082019050818103600083015262002f548162002b62565b9050919050565b6000602082019050818103600083015262002f768162002b89565b9050919050565b6000602082019050818103600083015262002f988162002bb0565b9050919050565b6000602082019050818103600083015262002fba8162002bd7565b9050919050565b6000602082019050818103600083015262002fdc8162002bfe565b9050919050565b6000602082019050818103600083015262002ffe8162002c25565b9050919050565b60006020820190508181036000830152620030208162002c4c565b9050919050565b60006020820190508181036000830152620030428162002c73565b9050919050565b600060208201905062003060600083018462002cab565b92915050565b60006200307262003085565b905062003080828262003364565b919050565b6000604051905090565b600067ffffffffffffffff821115620030ad57620030ac62003446565b5b620030b88262003475565b9050602081019050919050565b600067ffffffffffffffff821115620030e357620030e262003446565b5b620030ee8262003475565b9050602081019050919050565b6000819050602082019050919050565b600081519050919050565b600081519050919050565b6000602082019050919050565b600082825260208201905092915050565b600082825260208201905092915050565b60006200315d82620032ed565b91506200316a83620032ed565b9250827fffffffffffffffffffffffffffffffffffffffffffffffffffffffffffffffff03821115620031a257620031a1620033e8565b5b828201905092915050565b6000620031ba82620032ed565b9150620031c783620032ed565b925082620031da57620031d962003417565b5b828204905092915050565b6000620031f282620032ed565b9150620031ff83620032ed565b9250817fffffffffffffffffffffffffffffffffffffffffffffffffffffffffffffffff04831182151516156200323b576200323a620033e8565b5b828202905092915050565b60006200325382620032ed565b91506200326083620032ed565b925082821015620032765762003275620033e8565b5b828203905092915050565b60006200328e82620032cd565b9050919050565b60008115159050919050565b60007fffffffff0000000000000000000000000000000000000000000000000000000082169050919050565b600073ffffffffffffffffffffffffffffffffffffffff82169050919050565b6000819050919050565b600062003304826200330b565b9050919050565b60006200331882620032cd565b9050919050565b82818337600083830152505050565b60005b838110156200334e57808201518184015260208101905062003331565b838111156200335e576000848401525b50505050565b6200336f8262003475565b810181811067ffffffffffffffff8211171562003391576200339062003446565b5b80604052505050565b6000620033a782620032ed565b91507fffffffffffffffffffffffffffffffffffffffffffffffffffffffffffffffff821415620033dd57620033dc620033e8565b5b600182019050919050565b7f4e487b7100000000000000000000000000000000000000000000000000000000600052601160045260246000fd5b7f4e487b7100000000000000000000000000000000000000000000000000000000600052601260045260246000fd5b7f4e487b7100000000000000000000000000000000000000000000000000000000600052604160045260246000fd5b6000601f19601f8301169050919050565b7f5472616e73666572206f66204652414320746f6b656e206661696c6564000000600082015250565b7f596f752068617665206e6f74206465706f736974656420414c4c206f6620746860008201527f65206672616374696f6e616c697a656420746f6b656e73000000000000000000602082015250565b7f4f776e61626c653a206e6577206f776e657220697320746865207a65726f206160008201527f6464726573730000000000000000000000000000000000000000000000000000602082015250565b7f5472616e73666572206f662077457468206661696c6564000000000000000000600082015250565b7f54686973204e46542068617320616c7265616479206265656e2066726163746960008201527f6f6e616c697a65642e0000000000000000000000000000000000000000000000602082015250565b7f4f776e61626c653a2063616c6c6572206973206e6f7420746865206f776e6572600082015250565b7f5472616e73666572206f66206672616320746f6b656e206661696c6564000000600082015250565b7f596f7520646964206e6f74206465706f7369742074686973204e46542e000000600082015250565b7f596f7520646f206e6f7420686176652074686174206d616e7920746f6b656e7360008201527f2e00000000000000000000000000000000000000000000000000000000000000602082015250565b7f596f7520646f206e6f74206861766520656e6f756768206672616320746f6b6560008201527f6e73000000000000000000000000000000000000000000000000000000000000602082015250565b7f546865726520617265206e6f7420656e6f756768204652414320746f6b656e7360008201527f20746f2062757900000000000000000000000000000000000000000000000000602082015250565b620037388162003281565b81146200374457600080fd5b50565b620037528162003295565b81146200375e57600080fd5b50565b6200376c81620032ed565b81146200377857600080fd5b5056fe60806040523480156200001157600080fd5b506040516200265d3803806200265d83398181016040528101906200003791906200044a565b8181816003908051906020019062000051929190620002fa565b5080600490805190602001906200006a929190620002fa565b5050506200008d62000081620000a960201b60201c565b620000b160201b60201c565b6200009f84846200017760201b60201c565b5050505062000807565b600033905090565b6000600560009054906101000a900473ffffffffffffffffffffffffffffffffffffffff16905081600560006101000a81548173ffffffffffffffffffffffffffffffffffffffff021916908373ffffffffffffffffffffffffffffffffffffffff1602179055508173ffffffffffffffffffffffffffffffffffffffff168173ffffffffffffffffffffffffffffffffffffffff167f8be0079c531659141344cd1fd0a4f28419497f9722a3daafe3b4186f6b6457e060405160405180910390a35050565b600073ffffffffffffffffffffffffffffffffffffffff168273ffffffffffffffffffffffffffffffffffffffff161415620001ea576040517f08c379a0000000000000000000000000000000000000000000000000000000008152600401620001e19062000520565b60405180910390fd5b620001fe60008383620002f060201b60201c565b8060026000828254620002129190620005cf565b92505081905550806000808473ffffffffffffffffffffffffffffffffffffffff1673ffffffffffffffffffffffffffffffffffffffff1681526020019081526020016000206000828254620002699190620005cf565b925050819055508173ffffffffffffffffffffffffffffffffffffffff16600073ffffffffffffffffffffffffffffffffffffffff167fddf252ad1be2c89b69c2b068fc378daa952ba7f163c4a11628f55a4df523b3ef83604051620002d0919062000542565b60405180910390a3620002ec60008383620002f560201b60201c565b5050565b505050565b505050565b8280546200030890620006a0565b90600052602060002090601f0160209004810192826200032c576000855562000378565b82601f106200034757805160ff191683800117855562000378565b8280016001018555821562000378579182015b82811115620003775782518255916020019190600101906200035a565b5b5090506200038791906200038b565b5090565b5b80821115620003a65760008160009055506001016200038c565b5090565b6000620003c1620003bb8462000588565b6200055f565b905082815260208101848484011115620003da57600080fd5b620003e78482856200066a565b509392505050565b6000815190506200040081620007d3565b92915050565b600082601f8301126200041857600080fd5b81516200042a848260208601620003aa565b91505092915050565b6000815190506200044481620007ed565b92915050565b600080600080608085870312156200046157600080fd5b60006200047187828801620003ef565b9450506020620004848782880162000433565b935050604085015167ffffffffffffffff811115620004a257600080fd5b620004b08782880162000406565b925050606085015167ffffffffffffffff811115620004ce57600080fd5b620004dc8782880162000406565b91505092959194509250565b6000620004f7601f83620005be565b91506200050482620007aa565b602082019050919050565b6200051a8162000660565b82525050565b600060208201905081810360008301526200053b81620004e8565b9050919050565b60006020820190506200055960008301846200050f565b92915050565b60006200056b6200057e565b9050620005798282620006d6565b919050565b6000604051905090565b600067ffffffffffffffff821115620005a657620005a56200076a565b5b620005b18262000799565b9050602081019050919050565b600082825260208201905092915050565b6000620005dc8262000660565b9150620005e98362000660565b9250827fffffffffffffffffffffffffffffffffffffffffffffffffffffffffffffffff038211156200062157620006206200070c565b5b828201905092915050565b6000620006398262000640565b9050919050565b600073ffffffffffffffffffffffffffffffffffffffff82169050919050565b6000819050919050565b60005b838110156200068a5780820151818401526020810190506200066d565b838111156200069a576000848401525b50505050565b60006002820490506001821680620006b957607f821691505b60208210811415620006d057620006cf6200073b565b5b50919050565b620006e18262000799565b810181811067ffffffffffffffff821117156200070357620007026200076a565b5b80604052505050565b7f4e487b7100000000000000000000000000000000000000000000000000000000600052601160045260246000fd5b7f4e487b7100000000000000000000000000000000000000000000000000000000600052602260045260246000fd5b7f4e487b7100000000000000000000000000000000000000000000000000000000600052604160045260246000fd5b6000601f19601f8301169050919050565b7f45524332303a206d696e7420746f20746865207a65726f206164647265737300600082015250565b620007de816200062c565b8114620007ea57600080fd5b50565b620007f88162000660565b81146200080457600080fd5b50565b611e4680620008176000396000f3fe608060405234801561001057600080fd5b506004361061010b5760003560e01c8063715018a6116100a2578063a457c2d711610071578063a457c2d7146102a8578063a9059cbb146102d8578063ca56c18a14610308578063dd62ed3e14610324578063f2fde38b146103545761010b565b8063715018a6146102465780638da5cb5b1461025057806395d89b411461026e5780639dc29fac1461028c5761010b565b8063313ce567116100de578063313ce567146101ac57806339509351146101ca57806340c10f19146101fa57806370a08231146102165761010b565b806306fdde0314610110578063095ea7b31461012e57806318160ddd1461015e57806323b872dd1461017c575b600080fd5b610118610370565b60405161012591906116d3565b60405180910390f35b61014860048036038101906101439190611448565b610402565b60405161015591906116b8565b60405180910390f35b610166610420565b6040516101739190611875565b60405180910390f35b610196600480360381019061019191906113f9565b61042a565b6040516101a391906116b8565b60405180910390f35b6101b4610522565b6040516101c19190611890565b60405180910390f35b6101e460048036038101906101df9190611448565b61052b565b6040516101f191906116b8565b60405180910390f35b610214600480360381019061020f9190611448565b6105d7565b005b610230600480360381019061022b9190611394565b610661565b60405161023d9190611875565b60405180910390f35b61024e6106a9565b005b610258610731565b604051610265919061169d565b60405180910390f35b61027661075b565b60405161028391906116d3565b60405180910390f35b6102a660048036038101906102a19190611448565b6107ed565b005b6102c260048036038101906102bd9190611448565b610877565b6040516102cf91906116b8565b60405180910390f35b6102f260048036038101906102ed9190611448565b610962565b6040516102ff91906116b8565b60405180910390f35b610322600480360381019061031d91906113f9565b610980565b005b61033e600480360381019061033991906113bd565b610990565b60405161034b9190611875565b60405180910390f35b61036e60048036038101906103699190611394565b610a17565b005b60606003805461037f906119d9565b80601f01602080910402602001604051908101604052809291908181526020018280546103ab906119d9565b80156103f85780601f106103cd576101008083540402835291602001916103f8565b820191906000526020600020905b8154815290600101906020018083116103db57829003601f168201915b5050505050905090565b600061041661040f610b0f565b8484610b17565b6001905092915050565b6000600254905090565b6000610437848484610ce2565b6000600160008673ffffffffffffffffffffffffffffffffffffffff1673ffffffffffffffffffffffffffffffffffffffff1681526020019081526020016000206000610482610b0f565b73ffffffffffffffffffffffffffffffffffffffff1673ffffffffffffffffffffffffffffffffffffffff16815260200190815260200160002054905082811015610502576040517f08c379a00000000000000000000000000000000000000000000000000000000081526004016104f990611795565b60405180910390fd5b6105168561050e610b0f565b858403610b17565b60019150509392505050565b60006012905090565b60006105cd610538610b0f565b848460016000610546610b0f565b73ffffffffffffffffffffffffffffffffffffffff1673ffffffffffffffffffffffffffffffffffffffff16815260200190815260200160002060008873ffffffffffffffffffffffffffffffffffffffff1673ffffffffffffffffffffffffffffffffffffffff168152602001908152602001600020546105c891906118c7565b610b17565b6001905092915050565b6105df610b0f565b73ffffffffffffffffffffffffffffffffffffffff166105fd610731565b73ffffffffffffffffffffffffffffffffffffffff1614610653576040517f08c379a000000000000000000000000000000000000000000000000000000000815260040161064a906117b5565b60405180910390fd5b61065d8282610f63565b5050565b60008060008373ffffffffffffffffffffffffffffffffffffffff1673ffffffffffffffffffffffffffffffffffffffff168152602001908152602001600020549050919050565b6106b1610b0f565b73ffffffffffffffffffffffffffffffffffffffff166106cf610731565b73ffffffffffffffffffffffffffffffffffffffff1614610725576040517f08c379a000000000000000000000000000000000000000000000000000000000815260040161071c906117b5565b60405180910390fd5b61072f60006110c3565b565b6000600560009054906101000a900473ffffffffffffffffffffffffffffffffffffffff16905090565b60606004805461076a906119d9565b80601f0160208091040260200160405190810160405280929190818152602001828054610796906119d9565b80156107e35780601f106107b8576101008083540402835291602001916107e3565b820191906000526020600020905b8154815290600101906020018083116107c657829003601f168201915b5050505050905090565b6107f5610b0f565b73ffffffffffffffffffffffffffffffffffffffff16610813610731565b73ffffffffffffffffffffffffffffffffffffffff1614610869576040517f08c379a0000000000000000000000000000000000000000000000000000000008152600401610860906117b5565b60405180910390fd5b6108738282611189565b5050565b60008060016000610886610b0f565b73ffffffffffffffffffffffffffffffffffffffff1673ffffffffffffffffffffffffffffffffffffffff16815260200190815260200160002060008573ffffffffffffffffffffffffffffffffffffffff1673ffffffffffffffffffffffffffffffffffffffff16815260200190815260200160002054905082811015610943576040517f08c379a000000000000000000000000000000000000000000000000000000000815260040161093a90611835565b60405180910390fd5b61095761094e610b0f565b85858403610b17565b600191505092915050565b600061097661096f610b0f565b8484610ce2565b6001905092915050565b61098b838383610b17565b505050565b6000600160008473ffffffffffffffffffffffffffffffffffffffff1673ffffffffffffffffffffffffffffffffffffffff16815260200190815260200160002060008373ffffffffffffffffffffffffffffffffffffffff1673ffffffffffffffffffffffffffffffffffffffff16815260200190815260200160002054905092915050565b610a1f610b0f565b73ffffffffffffffffffffffffffffffffffffffff16610a3d610731565b73ffffffffffffffffffffffffffffffffffffffff1614610a93576040517f08c379a0000000000000000000000000000000000000000000000000000000008152600401610a8a906117b5565b60405180910390fd5b600073ffffffffffffffffffffffffffffffffffffffff168173ffffffffffffffffffffffffffffffffffffffff161415610b03576040517f08c379a0000000000000000000000000000000000000000000000000000000008152600401610afa90611735565b60405180910390fd5b610b0c816110c3565b50565b600033905090565b600073ffffffffffffffffffffffffffffffffffffffff168373ffffffffffffffffffffffffffffffffffffffff161415610b87576040517f08c379a0000000000000000000000000000000000000000000000000000000008152600401610b7e90611815565b60405180910390fd5b600073ffffffffffffffffffffffffffffffffffffffff168273ffffffffffffffffffffffffffffffffffffffff161415610bf7576040517f08c379a0000000000000000000000000000000000000000000000000000000008152600401610bee90611755565b60405180910390fd5b80600160008573ffffffffffffffffffffffffffffffffffffffff1673ffffffffffffffffffffffffffffffffffffffff16815260200190815260200160002060008473ffffffffffffffffffffffffffffffffffffffff1673ffffffffffffffffffffffffffffffffffffffff168152602001908152602001600020819055508173ffffffffffffffffffffffffffffffffffffffff168373ffffffffffffffffffffffffffffffffffffffff167f8c5be1e5ebec7d5bd14f71427d1e84f3dd0314c0f7b2291e5b200ac8c7c3b92583604051610cd59190611875565b60405180910390a3505050565b600073ffffffffffffffffffffffffffffffffffffffff168373ffffffffffffffffffffffffffffffffffffffff161415610d52576040517f08c379a0000000000000000000000000000000000000000000000000000000008152600401610d49906117f5565b60405180910390fd5b600073ffffffffffffffffffffffffffffffffffffffff168273ffffffffffffffffffffffffffffffffffffffff161415610dc2576040517f08c379a0000000000000000000000000000000000000000000000000000000008152600401610db9906116f5565b60405180910390fd5b610dcd838383611360565b60008060008573ffffffffffffffffffffffffffffffffffffffff1673ffffffffffffffffffffffffffffffffffffffff16815260200190815260200160002054905081811015610e53576040517f08c379a0000000000000000000000000000000000000000000000000000000008152600401610e4a90611775565b60405180910390fd5b8181036000808673ffffffffffffffffffffffffffffffffffffffff1673ffffffffffffffffffffffffffffffffffffffff16815260200190815260200160002081905550816000808573ffffffffffffffffffffffffffffffffffffffff1673ffffffffffffffffffffffffffffffffffffffff1681526020019081526020016000206000828254610ee691906118c7565b925050819055508273ffffffffffffffffffffffffffffffffffffffff168473ffffffffffffffffffffffffffffffffffffffff167fddf252ad1be2c89b69c2b068fc378daa952ba7f163c4a11628f55a4df523b3ef84604051610f4a9190611875565b60405180910390a3610f5d848484611365565b50505050565b600073ffffffffffffffffffffffffffffffffffffffff168273ffffffffffffffffffffffffffffffffffffffff161415610fd3576040517f08c379a0000000000000000000000000000000000000000000000000000000008152600401610fca90611855565b60405180910390fd5b610fdf60008383611360565b8060026000828254610ff191906118c7565b92505081905550806000808473ffffffffffffffffffffffffffffffffffffffff1673ffffffffffffffffffffffffffffffffffffffff168152602001908152602001600020600082825461104691906118c7565b925050819055508173ffffffffffffffffffffffffffffffffffffffff16600073ffffffffffffffffffffffffffffffffffffffff167fddf252ad1be2c89b69c2b068fc378daa952ba7f163c4a11628f55a4df523b3ef836040516110ab9190611875565b60405180910390a36110bf60008383611365565b5050565b6000600560009054906101000a900473ffffffffffffffffffffffffffffffffffffffff16905081600560006101000a81548173ffffffffffffffffffffffffffffffffffffffff021916908373ffffffffffffffffffffffffffffffffffffffff1602179055508173ffffffffffffffffffffffffffffffffffffffff168173ffffffffffffffffffffffffffffffffffffffff167f8be0079c531659141344cd1fd0a4f28419497f9722a3daafe3b4186f6b6457e060405160405180910390a35050565b600073ffffffffffffffffffffffffffffffffffffffff168273ffffffffffffffffffffffffffffffffffffffff1614156111f9576040517f08c379a00000000000000000000000000000000000000000000000000000000081526004016111f0906117d5565b60405180910390fd5b61120582600083611360565b60008060008473ffffffffffffffffffffffffffffffffffffffff1673ffffffffffffffffffffffffffffffffffffffff1681526020019081526020016000205490508181101561128b576040517f08c379a000000000000000000000000000000000000000000000000000000000815260040161128290611715565b60405180910390fd5b8181036000808573ffffffffffffffffffffffffffffffffffffffff1673ffffffffffffffffffffffffffffffffffffffff1681526020019081526020016000208190555081600260008282546112e2919061191d565b92505081905550600073ffffffffffffffffffffffffffffffffffffffff168373ffffffffffffffffffffffffffffffffffffffff167fddf252ad1be2c89b69c2b068fc378daa952ba7f163c4a11628f55a4df523b3ef846040516113479190611875565b60405180910390a361135b83600084611365565b505050565b505050565b505050565b60008135905061137981611de2565b92915050565b60008135905061138e81611df9565b92915050565b6000602082840312156113a657600080fd5b60006113b48482850161136a565b91505092915050565b600080604083850312156113d057600080fd5b60006113de8582860161136a565b92505060206113ef8582860161136a565b9150509250929050565b60008060006060848603121561140e57600080fd5b600061141c8682870161136a565b935050602061142d8682870161136a565b925050604061143e8682870161137f565b9150509250925092565b6000806040838503121561145b57600080fd5b60006114698582860161136a565b925050602061147a8582860161137f565b9150509250929050565b61148d81611951565b82525050565b61149c81611963565b82525050565b60006114ad826118ab565b6114b781856118b6565b93506114c78185602086016119a6565b6114d081611a69565b840191505092915050565b60006114e86023836118b6565b91506114f382611a7a565b604082019050919050565b600061150b6022836118b6565b915061151682611ac9565b604082019050919050565b600061152e6026836118b6565b915061153982611b18565b604082019050919050565b60006115516022836118b6565b915061155c82611b67565b604082019050919050565b60006115746026836118b6565b915061157f82611bb6565b604082019050919050565b60006115976028836118b6565b91506115a282611c05565b604082019050919050565b60006115ba6020836118b6565b91506115c582611c54565b602082019050919050565b60006115dd6021836118b6565b91506115e882611c7d565b604082019050919050565b60006116006025836118b6565b915061160b82611ccc565b604082019050919050565b60006116236024836118b6565b915061162e82611d1b565b604082019050919050565b60006116466025836118b6565b915061165182611d6a565b604082019050919050565b6000611669601f836118b6565b915061167482611db9565b602082019050919050565b6116888161198f565b82525050565b61169781611999565b82525050565b60006020820190506116b26000830184611484565b92915050565b60006020820190506116cd6000830184611493565b92915050565b600060208201905081810360008301526116ed81846114a2565b905092915050565b6000602082019050818103600083015261170e816114db565b9050919050565b6000602082019050818103600083015261172e816114fe565b9050919050565b6000602082019050818103600083015261174e81611521565b9050919050565b6000602082019050818103600083015261176e81611544565b9050919050565b6000602082019050818103600083015261178e81611567565b9050919050565b600060208201905081810360008301526117ae8161158a565b9050919050565b600060208201905081810360008301526117ce816115ad565b9050919050565b600060208201905081810360008301526117ee816115d0565b9050919050565b6000602082019050818103600083015261180e816115f3565b9050919050565b6000602082019050818103600083015261182e81611616565b9050919050565b6000602082019050818103600083015261184e81611639565b9050919050565b6000602082019050818103600083015261186e8161165c565b9050919050565b600060208201905061188a600083018461167f565b92915050565b60006020820190506118a5600083018461168e565b92915050565b600081519050919050565b600082825260208201905092915050565b60006118d28261198f565b91506118dd8361198f565b9250827fffffffffffffffffffffffffffffffffffffffffffffffffffffffffffffffff0382111561191257611911611a0b565b5b828201905092915050565b60006119288261198f565b91506119338361198f565b92508282101561194657611945611a0b565b5b828203905092915050565b600061195c8261196f565b9050919050565b60008115159050919050565b600073ffffffffffffffffffffffffffffffffffffffff82169050919050565b6000819050919050565b600060ff82169050919050565b60005b838110156119c45780820151818401526020810190506119a9565b838111156119d3576000848401525b50505050565b600060028204905060018216806119f157607f821691505b60208210811415611a0557611a04611a3a565b5b50919050565b7f4e487b7100000000000000000000000000000000000000000000000000000000600052601160045260246000fd5b7f4e487b7100000000000000000000000000000000000000000000000000000000600052602260045260246000fd5b6000601f19601f8301169050919050565b7f45524332303a207472616e7366657220746f20746865207a65726f206164647260008201527f6573730000000000000000000000000000000000000000000000000000000000602082015250565b7f45524332303a206275726e20616d6f756e7420657863656564732062616c616e60008201527f6365000000000000000000000000000000000000000000000000000000000000602082015250565b7f4f776e61626c653a206e6577206f776e657220697320746865207a65726f206160008201527f6464726573730000000000000000000000000000000000000000000000000000602082015250565b7f45524332303a20617070726f766520746f20746865207a65726f20616464726560008201527f7373000000000000000000000000000000000000000000000000000000000000602082015250565b7f45524332303a207472616e7366657220616d6f756e742065786365656473206260008201527f616c616e63650000000000000000000000000000000000000000000000000000602082015250565b7f45524332303a207472616e7366657220616d6f756e742065786365656473206160008201527f6c6c6f77616e6365000000000000000000000000000000000000000000000000602082015250565b7f4f776e61626c653a2063616c6c6572206973206e6f7420746865206f776e6572600082015250565b7f45524332303a206275726e2066726f6d20746865207a65726f2061646472657360008201527f7300000000000000000000000000000000000000000000000000000000000000602082015250565b7f45524332303a207472616e736665722066726f6d20746865207a65726f20616460008201527f6472657373000000000000000000000000000000000000000000000000000000602082015250565b7f45524332303a20617070726f76652066726f6d20746865207a65726f2061646460008201527f7265737300000000000000000000000000000000000000000000000000000000602082015250565b7f45524332303a2064656372656173656420616c6c6f77616e63652062656c6f7760008201527f207a65726f000000000000000000000000000000000000000000000000000000602082015250565b7f45524332303a206d696e7420746f20746865207a65726f206164647265737300600082015250565b611deb81611951565b8114611df657600080fd5b50565b611e028161198f565b8114611e0d57600080fd5b5056fea2646970667358221220a2ea31a29a93a60fbd2609cd00aec00a0a331936def67946293f19994c81351364736f6c63430008040033a2646970667358221220977ebe67a04c6f4ec13f3fc0a0c2b5ad9d0a159badf3c27077a318fccdb4e04664736f6c63430008040033",
  "linkReferences": {},
  "deployedLinkReferences": {}
}