{
  "_format": "hh-sol-artifact-1",
  "contractName": "Vault",
  "sourceName": "contracts/Vault.sol",
  "abi": [
    {
      "inputs": [
        {
          "internalType": "address",
          "name": "_wEthAddr",
          "type": "address"
        },
        {
          "internalType": "address",
          "name": "oracle",
          "type": "address"
        }
      ],
      "stateMutability": "nonpayable",
      "type": "constructor"
    },
    {
      "anonymous": false,
      "inputs": [
        {
          "indexed": true,
          "internalType": "address",
          "name": "previousOwner",
          "type": "address"
        },
        {
          "indexed": true,
          "internalType": "address",
          "name": "newOwner",
          "type": "address"
        }
      ],
      "name": "OwnershipTransferred",
      "type": "event"
    },
    {
      "anonymous": false,
      "inputs": [
        {
          "indexed": false,
          "internalType": "address",
          "name": "from",
          "type": "address"
        },
        {
          "indexed": false,
          "internalType": "uint256",
          "name": "tokenId",
          "type": "uint256"
        },
        {
          "indexed": false,
          "internalType": "uint256",
          "name": "internalId",
          "type": "uint256"
        },
        {
          "indexed": false,
          "internalType": "address",
          "name": "nftAddr",
          "type": "address"
        }
      ],
      "name": "Recieved",
      "type": "event"
    },
    {
      "anonymous": false,
      "inputs": [
        {
          "indexed": false,
          "internalType": "address",
          "name": "to",
          "type": "address"
        },
        {
          "indexed": false,
          "internalType": "uint256",
          "name": "tokenId",
          "type": "uint256"
        },
        {
          "indexed": false,
          "internalType": "uint256",
          "name": "internalId",
          "type": "uint256"
        },
        {
          "indexed": false,
          "internalType": "address",
          "name": "nftAddr",
          "type": "address"
        }
      ],
      "name": "Released",
      "type": "event"
    },
    {
      "anonymous": false,
      "inputs": [
        {
          "indexed": false,
          "internalType": "address",
          "name": "from",
          "type": "address"
        },
        {
          "indexed": false,
          "internalType": "uint256",
          "name": "tokenId",
          "type": "uint256"
        },
        {
          "indexed": false,
          "internalType": "uint256",
          "name": "internalId",
          "type": "uint256"
        },
        {
          "indexed": false,
          "internalType": "uint256",
          "name": "xChainInternalId",
          "type": "uint256"
        },
        {
          "indexed": false,
          "internalType": "address",
          "name": "nftAddr",
          "type": "address"
        },
        {
          "indexed": false,
          "internalType": "uint256",
          "name": "chainId",
          "type": "uint256"
        }
      ],
      "name": "XChainRegistered",
      "type": "event"
    },
    {
      "anonymous": false,
      "inputs": [
        {
          "indexed": false,
          "internalType": "address",
          "name": "to",
          "type": "address"
        },
        {
          "indexed": false,
          "internalType": "uint256",
          "name": "tokenId",
          "type": "uint256"
        },
        {
          "indexed": false,
          "internalType": "uint256",
          "name": "internalId",
          "type": "uint256"
        },
        {
          "indexed": false,
          "internalType": "uint256",
          "name": "xChainInternalId",
          "type": "uint256"
        },
        {
          "indexed": false,
          "internalType": "address",
          "name": "nftAddr",
          "type": "address"
        },
        {
          "indexed": false,
          "internalType": "uint256",
          "name": "chainId",
          "type": "uint256"
        }
      ],
      "name": "XChainRelease",
      "type": "event"
    },
    {
      "inputs": [
        {
          "internalType": "uint256",
          "name": "internalId",
          "type": "uint256"
        },
        {
          "internalType": "address",
          "name": "account",
          "type": "address"
        },
        {
          "internalType": "uint256",
          "name": "amount",
          "type": "uint256"
        }
      ],
      "name": "approveNFTokenTransfer",
      "outputs": [],
      "stateMutability": "nonpayable",
      "type": "function"
    },
    {
      "inputs": [
        {
          "internalType": "uint256",
          "name": "_internalId",
          "type": "uint256"
        },
        {
          "internalType": "uint256",
          "name": "_FracToBuy",
          "type": "uint256"
        },
        {
          "internalType": "address",
          "name": "_buyer",
          "type": "address"
        }
      ],
      "name": "buyTokens",
      "outputs": [],
      "stateMutability": "nonpayable",
      "type": "function"
    },
    {
      "inputs": [
        {
          "internalType": "uint256",
          "name": "internalId",
          "type": "uint256"
        },
        {
          "internalType": "uint256",
          "name": "FracToBuy",
          "type": "uint256"
        }
      ],
      "name": "buyTokensIndividual",
      "outputs": [],
      "stateMutability": "nonpayable",
      "type": "function"
    },
    {
      "inputs": [
        {
          "internalType": "uint256",
          "name": "internalId",
          "type": "uint256"
        },
        {
          "internalType": "address",
          "name": "account",
          "type": "address"
        }
      ],
      "name": "buyoutERC721",
      "outputs": [],
      "stateMutability": "nonpayable",
      "type": "function"
    },
    {
      "inputs": [
        {
          "internalType": "uint256",
          "name": "_amountOfwEth",
          "type": "uint256"
        },
        {
          "internalType": "uint256",
          "name": "_internalId",
          "type": "uint256"
        }
      ],
      "name": "calculateAmountOfFrac",
      "outputs": [
        {
          "internalType": "uint256",
          "name": "",
          "type": "uint256"
        }
      ],
      "stateMutability": "view",
      "type": "function"
    },
    {
      "inputs": [
        {
          "internalType": "uint256",
          "name": "_amountOfFrac",
          "type": "uint256"
        },
        {
          "internalType": "uint256",
          "name": "_internalId",
          "type": "uint256"
        }
      ],
      "name": "calculateAmountOfwEth",
      "outputs": [
        {
          "internalType": "uint256",
          "name": "",
          "type": "uint256"
        }
      ],
      "stateMutability": "view",
      "type": "function"
    },
    {
      "inputs": [
        {
          "internalType": "uint256",
          "name": "internalId",
          "type": "uint256"
        },
        {
          "internalType": "address",
          "name": "account",
          "type": "address"
        },
        {
          "internalType": "uint256",
          "name": "amount",
          "type": "uint256"
        }
      ],
      "name": "depositNFToken",
      "outputs": [],
      "stateMutability": "nonpayable",
      "type": "function"
    },
    {
      "inputs": [
        {
          "internalType": "uint256",
          "name": "internalId",
          "type": "uint256"
        },
        {
          "internalType": "address",
          "name": "account",
          "type": "address"
        }
      ],
      "name": "getDepositAmount",
      "outputs": [
        {
          "internalType": "uint256",
          "name": "",
          "type": "uint256"
        }
      ],
      "stateMutability": "view",
      "type": "function"
    },
    {
      "inputs": [
        {
          "internalType": "uint256",
          "name": "internalId",
          "type": "uint256"
        }
      ],
      "name": "getERC721ChainId",
      "outputs": [
        {
          "internalType": "uint256",
          "name": "",
          "type": "uint256"
        }
      ],
      "stateMutability": "view",
      "type": "function"
    },
    {
      "inputs": [
        {
          "internalType": "uint256",
          "name": "internalId",
          "type": "uint256"
        }
      ],
      "name": "getERC721ContractAddr",
      "outputs": [
        {
          "internalType": "address",
          "name": "",
          "type": "address"
        }
      ],
      "stateMutability": "view",
      "type": "function"
    },
    {
      "inputs": [
        {
          "internalType": "uint256",
          "name": "internalId",
          "type": "uint256"
        }
      ],
      "name": "getERC721Native",
      "outputs": [
        {
          "internalType": "bool",
          "name": "",
          "type": "bool"
        }
      ],
      "stateMutability": "view",
      "type": "function"
    },
    {
      "inputs": [
        {
          "internalType": "uint256",
          "name": "internalId",
          "type": "uint256"
        }
      ],
      "name": "getERC721TokenId",
      "outputs": [
        {
          "internalType": "uint256",
          "name": "",
          "type": "uint256"
        }
      ],
      "stateMutability": "view",
      "type": "function"
    },
    {
      "inputs": [
        {
          "internalType": "uint256",
          "name": "internalId",
          "type": "uint256"
        }
      ],
      "name": "getERC721XChainInternalId",
      "outputs": [
        {
          "internalType": "uint256",
          "name": "",
          "type": "uint256"
        }
      ],
      "stateMutability": "view",
      "type": "function"
    },
    {
      "inputs": [],
      "name": "getInternalIdCounter",
      "outputs": [
        {
          "internalType": "uint256",
          "name": "",
          "type": "uint256"
        }
      ],
      "stateMutability": "view",
      "type": "function"
    },
    {
      "inputs": [
        {
          "internalType": "uint256",
          "name": "internalId",
          "type": "uint256"
        }
      ],
      "name": "getNFTContractAddr",
      "outputs": [
        {
          "internalType": "address",
          "name": "",
          "type": "address"
        }
      ],
      "stateMutability": "view",
      "type": "function"
    },
    {
      "inputs": [
        {
          "internalType": "uint256",
          "name": "internalId",
          "type": "uint256"
        }
      ],
      "name": "getNFTokenAddr",
      "outputs": [
        {
          "internalType": "address",
          "name": "",
          "type": "address"
        }
      ],
      "stateMutability": "view",
      "type": "function"
    },
    {
      "inputs": [
        {
          "internalType": "uint256",
          "name": "internalId",
          "type": "uint256"
        },
        {
          "internalType": "address",
          "name": "account",
          "type": "address"
        }
      ],
      "name": "getNFTokenBalance",
      "outputs": [
        {
          "internalType": "uint256",
          "name": "",
          "type": "uint256"
        }
      ],
      "stateMutability": "view",
      "type": "function"
    },
    {
      "inputs": [
        {
          "internalType": "uint256",
          "name": "internalId",
          "type": "uint256"
        }
      ],
      "name": "getNFTokenSupply",
      "outputs": [
        {
          "internalType": "uint256",
          "name": "",
          "type": "uint256"
        }
      ],
      "stateMutability": "view",
      "type": "function"
    },
    {
      "inputs": [
        {
          "internalType": "address",
          "name": "account",
          "type": "address"
        }
      ],
      "name": "getNumIdsOwned",
      "outputs": [
        {
          "internalType": "uint256",
          "name": "",
          "type": "uint256"
        }
      ],
      "stateMutability": "view",
      "type": "function"
    },
    {
      "inputs": [],
      "name": "getNumberDepositedERC721s",
      "outputs": [
        {
          "internalType": "uint256",
          "name": "",
          "type": "uint256"
        }
      ],
      "stateMutability": "view",
      "type": "function"
    },
    {
      "inputs": [
        {
          "internalType": "uint256",
          "name": "internalId",
          "type": "uint256"
        }
      ],
      "name": "getOwned",
      "outputs": [
        {
          "internalType": "bool",
          "name": "",
          "type": "bool"
        }
      ],
      "stateMutability": "view",
      "type": "function"
    },
    {
      "inputs": [],
      "name": "getwEthAddr",
      "outputs": [
        {
          "internalType": "address",
          "name": "",
          "type": "address"
        }
      ],
      "stateMutability": "view",
      "type": "function"
    },
    {
      "inputs": [
        {
          "internalType": "uint256",
          "name": "supply",
          "type": "uint256"
        },
        {
          "internalType": "string",
          "name": "name",
          "type": "string"
        },
        {
          "internalType": "string",
          "name": "ticker",
          "type": "string"
        },
        {
          "internalType": "uint256",
          "name": "internalId",
          "type": "uint256"
        },
        {
          "internalType": "uint256",
          "name": "amountToKeep",
          "type": "uint256"
        }
      ],
      "name": "mintTokensForNFT",
      "outputs": [
        {
          "internalType": "contract NFToken",
          "name": "",
          "type": "address"
        }
      ],
      "stateMutability": "nonpayable",
      "type": "function"
    },
    {
      "inputs": [
        {
          "internalType": "address",
          "name": "operator",
          "type": "address"
        },
        {
          "internalType": "address",
          "name": "from",
          "type": "address"
        },
        {
          "internalType": "uint256",
          "name": "tokenId",
          "type": "uint256"
        },
        {
          "internalType": "bytes",
          "name": "data",
          "type": "bytes"
        }
      ],
      "name": "onERC721Received",
      "outputs": [
        {
          "internalType": "bytes4",
          "name": "",
          "type": "bytes4"
        }
      ],
      "stateMutability": "nonpayable",
      "type": "function"
    },
    {
      "inputs": [],
      "name": "owner",
      "outputs": [
        {
          "internalType": "address",
          "name": "",
          "type": "address"
        }
      ],
      "stateMutability": "view",
      "type": "function"
    },
    {
      "inputs": [
        {
          "internalType": "address",
          "name": "sender",
          "type": "address"
        },
        {
          "internalType": "uint256",
          "name": "tokenId",
          "type": "uint256"
        },
        {
          "internalType": "uint256",
          "name": "xChainInternalId",
          "type": "uint256"
        },
        {
          "internalType": "address",
          "name": "nftAddr",
          "type": "address"
        },
        {
          "internalType": "uint256",
          "name": "chainId",
          "type": "uint256"
        }
      ],
      "name": "registerXChainNFT",
      "outputs": [],
      "stateMutability": "nonpayable",
      "type": "function"
    },
    {
      "inputs": [],
      "name": "renounceOwnership",
      "outputs": [],
      "stateMutability": "nonpayable",
      "type": "function"
    },
    {
      "inputs": [
        {
          "internalType": "uint256",
          "name": "_internalId",
          "type": "uint256"
        },
        {
          "internalType": "uint256",
          "name": "_FracToSell",
          "type": "uint256"
        },
        {
          "internalType": "address",
          "name": "_seller",
          "type": "address"
        }
      ],
      "name": "sellTokens",
      "outputs": [],
      "stateMutability": "nonpayable",
      "type": "function"
    },
    {
      "inputs": [
        {
          "internalType": "uint256",
          "name": "internalId",
          "type": "uint256"
        },
        {
          "internalType": "uint256",
          "name": "amountOfwEth",
          "type": "uint256"
        }
      ],
      "name": "sellTokensIndividual",
      "outputs": [],
      "stateMutability": "nonpayable",
      "type": "function"
    },
    {
      "inputs": [
        {
          "internalType": "address",
          "name": "newOwner",
          "type": "address"
        }
      ],
      "name": "transferOwnership",
      "outputs": [],
      "stateMutability": "nonpayable",
      "type": "function"
    },
    {
      "inputs": [
        {
          "internalType": "uint256",
          "name": "internalId",
          "type": "uint256"
        },
        {
          "internalType": "address",
          "name": "account",
          "type": "address"
        },
        {
          "internalType": "uint256",
          "name": "amount",
          "type": "uint256"
        }
      ],
      "name": "withdrawNFToken",
      "outputs": [],
      "stateMutability": "nonpayable",
      "type": "function"
    }
  ],
  "bytecode": "0x608060405260006002553480156200001657600080fd5b5060405162005ea538038062005ea583398181016040528101906200003c919062000188565b6200005c62000050620000a560201b60201c565b620000ad60201b60201c565b81600160006101000a81548173ffffffffffffffffffffffffffffffffffffffff021916908373ffffffffffffffffffffffffffffffffffffffff160217905550505062000217565b600033905090565b60008060009054906101000a900473ffffffffffffffffffffffffffffffffffffffff169050816000806101000a81548173ffffffffffffffffffffffffffffffffffffffff021916908373ffffffffffffffffffffffffffffffffffffffff1602179055508173ffffffffffffffffffffffffffffffffffffffff168173ffffffffffffffffffffffffffffffffffffffff167f8be0079c531659141344cd1fd0a4f28419497f9722a3daafe3b4186f6b6457e060405160405180910390a35050565b6000815190506200018281620001fd565b92915050565b600080604083850312156200019c57600080fd5b6000620001ac8582860162000171565b9250506020620001bf8582860162000171565b9150509250929050565b6000620001d682620001dd565b9050919050565b600073ffffffffffffffffffffffffffffffffffffffff82169050919050565b6200020881620001c9565b81146200021457600080fd5b50565b615c7e80620002276000396000f3fe60806040523480156200001157600080fd5b5060043610620002145760003560e01c80638da5cb5b1162000129578063c168787711620000b1578063e683c239116200007b578063e683c23914620006b7578063ef569f9a14620006d7578063f2fde38b14620006f7578063f605a25414620007175762000214565b8063c1687877146200060b578063c44f7a17146200062b578063cae244b4146200064b578063de75a5c014620006815762000214565b8063b1e2bcb311620000f3578063b1e2bcb3146200055d578063b7cebb3e1462000593578063b9ca983814620005b5578063bd3d433714620005eb5762000214565b80638da5cb5b14620004af5780639eefad9814620004d1578063a919b74a1462000507578063af3ddc1a146200053d5762000214565b806349f1c75311620001ad578063715018a61162000177578063715018a61462000401578063742f23c7146200040d57806380168c7b146200044357806386b5e7ea14620004795762000214565b806349f1c75314620003535780634debe86a14620003895780635a34a27214620003ab57806365d51d8814620003cb5762000214565b8063312f0d8011620001ef578063312f0d8014620002a5578063397bafd614620002c557806340aa97ec14620002e7578063442f6bd9146200031d5762000214565b80630b1a08e51462000219578063150b7a02146200024f5780631b2d83cd1462000285575b600080fd5b6200023760048036038101906200023191906200288b565b6200074d565b60405162000246919062002f17565b60405180910390f35b6200026d6004803603810190620002679190620025b5565b62000780565b6040516200027c919062002d45565b60405180910390f35b620002a360048036038101906200029d919062002781565b62000aec565b005b620002c36004803603810190620002bd919062002740565b62000b74565b005b620002cf62000d71565b604051620002de919062002f17565b60405180910390f35b620003056004803603810190620002ff919062002589565b62000d89565b60405162000314919062002f17565b60405180910390f35b6200033b6004803603810190620003359190620027d7565b62000dd2565b6040516200034a919062002d62565b60405180910390f35b6200037160048036038101906200036b9190620026e8565b620010f5565b60405162000380919062002b8c565b60405180910390f35b6200039362001135565b604051620003a2919062002b8c565b60405180910390f35b620003c96004803603810190620003c391906200263a565b6200115f565b005b620003e96004803603810190620003e391906200288b565b62001561565b604051620003f8919062002f17565b60405180910390f35b6200040b6200158f565b005b6200042b6004803603810190620004259190620026e8565b62001620565b6040516200043a919062002b8c565b60405180910390f35b6200046160048036038101906200045b9190620026e8565b62001660565b60405162000470919062002f17565b60405180910390f35b620004976004803603810190620004919190620026e8565b62001680565b604051620004a6919062002b8c565b60405180910390f35b620004b9620016c0565b604051620004c8919062002b8c565b60405180910390f35b620004ef6004803603810190620004e99190620026e8565b620016e9565b604051620004fe919062002f17565b60405180910390f35b6200052560048036038101906200051f9190620026e8565b62001783565b60405162000534919062002d28565b60405180910390f35b6200055b600480360381019062000555919062002781565b620017b0565b005b6200057b6004803603810190620005759190620026e8565b62001913565b6040516200058a919062002f17565b60405180910390f35b6200059d62001933565b604051620005ac919062002f17565b60405180910390f35b620005d36004803603810190620005cd9190620026e8565b6200193d565b604051620005e2919062002f17565b60405180910390f35b6200060960048036038101906200060391906200288b565b6200195d565b005b620006296004803603810190620006239190620028cc565b6200196e565b005b62000649600480360381019062000643919062002781565b62001c23565b005b62000669600480360381019062000663919062002740565b62001d88565b60405162000678919062002f17565b60405180910390f35b6200069f600480360381019062000699919062002740565b62001e30565b604051620006ae919062002f17565b60405180910390f35b620006d56004803603810190620006cf91906200288b565b62001e8b565b005b620006f56004803603810190620006ef9190620028cc565b62001e9c565b005b6200071560048036038101906200070f919062002589565b62002151565b005b6200073560048036038101906200072f9190620026e8565b62002255565b60405162000744919062002d28565b60405180910390f35b6000806003600084815260200190815260200160002060080154846200077491906200307a565b90508091505092915050565b60006200078c620023a2565b60025481606001818152505033816080019073ffffffffffffffffffffffffffffffffffffffff16908173ffffffffffffffffffffffffffffffffffffffff1681525050848160c0019073ffffffffffffffffffffffffffffffffffffffff16908173ffffffffffffffffffffffffffffffffffffffff1681525050838160a0018181525050600181610100018181525050600181610120019015159081151581525050600181604001901515908115158152505080600360006002548152602001908152602001600020600082015181600001556020820151816001015560408201518160020160006101000a81548160ff0219169083151502179055506060820151816003015560808201518160040160006101000a81548173ffffffffffffffffffffffffffffffffffffffff021916908373ffffffffffffffffffffffffffffffffffffffff16021790555060a0820151816005015560c08201518160060160006101000a81548173ffffffffffffffffffffffffffffffffffffffff021916908373ffffffffffffffffffffffffffffffffffffffff16021790555060e08201518160070160006101000a81548173ffffffffffffffffffffffffffffffffffffffff021916908373ffffffffffffffffffffffffffffffffffffffff16021790555061010082015181600801556101208201518160090160006101000a81548160ff021916908315150217905550905050600560008260c0015173ffffffffffffffffffffffffffffffffffffffff1673ffffffffffffffffffffffffffffffffffffffff168152602001908152602001600020816060015190806001815401808255809150506001900390600052602060002001600090919091909150556001600660008360c0015173ffffffffffffffffffffffffffffffffffffffff1673ffffffffffffffffffffffffffffffffffffffff168152602001908152602001600020600082825462000a67919062002fe5565b925050819055507f935d05cbf9fa27cbf03a09eb57f4384da509a8e34d406b8b8e1c21b249e25c168160c001518260a001518360600151846080015160405162000ab5949392919062002c6e565b60405180910390a160016002600082825462000ad2919062002fe5565b9250508190555063150b7a0260e01b915050949350505050565b600062000af98462001680565b90508073ffffffffffffffffffffffffffffffffffffffff1663ca56c18a8430856040518463ffffffff1660e01b815260040162000b3a9392919062002ba9565b600060405180830381600087803b15801562000b5557600080fd5b505af115801562000b6a573d6000803e3d6000fd5b5050505050505050565b62000b7f82620016e9565b62000b8b838362001e30565b1462000bce576040517f08c379a000000000000000000000000000000000000000000000000000000000815260040162000bc59062002da1565b60405180910390fd5b62000bd98262002255565b1562000c7257600062000bec8362001620565b90508073ffffffffffffffffffffffffffffffffffffffff166323b872dd308462000c178762001660565b6040518463ffffffff1660e01b815260040162000c379392919062002ba9565b600060405180830381600087803b15801562000c5257600080fd5b505af115801562000c67573d6000803e3d6000fd5b505050505062000cde565b7f76a0fab679374dab1ee841100d0531e687faff72d4d5a449c25134cf0321dcb58162000c9f8462001660565b8462000cab8662001913565b62000cb68762001620565b62000cc1886200193d565b60405162000cd59695949392919062002cbb565b60405180910390a15b6001600660006003600086815260200190815260200160002060060160009054906101000a900473ffffffffffffffffffffffffffffffffffffffff1673ffffffffffffffffffffffffffffffffffffffff1673ffffffffffffffffffffffffffffffffffffffff168152602001908152602001600020600082825462000d669190620030db565b925050819055505050565b6000600160025462000d849190620030db565b905090565b6000600660008373ffffffffffffffffffffffffffffffffffffffff1673ffffffffffffffffffffffffffffffffffffffff168152602001908152602001600020549050919050565b60003373ffffffffffffffffffffffffffffffffffffffff166003600085815260200190815260200160002060060160009054906101000a900473ffffffffffffffffffffffffffffffffffffffff1673ffffffffffffffffffffffffffffffffffffffff161462000e7b576040517f08c379a000000000000000000000000000000000000000000000000000000000815260040162000e729062002e8f565b60405180910390fd5b600073ffffffffffffffffffffffffffffffffffffffff166003600085815260200190815260200160002060070160009054906101000a900473ffffffffffffffffffffffffffffffffffffffff1673ffffffffffffffffffffffffffffffffffffffff161462000f23576040517f08c379a000000000000000000000000000000000000000000000000000000000815260040162000f1a9062002e29565b60405180910390fd5b600062000f333088888862002282565b90508073ffffffffffffffffffffffffffffffffffffffff1663095ea7b330856040518363ffffffff1660e01b815260040162000f7292919062002be6565b602060405180830381600087803b15801562000f8d57600080fd5b505af115801562000fa2573d6000803e3d6000fd5b505050506040513d601f19601f8201168201806040525081019062000fc89190620026bc565b508073ffffffffffffffffffffffffffffffffffffffff1663a9059cbb6003600087815260200190815260200160002060060160009054906101000a900473ffffffffffffffffffffffffffffffffffffffff16856040518363ffffffff1660e01b81526004016200103c92919062002be6565b602060405180830381600087803b1580156200105757600080fd5b505af11580156200106c573d6000803e3d6000fd5b505050506040513d601f19601f82011682018060405250810190620010929190620026bc565b50806003600086815260200190815260200160002060070160006101000a81548173ffffffffffffffffffffffffffffffffffffffff021916908373ffffffffffffffffffffffffffffffffffffffff1602179055508091505095945050505050565b60006003600083815260200190815260200160002060040160009054906101000a900473ffffffffffffffffffffffffffffffffffffffff169050919050565b6000600160009054906101000a900473ffffffffffffffffffffffffffffffffffffffff16905090565b62001169620022d6565b73ffffffffffffffffffffffffffffffffffffffff1662001189620016c0565b73ffffffffffffffffffffffffffffffffffffffff1614620011e2576040517f08c379a0000000000000000000000000000000000000000000000000000000008152600401620011d99062002e4b565b60405180910390fd5b620011ec620023a2565b60025481606001818152505082816080019073ffffffffffffffffffffffffffffffffffffffff16908173ffffffffffffffffffffffffffffffffffffffff1681525050858160c0019073ffffffffffffffffffffffffffffffffffffffff16908173ffffffffffffffffffffffffffffffffffffffff1681525050848160a00181815250506001816101000181815250506001816101200190151590811515815250508181600001818152505083816020018181525050600081604001901515908115158152505080600360006002548152602001908152602001600020600082015181600001556020820151816001015560408201518160020160006101000a81548160ff0219169083151502179055506060820151816003015560808201518160040160006101000a81548173ffffffffffffffffffffffffffffffffffffffff021916908373ffffffffffffffffffffffffffffffffffffffff16021790555060a0820151816005015560c08201518160060160006101000a81548173ffffffffffffffffffffffffffffffffffffffff021916908373ffffffffffffffffffffffffffffffffffffffff16021790555060e08201518160070160006101000a81548173ffffffffffffffffffffffffffffffffffffffff021916908373ffffffffffffffffffffffffffffffffffffffff16021790555061010082015181600801556101208201518160090160006101000a81548160ff021916908315150217905550905050600560008260c0015173ffffffffffffffffffffffffffffffffffffffff1673ffffffffffffffffffffffffffffffffffffffff168152602001908152602001600020816060015190806001815401808255809150506001900390600052602060002001600090919091909150556001600660008360c0015173ffffffffffffffffffffffffffffffffffffffff1673ffffffffffffffffffffffffffffffffffffffff1681526020019081526020016000206000828254620014db919062002fe5565b925050819055507fc5117017542cd2066296045c1cadec88af60d3c7d575eb1971351d3e1927167a8160c001518260a001518360600151846020015185608001518660000151604051620015359695949392919062002cbb565b60405180910390a160016002600082825462001552919062002fe5565b92505081905550505050505050565b600060036000838152602001908152602001600020600801548362001587919062003042565b905092915050565b62001599620022d6565b73ffffffffffffffffffffffffffffffffffffffff16620015b9620016c0565b73ffffffffffffffffffffffffffffffffffffffff161462001612576040517f08c379a0000000000000000000000000000000000000000000000000000000008152600401620016099062002e4b565b60405180910390fd5b6200161e6000620022de565b565b60006003600083815260200190815260200160002060040160009054906101000a900473ffffffffffffffffffffffffffffffffffffffff169050919050565b600060036000838152602001908152602001600020600501549050919050565b60006003600083815260200190815260200160002060070160009054906101000a900473ffffffffffffffffffffffffffffffffffffffff169050919050565b60008060009054906101000a900473ffffffffffffffffffffffffffffffffffffffff16905090565b600080620016f78362001680565b90508073ffffffffffffffffffffffffffffffffffffffff166318160ddd6040518163ffffffff1660e01b815260040160206040518083038186803b1580156200174057600080fd5b505afa15801562001755573d6000803e3d6000fd5b505050506040513d601f19601f820116820180604052508101906200177b919062002714565b915050919050565b60006003600083815260200190815260200160002060090160009054906101000a900460ff169050919050565b620017bc838362001e30565b81111562001801576040517f08c379a0000000000000000000000000000000000000000000000000000000008152600401620017f89062002de5565b60405180910390fd5b80600460008473ffffffffffffffffffffffffffffffffffffffff1673ffffffffffffffffffffffffffffffffffffffff16815260200190815260200160002060008581526020019081526020016000206000828254620018639190620030db565b925050819055506000620018778462001680565b90508073ffffffffffffffffffffffffffffffffffffffff1663a9059cbb84846040518363ffffffff1660e01b8152600401620018b692919062002be6565b602060405180830381600087803b158015620018d157600080fd5b505af1158015620018e6573d6000803e3d6000fd5b505050506040513d601f19601f820116820180604052508101906200190c9190620026bc565b5050505050565b600060036000838152602001908152602001600020600101549050919050565b6000600254905090565b600060036000838152602001908152602001600020600001549050919050565b6200196a82823362001e9c565b5050565b60006200197b8462001680565b905060006200198962001135565b905060006200199985876200074d565b9050848373ffffffffffffffffffffffffffffffffffffffff166370a08231306040518263ffffffff1660e01b8152600401620019d7919062002b8c565b60206040518083038186803b158015620019f057600080fd5b505afa15801562001a05573d6000803e3d6000fd5b505050506040513d601f19601f8201168201806040525081019062001a2b919062002714565b101562001a6f576040517f08c379a000000000000000000000000000000000000000000000000000000000815260040162001a669062002ef5565b60405180910390fd5b8173ffffffffffffffffffffffffffffffffffffffff166323b872dd8530846040518463ffffffff1660e01b815260040162001aae9392919062002ba9565b602060405180830381600087803b15801562001ac957600080fd5b505af115801562001ade573d6000803e3d6000fd5b505050506040513d601f19601f8201168201806040525081019062001b049190620026bc565b62001b46576040517f08c379a000000000000000000000000000000000000000000000000000000000815260040162001b3d9062002e07565b60405180910390fd5b8273ffffffffffffffffffffffffffffffffffffffff1663a9059cbb85876040518363ffffffff1660e01b815260040162001b8392919062002be6565b602060405180830381600087803b15801562001b9e57600080fd5b505af115801562001bb3573d6000803e3d6000fd5b505050506040513d601f19601f8201168201806040525081019062001bd99190620026bc565b62001c1b576040517f08c379a000000000000000000000000000000000000000000000000000000000815260040162001c129062002d7f565b60405180910390fd5b505050505050565b8062001c30848462001d88565b101562001c74576040517f08c379a000000000000000000000000000000000000000000000000000000000815260040162001c6b9062002eb1565b60405180910390fd5b600062001c818462001680565b90508073ffffffffffffffffffffffffffffffffffffffff166323b872dd8430856040518463ffffffff1660e01b815260040162001cc29392919062002ba9565b602060405180830381600087803b15801562001cdd57600080fd5b505af115801562001cf2573d6000803e3d6000fd5b505050506040513d601f19601f8201168201806040525081019062001d189190620026bc565b5081600460008573ffffffffffffffffffffffffffffffffffffffff1673ffffffffffffffffffffffffffffffffffffffff1681526020019081526020016000206000868152602001908152602001600020600082825462001d7b919062002fe5565b9250508190555050505050565b60008062001d968462001680565b90508073ffffffffffffffffffffffffffffffffffffffff166370a08231846040518263ffffffff1660e01b815260040162001dd3919062002b8c565b60206040518083038186803b15801562001dec57600080fd5b505afa15801562001e01573d6000803e3d6000fd5b505050506040513d601f19601f8201168201806040525081019062001e27919062002714565b91505092915050565b6000600460008373ffffffffffffffffffffffffffffffffffffffff1673ffffffffffffffffffffffffffffffffffffffff168152602001908152602001600020600084815260200190815260200160002054905092915050565b62001e988282336200196e565b5050565b600062001ea98462001680565b9050600062001eb762001135565b9050600062001ec785876200074d565b9050848373ffffffffffffffffffffffffffffffffffffffff166370a08231866040518263ffffffff1660e01b815260040162001f05919062002b8c565b60206040518083038186803b15801562001f1e57600080fd5b505afa15801562001f33573d6000803e3d6000fd5b505050506040513d601f19601f8201168201806040525081019062001f59919062002714565b101562001f9d576040517f08c379a000000000000000000000000000000000000000000000000000000000815260040162001f949062002ed3565b60405180910390fd5b8273ffffffffffffffffffffffffffffffffffffffff166323b872dd8530886040518463ffffffff1660e01b815260040162001fdc9392919062002ba9565b602060405180830381600087803b15801562001ff757600080fd5b505af11580156200200c573d6000803e3d6000fd5b505050506040513d601f19601f82011682018060405250810190620020329190620026bc565b62002074576040517f08c379a00000000000000000000000000000000000000000000000000000000081526004016200206b9062002e6d565b60405180910390fd5b8173ffffffffffffffffffffffffffffffffffffffff1663a9059cbb85836040518363ffffffff1660e01b8152600401620020b192919062002be6565b602060405180830381600087803b158015620020cc57600080fd5b505af1158015620020e1573d6000803e3d6000fd5b505050506040513d601f19601f82011682018060405250810190620021079190620026bc565b62002149576040517f08c379a0000000000000000000000000000000000000000000000000000000008152600401620021409062002e07565b60405180910390fd5b505050505050565b6200215b620022d6565b73ffffffffffffffffffffffffffffffffffffffff166200217b620016c0565b73ffffffffffffffffffffffffffffffffffffffff1614620021d4576040517f08c379a0000000000000000000000000000000000000000000000000000000008152600401620021cb9062002e4b565b60405180910390fd5b600073ffffffffffffffffffffffffffffffffffffffff168173ffffffffffffffffffffffffffffffffffffffff16141562002247576040517f08c379a00000000000000000000000000000000000000000000000000000000081526004016200223e9062002dc3565b60405180910390fd5b6200225281620022de565b50565b60006003600083815260200190815260200160002060020160009054906101000a900460ff169050919050565b600060606000868686866040516200229a906200243b565b620022a9949392919062002c13565b604051809103906000f080158015620022c6573d6000803e3d6000fd5b5090508092505050949350505050565b600033905090565b60008060009054906101000a900473ffffffffffffffffffffffffffffffffffffffff169050816000806101000a81548173ffffffffffffffffffffffffffffffffffffffff021916908373ffffffffffffffffffffffffffffffffffffffff1602179055508173ffffffffffffffffffffffffffffffffffffffff168173ffffffffffffffffffffffffffffffffffffffff167f8be0079c531659141344cd1fd0a4f28419497f9722a3daafe3b4186f6b6457e060405160405180910390a35050565b604051806101400160405280600081526020016000815260200160001515815260200160008152602001600073ffffffffffffffffffffffffffffffffffffffff16815260200160008152602001600073ffffffffffffffffffffffffffffffffffffffff168152602001600073ffffffffffffffffffffffffffffffffffffffff168152602001600081526020016000151581525090565b61265d80620035ec83390190565b6000620024606200245a8462002f5d565b62002f34565b9050828152602081018484840111156200247957600080fd5b62002486848285620031b4565b509392505050565b6000620024a56200249f8462002f93565b62002f34565b905082815260208101848484011115620024be57600080fd5b620024cb848285620031b4565b509392505050565b600081359050620024e4816200359d565b92915050565b600081519050620024fb81620035b7565b92915050565b600082601f8301126200251357600080fd5b81356200252584826020860162002449565b91505092915050565b600082601f8301126200254057600080fd5b8135620025528482602086016200248e565b91505092915050565b6000813590506200256c81620035d1565b92915050565b6000815190506200258381620035d1565b92915050565b6000602082840312156200259c57600080fd5b6000620025ac84828501620024d3565b91505092915050565b60008060008060808587031215620025cc57600080fd5b6000620025dc87828801620024d3565b9450506020620025ef87828801620024d3565b935050604062002602878288016200255b565b925050606085013567ffffffffffffffff8111156200262057600080fd5b6200262e8782880162002501565b91505092959194509250565b600080600080600060a086880312156200265357600080fd5b60006200266388828901620024d3565b955050602062002676888289016200255b565b945050604062002689888289016200255b565b93505060606200269c88828901620024d3565b9250506080620026af888289016200255b565b9150509295509295909350565b600060208284031215620026cf57600080fd5b6000620026df84828501620024ea565b91505092915050565b600060208284031215620026fb57600080fd5b60006200270b848285016200255b565b91505092915050565b6000602082840312156200272757600080fd5b6000620027378482850162002572565b91505092915050565b600080604083850312156200275457600080fd5b600062002764858286016200255b565b92505060206200277785828601620024d3565b9150509250929050565b6000806000606084860312156200279757600080fd5b6000620027a7868287016200255b565b9350506020620027ba86828701620024d3565b9250506040620027cd868287016200255b565b9150509250925092565b600080600080600060a08688031215620027f057600080fd5b600062002800888289016200255b565b955050602086013567ffffffffffffffff8111156200281e57600080fd5b6200282c888289016200252e565b945050604086013567ffffffffffffffff8111156200284a57600080fd5b62002858888289016200252e565b93505060606200286b888289016200255b565b92505060806200287e888289016200255b565b9150509295509295909350565b600080604083850312156200289f57600080fd5b6000620028af858286016200255b565b9250506020620028c2858286016200255b565b9150509250929050565b600080600060608486031215620028e257600080fd5b6000620028f2868287016200255b565b935050602062002905868287016200255b565b92505060406200291886828701620024d3565b9150509250925092565b6200292d8162003116565b82525050565b6200293e816200312a565b82525050565b6200294f8162003136565b82525050565b62002960816200318c565b82525050565b6000620029738262002fc9565b6200297f818562002fd4565b935062002991818560208601620031c3565b6200299c81620032bc565b840191505092915050565b6000620029b6601d8362002fd4565b9150620029c382620032cd565b602082019050919050565b6000620029dd60378362002fd4565b9150620029ea82620032f6565b604082019050919050565b600062002a0460268362002fd4565b915062002a118262003345565b604082019050919050565b600062002a2b60208362002fd4565b915062002a388262003394565b602082019050919050565b600062002a5260178362002fd4565b915062002a5f82620033bd565b602082019050919050565b600062002a7960298362002fd4565b915062002a8682620033e6565b604082019050919050565b600062002aa060208362002fd4565b915062002aad8262003435565b602082019050919050565b600062002ac7601d8362002fd4565b915062002ad4826200345e565b602082019050919050565b600062002aee601d8362002fd4565b915062002afb8262003487565b602082019050919050565b600062002b1560218362002fd4565b915062002b2282620034b0565b604082019050919050565b600062002b3c60228362002fd4565b915062002b4982620034ff565b604082019050919050565b600062002b6360278362002fd4565b915062002b70826200354e565b604082019050919050565b62002b868162003182565b82525050565b600060208201905062002ba3600083018462002922565b92915050565b600060608201905062002bc0600083018662002922565b62002bcf602083018562002922565b62002bde604083018462002b7b565b949350505050565b600060408201905062002bfd600083018562002922565b62002c0c602083018462002b7b565b9392505050565b600060808201905062002c2a600083018762002922565b62002c39602083018662002b7b565b818103604083015262002c4d818562002966565b9050818103606083015262002c63818462002966565b905095945050505050565b600060808201905062002c85600083018762002922565b62002c94602083018662002b7b565b62002ca3604083018562002b7b565b62002cb2606083018462002922565b95945050505050565b600060c08201905062002cd2600083018962002922565b62002ce1602083018862002b7b565b62002cf0604083018762002b7b565b62002cff606083018662002b7b565b62002d0e608083018562002922565b62002d1d60a083018462002b7b565b979650505050505050565b600060208201905062002d3f600083018462002933565b92915050565b600060208201905062002d5c600083018462002944565b92915050565b600060208201905062002d79600083018462002955565b92915050565b6000602082019050818103600083015262002d9a81620029a7565b9050919050565b6000602082019050818103600083015262002dbc81620029ce565b9050919050565b6000602082019050818103600083015262002dde81620029f5565b9050919050565b6000602082019050818103600083015262002e008162002a1c565b9050919050565b6000602082019050818103600083015262002e228162002a43565b9050919050565b6000602082019050818103600083015262002e448162002a6a565b9050919050565b6000602082019050818103600083015262002e668162002a91565b9050919050565b6000602082019050818103600083015262002e888162002ab8565b9050919050565b6000602082019050818103600083015262002eaa8162002adf565b9050919050565b6000602082019050818103600083015262002ecc8162002b06565b9050919050565b6000602082019050818103600083015262002eee8162002b2d565b9050919050565b6000602082019050818103600083015262002f108162002b54565b9050919050565b600060208201905062002f2e600083018462002b7b565b92915050565b600062002f4062002f53565b905062002f4e8282620031f9565b919050565b6000604051905090565b600067ffffffffffffffff82111562002f7b5762002f7a6200328d565b5b62002f8682620032bc565b9050602081019050919050565b600067ffffffffffffffff82111562002fb15762002fb06200328d565b5b62002fbc82620032bc565b9050602081019050919050565b600081519050919050565b600082825260208201905092915050565b600062002ff28262003182565b915062002fff8362003182565b9250827fffffffffffffffffffffffffffffffffffffffffffffffffffffffffffffffff038211156200303757620030366200322f565b5b828201905092915050565b60006200304f8262003182565b91506200305c8362003182565b9250826200306f576200306e6200325e565b5b828204905092915050565b6000620030878262003182565b9150620030948362003182565b9250817fffffffffffffffffffffffffffffffffffffffffffffffffffffffffffffffff0483118215151615620030d057620030cf6200322f565b5b828202905092915050565b6000620030e88262003182565b9150620030f58362003182565b9250828210156200310b576200310a6200322f565b5b828203905092915050565b6000620031238262003162565b9050919050565b60008115159050919050565b60007fffffffff0000000000000000000000000000000000000000000000000000000082169050919050565b600073ffffffffffffffffffffffffffffffffffffffff82169050919050565b6000819050919050565b60006200319982620031a0565b9050919050565b6000620031ad8262003162565b9050919050565b82818337600083830152505050565b60005b83811015620031e3578082015181840152602081019050620031c6565b83811115620031f3576000848401525b50505050565b6200320482620032bc565b810181811067ffffffffffffffff821117156200322657620032256200328d565b5b80604052505050565b7f4e487b7100000000000000000000000000000000000000000000000000000000600052601160045260246000fd5b7f4e487b7100000000000000000000000000000000000000000000000000000000600052601260045260246000fd5b7f4e487b7100000000000000000000000000000000000000000000000000000000600052604160045260246000fd5b6000601f19601f8301169050919050565b7f5472616e73666572206f66204652414320746f6b656e206661696c6564000000600082015250565b7f596f752068617665206e6f74206465706f736974656420414c4c206f6620746860008201527f65206672616374696f6e616c697a656420746f6b656e73000000000000000000602082015250565b7f4f776e61626c653a206e6577206f776e657220697320746865207a65726f206160008201527f6464726573730000000000000000000000000000000000000000000000000000602082015250565b7f596f7520646f206e6f7420686176652074686174206d616e7920746f6b656e73600082015250565b7f5472616e73666572206f662077457468206661696c6564000000000000000000600082015250565b7f54686973204e46542068617320616c7265616479206265656e2066726163746960008201527f6f6e616c697a65642e0000000000000000000000000000000000000000000000602082015250565b7f4f776e61626c653a2063616c6c6572206973206e6f7420746865206f776e6572600082015250565b7f5472616e73666572206f66206672616320746f6b656e206661696c6564000000600082015250565b7f596f7520646964206e6f74206465706f7369742074686973204e46542e000000600082015250565b7f596f7520646f206e6f7420686176652074686174206d616e7920746f6b656e7360008201527f2e00000000000000000000000000000000000000000000000000000000000000602082015250565b7f596f7520646f206e6f74206861766520656e6f756768206672616320746f6b6560008201527f6e73000000000000000000000000000000000000000000000000000000000000602082015250565b7f546865726520617265206e6f7420656e6f756768204652414320746f6b656e7360008201527f20746f2062757900000000000000000000000000000000000000000000000000602082015250565b620035a88162003116565b8114620035b457600080fd5b50565b620035c2816200312a565b8114620035ce57600080fd5b50565b620035dc8162003182565b8114620035e857600080fd5b5056fe60806040523480156200001157600080fd5b506040516200265d3803806200265d83398181016040528101906200003791906200044a565b8181816003908051906020019062000051929190620002fa565b5080600490805190602001906200006a929190620002fa565b5050506200008d62000081620000a960201b60201c565b620000b160201b60201c565b6200009f84846200017760201b60201c565b5050505062000807565b600033905090565b6000600560009054906101000a900473ffffffffffffffffffffffffffffffffffffffff16905081600560006101000a81548173ffffffffffffffffffffffffffffffffffffffff021916908373ffffffffffffffffffffffffffffffffffffffff1602179055508173ffffffffffffffffffffffffffffffffffffffff168173ffffffffffffffffffffffffffffffffffffffff167f8be0079c531659141344cd1fd0a4f28419497f9722a3daafe3b4186f6b6457e060405160405180910390a35050565b600073ffffffffffffffffffffffffffffffffffffffff168273ffffffffffffffffffffffffffffffffffffffff161415620001ea576040517f08c379a0000000000000000000000000000000000000000000000000000000008152600401620001e19062000520565b60405180910390fd5b620001fe60008383620002f060201b60201c565b8060026000828254620002129190620005cf565b92505081905550806000808473ffffffffffffffffffffffffffffffffffffffff1673ffffffffffffffffffffffffffffffffffffffff1681526020019081526020016000206000828254620002699190620005cf565b925050819055508173ffffffffffffffffffffffffffffffffffffffff16600073ffffffffffffffffffffffffffffffffffffffff167fddf252ad1be2c89b69c2b068fc378daa952ba7f163c4a11628f55a4df523b3ef83604051620002d0919062000542565b60405180910390a3620002ec60008383620002f560201b60201c565b5050565b505050565b505050565b8280546200030890620006a0565b90600052602060002090601f0160209004810192826200032c576000855562000378565b82601f106200034757805160ff191683800117855562000378565b8280016001018555821562000378579182015b82811115620003775782518255916020019190600101906200035a565b5b5090506200038791906200038b565b5090565b5b80821115620003a65760008160009055506001016200038c565b5090565b6000620003c1620003bb8462000588565b6200055f565b905082815260208101848484011115620003da57600080fd5b620003e78482856200066a565b509392505050565b6000815190506200040081620007d3565b92915050565b600082601f8301126200041857600080fd5b81516200042a848260208601620003aa565b91505092915050565b6000815190506200044481620007ed565b92915050565b600080600080608085870312156200046157600080fd5b60006200047187828801620003ef565b9450506020620004848782880162000433565b935050604085015167ffffffffffffffff811115620004a257600080fd5b620004b08782880162000406565b925050606085015167ffffffffffffffff811115620004ce57600080fd5b620004dc8782880162000406565b91505092959194509250565b6000620004f7601f83620005be565b91506200050482620007aa565b602082019050919050565b6200051a8162000660565b82525050565b600060208201905081810360008301526200053b81620004e8565b9050919050565b60006020820190506200055960008301846200050f565b92915050565b60006200056b6200057e565b9050620005798282620006d6565b919050565b6000604051905090565b600067ffffffffffffffff821115620005a657620005a56200076a565b5b620005b18262000799565b9050602081019050919050565b600082825260208201905092915050565b6000620005dc8262000660565b9150620005e98362000660565b9250827fffffffffffffffffffffffffffffffffffffffffffffffffffffffffffffffff038211156200062157620006206200070c565b5b828201905092915050565b6000620006398262000640565b9050919050565b600073ffffffffffffffffffffffffffffffffffffffff82169050919050565b6000819050919050565b60005b838110156200068a5780820151818401526020810190506200066d565b838111156200069a576000848401525b50505050565b60006002820490506001821680620006b957607f821691505b60208210811415620006d057620006cf6200073b565b5b50919050565b620006e18262000799565b810181811067ffffffffffffffff821117156200070357620007026200076a565b5b80604052505050565b7f4e487b7100000000000000000000000000000000000000000000000000000000600052601160045260246000fd5b7f4e487b7100000000000000000000000000000000000000000000000000000000600052602260045260246000fd5b7f4e487b7100000000000000000000000000000000000000000000000000000000600052604160045260246000fd5b6000601f19601f8301169050919050565b7f45524332303a206d696e7420746f20746865207a65726f206164647265737300600082015250565b620007de816200062c565b8114620007ea57600080fd5b50565b620007f88162000660565b81146200080457600080fd5b50565b611e4680620008176000396000f3fe608060405234801561001057600080fd5b506004361061010b5760003560e01c8063715018a6116100a2578063a457c2d711610071578063a457c2d7146102a8578063a9059cbb146102d8578063ca56c18a14610308578063dd62ed3e14610324578063f2fde38b146103545761010b565b8063715018a6146102465780638da5cb5b1461025057806395d89b411461026e5780639dc29fac1461028c5761010b565b8063313ce567116100de578063313ce567146101ac57806339509351146101ca57806340c10f19146101fa57806370a08231146102165761010b565b806306fdde0314610110578063095ea7b31461012e57806318160ddd1461015e57806323b872dd1461017c575b600080fd5b610118610370565b60405161012591906116d3565b60405180910390f35b61014860048036038101906101439190611448565b610402565b60405161015591906116b8565b60405180910390f35b610166610420565b6040516101739190611875565b60405180910390f35b610196600480360381019061019191906113f9565b61042a565b6040516101a391906116b8565b60405180910390f35b6101b4610522565b6040516101c19190611890565b60405180910390f35b6101e460048036038101906101df9190611448565b61052b565b6040516101f191906116b8565b60405180910390f35b610214600480360381019061020f9190611448565b6105d7565b005b610230600480360381019061022b9190611394565b610661565b60405161023d9190611875565b60405180910390f35b61024e6106a9565b005b610258610731565b604051610265919061169d565b60405180910390f35b61027661075b565b60405161028391906116d3565b60405180910390f35b6102a660048036038101906102a19190611448565b6107ed565b005b6102c260048036038101906102bd9190611448565b610877565b6040516102cf91906116b8565b60405180910390f35b6102f260048036038101906102ed9190611448565b610962565b6040516102ff91906116b8565b60405180910390f35b610322600480360381019061031d91906113f9565b610980565b005b61033e600480360381019061033991906113bd565b610990565b60405161034b9190611875565b60405180910390f35b61036e60048036038101906103699190611394565b610a17565b005b60606003805461037f906119d9565b80601f01602080910402602001604051908101604052809291908181526020018280546103ab906119d9565b80156103f85780601f106103cd576101008083540402835291602001916103f8565b820191906000526020600020905b8154815290600101906020018083116103db57829003601f168201915b5050505050905090565b600061041661040f610b0f565b8484610b17565b6001905092915050565b6000600254905090565b6000610437848484610ce2565b6000600160008673ffffffffffffffffffffffffffffffffffffffff1673ffffffffffffffffffffffffffffffffffffffff1681526020019081526020016000206000610482610b0f565b73ffffffffffffffffffffffffffffffffffffffff1673ffffffffffffffffffffffffffffffffffffffff16815260200190815260200160002054905082811015610502576040517f08c379a00000000000000000000000000000000000000000000000000000000081526004016104f990611795565b60405180910390fd5b6105168561050e610b0f565b858403610b17565b60019150509392505050565b60006012905090565b60006105cd610538610b0f565b848460016000610546610b0f565b73ffffffffffffffffffffffffffffffffffffffff1673ffffffffffffffffffffffffffffffffffffffff16815260200190815260200160002060008873ffffffffffffffffffffffffffffffffffffffff1673ffffffffffffffffffffffffffffffffffffffff168152602001908152602001600020546105c891906118c7565b610b17565b6001905092915050565b6105df610b0f565b73ffffffffffffffffffffffffffffffffffffffff166105fd610731565b73ffffffffffffffffffffffffffffffffffffffff1614610653576040517f08c379a000000000000000000000000000000000000000000000000000000000815260040161064a906117b5565b60405180910390fd5b61065d8282610f63565b5050565b60008060008373ffffffffffffffffffffffffffffffffffffffff1673ffffffffffffffffffffffffffffffffffffffff168152602001908152602001600020549050919050565b6106b1610b0f565b73ffffffffffffffffffffffffffffffffffffffff166106cf610731565b73ffffffffffffffffffffffffffffffffffffffff1614610725576040517f08c379a000000000000000000000000000000000000000000000000000000000815260040161071c906117b5565b60405180910390fd5b61072f60006110c3565b565b6000600560009054906101000a900473ffffffffffffffffffffffffffffffffffffffff16905090565b60606004805461076a906119d9565b80601f0160208091040260200160405190810160405280929190818152602001828054610796906119d9565b80156107e35780601f106107b8576101008083540402835291602001916107e3565b820191906000526020600020905b8154815290600101906020018083116107c657829003601f168201915b5050505050905090565b6107f5610b0f565b73ffffffffffffffffffffffffffffffffffffffff16610813610731565b73ffffffffffffffffffffffffffffffffffffffff1614610869576040517f08c379a0000000000000000000000000000000000000000000000000000000008152600401610860906117b5565b60405180910390fd5b6108738282611189565b5050565b60008060016000610886610b0f565b73ffffffffffffffffffffffffffffffffffffffff1673ffffffffffffffffffffffffffffffffffffffff16815260200190815260200160002060008573ffffffffffffffffffffffffffffffffffffffff1673ffffffffffffffffffffffffffffffffffffffff16815260200190815260200160002054905082811015610943576040517f08c379a000000000000000000000000000000000000000000000000000000000815260040161093a90611835565b60405180910390fd5b61095761094e610b0f565b85858403610b17565b600191505092915050565b600061097661096f610b0f565b8484610ce2565b6001905092915050565b61098b838383610b17565b505050565b6000600160008473ffffffffffffffffffffffffffffffffffffffff1673ffffffffffffffffffffffffffffffffffffffff16815260200190815260200160002060008373ffffffffffffffffffffffffffffffffffffffff1673ffffffffffffffffffffffffffffffffffffffff16815260200190815260200160002054905092915050565b610a1f610b0f565b73ffffffffffffffffffffffffffffffffffffffff16610a3d610731565b73ffffffffffffffffffffffffffffffffffffffff1614610a93576040517f08c379a0000000000000000000000000000000000000000000000000000000008152600401610a8a906117b5565b60405180910390fd5b600073ffffffffffffffffffffffffffffffffffffffff168173ffffffffffffffffffffffffffffffffffffffff161415610b03576040517f08c379a0000000000000000000000000000000000000000000000000000000008152600401610afa90611735565b60405180910390fd5b610b0c816110c3565b50565b600033905090565b600073ffffffffffffffffffffffffffffffffffffffff168373ffffffffffffffffffffffffffffffffffffffff161415610b87576040517f08c379a0000000000000000000000000000000000000000000000000000000008152600401610b7e90611815565b60405180910390fd5b600073ffffffffffffffffffffffffffffffffffffffff168273ffffffffffffffffffffffffffffffffffffffff161415610bf7576040517f08c379a0000000000000000000000000000000000000000000000000000000008152600401610bee90611755565b60405180910390fd5b80600160008573ffffffffffffffffffffffffffffffffffffffff1673ffffffffffffffffffffffffffffffffffffffff16815260200190815260200160002060008473ffffffffffffffffffffffffffffffffffffffff1673ffffffffffffffffffffffffffffffffffffffff168152602001908152602001600020819055508173ffffffffffffffffffffffffffffffffffffffff168373ffffffffffffffffffffffffffffffffffffffff167f8c5be1e5ebec7d5bd14f71427d1e84f3dd0314c0f7b2291e5b200ac8c7c3b92583604051610cd59190611875565b60405180910390a3505050565b600073ffffffffffffffffffffffffffffffffffffffff168373ffffffffffffffffffffffffffffffffffffffff161415610d52576040517f08c379a0000000000000000000000000000000000000000000000000000000008152600401610d49906117f5565b60405180910390fd5b600073ffffffffffffffffffffffffffffffffffffffff168273ffffffffffffffffffffffffffffffffffffffff161415610dc2576040517f08c379a0000000000000000000000000000000000000000000000000000000008152600401610db9906116f5565b60405180910390fd5b610dcd838383611360565b60008060008573ffffffffffffffffffffffffffffffffffffffff1673ffffffffffffffffffffffffffffffffffffffff16815260200190815260200160002054905081811015610e53576040517f08c379a0000000000000000000000000000000000000000000000000000000008152600401610e4a90611775565b60405180910390fd5b8181036000808673ffffffffffffffffffffffffffffffffffffffff1673ffffffffffffffffffffffffffffffffffffffff16815260200190815260200160002081905550816000808573ffffffffffffffffffffffffffffffffffffffff1673ffffffffffffffffffffffffffffffffffffffff1681526020019081526020016000206000828254610ee691906118c7565b925050819055508273ffffffffffffffffffffffffffffffffffffffff168473ffffffffffffffffffffffffffffffffffffffff167fddf252ad1be2c89b69c2b068fc378daa952ba7f163c4a11628f55a4df523b3ef84604051610f4a9190611875565b60405180910390a3610f5d848484611365565b50505050565b600073ffffffffffffffffffffffffffffffffffffffff168273ffffffffffffffffffffffffffffffffffffffff161415610fd3576040517f08c379a0000000000000000000000000000000000000000000000000000000008152600401610fca90611855565b60405180910390fd5b610fdf60008383611360565b8060026000828254610ff191906118c7565b92505081905550806000808473ffffffffffffffffffffffffffffffffffffffff1673ffffffffffffffffffffffffffffffffffffffff168152602001908152602001600020600082825461104691906118c7565b925050819055508173ffffffffffffffffffffffffffffffffffffffff16600073ffffffffffffffffffffffffffffffffffffffff167fddf252ad1be2c89b69c2b068fc378daa952ba7f163c4a11628f55a4df523b3ef836040516110ab9190611875565b60405180910390a36110bf60008383611365565b5050565b6000600560009054906101000a900473ffffffffffffffffffffffffffffffffffffffff16905081600560006101000a81548173ffffffffffffffffffffffffffffffffffffffff021916908373ffffffffffffffffffffffffffffffffffffffff1602179055508173ffffffffffffffffffffffffffffffffffffffff168173ffffffffffffffffffffffffffffffffffffffff167f8be0079c531659141344cd1fd0a4f28419497f9722a3daafe3b4186f6b6457e060405160405180910390a35050565b600073ffffffffffffffffffffffffffffffffffffffff168273ffffffffffffffffffffffffffffffffffffffff1614156111f9576040517f08c379a00000000000000000000000000000000000000000000000000000000081526004016111f0906117d5565b60405180910390fd5b61120582600083611360565b60008060008473ffffffffffffffffffffffffffffffffffffffff1673ffffffffffffffffffffffffffffffffffffffff1681526020019081526020016000205490508181101561128b576040517f08c379a000000000000000000000000000000000000000000000000000000000815260040161128290611715565b60405180910390fd5b8181036000808573ffffffffffffffffffffffffffffffffffffffff1673ffffffffffffffffffffffffffffffffffffffff1681526020019081526020016000208190555081600260008282546112e2919061191d565b92505081905550600073ffffffffffffffffffffffffffffffffffffffff168373ffffffffffffffffffffffffffffffffffffffff167fddf252ad1be2c89b69c2b068fc378daa952ba7f163c4a11628f55a4df523b3ef846040516113479190611875565b60405180910390a361135b83600084611365565b505050565b505050565b505050565b60008135905061137981611de2565b92915050565b60008135905061138e81611df9565b92915050565b6000602082840312156113a657600080fd5b60006113b48482850161136a565b91505092915050565b600080604083850312156113d057600080fd5b60006113de8582860161136a565b92505060206113ef8582860161136a565b9150509250929050565b60008060006060848603121561140e57600080fd5b600061141c8682870161136a565b935050602061142d8682870161136a565b925050604061143e8682870161137f565b9150509250925092565b6000806040838503121561145b57600080fd5b60006114698582860161136a565b925050602061147a8582860161137f565b9150509250929050565b61148d81611951565b82525050565b61149c81611963565b82525050565b60006114ad826118ab565b6114b781856118b6565b93506114c78185602086016119a6565b6114d081611a69565b840191505092915050565b60006114e86023836118b6565b91506114f382611a7a565b604082019050919050565b600061150b6022836118b6565b915061151682611ac9565b604082019050919050565b600061152e6026836118b6565b915061153982611b18565b604082019050919050565b60006115516022836118b6565b915061155c82611b67565b604082019050919050565b60006115746026836118b6565b915061157f82611bb6565b604082019050919050565b60006115976028836118b6565b91506115a282611c05565b604082019050919050565b60006115ba6020836118b6565b91506115c582611c54565b602082019050919050565b60006115dd6021836118b6565b91506115e882611c7d565b604082019050919050565b60006116006025836118b6565b915061160b82611ccc565b604082019050919050565b60006116236024836118b6565b915061162e82611d1b565b604082019050919050565b60006116466025836118b6565b915061165182611d6a565b604082019050919050565b6000611669601f836118b6565b915061167482611db9565b602082019050919050565b6116888161198f565b82525050565b61169781611999565b82525050565b60006020820190506116b26000830184611484565b92915050565b60006020820190506116cd6000830184611493565b92915050565b600060208201905081810360008301526116ed81846114a2565b905092915050565b6000602082019050818103600083015261170e816114db565b9050919050565b6000602082019050818103600083015261172e816114fe565b9050919050565b6000602082019050818103600083015261174e81611521565b9050919050565b6000602082019050818103600083015261176e81611544565b9050919050565b6000602082019050818103600083015261178e81611567565b9050919050565b600060208201905081810360008301526117ae8161158a565b9050919050565b600060208201905081810360008301526117ce816115ad565b9050919050565b600060208201905081810360008301526117ee816115d0565b9050919050565b6000602082019050818103600083015261180e816115f3565b9050919050565b6000602082019050818103600083015261182e81611616565b9050919050565b6000602082019050818103600083015261184e81611639565b9050919050565b6000602082019050818103600083015261186e8161165c565b9050919050565b600060208201905061188a600083018461167f565b92915050565b60006020820190506118a5600083018461168e565b92915050565b600081519050919050565b600082825260208201905092915050565b60006118d28261198f565b91506118dd8361198f565b9250827fffffffffffffffffffffffffffffffffffffffffffffffffffffffffffffffff0382111561191257611911611a0b565b5b828201905092915050565b60006119288261198f565b91506119338361198f565b92508282101561194657611945611a0b565b5b828203905092915050565b600061195c8261196f565b9050919050565b60008115159050919050565b600073ffffffffffffffffffffffffffffffffffffffff82169050919050565b6000819050919050565b600060ff82169050919050565b60005b838110156119c45780820151818401526020810190506119a9565b838111156119d3576000848401525b50505050565b600060028204905060018216806119f157607f821691505b60208210811415611a0557611a04611a3a565b5b50919050565b7f4e487b7100000000000000000000000000000000000000000000000000000000600052601160045260246000fd5b7f4e487b7100000000000000000000000000000000000000000000000000000000600052602260045260246000fd5b6000601f19601f8301169050919050565b7f45524332303a207472616e7366657220746f20746865207a65726f206164647260008201527f6573730000000000000000000000000000000000000000000000000000000000602082015250565b7f45524332303a206275726e20616d6f756e7420657863656564732062616c616e60008201527f6365000000000000000000000000000000000000000000000000000000000000602082015250565b7f4f776e61626c653a206e6577206f776e657220697320746865207a65726f206160008201527f6464726573730000000000000000000000000000000000000000000000000000602082015250565b7f45524332303a20617070726f766520746f20746865207a65726f20616464726560008201527f7373000000000000000000000000000000000000000000000000000000000000602082015250565b7f45524332303a207472616e7366657220616d6f756e742065786365656473206260008201527f616c616e63650000000000000000000000000000000000000000000000000000602082015250565b7f45524332303a207472616e7366657220616d6f756e742065786365656473206160008201527f6c6c6f77616e6365000000000000000000000000000000000000000000000000602082015250565b7f4f776e61626c653a2063616c6c6572206973206e6f7420746865206f776e6572600082015250565b7f45524332303a206275726e2066726f6d20746865207a65726f2061646472657360008201527f7300000000000000000000000000000000000000000000000000000000000000602082015250565b7f45524332303a207472616e736665722066726f6d20746865207a65726f20616460008201527f6472657373000000000000000000000000000000000000000000000000000000602082015250565b7f45524332303a20617070726f76652066726f6d20746865207a65726f2061646460008201527f7265737300000000000000000000000000000000000000000000000000000000602082015250565b7f45524332303a2064656372656173656420616c6c6f77616e63652062656c6f7760008201527f207a65726f000000000000000000000000000000000000000000000000000000602082015250565b7f45524332303a206d696e7420746f20746865207a65726f206164647265737300600082015250565b611deb81611951565b8114611df657600080fd5b50565b611e028161198f565b8114611e0d57600080fd5b5056fea2646970667358221220a2ea31a29a93a60fbd2609cd00aec00a0a331936def67946293f19994c81351364736f6c63430008040033a26469706673582212208326ac500ced3f0955f6734894007f16bce83a0efc90c67d838df9258d6575c464736f6c63430008040033",
  "linkReferences": {},
  "deployedLinkReferences": {}
}