{
  "_format": "hh-sol-artifact-1",
  "contractName": "Vault",
  "sourceName": "contracts/Vault.sol",
  "abi": [
    {
      "inputs": [
        {
          "internalType": "address",
          "name": "_wEthAddr",
          "type": "address"
        },
        {
          "internalType": "address",
          "name": "oracle",
          "type": "address"
        }
      ],
      "stateMutability": "nonpayable",
      "type": "constructor"
    },
    {
      "anonymous": false,
      "inputs": [
        {
          "indexed": true,
          "internalType": "address",
          "name": "previousOwner",
          "type": "address"
        },
        {
          "indexed": true,
          "internalType": "address",
          "name": "newOwner",
          "type": "address"
        }
      ],
      "name": "OwnershipTransferred",
      "type": "event"
    },
    {
      "anonymous": false,
      "inputs": [
        {
          "indexed": false,
          "internalType": "address",
          "name": "from",
          "type": "address"
        },
        {
          "indexed": false,
          "internalType": "uint256",
          "name": "tokenId",
          "type": "uint256"
        },
        {
          "indexed": false,
          "internalType": "uint256",
          "name": "internalId",
          "type": "uint256"
        },
        {
          "indexed": false,
          "internalType": "address",
          "name": "nftAddr",
          "type": "address"
        }
      ],
      "name": "Recieved",
      "type": "event"
    },
    {
      "anonymous": false,
      "inputs": [
        {
          "indexed": false,
          "internalType": "address",
          "name": "to",
          "type": "address"
        },
        {
          "indexed": false,
          "internalType": "uint256",
          "name": "tokenId",
          "type": "uint256"
        },
        {
          "indexed": false,
          "internalType": "uint256",
          "name": "internalId",
          "type": "uint256"
        },
        {
          "indexed": false,
          "internalType": "address",
          "name": "nftAddr",
          "type": "address"
        }
      ],
      "name": "Released",
      "type": "event"
    },
    {
      "anonymous": false,
      "inputs": [
        {
          "indexed": false,
          "internalType": "address",
          "name": "from",
          "type": "address"
        },
        {
          "indexed": false,
          "internalType": "uint256",
          "name": "tokenId",
          "type": "uint256"
        },
        {
          "indexed": false,
          "internalType": "uint256",
          "name": "internalId",
          "type": "uint256"
        },
        {
          "indexed": false,
          "internalType": "uint256",
          "name": "xChainInternalId",
          "type": "uint256"
        },
        {
          "indexed": false,
          "internalType": "address",
          "name": "nftAddr",
          "type": "address"
        },
        {
          "indexed": false,
          "internalType": "uint256",
          "name": "chainId",
          "type": "uint256"
        }
      ],
      "name": "XChainRegistered",
      "type": "event"
    },
    {
      "anonymous": false,
      "inputs": [
        {
          "indexed": false,
          "internalType": "address",
          "name": "to",
          "type": "address"
        },
        {
          "indexed": false,
          "internalType": "uint256",
          "name": "tokenId",
          "type": "uint256"
        },
        {
          "indexed": false,
          "internalType": "uint256",
          "name": "internalId",
          "type": "uint256"
        },
        {
          "indexed": false,
          "internalType": "uint256",
          "name": "xChainInternalId",
          "type": "uint256"
        },
        {
          "indexed": false,
          "internalType": "address",
          "name": "nftAddr",
          "type": "address"
        },
        {
          "indexed": false,
          "internalType": "uint256",
          "name": "chainId",
          "type": "uint256"
        }
      ],
      "name": "XChainRelease",
      "type": "event"
    },
    {
      "inputs": [
        {
          "internalType": "uint256",
          "name": "internalId",
          "type": "uint256"
        },
        {
          "internalType": "address",
          "name": "account",
          "type": "address"
        },
        {
          "internalType": "uint256",
          "name": "amount",
          "type": "uint256"
        }
      ],
      "name": "approveNFTokenTransfer",
      "outputs": [],
      "stateMutability": "nonpayable",
      "type": "function"
    },
    {
      "inputs": [
        {
          "internalType": "uint256",
          "name": "internalId",
          "type": "uint256"
        },
        {
          "internalType": "uint256",
          "name": "amountOfFrac",
          "type": "uint256"
        },
        {
          "internalType": "address",
          "name": "buyer",
          "type": "address"
        }
      ],
      "name": "buyTokens",
      "outputs": [],
      "stateMutability": "nonpayable",
      "type": "function"
    },
    {
      "inputs": [
        {
          "internalType": "uint256",
          "name": "internalId",
          "type": "uint256"
        },
        {
          "internalType": "uint256",
          "name": "amountOfFrac",
          "type": "uint256"
        }
      ],
      "name": "buyTokensIndividual",
      "outputs": [],
      "stateMutability": "nonpayable",
      "type": "function"
    },
    {
      "inputs": [
        {
          "internalType": "uint256",
          "name": "internalId",
          "type": "uint256"
        },
        {
          "internalType": "address",
          "name": "account",
          "type": "address"
        }
      ],
      "name": "buyoutERC721",
      "outputs": [],
      "stateMutability": "nonpayable",
      "type": "function"
    },
    {
      "inputs": [
        {
          "internalType": "uint256",
          "name": "_amountOfwEth",
          "type": "uint256"
        },
        {
          "internalType": "uint256",
          "name": "internalId",
          "type": "uint256"
        }
      ],
      "name": "calculateAmountOfFrac",
      "outputs": [
        {
          "internalType": "uint256",
          "name": "",
          "type": "uint256"
        }
      ],
      "stateMutability": "view",
      "type": "function"
    },
    {
      "inputs": [
        {
          "internalType": "uint256",
          "name": "_amountOfFrac",
          "type": "uint256"
        },
        {
          "internalType": "uint256",
          "name": "internalId",
          "type": "uint256"
        }
      ],
      "name": "calculateAmountOfwEth",
      "outputs": [
        {
          "internalType": "uint256",
          "name": "",
          "type": "uint256"
        }
      ],
      "stateMutability": "view",
      "type": "function"
    },
    {
      "inputs": [
        {
          "internalType": "uint256",
          "name": "internalId",
          "type": "uint256"
        },
        {
          "internalType": "address",
          "name": "account",
          "type": "address"
        },
        {
          "internalType": "uint256",
          "name": "amount",
          "type": "uint256"
        }
      ],
      "name": "depositNFToken",
      "outputs": [],
      "stateMutability": "nonpayable",
      "type": "function"
    },
    {
      "inputs": [
        {
          "internalType": "uint256",
          "name": "internalId",
          "type": "uint256"
        },
        {
          "internalType": "address",
          "name": "account",
          "type": "address"
        }
      ],
      "name": "getDepositAmount",
      "outputs": [
        {
          "internalType": "uint256",
          "name": "",
          "type": "uint256"
        }
      ],
      "stateMutability": "view",
      "type": "function"
    },
    {
      "inputs": [
        {
          "internalType": "uint256",
          "name": "internalId",
          "type": "uint256"
        }
      ],
      "name": "getERC721ChainId",
      "outputs": [
        {
          "internalType": "uint256",
          "name": "",
          "type": "uint256"
        }
      ],
      "stateMutability": "view",
      "type": "function"
    },
    {
      "inputs": [
        {
          "internalType": "uint256",
          "name": "internalId",
          "type": "uint256"
        }
      ],
      "name": "getERC721ContractAddr",
      "outputs": [
        {
          "internalType": "address",
          "name": "",
          "type": "address"
        }
      ],
      "stateMutability": "view",
      "type": "function"
    },
    {
      "inputs": [
        {
          "internalType": "uint256",
          "name": "internalId",
          "type": "uint256"
        }
      ],
      "name": "getERC721Native",
      "outputs": [
        {
          "internalType": "bool",
          "name": "",
          "type": "bool"
        }
      ],
      "stateMutability": "view",
      "type": "function"
    },
    {
      "inputs": [
        {
          "internalType": "uint256",
          "name": "internalId",
          "type": "uint256"
        }
      ],
      "name": "getERC721TokenId",
      "outputs": [
        {
          "internalType": "uint256",
          "name": "",
          "type": "uint256"
        }
      ],
      "stateMutability": "view",
      "type": "function"
    },
    {
      "inputs": [
        {
          "internalType": "uint256",
          "name": "internalId",
          "type": "uint256"
        }
      ],
      "name": "getERC721XChainInternalId",
      "outputs": [
        {
          "internalType": "uint256",
          "name": "",
          "type": "uint256"
        }
      ],
      "stateMutability": "view",
      "type": "function"
    },
    {
      "inputs": [],
      "name": "getInternalIdCounter",
      "outputs": [
        {
          "internalType": "uint256",
          "name": "",
          "type": "uint256"
        }
      ],
      "stateMutability": "view",
      "type": "function"
    },
    {
      "inputs": [
        {
          "internalType": "uint256",
          "name": "internalId",
          "type": "uint256"
        }
      ],
      "name": "getNFTContractAddr",
      "outputs": [
        {
          "internalType": "address",
          "name": "",
          "type": "address"
        }
      ],
      "stateMutability": "view",
      "type": "function"
    },
    {
      "inputs": [
        {
          "internalType": "uint256",
          "name": "internalId",
          "type": "uint256"
        }
      ],
      "name": "getNFTokenAddr",
      "outputs": [
        {
          "internalType": "address",
          "name": "",
          "type": "address"
        }
      ],
      "stateMutability": "view",
      "type": "function"
    },
    {
      "inputs": [
        {
          "internalType": "uint256",
          "name": "internalId",
          "type": "uint256"
        },
        {
          "internalType": "address",
          "name": "account",
          "type": "address"
        }
      ],
      "name": "getNFTokenBalance",
      "outputs": [
        {
          "internalType": "uint256",
          "name": "",
          "type": "uint256"
        }
      ],
      "stateMutability": "view",
      "type": "function"
    },
    {
      "inputs": [
        {
          "internalType": "uint256",
          "name": "internalId",
          "type": "uint256"
        }
      ],
      "name": "getNFTokenSupply",
      "outputs": [
        {
          "internalType": "uint256",
          "name": "",
          "type": "uint256"
        }
      ],
      "stateMutability": "view",
      "type": "function"
    },
    {
      "inputs": [
        {
          "internalType": "address",
          "name": "account",
          "type": "address"
        }
      ],
      "name": "getNumIdsOwned",
      "outputs": [
        {
          "internalType": "uint256",
          "name": "",
          "type": "uint256"
        }
      ],
      "stateMutability": "view",
      "type": "function"
    },
    {
      "inputs": [],
      "name": "getNumberDepositedERC721s",
      "outputs": [
        {
          "internalType": "uint256",
          "name": "",
          "type": "uint256"
        }
      ],
      "stateMutability": "view",
      "type": "function"
    },
    {
      "inputs": [
        {
          "internalType": "uint256",
          "name": "internalId",
          "type": "uint256"
        }
      ],
      "name": "getOwned",
      "outputs": [
        {
          "internalType": "bool",
          "name": "",
          "type": "bool"
        }
      ],
      "stateMutability": "view",
      "type": "function"
    },
    {
      "inputs": [],
      "name": "getwEthAddr",
      "outputs": [
        {
          "internalType": "address",
          "name": "",
          "type": "address"
        }
      ],
      "stateMutability": "view",
      "type": "function"
    },
    {
      "inputs": [
        {
          "internalType": "uint256",
          "name": "supply",
          "type": "uint256"
        },
        {
          "internalType": "string",
          "name": "name",
          "type": "string"
        },
        {
          "internalType": "string",
          "name": "ticker",
          "type": "string"
        },
        {
          "internalType": "uint256",
          "name": "internalId",
          "type": "uint256"
        },
        {
          "internalType": "uint256",
          "name": "amountToKeep",
          "type": "uint256"
        }
      ],
      "name": "mintTokensForNFT",
      "outputs": [
        {
          "internalType": "contract NFToken",
          "name": "",
          "type": "address"
        }
      ],
      "stateMutability": "nonpayable",
      "type": "function"
    },
    {
      "inputs": [
        {
          "internalType": "address",
          "name": "operator",
          "type": "address"
        },
        {
          "internalType": "address",
          "name": "from",
          "type": "address"
        },
        {
          "internalType": "uint256",
          "name": "tokenId",
          "type": "uint256"
        },
        {
          "internalType": "bytes",
          "name": "data",
          "type": "bytes"
        }
      ],
      "name": "onERC721Received",
      "outputs": [
        {
          "internalType": "bytes4",
          "name": "",
          "type": "bytes4"
        }
      ],
      "stateMutability": "nonpayable",
      "type": "function"
    },
    {
      "inputs": [],
      "name": "owner",
      "outputs": [
        {
          "internalType": "address",
          "name": "",
          "type": "address"
        }
      ],
      "stateMutability": "view",
      "type": "function"
    },
    {
      "inputs": [
        {
          "internalType": "address",
          "name": "sender",
          "type": "address"
        },
        {
          "internalType": "uint256",
          "name": "tokenId",
          "type": "uint256"
        },
        {
          "internalType": "uint256",
          "name": "xChainInternalId",
          "type": "uint256"
        },
        {
          "internalType": "address",
          "name": "nftAddr",
          "type": "address"
        },
        {
          "internalType": "uint256",
          "name": "chainId",
          "type": "uint256"
        }
      ],
      "name": "registerXChainNFT",
      "outputs": [],
      "stateMutability": "nonpayable",
      "type": "function"
    },
    {
      "inputs": [],
      "name": "renounceOwnership",
      "outputs": [],
      "stateMutability": "nonpayable",
      "type": "function"
    },
    {
      "inputs": [
        {
          "internalType": "uint256",
          "name": "internalId",
          "type": "uint256"
        },
        {
          "internalType": "uint256",
          "name": "amountOfwEth",
          "type": "uint256"
        },
        {
          "internalType": "address",
          "name": "seller",
          "type": "address"
        }
      ],
      "name": "sellTokens",
      "outputs": [],
      "stateMutability": "nonpayable",
      "type": "function"
    },
    {
      "inputs": [
        {
          "internalType": "uint256",
          "name": "internalId",
          "type": "uint256"
        },
        {
          "internalType": "uint256",
          "name": "amountOfwEth",
          "type": "uint256"
        }
      ],
      "name": "sellTokensIndividual",
      "outputs": [],
      "stateMutability": "nonpayable",
      "type": "function"
    },
    {
      "inputs": [
        {
          "internalType": "address",
          "name": "newOwner",
          "type": "address"
        }
      ],
      "name": "transferOwnership",
      "outputs": [],
      "stateMutability": "nonpayable",
      "type": "function"
    },
    {
      "inputs": [
        {
          "internalType": "uint256",
          "name": "internalId",
          "type": "uint256"
        },
        {
          "internalType": "address",
          "name": "account",
          "type": "address"
        },
        {
          "internalType": "uint256",
          "name": "amount",
          "type": "uint256"
        }
      ],
      "name": "withdrawNFToken",
      "outputs": [],
      "stateMutability": "nonpayable",
      "type": "function"
    }
  ],
  "bytecode": "0x608060405260006002553480156200001657600080fd5b5060405162005e2e38038062005e2e83398181016040528101906200003c919062000188565b6200005c62000050620000a560201b60201c565b620000ad60201b60201c565b81600160006101000a81548173ffffffffffffffffffffffffffffffffffffffff021916908373ffffffffffffffffffffffffffffffffffffffff160217905550505062000217565b600033905090565b60008060009054906101000a900473ffffffffffffffffffffffffffffffffffffffff169050816000806101000a81548173ffffffffffffffffffffffffffffffffffffffff021916908373ffffffffffffffffffffffffffffffffffffffff1602179055508173ffffffffffffffffffffffffffffffffffffffff168173ffffffffffffffffffffffffffffffffffffffff167f8be0079c531659141344cd1fd0a4f28419497f9722a3daafe3b4186f6b6457e060405160405180910390a35050565b6000815190506200018281620001fd565b92915050565b600080604083850312156200019c57600080fd5b6000620001ac8582860162000171565b9250506020620001bf8582860162000171565b9150509250929050565b6000620001d682620001dd565b9050919050565b600073ffffffffffffffffffffffffffffffffffffffff82169050919050565b6200020881620001c9565b81146200021457600080fd5b50565b615c0780620002276000396000f3fe60806040523480156200001157600080fd5b5060043610620002145760003560e01c80638da5cb5b1162000129578063c168787711620000b1578063e683c239116200007b578063e683c23914620006b7578063ef569f9a14620006d7578063f2fde38b14620006f7578063f605a25414620007175762000214565b8063c1687877146200060b578063c44f7a17146200062b578063cae244b4146200064b578063de75a5c014620006815762000214565b8063b1e2bcb311620000f3578063b1e2bcb3146200055d578063b7cebb3e1462000593578063b9ca983814620005b5578063bd3d433714620005eb5762000214565b80638da5cb5b14620004af5780639eefad9814620004d1578063a919b74a1462000507578063af3ddc1a146200053d5762000214565b806349f1c75311620001ad578063715018a61162000177578063715018a61462000401578063742f23c7146200040d57806380168c7b146200044357806386b5e7ea14620004795762000214565b806349f1c75314620003535780634debe86a14620003895780635a34a27214620003ab57806365d51d8814620003cb5762000214565b8063312f0d8011620001ef578063312f0d8014620002a5578063397bafd614620002c557806340aa97ec14620002e7578063442f6bd9146200031d5762000214565b80630b1a08e51462000219578063150b7a02146200024f5780631b2d83cd1462000285575b600080fd5b62000237600480360381019062000231919062002886565b6200074d565b60405162000246919062002ec9565b60405180910390f35b6200026d6004803603810190620002679190620025b0565b6200077b565b6040516200027c919062002d19565b60405180910390f35b620002a360048036038101906200029d91906200277c565b62000ae7565b005b620002c36004803603810190620002bd91906200273b565b62000b6f565b005b620002cf62000d6c565b604051620002de919062002ec9565b60405180910390f35b620003056004803603810190620002ff919062002584565b62000d84565b60405162000314919062002ec9565b60405180910390f35b6200033b6004803603810190620003359190620027d2565b62000dcd565b6040516200034a919062002d36565b60405180910390f35b6200037160048036038101906200036b9190620026e3565b620010f0565b60405162000380919062002b60565b60405180910390f35b6200039362001130565b604051620003a2919062002b60565b60405180910390f35b620003c96004803603810190620003c3919062002635565b6200115a565b005b620003e96004803603810190620003e3919062002886565b6200155c565b604051620003f8919062002ec9565b60405180910390f35b6200040b6200158a565b005b6200042b6004803603810190620004259190620026e3565b6200161b565b6040516200043a919062002b60565b60405180910390f35b6200046160048036038101906200045b9190620026e3565b6200165b565b60405162000470919062002ec9565b60405180910390f35b620004976004803603810190620004919190620026e3565b6200167b565b604051620004a6919062002b60565b60405180910390f35b620004b9620016bb565b604051620004c8919062002b60565b60405180910390f35b620004ef6004803603810190620004e99190620026e3565b620016e4565b604051620004fe919062002ec9565b60405180910390f35b6200052560048036038101906200051f9190620026e3565b6200177e565b60405162000534919062002cfc565b60405180910390f35b6200055b60048036038101906200055591906200277c565b620017ab565b005b6200057b6004803603810190620005759190620026e3565b6200190e565b6040516200058a919062002ec9565b60405180910390f35b6200059d6200192e565b604051620005ac919062002ec9565b60405180910390f35b620005d36004803603810190620005cd9190620026e3565b62001938565b604051620005e2919062002ec9565b60405180910390f35b62000609600480360381019062000603919062002886565b62001958565b005b620006296004803603810190620006239190620028c7565b62001969565b005b6200064960048036038101906200064391906200277c565b62001c1e565b005b6200066960048036038101906200066391906200273b565b62001d83565b60405162000678919062002ec9565b60405180910390f35b6200069f60048036038101906200069991906200273b565b62001e2b565b604051620006ae919062002ec9565b60405180910390f35b620006d56004803603810190620006cf919062002886565b62001e86565b005b620006f56004803603810190620006ef9190620028c7565b62001e97565b005b6200071560048036038101906200070f919062002584565b6200214c565b005b6200073560048036038101906200072f9190620026e3565b62002250565b60405162000744919062002cfc565b60405180910390f35b60008260036000848152602001908152602001600020600801546200077391906200302c565b905092915050565b6000620007876200239d565b60025481606001818152505033816080019073ffffffffffffffffffffffffffffffffffffffff16908173ffffffffffffffffffffffffffffffffffffffff1681525050848160c0019073ffffffffffffffffffffffffffffffffffffffff16908173ffffffffffffffffffffffffffffffffffffffff1681525050838160a0018181525050600181610100018181525050600181610120019015159081151581525050600181604001901515908115158152505080600360006002548152602001908152602001600020600082015181600001556020820151816001015560408201518160020160006101000a81548160ff0219169083151502179055506060820151816003015560808201518160040160006101000a81548173ffffffffffffffffffffffffffffffffffffffff021916908373ffffffffffffffffffffffffffffffffffffffff16021790555060a0820151816005015560c08201518160060160006101000a81548173ffffffffffffffffffffffffffffffffffffffff021916908373ffffffffffffffffffffffffffffffffffffffff16021790555060e08201518160070160006101000a81548173ffffffffffffffffffffffffffffffffffffffff021916908373ffffffffffffffffffffffffffffffffffffffff16021790555061010082015181600801556101208201518160090160006101000a81548160ff021916908315150217905550905050600560008260c0015173ffffffffffffffffffffffffffffffffffffffff1673ffffffffffffffffffffffffffffffffffffffff168152602001908152602001600020816060015190806001815401808255809150506001900390600052602060002001600090919091909150556001600660008360c0015173ffffffffffffffffffffffffffffffffffffffff1673ffffffffffffffffffffffffffffffffffffffff168152602001908152602001600020600082825462000a62919062002f97565b925050819055507f935d05cbf9fa27cbf03a09eb57f4384da509a8e34d406b8b8e1c21b249e25c168160c001518260a001518360600151846080015160405162000ab0949392919062002c42565b60405180910390a160016002600082825462000acd919062002f97565b9250508190555063150b7a0260e01b915050949350505050565b600062000af4846200167b565b90508073ffffffffffffffffffffffffffffffffffffffff1663ca56c18a8430856040518463ffffffff1660e01b815260040162000b359392919062002b7d565b600060405180830381600087803b15801562000b5057600080fd5b505af115801562000b65573d6000803e3d6000fd5b5050505050505050565b62000b7a82620016e4565b62000b86838362001e2b565b1462000bc9576040517f08c379a000000000000000000000000000000000000000000000000000000000815260040162000bc09062002d53565b60405180910390fd5b62000bd48262002250565b1562000c6d57600062000be7836200161b565b90508073ffffffffffffffffffffffffffffffffffffffff166323b872dd308462000c12876200165b565b6040518463ffffffff1660e01b815260040162000c329392919062002b7d565b600060405180830381600087803b15801562000c4d57600080fd5b505af115801562000c62573d6000803e3d6000fd5b505050505062000cd9565b7f76a0fab679374dab1ee841100d0531e687faff72d4d5a449c25134cf0321dcb58162000c9a846200165b565b8462000ca6866200190e565b62000cb1876200161b565b62000cbc8862001938565b60405162000cd09695949392919062002c8f565b60405180910390a15b6001600660006003600086815260200190815260200160002060060160009054906101000a900473ffffffffffffffffffffffffffffffffffffffff1673ffffffffffffffffffffffffffffffffffffffff1673ffffffffffffffffffffffffffffffffffffffff168152602001908152602001600020600082825462000d6191906200308d565b925050819055505050565b6000600160025462000d7f91906200308d565b905090565b6000600660008373ffffffffffffffffffffffffffffffffffffffff1673ffffffffffffffffffffffffffffffffffffffff168152602001908152602001600020549050919050565b60003373ffffffffffffffffffffffffffffffffffffffff166003600085815260200190815260200160002060060160009054906101000a900473ffffffffffffffffffffffffffffffffffffffff1673ffffffffffffffffffffffffffffffffffffffff161462000e76576040517f08c379a000000000000000000000000000000000000000000000000000000000815260040162000e6d9062002e41565b60405180910390fd5b600073ffffffffffffffffffffffffffffffffffffffff166003600085815260200190815260200160002060070160009054906101000a900473ffffffffffffffffffffffffffffffffffffffff1673ffffffffffffffffffffffffffffffffffffffff161462000f1e576040517f08c379a000000000000000000000000000000000000000000000000000000000815260040162000f159062002ddb565b60405180910390fd5b600062000f2e308888886200227d565b90508073ffffffffffffffffffffffffffffffffffffffff1663095ea7b330856040518363ffffffff1660e01b815260040162000f6d92919062002bba565b602060405180830381600087803b15801562000f8857600080fd5b505af115801562000f9d573d6000803e3d6000fd5b505050506040513d601f19601f8201168201806040525081019062000fc39190620026b7565b508073ffffffffffffffffffffffffffffffffffffffff1663a9059cbb6003600087815260200190815260200160002060060160009054906101000a900473ffffffffffffffffffffffffffffffffffffffff16856040518363ffffffff1660e01b81526004016200103792919062002bba565b602060405180830381600087803b1580156200105257600080fd5b505af115801562001067573d6000803e3d6000fd5b505050506040513d601f19601f820116820180604052508101906200108d9190620026b7565b50806003600086815260200190815260200160002060070160006101000a81548173ffffffffffffffffffffffffffffffffffffffff021916908373ffffffffffffffffffffffffffffffffffffffff1602179055508091505095945050505050565b60006003600083815260200190815260200160002060040160009054906101000a900473ffffffffffffffffffffffffffffffffffffffff169050919050565b6000600160009054906101000a900473ffffffffffffffffffffffffffffffffffffffff16905090565b62001164620022d1565b73ffffffffffffffffffffffffffffffffffffffff1662001184620016bb565b73ffffffffffffffffffffffffffffffffffffffff1614620011dd576040517f08c379a0000000000000000000000000000000000000000000000000000000008152600401620011d49062002dfd565b60405180910390fd5b620011e76200239d565b60025481606001818152505082816080019073ffffffffffffffffffffffffffffffffffffffff16908173ffffffffffffffffffffffffffffffffffffffff1681525050858160c0019073ffffffffffffffffffffffffffffffffffffffff16908173ffffffffffffffffffffffffffffffffffffffff1681525050848160a00181815250506001816101000181815250506001816101200190151590811515815250508181600001818152505083816020018181525050600081604001901515908115158152505080600360006002548152602001908152602001600020600082015181600001556020820151816001015560408201518160020160006101000a81548160ff0219169083151502179055506060820151816003015560808201518160040160006101000a81548173ffffffffffffffffffffffffffffffffffffffff021916908373ffffffffffffffffffffffffffffffffffffffff16021790555060a0820151816005015560c08201518160060160006101000a81548173ffffffffffffffffffffffffffffffffffffffff021916908373ffffffffffffffffffffffffffffffffffffffff16021790555060e08201518160070160006101000a81548173ffffffffffffffffffffffffffffffffffffffff021916908373ffffffffffffffffffffffffffffffffffffffff16021790555061010082015181600801556101208201518160090160006101000a81548160ff021916908315150217905550905050600560008260c0015173ffffffffffffffffffffffffffffffffffffffff1673ffffffffffffffffffffffffffffffffffffffff168152602001908152602001600020816060015190806001815401808255809150506001900390600052602060002001600090919091909150556001600660008360c0015173ffffffffffffffffffffffffffffffffffffffff1673ffffffffffffffffffffffffffffffffffffffff1681526020019081526020016000206000828254620014d6919062002f97565b925050819055507fc5117017542cd2066296045c1cadec88af60d3c7d575eb1971351d3e1927167a8160c001518260a001518360600151846020015185608001518660000151604051620015309695949392919062002c8f565b60405180910390a16001600260008282546200154d919062002f97565b92505081905550505050505050565b600060036000838152602001908152602001600020600801548362001582919062002ff4565b905092915050565b62001594620022d1565b73ffffffffffffffffffffffffffffffffffffffff16620015b4620016bb565b73ffffffffffffffffffffffffffffffffffffffff16146200160d576040517f08c379a0000000000000000000000000000000000000000000000000000000008152600401620016049062002dfd565b60405180910390fd5b620016196000620022d9565b565b60006003600083815260200190815260200160002060040160009054906101000a900473ffffffffffffffffffffffffffffffffffffffff169050919050565b600060036000838152602001908152602001600020600501549050919050565b60006003600083815260200190815260200160002060070160009054906101000a900473ffffffffffffffffffffffffffffffffffffffff169050919050565b60008060009054906101000a900473ffffffffffffffffffffffffffffffffffffffff16905090565b600080620016f2836200167b565b90508073ffffffffffffffffffffffffffffffffffffffff166318160ddd6040518163ffffffff1660e01b815260040160206040518083038186803b1580156200173b57600080fd5b505afa15801562001750573d6000803e3d6000fd5b505050506040513d601f19601f820116820180604052508101906200177691906200270f565b915050919050565b60006003600083815260200190815260200160002060090160009054906101000a900460ff169050919050565b620017b7838362001e2b565b811115620017fc576040517f08c379a0000000000000000000000000000000000000000000000000000000008152600401620017f39062002d97565b60405180910390fd5b80600460008473ffffffffffffffffffffffffffffffffffffffff1673ffffffffffffffffffffffffffffffffffffffff168152602001908152602001600020600085815260200190815260200160002060008282546200185e91906200308d565b92505081905550600062001872846200167b565b90508073ffffffffffffffffffffffffffffffffffffffff1663a9059cbb84846040518363ffffffff1660e01b8152600401620018b192919062002bba565b602060405180830381600087803b158015620018cc57600080fd5b505af1158015620018e1573d6000803e3d6000fd5b505050506040513d601f19601f82011682018060405250810190620019079190620026b7565b5050505050565b600060036000838152602001908152602001600020600101549050919050565b6000600254905090565b600060036000838152602001908152602001600020600001549050919050565b6200196582823362001e97565b5050565b600062001976846200167b565b905060006200198462001130565b905060006200199485876200074d565b9050848373ffffffffffffffffffffffffffffffffffffffff166370a08231306040518263ffffffff1660e01b8152600401620019d2919062002b60565b60206040518083038186803b158015620019eb57600080fd5b505afa15801562001a00573d6000803e3d6000fd5b505050506040513d601f19601f8201168201806040525081019062001a2691906200270f565b101562001a6a576040517f08c379a000000000000000000000000000000000000000000000000000000000815260040162001a619062002ea7565b60405180910390fd5b8173ffffffffffffffffffffffffffffffffffffffff166323b872dd8530846040518463ffffffff1660e01b815260040162001aa99392919062002b7d565b602060405180830381600087803b15801562001ac457600080fd5b505af115801562001ad9573d6000803e3d6000fd5b505050506040513d601f19601f8201168201806040525081019062001aff9190620026b7565b62001b41576040517f08c379a000000000000000000000000000000000000000000000000000000000815260040162001b389062002db9565b60405180910390fd5b8273ffffffffffffffffffffffffffffffffffffffff1663a9059cbb85876040518363ffffffff1660e01b815260040162001b7e92919062002bba565b602060405180830381600087803b15801562001b9957600080fd5b505af115801562001bae573d6000803e3d6000fd5b505050506040513d601f19601f8201168201806040525081019062001bd49190620026b7565b62001c16576040517f08c379a000000000000000000000000000000000000000000000000000000000815260040162001c0d9062002e1f565b60405180910390fd5b505050505050565b8062001c2b848462001d83565b101562001c6f576040517f08c379a000000000000000000000000000000000000000000000000000000000815260040162001c669062002e63565b60405180910390fd5b600062001c7c846200167b565b90508073ffffffffffffffffffffffffffffffffffffffff166323b872dd8430856040518463ffffffff1660e01b815260040162001cbd9392919062002b7d565b602060405180830381600087803b15801562001cd857600080fd5b505af115801562001ced573d6000803e3d6000fd5b505050506040513d601f19601f8201168201806040525081019062001d139190620026b7565b5081600460008573ffffffffffffffffffffffffffffffffffffffff1673ffffffffffffffffffffffffffffffffffffffff1681526020019081526020016000206000868152602001908152602001600020600082825462001d76919062002f97565b9250508190555050505050565b60008062001d91846200167b565b90508073ffffffffffffffffffffffffffffffffffffffff166370a08231846040518263ffffffff1660e01b815260040162001dce919062002b60565b60206040518083038186803b15801562001de757600080fd5b505afa15801562001dfc573d6000803e3d6000fd5b505050506040513d601f19601f8201168201806040525081019062001e2291906200270f565b91505092915050565b6000600460008373ffffffffffffffffffffffffffffffffffffffff1673ffffffffffffffffffffffffffffffffffffffff168152602001908152602001600020600084815260200190815260200160002054905092915050565b62001e9382823362001969565b5050565b600062001ea4846200167b565b9050600062001eb262001130565b9050600062001ec285876200155c565b9050808373ffffffffffffffffffffffffffffffffffffffff166370a08231866040518263ffffffff1660e01b815260040162001f00919062002b60565b60206040518083038186803b15801562001f1957600080fd5b505afa15801562001f2e573d6000803e3d6000fd5b505050506040513d601f19601f8201168201806040525081019062001f5491906200270f565b101562001f98576040517f08c379a000000000000000000000000000000000000000000000000000000000815260040162001f8f9062002e85565b60405180910390fd5b8273ffffffffffffffffffffffffffffffffffffffff166323b872dd8530846040518463ffffffff1660e01b815260040162001fd79392919062002b7d565b602060405180830381600087803b15801562001ff257600080fd5b505af115801562002007573d6000803e3d6000fd5b505050506040513d601f19601f820116820180604052508101906200202d9190620026b7565b6200206f576040517f08c379a0000000000000000000000000000000000000000000000000000000008152600401620020669062002e1f565b60405180910390fd5b8173ffffffffffffffffffffffffffffffffffffffff1663a9059cbb85876040518363ffffffff1660e01b8152600401620020ac92919062002bba565b602060405180830381600087803b158015620020c757600080fd5b505af1158015620020dc573d6000803e3d6000fd5b505050506040513d601f19601f82011682018060405250810190620021029190620026b7565b62002144576040517f08c379a00000000000000000000000000000000000000000000000000000000081526004016200213b9062002db9565b60405180910390fd5b505050505050565b62002156620022d1565b73ffffffffffffffffffffffffffffffffffffffff1662002176620016bb565b73ffffffffffffffffffffffffffffffffffffffff1614620021cf576040517f08c379a0000000000000000000000000000000000000000000000000000000008152600401620021c69062002dfd565b60405180910390fd5b600073ffffffffffffffffffffffffffffffffffffffff168173ffffffffffffffffffffffffffffffffffffffff16141562002242576040517f08c379a0000000000000000000000000000000000000000000000000000000008152600401620022399062002d75565b60405180910390fd5b6200224d81620022d9565b50565b60006003600083815260200190815260200160002060020160009054906101000a900460ff169050919050565b60006060600086868686604051620022959062002436565b620022a4949392919062002be7565b604051809103906000f080158015620022c1573d6000803e3d6000fd5b5090508092505050949350505050565b600033905090565b60008060009054906101000a900473ffffffffffffffffffffffffffffffffffffffff169050816000806101000a81548173ffffffffffffffffffffffffffffffffffffffff021916908373ffffffffffffffffffffffffffffffffffffffff1602179055508173ffffffffffffffffffffffffffffffffffffffff168173ffffffffffffffffffffffffffffffffffffffff167f8be0079c531659141344cd1fd0a4f28419497f9722a3daafe3b4186f6b6457e060405160405180910390a35050565b604051806101400160405280600081526020016000815260200160001515815260200160008152602001600073ffffffffffffffffffffffffffffffffffffffff16815260200160008152602001600073ffffffffffffffffffffffffffffffffffffffff168152602001600073ffffffffffffffffffffffffffffffffffffffff168152602001600081526020016000151581525090565b61265d806200357583390190565b60006200245b620024558462002f0f565b62002ee6565b9050828152602081018484840111156200247457600080fd5b6200248184828562003166565b509392505050565b6000620024a06200249a8462002f45565b62002ee6565b905082815260208101848484011115620024b957600080fd5b620024c684828562003166565b509392505050565b600081359050620024df8162003526565b92915050565b600081519050620024f68162003540565b92915050565b600082601f8301126200250e57600080fd5b81356200252084826020860162002444565b91505092915050565b600082601f8301126200253b57600080fd5b81356200254d84826020860162002489565b91505092915050565b60008135905062002567816200355a565b92915050565b6000815190506200257e816200355a565b92915050565b6000602082840312156200259757600080fd5b6000620025a784828501620024ce565b91505092915050565b60008060008060808587031215620025c757600080fd5b6000620025d787828801620024ce565b9450506020620025ea87828801620024ce565b9350506040620025fd8782880162002556565b925050606085013567ffffffffffffffff8111156200261b57600080fd5b6200262987828801620024fc565b91505092959194509250565b600080600080600060a086880312156200264e57600080fd5b60006200265e88828901620024ce565b9550506020620026718882890162002556565b9450506040620026848882890162002556565b93505060606200269788828901620024ce565b9250506080620026aa8882890162002556565b9150509295509295909350565b600060208284031215620026ca57600080fd5b6000620026da84828501620024e5565b91505092915050565b600060208284031215620026f657600080fd5b6000620027068482850162002556565b91505092915050565b6000602082840312156200272257600080fd5b600062002732848285016200256d565b91505092915050565b600080604083850312156200274f57600080fd5b60006200275f8582860162002556565b92505060206200277285828601620024ce565b9150509250929050565b6000806000606084860312156200279257600080fd5b6000620027a28682870162002556565b9350506020620027b586828701620024ce565b9250506040620027c88682870162002556565b9150509250925092565b600080600080600060a08688031215620027eb57600080fd5b6000620027fb8882890162002556565b955050602086013567ffffffffffffffff8111156200281957600080fd5b620028278882890162002529565b945050604086013567ffffffffffffffff8111156200284557600080fd5b620028538882890162002529565b9350506060620028668882890162002556565b9250506080620028798882890162002556565b9150509295509295909350565b600080604083850312156200289a57600080fd5b6000620028aa8582860162002556565b9250506020620028bd8582860162002556565b9150509250929050565b600080600060608486031215620028dd57600080fd5b6000620028ed8682870162002556565b9350506020620029008682870162002556565b92505060406200291386828701620024ce565b9150509250925092565b6200292881620030c8565b82525050565b6200293981620030dc565b82525050565b6200294a81620030e8565b82525050565b6200295b816200313e565b82525050565b60006200296e8262002f7b565b6200297a818562002f86565b93506200298c81856020860162003175565b62002997816200326e565b840191505092915050565b6000620029b160378362002f86565b9150620029be826200327f565b604082019050919050565b6000620029d860268362002f86565b9150620029e582620032ce565b604082019050919050565b6000620029ff60208362002f86565b915062002a0c826200331d565b602082019050919050565b600062002a2660178362002f86565b915062002a338262003346565b602082019050919050565b600062002a4d60298362002f86565b915062002a5a826200336f565b604082019050919050565b600062002a7460208362002f86565b915062002a8182620033be565b602082019050919050565b600062002a9b601d8362002f86565b915062002aa882620033e7565b602082019050919050565b600062002ac2601d8362002f86565b915062002acf8262003410565b602082019050919050565b600062002ae960218362002f86565b915062002af68262003439565b604082019050919050565b600062002b1060228362002f86565b915062002b1d8262003488565b604082019050919050565b600062002b3760228362002f86565b915062002b4482620034d7565b604082019050919050565b62002b5a8162003134565b82525050565b600060208201905062002b7760008301846200291d565b92915050565b600060608201905062002b9460008301866200291d565b62002ba360208301856200291d565b62002bb2604083018462002b4f565b949350505050565b600060408201905062002bd160008301856200291d565b62002be0602083018462002b4f565b9392505050565b600060808201905062002bfe60008301876200291d565b62002c0d602083018662002b4f565b818103604083015262002c21818562002961565b9050818103606083015262002c37818462002961565b905095945050505050565b600060808201905062002c5960008301876200291d565b62002c68602083018662002b4f565b62002c77604083018562002b4f565b62002c8660608301846200291d565b95945050505050565b600060c08201905062002ca660008301896200291d565b62002cb5602083018862002b4f565b62002cc4604083018762002b4f565b62002cd3606083018662002b4f565b62002ce260808301856200291d565b62002cf160a083018462002b4f565b979650505050505050565b600060208201905062002d1360008301846200292e565b92915050565b600060208201905062002d3060008301846200293f565b92915050565b600060208201905062002d4d600083018462002950565b92915050565b6000602082019050818103600083015262002d6e81620029a2565b9050919050565b6000602082019050818103600083015262002d9081620029c9565b9050919050565b6000602082019050818103600083015262002db281620029f0565b9050919050565b6000602082019050818103600083015262002dd48162002a17565b9050919050565b6000602082019050818103600083015262002df68162002a3e565b9050919050565b6000602082019050818103600083015262002e188162002a65565b9050919050565b6000602082019050818103600083015262002e3a8162002a8c565b9050919050565b6000602082019050818103600083015262002e5c8162002ab3565b9050919050565b6000602082019050818103600083015262002e7e8162002ada565b9050919050565b6000602082019050818103600083015262002ea08162002b01565b9050919050565b6000602082019050818103600083015262002ec28162002b28565b9050919050565b600060208201905062002ee0600083018462002b4f565b92915050565b600062002ef262002f05565b905062002f008282620031ab565b919050565b6000604051905090565b600067ffffffffffffffff82111562002f2d5762002f2c6200323f565b5b62002f38826200326e565b9050602081019050919050565b600067ffffffffffffffff82111562002f635762002f626200323f565b5b62002f6e826200326e565b9050602081019050919050565b600081519050919050565b600082825260208201905092915050565b600062002fa48262003134565b915062002fb18362003134565b9250827fffffffffffffffffffffffffffffffffffffffffffffffffffffffffffffffff0382111562002fe95762002fe8620031e1565b5b828201905092915050565b6000620030018262003134565b91506200300e8362003134565b92508262003021576200302062003210565b5b828204905092915050565b6000620030398262003134565b9150620030468362003134565b9250817fffffffffffffffffffffffffffffffffffffffffffffffffffffffffffffffff0483118215151615620030825762003081620031e1565b5b828202905092915050565b60006200309a8262003134565b9150620030a78362003134565b925082821015620030bd57620030bc620031e1565b5b828203905092915050565b6000620030d58262003114565b9050919050565b60008115159050919050565b60007fffffffff0000000000000000000000000000000000000000000000000000000082169050919050565b600073ffffffffffffffffffffffffffffffffffffffff82169050919050565b6000819050919050565b60006200314b8262003152565b9050919050565b60006200315f8262003114565b9050919050565b82818337600083830152505050565b60005b838110156200319557808201518184015260208101905062003178565b83811115620031a5576000848401525b50505050565b620031b6826200326e565b810181811067ffffffffffffffff82111715620031d857620031d76200323f565b5b80604052505050565b7f4e487b7100000000000000000000000000000000000000000000000000000000600052601160045260246000fd5b7f4e487b7100000000000000000000000000000000000000000000000000000000600052601260045260246000fd5b7f4e487b7100000000000000000000000000000000000000000000000000000000600052604160045260246000fd5b6000601f19601f8301169050919050565b7f596f752068617665206e6f74206465706f736974656420414c4c206f6620746860008201527f65206672616374696f6e616c697a656420746f6b656e73000000000000000000602082015250565b7f4f776e61626c653a206e6577206f776e657220697320746865207a65726f206160008201527f6464726573730000000000000000000000000000000000000000000000000000602082015250565b7f596f7520646f206e6f7420686176652074686174206d616e7920746f6b656e73600082015250565b7f5472616e73666572206f662077457468206661696c6564000000000000000000600082015250565b7f54686973204e46542068617320616c7265616479206265656e2066726163746960008201527f6f6e616c697a65642e0000000000000000000000000000000000000000000000602082015250565b7f4f776e61626c653a2063616c6c6572206973206e6f7420746865206f776e6572600082015250565b7f5472616e73666572206f66206672616320746f6b656e206661696c6564000000600082015250565b7f596f7520646964206e6f74206465706f7369742074686973204e46542e000000600082015250565b7f596f7520646f206e6f7420686176652074686174206d616e7920746f6b656e7360008201527f2e00000000000000000000000000000000000000000000000000000000000000602082015250565b7f596f7520646f206e6f74206861766520656e6f756768206672616320746f6b6560008201527f6e73000000000000000000000000000000000000000000000000000000000000602082015250565b7f546865726520617265206e6f7420656e6f75676820746f6b656e7320746f206260008201527f7579000000000000000000000000000000000000000000000000000000000000602082015250565b6200353181620030c8565b81146200353d57600080fd5b50565b6200354b81620030dc565b81146200355757600080fd5b50565b620035658162003134565b81146200357157600080fd5b5056fe60806040523480156200001157600080fd5b506040516200265d3803806200265d83398181016040528101906200003791906200044a565b8181816003908051906020019062000051929190620002fa565b5080600490805190602001906200006a929190620002fa565b5050506200008d62000081620000a960201b60201c565b620000b160201b60201c565b6200009f84846200017760201b60201c565b5050505062000807565b600033905090565b6000600560009054906101000a900473ffffffffffffffffffffffffffffffffffffffff16905081600560006101000a81548173ffffffffffffffffffffffffffffffffffffffff021916908373ffffffffffffffffffffffffffffffffffffffff1602179055508173ffffffffffffffffffffffffffffffffffffffff168173ffffffffffffffffffffffffffffffffffffffff167f8be0079c531659141344cd1fd0a4f28419497f9722a3daafe3b4186f6b6457e060405160405180910390a35050565b600073ffffffffffffffffffffffffffffffffffffffff168273ffffffffffffffffffffffffffffffffffffffff161415620001ea576040517f08c379a0000000000000000000000000000000000000000000000000000000008152600401620001e19062000520565b60405180910390fd5b620001fe60008383620002f060201b60201c565b8060026000828254620002129190620005cf565b92505081905550806000808473ffffffffffffffffffffffffffffffffffffffff1673ffffffffffffffffffffffffffffffffffffffff1681526020019081526020016000206000828254620002699190620005cf565b925050819055508173ffffffffffffffffffffffffffffffffffffffff16600073ffffffffffffffffffffffffffffffffffffffff167fddf252ad1be2c89b69c2b068fc378daa952ba7f163c4a11628f55a4df523b3ef83604051620002d0919062000542565b60405180910390a3620002ec60008383620002f560201b60201c565b5050565b505050565b505050565b8280546200030890620006a0565b90600052602060002090601f0160209004810192826200032c576000855562000378565b82601f106200034757805160ff191683800117855562000378565b8280016001018555821562000378579182015b82811115620003775782518255916020019190600101906200035a565b5b5090506200038791906200038b565b5090565b5b80821115620003a65760008160009055506001016200038c565b5090565b6000620003c1620003bb8462000588565b6200055f565b905082815260208101848484011115620003da57600080fd5b620003e78482856200066a565b509392505050565b6000815190506200040081620007d3565b92915050565b600082601f8301126200041857600080fd5b81516200042a848260208601620003aa565b91505092915050565b6000815190506200044481620007ed565b92915050565b600080600080608085870312156200046157600080fd5b60006200047187828801620003ef565b9450506020620004848782880162000433565b935050604085015167ffffffffffffffff811115620004a257600080fd5b620004b08782880162000406565b925050606085015167ffffffffffffffff811115620004ce57600080fd5b620004dc8782880162000406565b91505092959194509250565b6000620004f7601f83620005be565b91506200050482620007aa565b602082019050919050565b6200051a8162000660565b82525050565b600060208201905081810360008301526200053b81620004e8565b9050919050565b60006020820190506200055960008301846200050f565b92915050565b60006200056b6200057e565b9050620005798282620006d6565b919050565b6000604051905090565b600067ffffffffffffffff821115620005a657620005a56200076a565b5b620005b18262000799565b9050602081019050919050565b600082825260208201905092915050565b6000620005dc8262000660565b9150620005e98362000660565b9250827fffffffffffffffffffffffffffffffffffffffffffffffffffffffffffffffff038211156200062157620006206200070c565b5b828201905092915050565b6000620006398262000640565b9050919050565b600073ffffffffffffffffffffffffffffffffffffffff82169050919050565b6000819050919050565b60005b838110156200068a5780820151818401526020810190506200066d565b838111156200069a576000848401525b50505050565b60006002820490506001821680620006b957607f821691505b60208210811415620006d057620006cf6200073b565b5b50919050565b620006e18262000799565b810181811067ffffffffffffffff821117156200070357620007026200076a565b5b80604052505050565b7f4e487b7100000000000000000000000000000000000000000000000000000000600052601160045260246000fd5b7f4e487b7100000000000000000000000000000000000000000000000000000000600052602260045260246000fd5b7f4e487b7100000000000000000000000000000000000000000000000000000000600052604160045260246000fd5b6000601f19601f8301169050919050565b7f45524332303a206d696e7420746f20746865207a65726f206164647265737300600082015250565b620007de816200062c565b8114620007ea57600080fd5b50565b620007f88162000660565b81146200080457600080fd5b50565b611e4680620008176000396000f3fe608060405234801561001057600080fd5b506004361061010b5760003560e01c8063715018a6116100a2578063a457c2d711610071578063a457c2d7146102a8578063a9059cbb146102d8578063ca56c18a14610308578063dd62ed3e14610324578063f2fde38b146103545761010b565b8063715018a6146102465780638da5cb5b1461025057806395d89b411461026e5780639dc29fac1461028c5761010b565b8063313ce567116100de578063313ce567146101ac57806339509351146101ca57806340c10f19146101fa57806370a08231146102165761010b565b806306fdde0314610110578063095ea7b31461012e57806318160ddd1461015e57806323b872dd1461017c575b600080fd5b610118610370565b60405161012591906116d3565b60405180910390f35b61014860048036038101906101439190611448565b610402565b60405161015591906116b8565b60405180910390f35b610166610420565b6040516101739190611875565b60405180910390f35b610196600480360381019061019191906113f9565b61042a565b6040516101a391906116b8565b60405180910390f35b6101b4610522565b6040516101c19190611890565b60405180910390f35b6101e460048036038101906101df9190611448565b61052b565b6040516101f191906116b8565b60405180910390f35b610214600480360381019061020f9190611448565b6105d7565b005b610230600480360381019061022b9190611394565b610661565b60405161023d9190611875565b60405180910390f35b61024e6106a9565b005b610258610731565b604051610265919061169d565b60405180910390f35b61027661075b565b60405161028391906116d3565b60405180910390f35b6102a660048036038101906102a19190611448565b6107ed565b005b6102c260048036038101906102bd9190611448565b610877565b6040516102cf91906116b8565b60405180910390f35b6102f260048036038101906102ed9190611448565b610962565b6040516102ff91906116b8565b60405180910390f35b610322600480360381019061031d91906113f9565b610980565b005b61033e600480360381019061033991906113bd565b610990565b60405161034b9190611875565b60405180910390f35b61036e60048036038101906103699190611394565b610a17565b005b60606003805461037f906119d9565b80601f01602080910402602001604051908101604052809291908181526020018280546103ab906119d9565b80156103f85780601f106103cd576101008083540402835291602001916103f8565b820191906000526020600020905b8154815290600101906020018083116103db57829003601f168201915b5050505050905090565b600061041661040f610b0f565b8484610b17565b6001905092915050565b6000600254905090565b6000610437848484610ce2565b6000600160008673ffffffffffffffffffffffffffffffffffffffff1673ffffffffffffffffffffffffffffffffffffffff1681526020019081526020016000206000610482610b0f565b73ffffffffffffffffffffffffffffffffffffffff1673ffffffffffffffffffffffffffffffffffffffff16815260200190815260200160002054905082811015610502576040517f08c379a00000000000000000000000000000000000000000000000000000000081526004016104f990611795565b60405180910390fd5b6105168561050e610b0f565b858403610b17565b60019150509392505050565b60006012905090565b60006105cd610538610b0f565b848460016000610546610b0f565b73ffffffffffffffffffffffffffffffffffffffff1673ffffffffffffffffffffffffffffffffffffffff16815260200190815260200160002060008873ffffffffffffffffffffffffffffffffffffffff1673ffffffffffffffffffffffffffffffffffffffff168152602001908152602001600020546105c891906118c7565b610b17565b6001905092915050565b6105df610b0f565b73ffffffffffffffffffffffffffffffffffffffff166105fd610731565b73ffffffffffffffffffffffffffffffffffffffff1614610653576040517f08c379a000000000000000000000000000000000000000000000000000000000815260040161064a906117b5565b60405180910390fd5b61065d8282610f63565b5050565b60008060008373ffffffffffffffffffffffffffffffffffffffff1673ffffffffffffffffffffffffffffffffffffffff168152602001908152602001600020549050919050565b6106b1610b0f565b73ffffffffffffffffffffffffffffffffffffffff166106cf610731565b73ffffffffffffffffffffffffffffffffffffffff1614610725576040517f08c379a000000000000000000000000000000000000000000000000000000000815260040161071c906117b5565b60405180910390fd5b61072f60006110c3565b565b6000600560009054906101000a900473ffffffffffffffffffffffffffffffffffffffff16905090565b60606004805461076a906119d9565b80601f0160208091040260200160405190810160405280929190818152602001828054610796906119d9565b80156107e35780601f106107b8576101008083540402835291602001916107e3565b820191906000526020600020905b8154815290600101906020018083116107c657829003601f168201915b5050505050905090565b6107f5610b0f565b73ffffffffffffffffffffffffffffffffffffffff16610813610731565b73ffffffffffffffffffffffffffffffffffffffff1614610869576040517f08c379a0000000000000000000000000000000000000000000000000000000008152600401610860906117b5565b60405180910390fd5b6108738282611189565b5050565b60008060016000610886610b0f565b73ffffffffffffffffffffffffffffffffffffffff1673ffffffffffffffffffffffffffffffffffffffff16815260200190815260200160002060008573ffffffffffffffffffffffffffffffffffffffff1673ffffffffffffffffffffffffffffffffffffffff16815260200190815260200160002054905082811015610943576040517f08c379a000000000000000000000000000000000000000000000000000000000815260040161093a90611835565b60405180910390fd5b61095761094e610b0f565b85858403610b17565b600191505092915050565b600061097661096f610b0f565b8484610ce2565b6001905092915050565b61098b838383610b17565b505050565b6000600160008473ffffffffffffffffffffffffffffffffffffffff1673ffffffffffffffffffffffffffffffffffffffff16815260200190815260200160002060008373ffffffffffffffffffffffffffffffffffffffff1673ffffffffffffffffffffffffffffffffffffffff16815260200190815260200160002054905092915050565b610a1f610b0f565b73ffffffffffffffffffffffffffffffffffffffff16610a3d610731565b73ffffffffffffffffffffffffffffffffffffffff1614610a93576040517f08c379a0000000000000000000000000000000000000000000000000000000008152600401610a8a906117b5565b60405180910390fd5b600073ffffffffffffffffffffffffffffffffffffffff168173ffffffffffffffffffffffffffffffffffffffff161415610b03576040517f08c379a0000000000000000000000000000000000000000000000000000000008152600401610afa90611735565b60405180910390fd5b610b0c816110c3565b50565b600033905090565b600073ffffffffffffffffffffffffffffffffffffffff168373ffffffffffffffffffffffffffffffffffffffff161415610b87576040517f08c379a0000000000000000000000000000000000000000000000000000000008152600401610b7e90611815565b60405180910390fd5b600073ffffffffffffffffffffffffffffffffffffffff168273ffffffffffffffffffffffffffffffffffffffff161415610bf7576040517f08c379a0000000000000000000000000000000000000000000000000000000008152600401610bee90611755565b60405180910390fd5b80600160008573ffffffffffffffffffffffffffffffffffffffff1673ffffffffffffffffffffffffffffffffffffffff16815260200190815260200160002060008473ffffffffffffffffffffffffffffffffffffffff1673ffffffffffffffffffffffffffffffffffffffff168152602001908152602001600020819055508173ffffffffffffffffffffffffffffffffffffffff168373ffffffffffffffffffffffffffffffffffffffff167f8c5be1e5ebec7d5bd14f71427d1e84f3dd0314c0f7b2291e5b200ac8c7c3b92583604051610cd59190611875565b60405180910390a3505050565b600073ffffffffffffffffffffffffffffffffffffffff168373ffffffffffffffffffffffffffffffffffffffff161415610d52576040517f08c379a0000000000000000000000000000000000000000000000000000000008152600401610d49906117f5565b60405180910390fd5b600073ffffffffffffffffffffffffffffffffffffffff168273ffffffffffffffffffffffffffffffffffffffff161415610dc2576040517f08c379a0000000000000000000000000000000000000000000000000000000008152600401610db9906116f5565b60405180910390fd5b610dcd838383611360565b60008060008573ffffffffffffffffffffffffffffffffffffffff1673ffffffffffffffffffffffffffffffffffffffff16815260200190815260200160002054905081811015610e53576040517f08c379a0000000000000000000000000000000000000000000000000000000008152600401610e4a90611775565b60405180910390fd5b8181036000808673ffffffffffffffffffffffffffffffffffffffff1673ffffffffffffffffffffffffffffffffffffffff16815260200190815260200160002081905550816000808573ffffffffffffffffffffffffffffffffffffffff1673ffffffffffffffffffffffffffffffffffffffff1681526020019081526020016000206000828254610ee691906118c7565b925050819055508273ffffffffffffffffffffffffffffffffffffffff168473ffffffffffffffffffffffffffffffffffffffff167fddf252ad1be2c89b69c2b068fc378daa952ba7f163c4a11628f55a4df523b3ef84604051610f4a9190611875565b60405180910390a3610f5d848484611365565b50505050565b600073ffffffffffffffffffffffffffffffffffffffff168273ffffffffffffffffffffffffffffffffffffffff161415610fd3576040517f08c379a0000000000000000000000000000000000000000000000000000000008152600401610fca90611855565b60405180910390fd5b610fdf60008383611360565b8060026000828254610ff191906118c7565b92505081905550806000808473ffffffffffffffffffffffffffffffffffffffff1673ffffffffffffffffffffffffffffffffffffffff168152602001908152602001600020600082825461104691906118c7565b925050819055508173ffffffffffffffffffffffffffffffffffffffff16600073ffffffffffffffffffffffffffffffffffffffff167fddf252ad1be2c89b69c2b068fc378daa952ba7f163c4a11628f55a4df523b3ef836040516110ab9190611875565b60405180910390a36110bf60008383611365565b5050565b6000600560009054906101000a900473ffffffffffffffffffffffffffffffffffffffff16905081600560006101000a81548173ffffffffffffffffffffffffffffffffffffffff021916908373ffffffffffffffffffffffffffffffffffffffff1602179055508173ffffffffffffffffffffffffffffffffffffffff168173ffffffffffffffffffffffffffffffffffffffff167f8be0079c531659141344cd1fd0a4f28419497f9722a3daafe3b4186f6b6457e060405160405180910390a35050565b600073ffffffffffffffffffffffffffffffffffffffff168273ffffffffffffffffffffffffffffffffffffffff1614156111f9576040517f08c379a00000000000000000000000000000000000000000000000000000000081526004016111f0906117d5565b60405180910390fd5b61120582600083611360565b60008060008473ffffffffffffffffffffffffffffffffffffffff1673ffffffffffffffffffffffffffffffffffffffff1681526020019081526020016000205490508181101561128b576040517f08c379a000000000000000000000000000000000000000000000000000000000815260040161128290611715565b60405180910390fd5b8181036000808573ffffffffffffffffffffffffffffffffffffffff1673ffffffffffffffffffffffffffffffffffffffff1681526020019081526020016000208190555081600260008282546112e2919061191d565b92505081905550600073ffffffffffffffffffffffffffffffffffffffff168373ffffffffffffffffffffffffffffffffffffffff167fddf252ad1be2c89b69c2b068fc378daa952ba7f163c4a11628f55a4df523b3ef846040516113479190611875565b60405180910390a361135b83600084611365565b505050565b505050565b505050565b60008135905061137981611de2565b92915050565b60008135905061138e81611df9565b92915050565b6000602082840312156113a657600080fd5b60006113b48482850161136a565b91505092915050565b600080604083850312156113d057600080fd5b60006113de8582860161136a565b92505060206113ef8582860161136a565b9150509250929050565b60008060006060848603121561140e57600080fd5b600061141c8682870161136a565b935050602061142d8682870161136a565b925050604061143e8682870161137f565b9150509250925092565b6000806040838503121561145b57600080fd5b60006114698582860161136a565b925050602061147a8582860161137f565b9150509250929050565b61148d81611951565b82525050565b61149c81611963565b82525050565b60006114ad826118ab565b6114b781856118b6565b93506114c78185602086016119a6565b6114d081611a69565b840191505092915050565b60006114e86023836118b6565b91506114f382611a7a565b604082019050919050565b600061150b6022836118b6565b915061151682611ac9565b604082019050919050565b600061152e6026836118b6565b915061153982611b18565b604082019050919050565b60006115516022836118b6565b915061155c82611b67565b604082019050919050565b60006115746026836118b6565b915061157f82611bb6565b604082019050919050565b60006115976028836118b6565b91506115a282611c05565b604082019050919050565b60006115ba6020836118b6565b91506115c582611c54565b602082019050919050565b60006115dd6021836118b6565b91506115e882611c7d565b604082019050919050565b60006116006025836118b6565b915061160b82611ccc565b604082019050919050565b60006116236024836118b6565b915061162e82611d1b565b604082019050919050565b60006116466025836118b6565b915061165182611d6a565b604082019050919050565b6000611669601f836118b6565b915061167482611db9565b602082019050919050565b6116888161198f565b82525050565b61169781611999565b82525050565b60006020820190506116b26000830184611484565b92915050565b60006020820190506116cd6000830184611493565b92915050565b600060208201905081810360008301526116ed81846114a2565b905092915050565b6000602082019050818103600083015261170e816114db565b9050919050565b6000602082019050818103600083015261172e816114fe565b9050919050565b6000602082019050818103600083015261174e81611521565b9050919050565b6000602082019050818103600083015261176e81611544565b9050919050565b6000602082019050818103600083015261178e81611567565b9050919050565b600060208201905081810360008301526117ae8161158a565b9050919050565b600060208201905081810360008301526117ce816115ad565b9050919050565b600060208201905081810360008301526117ee816115d0565b9050919050565b6000602082019050818103600083015261180e816115f3565b9050919050565b6000602082019050818103600083015261182e81611616565b9050919050565b6000602082019050818103600083015261184e81611639565b9050919050565b6000602082019050818103600083015261186e8161165c565b9050919050565b600060208201905061188a600083018461167f565b92915050565b60006020820190506118a5600083018461168e565b92915050565b600081519050919050565b600082825260208201905092915050565b60006118d28261198f565b91506118dd8361198f565b9250827fffffffffffffffffffffffffffffffffffffffffffffffffffffffffffffffff0382111561191257611911611a0b565b5b828201905092915050565b60006119288261198f565b91506119338361198f565b92508282101561194657611945611a0b565b5b828203905092915050565b600061195c8261196f565b9050919050565b60008115159050919050565b600073ffffffffffffffffffffffffffffffffffffffff82169050919050565b6000819050919050565b600060ff82169050919050565b60005b838110156119c45780820151818401526020810190506119a9565b838111156119d3576000848401525b50505050565b600060028204905060018216806119f157607f821691505b60208210811415611a0557611a04611a3a565b5b50919050565b7f4e487b7100000000000000000000000000000000000000000000000000000000600052601160045260246000fd5b7f4e487b7100000000000000000000000000000000000000000000000000000000600052602260045260246000fd5b6000601f19601f8301169050919050565b7f45524332303a207472616e7366657220746f20746865207a65726f206164647260008201527f6573730000000000000000000000000000000000000000000000000000000000602082015250565b7f45524332303a206275726e20616d6f756e7420657863656564732062616c616e60008201527f6365000000000000000000000000000000000000000000000000000000000000602082015250565b7f4f776e61626c653a206e6577206f776e657220697320746865207a65726f206160008201527f6464726573730000000000000000000000000000000000000000000000000000602082015250565b7f45524332303a20617070726f766520746f20746865207a65726f20616464726560008201527f7373000000000000000000000000000000000000000000000000000000000000602082015250565b7f45524332303a207472616e7366657220616d6f756e742065786365656473206260008201527f616c616e63650000000000000000000000000000000000000000000000000000602082015250565b7f45524332303a207472616e7366657220616d6f756e742065786365656473206160008201527f6c6c6f77616e6365000000000000000000000000000000000000000000000000602082015250565b7f4f776e61626c653a2063616c6c6572206973206e6f7420746865206f776e6572600082015250565b7f45524332303a206275726e2066726f6d20746865207a65726f2061646472657360008201527f7300000000000000000000000000000000000000000000000000000000000000602082015250565b7f45524332303a207472616e736665722066726f6d20746865207a65726f20616460008201527f6472657373000000000000000000000000000000000000000000000000000000602082015250565b7f45524332303a20617070726f76652066726f6d20746865207a65726f2061646460008201527f7265737300000000000000000000000000000000000000000000000000000000602082015250565b7f45524332303a2064656372656173656420616c6c6f77616e63652062656c6f7760008201527f207a65726f000000000000000000000000000000000000000000000000000000602082015250565b7f45524332303a206d696e7420746f20746865207a65726f206164647265737300600082015250565b611deb81611951565b8114611df657600080fd5b50565b611e028161198f565b8114611e0d57600080fd5b5056fea2646970667358221220a2ea31a29a93a60fbd2609cd00aec00a0a331936def67946293f19994c81351364736f6c63430008040033a2646970667358221220e9065313339cc30023ac65e5fa91a61908d7473c7e803f9a3b5aa73e7b7e0d4064736f6c63430008040033",
  "linkReferences": {},
  "deployedLinkReferences": {}
}