{
  "_format": "hh-sol-artifact-1",
  "contractName": "Vault",
  "sourceName": "contracts/Vault.sol",
  "abi": [
    {
      "inputs": [
        {
          "internalType": "address",
          "name": "_wEthAddr",
          "type": "address"
        },
        {
          "internalType": "address",
          "name": "oracle",
          "type": "address"
        }
      ],
      "stateMutability": "nonpayable",
      "type": "constructor"
    },
    {
      "anonymous": false,
      "inputs": [
        {
          "indexed": false,
          "internalType": "address",
          "name": "from",
          "type": "address"
        },
        {
          "indexed": false,
          "internalType": "uint256",
          "name": "tokenId",
          "type": "uint256"
        },
        {
          "indexed": false,
          "internalType": "uint256",
          "name": "internalId",
          "type": "uint256"
        },
        {
          "indexed": false,
          "internalType": "address",
          "name": "nftAddr",
          "type": "address"
        }
      ],
      "name": "Recieved",
      "type": "event"
    },
    {
      "anonymous": false,
      "inputs": [
        {
          "indexed": false,
          "internalType": "address",
          "name": "to",
          "type": "address"
        },
        {
          "indexed": false,
          "internalType": "uint256",
          "name": "tokenId",
          "type": "uint256"
        },
        {
          "indexed": false,
          "internalType": "uint256",
          "name": "internalId",
          "type": "uint256"
        },
        {
          "indexed": false,
          "internalType": "address",
          "name": "nftAddr",
          "type": "address"
        }
      ],
      "name": "Released",
      "type": "event"
    },
    {
      "anonymous": false,
      "inputs": [
        {
          "indexed": true,
          "internalType": "bytes32",
          "name": "role",
          "type": "bytes32"
        },
        {
          "indexed": true,
          "internalType": "bytes32",
          "name": "previousAdminRole",
          "type": "bytes32"
        },
        {
          "indexed": true,
          "internalType": "bytes32",
          "name": "newAdminRole",
          "type": "bytes32"
        }
      ],
      "name": "RoleAdminChanged",
      "type": "event"
    },
    {
      "anonymous": false,
      "inputs": [
        {
          "indexed": true,
          "internalType": "bytes32",
          "name": "role",
          "type": "bytes32"
        },
        {
          "indexed": true,
          "internalType": "address",
          "name": "account",
          "type": "address"
        },
        {
          "indexed": true,
          "internalType": "address",
          "name": "sender",
          "type": "address"
        }
      ],
      "name": "RoleGranted",
      "type": "event"
    },
    {
      "anonymous": false,
      "inputs": [
        {
          "indexed": true,
          "internalType": "bytes32",
          "name": "role",
          "type": "bytes32"
        },
        {
          "indexed": true,
          "internalType": "address",
          "name": "account",
          "type": "address"
        },
        {
          "indexed": true,
          "internalType": "address",
          "name": "sender",
          "type": "address"
        }
      ],
      "name": "RoleRevoked",
      "type": "event"
    },
    {
      "anonymous": false,
      "inputs": [
        {
          "indexed": false,
          "internalType": "address",
          "name": "from",
          "type": "address"
        },
        {
          "indexed": false,
          "internalType": "uint256",
          "name": "tokenId",
          "type": "uint256"
        },
        {
          "indexed": false,
          "internalType": "uint256",
          "name": "internalId",
          "type": "uint256"
        },
        {
          "indexed": false,
          "internalType": "uint256",
          "name": "xChainInternalId",
          "type": "uint256"
        },
        {
          "indexed": false,
          "internalType": "address",
          "name": "nftAddr",
          "type": "address"
        },
        {
          "indexed": false,
          "internalType": "uint256",
          "name": "chainId",
          "type": "uint256"
        }
      ],
      "name": "XChainRegistered",
      "type": "event"
    },
    {
      "anonymous": false,
      "inputs": [
        {
          "indexed": false,
          "internalType": "address",
          "name": "to",
          "type": "address"
        },
        {
          "indexed": false,
          "internalType": "uint256",
          "name": "tokenId",
          "type": "uint256"
        },
        {
          "indexed": false,
          "internalType": "uint256",
          "name": "internalId",
          "type": "uint256"
        },
        {
          "indexed": false,
          "internalType": "uint256",
          "name": "xChainInternalId",
          "type": "uint256"
        },
        {
          "indexed": false,
          "internalType": "address",
          "name": "nftAddr",
          "type": "address"
        },
        {
          "indexed": false,
          "internalType": "uint256",
          "name": "chainId",
          "type": "uint256"
        }
      ],
      "name": "XChainRelease",
      "type": "event"
    },
    {
      "inputs": [],
      "name": "DEFAULT_ADMIN_ROLE",
      "outputs": [
        {
          "internalType": "bytes32",
          "name": "",
          "type": "bytes32"
        }
      ],
      "stateMutability": "view",
      "type": "function"
    },
    {
      "inputs": [],
      "name": "ORACLE_ROLE",
      "outputs": [
        {
          "internalType": "bytes32",
          "name": "",
          "type": "bytes32"
        }
      ],
      "stateMutability": "view",
      "type": "function"
    },
    {
      "inputs": [],
      "name": "OWNER",
      "outputs": [
        {
          "internalType": "bytes32",
          "name": "",
          "type": "bytes32"
        }
      ],
      "stateMutability": "view",
      "type": "function"
    },
    {
      "inputs": [
        {
          "internalType": "uint256",
          "name": "internalId",
          "type": "uint256"
        },
        {
          "internalType": "address",
          "name": "account",
          "type": "address"
        },
        {
          "internalType": "uint256",
          "name": "amount",
          "type": "uint256"
        }
      ],
      "name": "approveNFTokenTransfer",
      "outputs": [],
      "stateMutability": "nonpayable",
      "type": "function"
    },
    {
      "inputs": [
        {
          "internalType": "uint256",
          "name": "internalId",
          "type": "uint256"
        },
        {
          "internalType": "uint256",
          "name": "amountOfFrac",
          "type": "uint256"
        },
        {
          "internalType": "address",
          "name": "buyer",
          "type": "address"
        }
      ],
      "name": "buyTokens",
      "outputs": [],
      "stateMutability": "nonpayable",
      "type": "function"
    },
    {
      "inputs": [
        {
          "internalType": "uint256",
          "name": "internalId",
          "type": "uint256"
        },
        {
          "internalType": "uint256",
          "name": "amountOfFrac",
          "type": "uint256"
        }
      ],
      "name": "buyTokensIndividual",
      "outputs": [],
      "stateMutability": "nonpayable",
      "type": "function"
    },
    {
      "inputs": [
        {
          "internalType": "uint256",
          "name": "internalId",
          "type": "uint256"
        },
        {
          "internalType": "address",
          "name": "account",
          "type": "address"
        }
      ],
      "name": "buyoutERC721",
      "outputs": [],
      "stateMutability": "nonpayable",
      "type": "function"
    },
    {
      "inputs": [
        {
          "internalType": "uint256",
          "name": "_amountOfwEth",
          "type": "uint256"
        },
        {
          "internalType": "uint256",
          "name": "internalId",
          "type": "uint256"
        }
      ],
      "name": "calculateAmountOfFrac",
      "outputs": [
        {
          "internalType": "uint256",
          "name": "",
          "type": "uint256"
        }
      ],
      "stateMutability": "nonpayable",
      "type": "function"
    },
    {
      "inputs": [
        {
          "internalType": "uint256",
          "name": "_amountOfFrac",
          "type": "uint256"
        },
        {
          "internalType": "uint256",
          "name": "internalId",
          "type": "uint256"
        }
      ],
      "name": "calculateAmountOfwEth",
      "outputs": [
        {
          "internalType": "uint256",
          "name": "",
          "type": "uint256"
        }
      ],
      "stateMutability": "nonpayable",
      "type": "function"
    },
    {
      "inputs": [
        {
          "internalType": "uint256",
          "name": "internalId",
          "type": "uint256"
        },
        {
          "internalType": "address",
          "name": "account",
          "type": "address"
        },
        {
          "internalType": "uint256",
          "name": "amount",
          "type": "uint256"
        }
      ],
      "name": "depositNFToken",
      "outputs": [],
      "stateMutability": "nonpayable",
      "type": "function"
    },
    {
      "inputs": [
        {
          "internalType": "uint256",
          "name": "internalId",
          "type": "uint256"
        },
        {
          "internalType": "address",
          "name": "account",
          "type": "address"
        }
      ],
      "name": "getDepositAmount",
      "outputs": [
        {
          "internalType": "uint256",
          "name": "",
          "type": "uint256"
        }
      ],
      "stateMutability": "view",
      "type": "function"
    },
    {
      "inputs": [
        {
          "internalType": "uint256",
          "name": "internalId",
          "type": "uint256"
        }
      ],
      "name": "getERC721ChainId",
      "outputs": [
        {
          "internalType": "uint256",
          "name": "",
          "type": "uint256"
        }
      ],
      "stateMutability": "view",
      "type": "function"
    },
    {
      "inputs": [
        {
          "internalType": "uint256",
          "name": "internalId",
          "type": "uint256"
        }
      ],
      "name": "getERC721ContractAddr",
      "outputs": [
        {
          "internalType": "address",
          "name": "",
          "type": "address"
        }
      ],
      "stateMutability": "view",
      "type": "function"
    },
    {
      "inputs": [
        {
          "internalType": "uint256",
          "name": "internalId",
          "type": "uint256"
        }
      ],
      "name": "getERC721Native",
      "outputs": [
        {
          "internalType": "bool",
          "name": "",
          "type": "bool"
        }
      ],
      "stateMutability": "view",
      "type": "function"
    },
    {
      "inputs": [
        {
          "internalType": "uint256",
          "name": "internalId",
          "type": "uint256"
        }
      ],
      "name": "getERC721TokenId",
      "outputs": [
        {
          "internalType": "uint256",
          "name": "",
          "type": "uint256"
        }
      ],
      "stateMutability": "view",
      "type": "function"
    },
    {
      "inputs": [
        {
          "internalType": "uint256",
          "name": "internalId",
          "type": "uint256"
        }
      ],
      "name": "getERC721XChainInternalId",
      "outputs": [
        {
          "internalType": "uint256",
          "name": "",
          "type": "uint256"
        }
      ],
      "stateMutability": "view",
      "type": "function"
    },
    {
      "inputs": [],
      "name": "getInternalIdCounter",
      "outputs": [
        {
          "internalType": "uint256",
          "name": "",
          "type": "uint256"
        }
      ],
      "stateMutability": "view",
      "type": "function"
    },
    {
      "inputs": [
        {
          "internalType": "uint256",
          "name": "internalId",
          "type": "uint256"
        }
      ],
      "name": "getNFTContractAddr",
      "outputs": [
        {
          "internalType": "address",
          "name": "",
          "type": "address"
        }
      ],
      "stateMutability": "view",
      "type": "function"
    },
    {
      "inputs": [
        {
          "internalType": "uint256",
          "name": "internalId",
          "type": "uint256"
        }
      ],
      "name": "getNFTokenAddr",
      "outputs": [
        {
          "internalType": "address",
          "name": "",
          "type": "address"
        }
      ],
      "stateMutability": "view",
      "type": "function"
    },
    {
      "inputs": [
        {
          "internalType": "uint256",
          "name": "internalId",
          "type": "uint256"
        },
        {
          "internalType": "address",
          "name": "account",
          "type": "address"
        }
      ],
      "name": "getNFTokenBalance",
      "outputs": [
        {
          "internalType": "uint256",
          "name": "",
          "type": "uint256"
        }
      ],
      "stateMutability": "view",
      "type": "function"
    },
    {
      "inputs": [
        {
          "internalType": "uint256",
          "name": "internalId",
          "type": "uint256"
        }
      ],
      "name": "getNFTokenSupply",
      "outputs": [
        {
          "internalType": "uint256",
          "name": "",
          "type": "uint256"
        }
      ],
      "stateMutability": "view",
      "type": "function"
    },
    {
      "inputs": [
        {
          "internalType": "address",
          "name": "account",
          "type": "address"
        }
      ],
      "name": "getNumIdsOwned",
      "outputs": [
        {
          "internalType": "uint256",
          "name": "",
          "type": "uint256"
        }
      ],
      "stateMutability": "view",
      "type": "function"
    },
    {
      "inputs": [],
      "name": "getNumberDepositedERC721s",
      "outputs": [
        {
          "internalType": "uint256",
          "name": "",
          "type": "uint256"
        }
      ],
      "stateMutability": "view",
      "type": "function"
    },
    {
      "inputs": [
        {
          "internalType": "uint256",
          "name": "internalId",
          "type": "uint256"
        }
      ],
      "name": "getOwned",
      "outputs": [
        {
          "internalType": "bool",
          "name": "",
          "type": "bool"
        }
      ],
      "stateMutability": "view",
      "type": "function"
    },
    {
      "inputs": [
        {
          "internalType": "address",
          "name": "account",
          "type": "address"
        }
      ],
      "name": "getOwnedInternalIds",
      "outputs": [
        {
          "internalType": "uint256[]",
          "name": "",
          "type": "uint256[]"
        }
      ],
      "stateMutability": "view",
      "type": "function"
    },
    {
      "inputs": [
        {
          "internalType": "bytes32",
          "name": "role",
          "type": "bytes32"
        }
      ],
      "name": "getRoleAdmin",
      "outputs": [
        {
          "internalType": "bytes32",
          "name": "",
          "type": "bytes32"
        }
      ],
      "stateMutability": "view",
      "type": "function"
    },
    {
      "inputs": [],
      "name": "getwEthAddr",
      "outputs": [
        {
          "internalType": "address",
          "name": "",
          "type": "address"
        }
      ],
      "stateMutability": "nonpayable",
      "type": "function"
    },
    {
      "inputs": [
        {
          "internalType": "address",
          "name": "account",
          "type": "address"
        }
      ],
      "name": "grantOracle",
      "outputs": [],
      "stateMutability": "nonpayable",
      "type": "function"
    },
    {
      "inputs": [
        {
          "internalType": "bytes32",
          "name": "role",
          "type": "bytes32"
        },
        {
          "internalType": "address",
          "name": "account",
          "type": "address"
        }
      ],
      "name": "grantRole",
      "outputs": [],
      "stateMutability": "nonpayable",
      "type": "function"
    },
    {
      "inputs": [
        {
          "internalType": "bytes32",
          "name": "role",
          "type": "bytes32"
        },
        {
          "internalType": "address",
          "name": "account",
          "type": "address"
        }
      ],
      "name": "hasRole",
      "outputs": [
        {
          "internalType": "bool",
          "name": "",
          "type": "bool"
        }
      ],
      "stateMutability": "view",
      "type": "function"
    },
    {
      "inputs": [
        {
          "internalType": "uint256",
          "name": "supply",
          "type": "uint256"
        },
        {
          "internalType": "string",
          "name": "name",
          "type": "string"
        },
        {
          "internalType": "string",
          "name": "ticker",
          "type": "string"
        },
        {
          "internalType": "uint256",
          "name": "internalId",
          "type": "uint256"
        },
        {
          "internalType": "uint256",
          "name": "amountToKeep",
          "type": "uint256"
        }
      ],
      "name": "mintTokensForNFT",
      "outputs": [
        {
          "internalType": "contract NFToken",
          "name": "",
          "type": "address"
        }
      ],
      "stateMutability": "nonpayable",
      "type": "function"
    },
    {
      "inputs": [
        {
          "internalType": "address",
          "name": "operator",
          "type": "address"
        },
        {
          "internalType": "address",
          "name": "from",
          "type": "address"
        },
        {
          "internalType": "uint256",
          "name": "tokenId",
          "type": "uint256"
        },
        {
          "internalType": "bytes",
          "name": "data",
          "type": "bytes"
        }
      ],
      "name": "onERC721Received",
      "outputs": [
        {
          "internalType": "bytes4",
          "name": "",
          "type": "bytes4"
        }
      ],
      "stateMutability": "nonpayable",
      "type": "function"
    },
    {
      "inputs": [
        {
          "internalType": "address",
          "name": "sender",
          "type": "address"
        },
        {
          "internalType": "uint256",
          "name": "tokenId",
          "type": "uint256"
        },
        {
          "internalType": "uint256",
          "name": "xChainInternalId",
          "type": "uint256"
        },
        {
          "internalType": "address",
          "name": "nftAddr",
          "type": "address"
        },
        {
          "internalType": "uint256",
          "name": "chainId",
          "type": "uint256"
        }
      ],
      "name": "registerXChainNFT",
      "outputs": [],
      "stateMutability": "nonpayable",
      "type": "function"
    },
    {
      "inputs": [
        {
          "internalType": "bytes32",
          "name": "role",
          "type": "bytes32"
        },
        {
          "internalType": "address",
          "name": "account",
          "type": "address"
        }
      ],
      "name": "renounceRole",
      "outputs": [],
      "stateMutability": "nonpayable",
      "type": "function"
    },
    {
      "inputs": [
        {
          "internalType": "bytes32",
          "name": "role",
          "type": "bytes32"
        },
        {
          "internalType": "address",
          "name": "account",
          "type": "address"
        }
      ],
      "name": "revokeRole",
      "outputs": [],
      "stateMutability": "nonpayable",
      "type": "function"
    },
    {
      "inputs": [
        {
          "internalType": "uint256",
          "name": "internalId",
          "type": "uint256"
        },
        {
          "internalType": "uint256",
          "name": "amountOfwEth",
          "type": "uint256"
        },
        {
          "internalType": "address",
          "name": "seller",
          "type": "address"
        }
      ],
      "name": "sellTokens",
      "outputs": [],
      "stateMutability": "nonpayable",
      "type": "function"
    },
    {
      "inputs": [
        {
          "internalType": "uint256",
          "name": "internalId",
          "type": "uint256"
        },
        {
          "internalType": "uint256",
          "name": "amountOfwEth",
          "type": "uint256"
        }
      ],
      "name": "sellTokensIndividual",
      "outputs": [],
      "stateMutability": "nonpayable",
      "type": "function"
    },
    {
      "inputs": [
        {
          "internalType": "bytes4",
          "name": "interfaceId",
          "type": "bytes4"
        }
      ],
      "name": "supportsInterface",
      "outputs": [
        {
          "internalType": "bool",
          "name": "",
          "type": "bool"
        }
      ],
      "stateMutability": "view",
      "type": "function"
    },
    {
      "inputs": [
        {
          "internalType": "uint256",
          "name": "internalId",
          "type": "uint256"
        },
        {
          "internalType": "address",
          "name": "account",
          "type": "address"
        },
        {
          "internalType": "uint256",
          "name": "amount",
          "type": "uint256"
        }
      ],
      "name": "withdrawNFToken",
      "outputs": [],
      "stateMutability": "nonpayable",
      "type": "function"
    }
  ],
  "bytecode": "0x608060405260006002553480156200001657600080fd5b50604051620062713803806200627183398181016040528101906200003c91906200034d565b81600160006101000a81548173ffffffffffffffffffffffffffffffffffffffff021916908373ffffffffffffffffffffffffffffffffffffffff160217905550620000af7f6270edb7c868f86fda4adedba75108201087268ea345934db8bad688e1feb91b336200013b60201b60201c565b620000e17f68e79a7bf1e0bc45d0a330c573bc367f9cf464fd326078812f301165fbda4ef1826200013b60201b60201c565b620001337f68e79a7bf1e0bc45d0a330c573bc367f9cf464fd326078812f301165fbda4ef17f6270edb7c868f86fda4adedba75108201087268ea345934db8bad688e1feb91b6200015160201b60201c565b5050620003dc565b6200014d8282620001b460201b60201c565b5050565b60006200016483620002a560201b60201c565b905081600080858152602001908152602001600020600101819055508181847fbd79b86ffe0ab8e8776151514217cd7cacd52c909f66475c3af44e129f0b00ff60405160405180910390a4505050565b620001c68282620002c460201b60201c565b620002a157600160008084815260200190815260200160002060000160008373ffffffffffffffffffffffffffffffffffffffff1673ffffffffffffffffffffffffffffffffffffffff16815260200190815260200160002060006101000a81548160ff021916908315150217905550620002466200032e60201b60201c565b73ffffffffffffffffffffffffffffffffffffffff168173ffffffffffffffffffffffffffffffffffffffff16837f2f8788117e7eff1d82e926ec794901d17c78024a50270940304540a733656f0d60405160405180910390a45b5050565b6000806000838152602001908152602001600020600101549050919050565b600080600084815260200190815260200160002060000160008373ffffffffffffffffffffffffffffffffffffffff1673ffffffffffffffffffffffffffffffffffffffff16815260200190815260200160002060009054906101000a900460ff16905092915050565b600033905090565b6000815190506200034781620003c2565b92915050565b600080604083850312156200036157600080fd5b6000620003718582860162000336565b9250506020620003848582860162000336565b9150509250929050565b60006200039b82620003a2565b9050919050565b600073ffffffffffffffffffffffffffffffffffffffff82169050919050565b620003cd816200038e565b8114620003d957600080fd5b50565b615e8580620003ec6000396000f3fe60806040523480156200001157600080fd5b5060043610620002745760003560e01c806380168c7b1162000159578063bd3d433711620000c9578063d547741f1162000087578063d547741f1462000851578063de75a5c01462000871578063e683c23914620008a7578063ef569f9a14620008c7578063f605a25414620008e75762000274565b8063bd3d4337146200079b578063be7a178914620007bb578063c168787714620007db578063c44f7a1714620007fb578063cae244b4146200081b5762000274565b8063a919b74a1162000117578063a919b74a14620006b7578063af3ddc1a14620006ed578063b1e2bcb3146200070d578063b7cebb3e1462000743578063b9ca983814620007655762000274565b806380168c7b14620005bd57806386b5e7ea14620005f357806391d1485414620006295780639eefad98146200065f578063a217fddf14620006955762000274565b8063312f0d8011620001f557806349f1c75311620001b357806349f1c75314620004d95780634debe86a146200050f5780635a34a272146200053157806365d51d881462000551578063742f23c714620005875762000274565b8063312f0d80146200040b57806336568abe146200042b578063397bafd6146200044b57806340aa97ec146200046d578063442f6bd914620004a35762000274565b8063117803e31162000243578063117803e3146200033d578063150b7a02146200035f5780631b2d83cd1462000395578063248a9ca314620003b55780632f2ff15d14620003eb5762000274565b806301ffc9a7146200027957806307e2cea514620002af5780630b1a08e514620002d1578063102af7481462000307575b600080fd5b6200029760048036038101906200029191906200317a565b6200091d565b604051620002a6919062003950565b60405180910390f35b620002b96200099a565b604051620002c891906200396d565b60405180910390f35b620002ef6004803603810190620002e9919062003349565b620009be565b604051620002fe919062003b5e565b60405180910390f35b6200032560048036038101906200031f919062002fae565b620009ec565b6040516200033491906200392c565b60405180910390f35b6200034762000c51565b6040516200035691906200396d565b60405180910390f35b6200037d600480360381019062000377919062002fda565b62000c75565b6040516200038c91906200398a565b60405180910390f35b620003b36004803603810190620003ad91906200323f565b62000fe1565b005b620003d36004803603810190620003cd91906200310d565b62001069565b604051620003e291906200396d565b60405180910390f35b62000409600480360381019062000403919062003139565b62001088565b005b620004296004803603810190620004239190620031fe565b620010b9565b005b62000449600480360381019062000443919062003139565b620012b6565b005b6200045562001340565b60405162000464919062003b5e565b60405180910390f35b6200048b600480360381019062000485919062002fae565b62001358565b6040516200049a919062003b5e565b60405180910390f35b620004c16004803603810190620004bb919062003295565b620013a1565b604051620004d09190620039a7565b60405180910390f35b620004f76004803603810190620004f19190620031a6565b620016c5565b60405162000506919062003790565b60405180910390f35b6200051962001705565b60405162000528919062003790565b60405180910390f35b6200054f60048036038101906200054991906200305f565b6200172f565b005b6200056f600480360381019062000569919062003349565b62001ae5565b6040516200057e919062003b5e565b60405180910390f35b620005a560048036038101906200059f9190620031a6565b62001b13565b604051620005b4919062003790565b60405180910390f35b620005db6004803603810190620005d59190620031a6565b62001b53565b604051620005ea919062003b5e565b60405180910390f35b6200061160048036038101906200060b9190620031a6565b62001b73565b60405162000620919062003790565b60405180910390f35b62000647600480360381019062000641919062003139565b62001bb3565b60405162000656919062003950565b60405180910390f35b6200067d6004803603810190620006779190620031a6565b62001c1d565b6040516200068c919062003b5e565b60405180910390f35b6200069f62001cb7565b604051620006ae91906200396d565b60405180910390f35b620006d56004803603810190620006cf9190620031a6565b62001cbe565b604051620006e4919062003950565b60405180910390f35b6200070b60048036038101906200070591906200323f565b62001ceb565b005b6200072b6004803603810190620007259190620031a6565b62001e4e565b6040516200073a919062003b5e565b60405180910390f35b6200074d62001e6e565b6040516200075c919062003b5e565b60405180910390f35b6200078360048036038101906200077d9190620031a6565b62001e78565b60405162000792919062003b5e565b60405180910390f35b620007b96004803603810190620007b3919062003349565b62001e98565b005b620007d96004803603810190620007d3919062002fae565b62001ea9565b005b620007f96004803603810190620007f391906200338a565b62001f0f565b005b6200081960048036038101906200081391906200323f565b620021c4565b005b620008396004803603810190620008339190620031fe565b62002329565b60405162000848919062003b5e565b60405180910390f35b6200086f600480360381019062000869919062003139565b620023d1565b005b6200088f6004803603810190620008899190620031fe565b62002402565b6040516200089e919062003b5e565b60405180910390f35b620008c56004803603810190620008bf919062003349565b6200245d565b005b620008e56004803603810190620008df91906200338a565b6200246e565b005b620009056004803603810190620008ff9190620031a6565b62002723565b60405162000914919062003950565b60405180910390f35b60007f7965db0b000000000000000000000000000000000000000000000000000000007bffffffffffffffffffffffffffffffffffffffffffffffffffffffff1916827bffffffffffffffffffffffffffffffffffffffffffffffffffffffff19161480620009935750620009928262002750565b5b9050919050565b7f68e79a7bf1e0bc45d0a330c573bc367f9cf464fd326078812f301165fbda4ef181565b6000826003600084815260200190815260200160002060080154620009e4919062003d05565b905092915050565b60606000620009fb8362001358565b905060008167ffffffffffffffff81111562000a40577f4e487b7100000000000000000000000000000000000000000000000000000000600052604160045260246000fd5b60405190808252806020026020018201604052801562000a6f5781602001602082028036833780820191505090505b5090506000805b600560008773ffffffffffffffffffffffffffffffffffffffff1673ffffffffffffffffffffffffffffffffffffffff1681526020019081526020016000208054905081101562000c455762000b4e600560008873ffffffffffffffffffffffffffffffffffffffff1673ffffffffffffffffffffffffffffffffffffffff168152602001908152602001600020828154811062000b3d577f4e487b7100000000000000000000000000000000000000000000000000000000600052603260045260246000fd5b906000526020600020015462001cbe565b1562000c2f57600560008773ffffffffffffffffffffffffffffffffffffffff1673ffffffffffffffffffffffffffffffffffffffff168152602001908152602001600020818154811062000bcc577f4e487b7100000000000000000000000000000000000000000000000000000000600052603260045260246000fd5b906000526020600020015483838151811062000c11577f4e487b7100000000000000000000000000000000000000000000000000000000600052603260045260246000fd5b60200260200101818152505060018262000c2c919062003c70565b91505b808062000c3c9062003ef3565b91505062000a76565b50819350505050919050565b7f6270edb7c868f86fda4adedba75108201087268ea345934db8bad688e1feb91b81565b600062000c8162002d99565b60025481606001818152505033816080019073ffffffffffffffffffffffffffffffffffffffff16908173ffffffffffffffffffffffffffffffffffffffff1681525050848160c0019073ffffffffffffffffffffffffffffffffffffffff16908173ffffffffffffffffffffffffffffffffffffffff1681525050838160a0018181525050600181610100018181525050600181610120019015159081151581525050600181604001901515908115158152505080600360006002548152602001908152602001600020600082015181600001556020820151816001015560408201518160020160006101000a81548160ff0219169083151502179055506060820151816003015560808201518160040160006101000a81548173ffffffffffffffffffffffffffffffffffffffff021916908373ffffffffffffffffffffffffffffffffffffffff16021790555060a0820151816005015560c08201518160060160006101000a81548173ffffffffffffffffffffffffffffffffffffffff021916908373ffffffffffffffffffffffffffffffffffffffff16021790555060e08201518160070160006101000a81548173ffffffffffffffffffffffffffffffffffffffff021916908373ffffffffffffffffffffffffffffffffffffffff16021790555061010082015181600801556101208201518160090160006101000a81548160ff021916908315150217905550905050600560008260c0015173ffffffffffffffffffffffffffffffffffffffff1673ffffffffffffffffffffffffffffffffffffffff168152602001908152602001600020816060015190806001815401808255809150506001900390600052602060002001600090919091909150556001600660008360c0015173ffffffffffffffffffffffffffffffffffffffff1673ffffffffffffffffffffffffffffffffffffffff168152602001908152602001600020600082825462000f5c919062003c70565b925050819055507f935d05cbf9fa27cbf03a09eb57f4384da509a8e34d406b8b8e1c21b249e25c168160c001518260a001518360600151846080015160405162000faa949392919062003872565b60405180910390a160016002600082825462000fc7919062003c70565b9250508190555063150b7a0260e01b915050949350505050565b600062000fee8462001b73565b90508073ffffffffffffffffffffffffffffffffffffffff1663ca56c18a8430856040518463ffffffff1660e01b81526004016200102f93929190620037ad565b600060405180830381600087803b1580156200104a57600080fd5b505af11580156200105f573d6000803e3d6000fd5b5050505050505050565b6000806000838152602001908152602001600020600101549050919050565b620010938262001069565b620010a881620010a2620027ba565b620027c2565b620010b483836200286a565b505050565b620010c48262001c1d565b620010d0838362002402565b1462001113576040517f08c379a00000000000000000000000000000000000000000000000000000000081526004016200110a9062003a0a565b60405180910390fd5b6200111e8262002723565b15620011b7576000620011318362001b13565b90508073ffffffffffffffffffffffffffffffffffffffff166323b872dd30846200115c8762001b53565b6040518463ffffffff1660e01b81526004016200117c93929190620037ad565b600060405180830381600087803b1580156200119757600080fd5b505af1158015620011ac573d6000803e3d6000fd5b505050505062001223565b7f76a0fab679374dab1ee841100d0531e687faff72d4d5a449c25134cf0321dcb581620011e48462001b53565b84620011f08662001e4e565b620011fb8762001b13565b620012068862001e78565b6040516200121a96959493929190620038bf565b60405180910390a15b6001600660006003600086815260200190815260200160002060060160009054906101000a900473ffffffffffffffffffffffffffffffffffffffff1673ffffffffffffffffffffffffffffffffffffffff1673ffffffffffffffffffffffffffffffffffffffff1681526020019081526020016000206000828254620012ab919062003d66565b925050819055505050565b620012c0620027ba565b73ffffffffffffffffffffffffffffffffffffffff168173ffffffffffffffffffffffffffffffffffffffff161462001330576040517f08c379a0000000000000000000000000000000000000000000000000000000008152600401620013279062003b1a565b60405180910390fd5b6200133c82826200294f565b5050565b6000600160025462001353919062003d66565b905090565b6000600660008373ffffffffffffffffffffffffffffffffffffffff1673ffffffffffffffffffffffffffffffffffffffff168152602001908152602001600020549050919050565b60003373ffffffffffffffffffffffffffffffffffffffff166003600085815260200190815260200160002060060160009054906101000a900473ffffffffffffffffffffffffffffffffffffffff1673ffffffffffffffffffffffffffffffffffffffff16146200144a576040517f08c379a0000000000000000000000000000000000000000000000000000000008152600401620014419062003ab4565b60405180910390fd5b600073ffffffffffffffffffffffffffffffffffffffff166003600085815260200190815260200160002060070160009054906101000a900473ffffffffffffffffffffffffffffffffffffffff1673ffffffffffffffffffffffffffffffffffffffff1614620014f2576040517f08c379a0000000000000000000000000000000000000000000000000000000008152600401620014e99062003a70565b60405180910390fd5b600062001503308589898962002a35565b90508073ffffffffffffffffffffffffffffffffffffffff1663095ea7b330856040518363ffffffff1660e01b815260040162001542929190620037ea565b602060405180830381600087803b1580156200155d57600080fd5b505af115801562001572573d6000803e3d6000fd5b505050506040513d601f19601f82011682018060405250810190620015989190620030e1565b508073ffffffffffffffffffffffffffffffffffffffff1663a9059cbb6003600087815260200190815260200160002060060160009054906101000a900473ffffffffffffffffffffffffffffffffffffffff16856040518363ffffffff1660e01b81526004016200160c929190620037ea565b602060405180830381600087803b1580156200162757600080fd5b505af11580156200163c573d6000803e3d6000fd5b505050506040513d601f19601f82011682018060405250810190620016629190620030e1565b50806003600086815260200190815260200160002060070160006101000a81548173ffffffffffffffffffffffffffffffffffffffff021916908373ffffffffffffffffffffffffffffffffffffffff1602179055508091505095945050505050565b60006003600083815260200190815260200160002060040160009054906101000a900473ffffffffffffffffffffffffffffffffffffffff169050919050565b6000600160009054906101000a900473ffffffffffffffffffffffffffffffffffffffff16905090565b7f68e79a7bf1e0bc45d0a330c573bc367f9cf464fd326078812f301165fbda4ef162001765816200175f620027ba565b620027c2565b6200176f62002d99565b60025481606001818152505083816080019073ffffffffffffffffffffffffffffffffffffffff16908173ffffffffffffffffffffffffffffffffffffffff1681525050868160c0019073ffffffffffffffffffffffffffffffffffffffff16908173ffffffffffffffffffffffffffffffffffffffff1681525050858160a00181815250506001816101000181815250506001816101200190151590811515815250508281600001818152505084816020018181525050600081604001901515908115158152505080600360006002548152602001908152602001600020600082015181600001556020820151816001015560408201518160020160006101000a81548160ff0219169083151502179055506060820151816003015560808201518160040160006101000a81548173ffffffffffffffffffffffffffffffffffffffff021916908373ffffffffffffffffffffffffffffffffffffffff16021790555060a0820151816005015560c08201518160060160006101000a81548173ffffffffffffffffffffffffffffffffffffffff021916908373ffffffffffffffffffffffffffffffffffffffff16021790555060e08201518160070160006101000a81548173ffffffffffffffffffffffffffffffffffffffff021916908373ffffffffffffffffffffffffffffffffffffffff16021790555061010082015181600801556101208201518160090160006101000a81548160ff021916908315150217905550905050600560008260c0015173ffffffffffffffffffffffffffffffffffffffff1673ffffffffffffffffffffffffffffffffffffffff168152602001908152602001600020816060015190806001815401808255809150506001900390600052602060002001600090919091909150556001600660008360c0015173ffffffffffffffffffffffffffffffffffffffff1673ffffffffffffffffffffffffffffffffffffffff168152602001908152602001600020600082825462001a5e919062003c70565b925050819055507fc5117017542cd2066296045c1cadec88af60d3c7d575eb1971351d3e1927167a8160c001518260a00151836060015184602001518560800151866000015160405162001ab896959493929190620038bf565b60405180910390a160016002600082825462001ad5919062003c70565b9250508190555050505050505050565b600060036000838152602001908152602001600020600801548362001b0b919062003ccd565b905092915050565b60006003600083815260200190815260200160002060040160009054906101000a900473ffffffffffffffffffffffffffffffffffffffff169050919050565b600060036000838152602001908152602001600020600501549050919050565b60006003600083815260200190815260200160002060070160009054906101000a900473ffffffffffffffffffffffffffffffffffffffff169050919050565b600080600084815260200190815260200160002060000160008373ffffffffffffffffffffffffffffffffffffffff1673ffffffffffffffffffffffffffffffffffffffff16815260200190815260200160002060009054906101000a900460ff16905092915050565b60008062001c2b8362001b73565b90508073ffffffffffffffffffffffffffffffffffffffff166318160ddd6040518163ffffffff1660e01b815260040160206040518083038186803b15801562001c7457600080fd5b505afa15801562001c89573d6000803e3d6000fd5b505050506040513d601f19601f8201168201806040525081019062001caf9190620031d2565b915050919050565b6000801b81565b60006003600083815260200190815260200160002060090160009054906101000a900460ff169050919050565b62001cf7838362002402565b81111562001d3c576040517f08c379a000000000000000000000000000000000000000000000000000000000815260040162001d339062003a2c565b60405180910390fd5b80600460008473ffffffffffffffffffffffffffffffffffffffff1673ffffffffffffffffffffffffffffffffffffffff1681526020019081526020016000206000858152602001908152602001600020600082825462001d9e919062003d66565b92505081905550600062001db28462001b73565b90508073ffffffffffffffffffffffffffffffffffffffff1663a9059cbb84846040518363ffffffff1660e01b815260040162001df1929190620037ea565b602060405180830381600087803b15801562001e0c57600080fd5b505af115801562001e21573d6000803e3d6000fd5b505050506040513d601f19601f8201168201806040525081019062001e479190620030e1565b5050505050565b600060036000838152602001908152602001600020600101549050919050565b6000600254905090565b600060036000838152602001908152602001600020600001549050919050565b62001ea58282336200246e565b5050565b7f6270edb7c868f86fda4adedba75108201087268ea345934db8bad688e1feb91b62001edf8162001ed9620027ba565b620027c2565b62001f0b7f68e79a7bf1e0bc45d0a330c573bc367f9cf464fd326078812f301165fbda4ef1836200286a565b5050565b600062001f1c8462001b73565b9050600062001f2a62001705565b9050600062001f3a8587620009be565b9050848373ffffffffffffffffffffffffffffffffffffffff166370a08231306040518263ffffffff1660e01b815260040162001f78919062003790565b60206040518083038186803b15801562001f9157600080fd5b505afa15801562001fa6573d6000803e3d6000fd5b505050506040513d601f19601f8201168201806040525081019062001fcc9190620031d2565b101562002010576040517f08c379a0000000000000000000000000000000000000000000000000000000008152600401620020079062003b3c565b60405180910390fd5b8173ffffffffffffffffffffffffffffffffffffffff166323b872dd8530846040518463ffffffff1660e01b81526004016200204f93929190620037ad565b602060405180830381600087803b1580156200206a57600080fd5b505af11580156200207f573d6000803e3d6000fd5b505050506040513d601f19601f82011682018060405250810190620020a59190620030e1565b620020e7576040517f08c379a0000000000000000000000000000000000000000000000000000000008152600401620020de9062003a4e565b60405180910390fd5b8273ffffffffffffffffffffffffffffffffffffffff1663a9059cbb85876040518363ffffffff1660e01b815260040162002124929190620037ea565b602060405180830381600087803b1580156200213f57600080fd5b505af115801562002154573d6000803e3d6000fd5b505050506040513d601f19601f820116820180604052508101906200217a9190620030e1565b620021bc576040517f08c379a0000000000000000000000000000000000000000000000000000000008152600401620021b39062003a92565b60405180910390fd5b505050505050565b80620021d1848462002329565b101562002215576040517f08c379a00000000000000000000000000000000000000000000000000000000081526004016200220c9062003ad6565b60405180910390fd5b6000620022228462001b73565b90508073ffffffffffffffffffffffffffffffffffffffff166323b872dd8430856040518463ffffffff1660e01b81526004016200226393929190620037ad565b602060405180830381600087803b1580156200227e57600080fd5b505af115801562002293573d6000803e3d6000fd5b505050506040513d601f19601f82011682018060405250810190620022b99190620030e1565b5081600460008573ffffffffffffffffffffffffffffffffffffffff1673ffffffffffffffffffffffffffffffffffffffff168152602001908152602001600020600086815260200190815260200160002060008282546200231c919062003c70565b9250508190555050505050565b600080620023378462001b73565b90508073ffffffffffffffffffffffffffffffffffffffff166370a08231846040518263ffffffff1660e01b815260040162002374919062003790565b60206040518083038186803b1580156200238d57600080fd5b505afa158015620023a2573d6000803e3d6000fd5b505050506040513d601f19601f82011682018060405250810190620023c89190620031d2565b91505092915050565b620023dc8262001069565b620023f181620023eb620027ba565b620027c2565b620023fd83836200294f565b505050565b6000600460008373ffffffffffffffffffffffffffffffffffffffff1673ffffffffffffffffffffffffffffffffffffffff168152602001908152602001600020600084815260200190815260200160002054905092915050565b6200246a82823362001f0f565b5050565b60006200247b8462001b73565b905060006200248962001705565b9050600062002499858762001ae5565b9050808373ffffffffffffffffffffffffffffffffffffffff166370a08231866040518263ffffffff1660e01b8152600401620024d7919062003790565b60206040518083038186803b158015620024f057600080fd5b505afa15801562002505573d6000803e3d6000fd5b505050506040513d601f19601f820116820180604052508101906200252b9190620031d2565b10156200256f576040517f08c379a0000000000000000000000000000000000000000000000000000000008152600401620025669062003af8565b60405180910390fd5b8273ffffffffffffffffffffffffffffffffffffffff166323b872dd8530846040518463ffffffff1660e01b8152600401620025ae93929190620037ad565b602060405180830381600087803b158015620025c957600080fd5b505af1158015620025de573d6000803e3d6000fd5b505050506040513d601f19601f82011682018060405250810190620026049190620030e1565b62002646576040517f08c379a00000000000000000000000000000000000000000000000000000000081526004016200263d9062003a92565b60405180910390fd5b8173ffffffffffffffffffffffffffffffffffffffff1663a9059cbb85876040518363ffffffff1660e01b815260040162002683929190620037ea565b602060405180830381600087803b1580156200269e57600080fd5b505af1158015620026b3573d6000803e3d6000fd5b505050506040513d601f19601f82011682018060405250810190620026d99190620030e1565b6200271b576040517f08c379a0000000000000000000000000000000000000000000000000000000008152600401620027129062003a4e565b60405180910390fd5b505050505050565b60006003600083815260200190815260200160002060020160009054906101000a900460ff169050919050565b60007f01ffc9a7000000000000000000000000000000000000000000000000000000007bffffffffffffffffffffffffffffffffffffffffffffffffffffffff1916827bffffffffffffffffffffffffffffffffffffffffffffffffffffffff1916149050919050565b600033905090565b620027ce828262001bb3565b6200286657620027f68173ffffffffffffffffffffffffffffffffffffffff16601462002a8a565b620028068360001c602062002a8a565b604051602001620028199291906200374e565b6040516020818303038152906040526040517f08c379a00000000000000000000000000000000000000000000000000000000081526004016200285d9190620039c4565b60405180910390fd5b5050565b62002876828262001bb3565b6200294b57600160008084815260200190815260200160002060000160008373ffffffffffffffffffffffffffffffffffffffff1673ffffffffffffffffffffffffffffffffffffffff16815260200190815260200160002060006101000a81548160ff021916908315150217905550620028f0620027ba565b73ffffffffffffffffffffffffffffffffffffffff168173ffffffffffffffffffffffffffffffffffffffff16837f2f8788117e7eff1d82e926ec794901d17c78024a50270940304540a733656f0d60405160405180910390a45b5050565b6200295b828262001bb3565b1562002a3157600080600084815260200190815260200160002060000160008373ffffffffffffffffffffffffffffffffffffffff1673ffffffffffffffffffffffffffffffffffffffff16815260200190815260200160002060006101000a81548160ff021916908315150217905550620029d6620027ba565b73ffffffffffffffffffffffffffffffffffffffff168173ffffffffffffffffffffffffffffffffffffffff16837ff6391f5c32d9c69d2a47ea670b442974b53935d1edc7fd64eb21e047a839171b60405160405180910390a45b5050565b6000606060008786868660405162002a4d9062002e32565b62002a5c949392919062003817565b604051809103906000f08015801562002a79573d6000803e3d6000fd5b509050809250505095945050505050565b60606000600283600262002a9f919062003d05565b62002aab919062003c70565b67ffffffffffffffff81111562002aeb577f4e487b7100000000000000000000000000000000000000000000000000000000600052604160045260246000fd5b6040519080825280601f01601f19166020018201604052801562002b1e5781602001600182028036833780820191505090505b5090507f30000000000000000000000000000000000000000000000000000000000000008160008151811062002b7d577f4e487b7100000000000000000000000000000000000000000000000000000000600052603260045260246000fd5b60200101907effffffffffffffffffffffffffffffffffffffffffffffffffffffffffffff1916908160001a9053507f78000000000000000000000000000000000000000000000000000000000000008160018151811062002c08577f4e487b7100000000000000000000000000000000000000000000000000000000600052603260045260246000fd5b60200101907effffffffffffffffffffffffffffffffffffffffffffffffffffffffffffff1916908160001a9053506000600184600262002c4a919062003d05565b62002c56919062003c70565b90505b600181111562002d48577f3031323334353637383961626364656600000000000000000000000000000000600f86166010811062002cc0577f4e487b7100000000000000000000000000000000000000000000000000000000600052603260045260246000fd5b1a60f81b82828151811062002cfe577f4e487b7100000000000000000000000000000000000000000000000000000000600052603260045260246000fd5b60200101907effffffffffffffffffffffffffffffffffffffffffffffffffffffffffffff1916908160001a905350600485901c94508062002d409062003e8e565b905062002c59565b506000841462002d8f576040517f08c379a000000000000000000000000000000000000000000000000000000000815260040162002d8690620039e8565b60405180910390fd5b8091505092915050565b604051806101400160405280600081526020016000815260200160001515815260200160008152602001600073ffffffffffffffffffffffffffffffffffffffff16815260200160008152602001600073ffffffffffffffffffffffffffffffffffffffff168152602001600073ffffffffffffffffffffffffffffffffffffffff168152602001600081526020016000151581525090565b611af5806200435b83390190565b600062002e5762002e518462003ba4565b62003b7b565b90508281526020810184848401111562002e7057600080fd5b62002e7d84828562003e49565b509392505050565b600062002e9c62002e968462003bda565b62003b7b565b90508281526020810184848401111562002eb557600080fd5b62002ec284828562003e49565b509392505050565b60008135905062002edb81620042d8565b92915050565b60008151905062002ef281620042f2565b92915050565b60008135905062002f09816200430c565b92915050565b60008135905062002f208162004326565b92915050565b600082601f83011262002f3857600080fd5b813562002f4a84826020860162002e40565b91505092915050565b600082601f83011262002f6557600080fd5b813562002f7784826020860162002e85565b91505092915050565b60008135905062002f918162004340565b92915050565b60008151905062002fa88162004340565b92915050565b60006020828403121562002fc157600080fd5b600062002fd18482850162002eca565b91505092915050565b6000806000806080858703121562002ff157600080fd5b6000620030018782880162002eca565b9450506020620030148782880162002eca565b9350506040620030278782880162002f80565b925050606085013567ffffffffffffffff8111156200304557600080fd5b620030538782880162002f26565b91505092959194509250565b600080600080600060a086880312156200307857600080fd5b6000620030888882890162002eca565b95505060206200309b8882890162002f80565b9450506040620030ae8882890162002f80565b9350506060620030c18882890162002eca565b9250506080620030d48882890162002f80565b9150509295509295909350565b600060208284031215620030f457600080fd5b6000620031048482850162002ee1565b91505092915050565b6000602082840312156200312057600080fd5b6000620031308482850162002ef8565b91505092915050565b600080604083850312156200314d57600080fd5b60006200315d8582860162002ef8565b9250506020620031708582860162002eca565b9150509250929050565b6000602082840312156200318d57600080fd5b60006200319d8482850162002f0f565b91505092915050565b600060208284031215620031b957600080fd5b6000620031c98482850162002f80565b91505092915050565b600060208284031215620031e557600080fd5b6000620031f58482850162002f97565b91505092915050565b600080604083850312156200321257600080fd5b6000620032228582860162002f80565b9250506020620032358582860162002eca565b9150509250929050565b6000806000606084860312156200325557600080fd5b6000620032658682870162002f80565b9350506020620032788682870162002eca565b92505060406200328b8682870162002f80565b9150509250925092565b600080600080600060a08688031215620032ae57600080fd5b6000620032be8882890162002f80565b955050602086013567ffffffffffffffff811115620032dc57600080fd5b620032ea8882890162002f53565b945050604086013567ffffffffffffffff8111156200330857600080fd5b620033168882890162002f53565b9350506060620033298882890162002f80565b92505060806200333c8882890162002f80565b9150509295509295909350565b600080604083850312156200335d57600080fd5b60006200336d8582860162002f80565b9250506020620033808582860162002f80565b9150509250929050565b600080600060608486031215620033a057600080fd5b6000620033b08682870162002f80565b9350506020620033c38682870162002f80565b9250506040620033d68682870162002eca565b9150509250925092565b6000620033ee83836200372c565b60208301905092915050565b620034058162003da1565b82525050565b6000620034188262003c20565b62003424818562003c43565b9350620034318362003c10565b8060005b83811015620034685781516200344c8882620033e0565b9750620034598362003c36565b92505060018101905062003435565b5085935050505092915050565b620034808162003db5565b82525050565b620034918162003dc1565b82525050565b620034a28162003dcb565b82525050565b620034b38162003e21565b82525050565b6000620034c68262003c2b565b620034d2818562003c54565b9350620034e481856020860162003e58565b620034ef8162003fce565b840191505092915050565b6000620035078262003c2b565b62003513818562003c65565b93506200352581856020860162003e58565b80840191505092915050565b60006200354060208362003c54565b91506200354d8262003fdf565b602082019050919050565b60006200356760378362003c54565b9150620035748262004008565b604082019050919050565b60006200358e60208362003c54565b91506200359b8262004057565b602082019050919050565b6000620035b560178362003c54565b9150620035c28262004080565b602082019050919050565b6000620035dc60298362003c54565b9150620035e982620040a9565b604082019050919050565b600062003603601d8362003c54565b91506200361082620040f8565b602082019050919050565b60006200362a601d8362003c54565b9150620036378262004121565b602082019050919050565b60006200365160178362003c65565b91506200365e826200414a565b601782019050919050565b60006200367860218362003c54565b9150620036858262004173565b604082019050919050565b60006200369f60118362003c65565b9150620036ac82620041c2565b601182019050919050565b6000620036c660228362003c54565b9150620036d382620041eb565b604082019050919050565b6000620036ed602f8362003c54565b9150620036fa826200423a565b604082019050919050565b60006200371460228362003c54565b9150620037218262004289565b604082019050919050565b620037378162003e17565b82525050565b620037488162003e17565b82525050565b60006200375b8262003642565b9150620037698285620034fa565b9150620037768262003690565b9150620037848284620034fa565b91508190509392505050565b6000602082019050620037a76000830184620033fa565b92915050565b6000606082019050620037c46000830186620033fa565b620037d36020830185620033fa565b620037e260408301846200373d565b949350505050565b6000604082019050620038016000830185620033fa565b6200381060208301846200373d565b9392505050565b60006080820190506200382e6000830187620033fa565b6200383d60208301866200373d565b8181036040830152620038518185620034b9565b90508181036060830152620038678184620034b9565b905095945050505050565b6000608082019050620038896000830187620033fa565b6200389860208301866200373d565b620038a760408301856200373d565b620038b66060830184620033fa565b95945050505050565b600060c082019050620038d66000830189620033fa565b620038e560208301886200373d565b620038f460408301876200373d565b6200390360608301866200373d565b620039126080830185620033fa565b6200392160a08301846200373d565b979650505050505050565b600060208201905081810360008301526200394881846200340b565b905092915050565b600060208201905062003967600083018462003475565b92915050565b600060208201905062003984600083018462003486565b92915050565b6000602082019050620039a1600083018462003497565b92915050565b6000602082019050620039be6000830184620034a8565b92915050565b60006020820190508181036000830152620039e08184620034b9565b905092915050565b6000602082019050818103600083015262003a038162003531565b9050919050565b6000602082019050818103600083015262003a258162003558565b9050919050565b6000602082019050818103600083015262003a47816200357f565b9050919050565b6000602082019050818103600083015262003a6981620035a6565b9050919050565b6000602082019050818103600083015262003a8b81620035cd565b9050919050565b6000602082019050818103600083015262003aad81620035f4565b9050919050565b6000602082019050818103600083015262003acf816200361b565b9050919050565b6000602082019050818103600083015262003af18162003669565b9050919050565b6000602082019050818103600083015262003b1381620036b7565b9050919050565b6000602082019050818103600083015262003b3581620036de565b9050919050565b6000602082019050818103600083015262003b578162003705565b9050919050565b600060208201905062003b7560008301846200373d565b92915050565b600062003b8762003b9a565b905062003b95828262003ebd565b919050565b6000604051905090565b600067ffffffffffffffff82111562003bc25762003bc162003f9f565b5b62003bcd8262003fce565b9050602081019050919050565b600067ffffffffffffffff82111562003bf85762003bf762003f9f565b5b62003c038262003fce565b9050602081019050919050565b6000819050602082019050919050565b600081519050919050565b600081519050919050565b6000602082019050919050565b600082825260208201905092915050565b600082825260208201905092915050565b600081905092915050565b600062003c7d8262003e17565b915062003c8a8362003e17565b9250827fffffffffffffffffffffffffffffffffffffffffffffffffffffffffffffffff0382111562003cc25762003cc162003f41565b5b828201905092915050565b600062003cda8262003e17565b915062003ce78362003e17565b92508262003cfa5762003cf962003f70565b5b828204905092915050565b600062003d128262003e17565b915062003d1f8362003e17565b9250817fffffffffffffffffffffffffffffffffffffffffffffffffffffffffffffffff048311821515161562003d5b5762003d5a62003f41565b5b828202905092915050565b600062003d738262003e17565b915062003d808362003e17565b92508282101562003d965762003d9562003f41565b5b828203905092915050565b600062003dae8262003df7565b9050919050565b60008115159050919050565b6000819050919050565b60007fffffffff0000000000000000000000000000000000000000000000000000000082169050919050565b600073ffffffffffffffffffffffffffffffffffffffff82169050919050565b6000819050919050565b600062003e2e8262003e35565b9050919050565b600062003e428262003df7565b9050919050565b82818337600083830152505050565b60005b8381101562003e7857808201518184015260208101905062003e5b565b8381111562003e88576000848401525b50505050565b600062003e9b8262003e17565b9150600082141562003eb25762003eb162003f41565b5b600182039050919050565b62003ec88262003fce565b810181811067ffffffffffffffff8211171562003eea5762003ee962003f9f565b5b80604052505050565b600062003f008262003e17565b91507fffffffffffffffffffffffffffffffffffffffffffffffffffffffffffffffff82141562003f365762003f3562003f41565b5b600182019050919050565b7f4e487b7100000000000000000000000000000000000000000000000000000000600052601160045260246000fd5b7f4e487b7100000000000000000000000000000000000000000000000000000000600052601260045260246000fd5b7f4e487b7100000000000000000000000000000000000000000000000000000000600052604160045260246000fd5b6000601f19601f8301169050919050565b7f537472696e67733a20686578206c656e67746820696e73756666696369656e74600082015250565b7f596f752068617665206e6f74206465706f736974656420414c4c206f6620746860008201527f65206672616374696f6e616c697a656420746f6b656e73000000000000000000602082015250565b7f596f7520646f206e6f7420686176652074686174206d616e7920746f6b656e73600082015250565b7f5472616e73666572206f662077457468206661696c6564000000000000000000600082015250565b7f54686973204e46542068617320616c7265616479206265656e2066726163746960008201527f6f6e616c697a65642e0000000000000000000000000000000000000000000000602082015250565b7f5472616e73666572206f66206672616320746f6b656e206661696c6564000000600082015250565b7f596f7520646964206e6f74206465706f7369742074686973204e46542e000000600082015250565b7f416363657373436f6e74726f6c3a206163636f756e7420000000000000000000600082015250565b7f596f7520646f206e6f7420686176652074686174206d616e7920746f6b656e7360008201527f2e00000000000000000000000000000000000000000000000000000000000000602082015250565b7f206973206d697373696e6720726f6c6520000000000000000000000000000000600082015250565b7f596f7520646f206e6f74206861766520656e6f756768206672616320746f6b6560008201527f6e73000000000000000000000000000000000000000000000000000000000000602082015250565b7f416363657373436f6e74726f6c3a2063616e206f6e6c792072656e6f756e636560008201527f20726f6c657320666f722073656c660000000000000000000000000000000000602082015250565b7f546865726520617265206e6f7420656e6f75676820746f6b656e7320746f206260008201527f7579000000000000000000000000000000000000000000000000000000000000602082015250565b620042e38162003da1565b8114620042ef57600080fd5b50565b620042fd8162003db5565b81146200430957600080fd5b50565b620043178162003dc1565b81146200432357600080fd5b50565b620043318162003dcb565b81146200433d57600080fd5b50565b6200434b8162003e17565b81146200435757600080fd5b5056fe60806040523480156200001157600080fd5b5060405162001af538038062001af583398181016040528101906200003791906200035c565b81818160039080519060200190620000519291906200020c565b5080600490805190602001906200006a9291906200020c565b5050506200007f84846200008960201b60201c565b5050505062000719565b600073ffffffffffffffffffffffffffffffffffffffff168273ffffffffffffffffffffffffffffffffffffffff161415620000fc576040517f08c379a0000000000000000000000000000000000000000000000000000000008152600401620000f39062000432565b60405180910390fd5b62000110600083836200020260201b60201c565b8060026000828254620001249190620004e1565b92505081905550806000808473ffffffffffffffffffffffffffffffffffffffff1673ffffffffffffffffffffffffffffffffffffffff16815260200190815260200160002060008282546200017b9190620004e1565b925050819055508173ffffffffffffffffffffffffffffffffffffffff16600073ffffffffffffffffffffffffffffffffffffffff167fddf252ad1be2c89b69c2b068fc378daa952ba7f163c4a11628f55a4df523b3ef83604051620001e2919062000454565b60405180910390a3620001fe600083836200020760201b60201c565b5050565b505050565b505050565b8280546200021a90620005b2565b90600052602060002090601f0160209004810192826200023e57600085556200028a565b82601f106200025957805160ff19168380011785556200028a565b828001600101855582156200028a579182015b82811115620002895782518255916020019190600101906200026c565b5b5090506200029991906200029d565b5090565b5b80821115620002b85760008160009055506001016200029e565b5090565b6000620002d3620002cd846200049a565b62000471565b905082815260208101848484011115620002ec57600080fd5b620002f98482856200057c565b509392505050565b6000815190506200031281620006e5565b92915050565b600082601f8301126200032a57600080fd5b81516200033c848260208601620002bc565b91505092915050565b6000815190506200035681620006ff565b92915050565b600080600080608085870312156200037357600080fd5b6000620003838782880162000301565b9450506020620003968782880162000345565b935050604085015167ffffffffffffffff811115620003b457600080fd5b620003c28782880162000318565b925050606085015167ffffffffffffffff811115620003e057600080fd5b620003ee8782880162000318565b91505092959194509250565b600062000409601f83620004d0565b91506200041682620006bc565b602082019050919050565b6200042c8162000572565b82525050565b600060208201905081810360008301526200044d81620003fa565b9050919050565b60006020820190506200046b600083018462000421565b92915050565b60006200047d62000490565b90506200048b8282620005e8565b919050565b6000604051905090565b600067ffffffffffffffff821115620004b857620004b76200067c565b5b620004c382620006ab565b9050602081019050919050565b600082825260208201905092915050565b6000620004ee8262000572565b9150620004fb8362000572565b9250827fffffffffffffffffffffffffffffffffffffffffffffffffffffffffffffffff038211156200053357620005326200061e565b5b828201905092915050565b60006200054b8262000552565b9050919050565b600073ffffffffffffffffffffffffffffffffffffffff82169050919050565b6000819050919050565b60005b838110156200059c5780820151818401526020810190506200057f565b83811115620005ac576000848401525b50505050565b60006002820490506001821680620005cb57607f821691505b60208210811415620005e257620005e16200064d565b5b50919050565b620005f382620006ab565b810181811067ffffffffffffffff821117156200061557620006146200067c565b5b80604052505050565b7f4e487b7100000000000000000000000000000000000000000000000000000000600052601160045260246000fd5b7f4e487b7100000000000000000000000000000000000000000000000000000000600052602260045260246000fd5b7f4e487b7100000000000000000000000000000000000000000000000000000000600052604160045260246000fd5b6000601f19601f8301169050919050565b7f45524332303a206d696e7420746f20746865207a65726f206164647265737300600082015250565b620006f0816200053e565b8114620006fc57600080fd5b50565b6200070a8162000572565b81146200071657600080fd5b50565b6113cc80620007296000396000f3fe608060405234801561001057600080fd5b50600436106100b45760003560e01c806370a082311161007157806370a08231146101a357806395d89b41146101d3578063a457c2d7146101f1578063a9059cbb14610221578063ca56c18a14610251578063dd62ed3e1461026d576100b4565b806306fdde03146100b9578063095ea7b3146100d757806318160ddd1461010757806323b872dd14610125578063313ce567146101555780633950935114610173575b600080fd5b6100c161029d565b6040516100ce9190610e6c565b60405180910390f35b6100f160048036038101906100ec9190610cba565b61032f565b6040516100fe9190610e51565b60405180910390f35b61010f61034d565b60405161011c9190610f6e565b60405180910390f35b61013f600480360381019061013a9190610c6b565b610357565b60405161014c9190610e51565b60405180910390f35b61015d61044f565b60405161016a9190610f89565b60405180910390f35b61018d60048036038101906101889190610cba565b610458565b60405161019a9190610e51565b60405180910390f35b6101bd60048036038101906101b89190610c06565b610504565b6040516101ca9190610f6e565b60405180910390f35b6101db61054c565b6040516101e89190610e6c565b60405180910390f35b61020b60048036038101906102069190610cba565b6105de565b6040516102189190610e51565b60405180910390f35b61023b60048036038101906102369190610cba565b6106c9565b6040516102489190610e51565b60405180910390f35b61026b60048036038101906102669190610c6b565b6106e7565b005b61028760048036038101906102829190610c2f565b6106f7565b6040516102949190610f6e565b60405180910390f35b6060600380546102ac9061109e565b80601f01602080910402602001604051908101604052809291908181526020018280546102d89061109e565b80156103255780601f106102fa57610100808354040283529160200191610325565b820191906000526020600020905b81548152906001019060200180831161030857829003601f168201915b5050505050905090565b600061034361033c61077e565b8484610786565b6001905092915050565b6000600254905090565b6000610364848484610951565b6000600160008673ffffffffffffffffffffffffffffffffffffffff1673ffffffffffffffffffffffffffffffffffffffff16815260200190815260200160002060006103af61077e565b73ffffffffffffffffffffffffffffffffffffffff1673ffffffffffffffffffffffffffffffffffffffff1681526020019081526020016000205490508281101561042f576040517f08c379a000000000000000000000000000000000000000000000000000000000815260040161042690610eee565b60405180910390fd5b6104438561043b61077e565b858403610786565b60019150509392505050565b60006012905090565b60006104fa61046561077e565b84846001600061047361077e565b73ffffffffffffffffffffffffffffffffffffffff1673ffffffffffffffffffffffffffffffffffffffff16815260200190815260200160002060008873ffffffffffffffffffffffffffffffffffffffff1673ffffffffffffffffffffffffffffffffffffffff168152602001908152602001600020546104f59190610fc0565b610786565b6001905092915050565b60008060008373ffffffffffffffffffffffffffffffffffffffff1673ffffffffffffffffffffffffffffffffffffffff168152602001908152602001600020549050919050565b60606004805461055b9061109e565b80601f01602080910402602001604051908101604052809291908181526020018280546105879061109e565b80156105d45780601f106105a9576101008083540402835291602001916105d4565b820191906000526020600020905b8154815290600101906020018083116105b757829003601f168201915b5050505050905090565b600080600160006105ed61077e565b73ffffffffffffffffffffffffffffffffffffffff1673ffffffffffffffffffffffffffffffffffffffff16815260200190815260200160002060008573ffffffffffffffffffffffffffffffffffffffff1673ffffffffffffffffffffffffffffffffffffffff168152602001908152602001600020549050828110156106aa576040517f08c379a00000000000000000000000000000000000000000000000000000000081526004016106a190610f4e565b60405180910390fd5b6106be6106b561077e565b85858403610786565b600191505092915050565b60006106dd6106d661077e565b8484610951565b6001905092915050565b6106f2838383610786565b505050565b6000600160008473ffffffffffffffffffffffffffffffffffffffff1673ffffffffffffffffffffffffffffffffffffffff16815260200190815260200160002060008373ffffffffffffffffffffffffffffffffffffffff1673ffffffffffffffffffffffffffffffffffffffff16815260200190815260200160002054905092915050565b600033905090565b600073ffffffffffffffffffffffffffffffffffffffff168373ffffffffffffffffffffffffffffffffffffffff1614156107f6576040517f08c379a00000000000000000000000000000000000000000000000000000000081526004016107ed90610f2e565b60405180910390fd5b600073ffffffffffffffffffffffffffffffffffffffff168273ffffffffffffffffffffffffffffffffffffffff161415610866576040517f08c379a000000000000000000000000000000000000000000000000000000000815260040161085d90610eae565b60405180910390fd5b80600160008573ffffffffffffffffffffffffffffffffffffffff1673ffffffffffffffffffffffffffffffffffffffff16815260200190815260200160002060008473ffffffffffffffffffffffffffffffffffffffff1673ffffffffffffffffffffffffffffffffffffffff168152602001908152602001600020819055508173ffffffffffffffffffffffffffffffffffffffff168373ffffffffffffffffffffffffffffffffffffffff167f8c5be1e5ebec7d5bd14f71427d1e84f3dd0314c0f7b2291e5b200ac8c7c3b925836040516109449190610f6e565b60405180910390a3505050565b600073ffffffffffffffffffffffffffffffffffffffff168373ffffffffffffffffffffffffffffffffffffffff1614156109c1576040517f08c379a00000000000000000000000000000000000000000000000000000000081526004016109b890610f0e565b60405180910390fd5b600073ffffffffffffffffffffffffffffffffffffffff168273ffffffffffffffffffffffffffffffffffffffff161415610a31576040517f08c379a0000000000000000000000000000000000000000000000000000000008152600401610a2890610e8e565b60405180910390fd5b610a3c838383610bd2565b60008060008573ffffffffffffffffffffffffffffffffffffffff1673ffffffffffffffffffffffffffffffffffffffff16815260200190815260200160002054905081811015610ac2576040517f08c379a0000000000000000000000000000000000000000000000000000000008152600401610ab990610ece565b60405180910390fd5b8181036000808673ffffffffffffffffffffffffffffffffffffffff1673ffffffffffffffffffffffffffffffffffffffff16815260200190815260200160002081905550816000808573ffffffffffffffffffffffffffffffffffffffff1673ffffffffffffffffffffffffffffffffffffffff1681526020019081526020016000206000828254610b559190610fc0565b925050819055508273ffffffffffffffffffffffffffffffffffffffff168473ffffffffffffffffffffffffffffffffffffffff167fddf252ad1be2c89b69c2b068fc378daa952ba7f163c4a11628f55a4df523b3ef84604051610bb99190610f6e565b60405180910390a3610bcc848484610bd7565b50505050565b505050565b505050565b600081359050610beb81611368565b92915050565b600081359050610c008161137f565b92915050565b600060208284031215610c1857600080fd5b6000610c2684828501610bdc565b91505092915050565b60008060408385031215610c4257600080fd5b6000610c5085828601610bdc565b9250506020610c6185828601610bdc565b9150509250929050565b600080600060608486031215610c8057600080fd5b6000610c8e86828701610bdc565b9350506020610c9f86828701610bdc565b9250506040610cb086828701610bf1565b9150509250925092565b60008060408385031215610ccd57600080fd5b6000610cdb85828601610bdc565b9250506020610cec85828601610bf1565b9150509250929050565b610cff81611028565b82525050565b6000610d1082610fa4565b610d1a8185610faf565b9350610d2a81856020860161106b565b610d338161112e565b840191505092915050565b6000610d4b602383610faf565b9150610d568261113f565b604082019050919050565b6000610d6e602283610faf565b9150610d798261118e565b604082019050919050565b6000610d91602683610faf565b9150610d9c826111dd565b604082019050919050565b6000610db4602883610faf565b9150610dbf8261122c565b604082019050919050565b6000610dd7602583610faf565b9150610de28261127b565b604082019050919050565b6000610dfa602483610faf565b9150610e05826112ca565b604082019050919050565b6000610e1d602583610faf565b9150610e2882611319565b604082019050919050565b610e3c81611054565b82525050565b610e4b8161105e565b82525050565b6000602082019050610e666000830184610cf6565b92915050565b60006020820190508181036000830152610e868184610d05565b905092915050565b60006020820190508181036000830152610ea781610d3e565b9050919050565b60006020820190508181036000830152610ec781610d61565b9050919050565b60006020820190508181036000830152610ee781610d84565b9050919050565b60006020820190508181036000830152610f0781610da7565b9050919050565b60006020820190508181036000830152610f2781610dca565b9050919050565b60006020820190508181036000830152610f4781610ded565b9050919050565b60006020820190508181036000830152610f6781610e10565b9050919050565b6000602082019050610f836000830184610e33565b92915050565b6000602082019050610f9e6000830184610e42565b92915050565b600081519050919050565b600082825260208201905092915050565b6000610fcb82611054565b9150610fd683611054565b9250827fffffffffffffffffffffffffffffffffffffffffffffffffffffffffffffffff0382111561100b5761100a6110d0565b5b828201905092915050565b600061102182611034565b9050919050565b60008115159050919050565b600073ffffffffffffffffffffffffffffffffffffffff82169050919050565b6000819050919050565b600060ff82169050919050565b60005b8381101561108957808201518184015260208101905061106e565b83811115611098576000848401525b50505050565b600060028204905060018216806110b657607f821691505b602082108114156110ca576110c96110ff565b5b50919050565b7f4e487b7100000000000000000000000000000000000000000000000000000000600052601160045260246000fd5b7f4e487b7100000000000000000000000000000000000000000000000000000000600052602260045260246000fd5b6000601f19601f8301169050919050565b7f45524332303a207472616e7366657220746f20746865207a65726f206164647260008201527f6573730000000000000000000000000000000000000000000000000000000000602082015250565b7f45524332303a20617070726f766520746f20746865207a65726f20616464726560008201527f7373000000000000000000000000000000000000000000000000000000000000602082015250565b7f45524332303a207472616e7366657220616d6f756e742065786365656473206260008201527f616c616e63650000000000000000000000000000000000000000000000000000602082015250565b7f45524332303a207472616e7366657220616d6f756e742065786365656473206160008201527f6c6c6f77616e6365000000000000000000000000000000000000000000000000602082015250565b7f45524332303a207472616e736665722066726f6d20746865207a65726f20616460008201527f6472657373000000000000000000000000000000000000000000000000000000602082015250565b7f45524332303a20617070726f76652066726f6d20746865207a65726f2061646460008201527f7265737300000000000000000000000000000000000000000000000000000000602082015250565b7f45524332303a2064656372656173656420616c6c6f77616e63652062656c6f7760008201527f207a65726f000000000000000000000000000000000000000000000000000000602082015250565b61137181611016565b811461137c57600080fd5b50565b61138881611054565b811461139357600080fd5b5056fea2646970667358221220204ef60e4a3379fb11a8ec48da6df7e9f6ac278a78b78df73ec9c4fb0d4af84064736f6c63430008040033a264697066735822122000c975a1814b500b576c60953fec40eb64d217fdfba6bdd70eb4ebce3fd0ffa364736f6c63430008040033",
  "linkReferences": {},
  "deployedLinkReferences": {}
}