{
  "_format": "hh-sol-artifact-1",
  "contractName": "NFToken",
  "sourceName": "contracts/NFToken.sol",
  "abi": [
    {
      "inputs": [
        {
          "internalType": "address",
          "name": "reciever",
          "type": "address"
        },
        {
          "internalType": "uint256",
          "name": "initialSupply",
          "type": "uint256"
        },
        {
          "internalType": "string",
          "name": "name",
          "type": "string"
        },
        {
          "internalType": "string",
          "name": "ticker",
          "type": "string"
        }
      ],
      "stateMutability": "nonpayable",
      "type": "constructor"
    },
    {
      "anonymous": false,
      "inputs": [
        {
          "indexed": true,
          "internalType": "address",
          "name": "owner",
          "type": "address"
        },
        {
          "indexed": true,
          "internalType": "address",
          "name": "spender",
          "type": "address"
        },
        {
          "indexed": false,
          "internalType": "uint256",
          "name": "value",
          "type": "uint256"
        }
      ],
      "name": "Approval",
      "type": "event"
    },
    {
      "anonymous": false,
      "inputs": [
        {
          "indexed": true,
          "internalType": "address",
          "name": "from",
          "type": "address"
        },
        {
          "indexed": true,
          "internalType": "address",
          "name": "to",
          "type": "address"
        },
        {
          "indexed": false,
          "internalType": "uint256",
          "name": "value",
          "type": "uint256"
        }
      ],
      "name": "Transfer",
      "type": "event"
    },
    {
      "inputs": [
        {
          "internalType": "address",
          "name": "owner",
          "type": "address"
        },
        {
          "internalType": "address",
          "name": "spender",
          "type": "address"
        }
      ],
      "name": "allowance",
      "outputs": [
        {
          "internalType": "uint256",
          "name": "",
          "type": "uint256"
        }
      ],
      "stateMutability": "view",
      "type": "function"
    },
    {
      "inputs": [
        {
          "internalType": "address",
          "name": "spender",
          "type": "address"
        },
        {
          "internalType": "uint256",
          "name": "amount",
          "type": "uint256"
        }
      ],
      "name": "approve",
      "outputs": [
        {
          "internalType": "bool",
          "name": "",
          "type": "bool"
        }
      ],
      "stateMutability": "nonpayable",
      "type": "function"
    },
    {
      "inputs": [
        {
          "internalType": "address",
          "name": "account",
          "type": "address"
        }
      ],
      "name": "balanceOf",
      "outputs": [
        {
          "internalType": "uint256",
          "name": "",
          "type": "uint256"
        }
      ],
      "stateMutability": "view",
      "type": "function"
    },
    {
      "inputs": [],
      "name": "decimals",
      "outputs": [
        {
          "internalType": "uint8",
          "name": "",
          "type": "uint8"
        }
      ],
      "stateMutability": "view",
      "type": "function"
    },
    {
      "inputs": [
        {
          "internalType": "address",
          "name": "spender",
          "type": "address"
        },
        {
          "internalType": "uint256",
          "name": "subtractedValue",
          "type": "uint256"
        }
      ],
      "name": "decreaseAllowance",
      "outputs": [
        {
          "internalType": "bool",
          "name": "",
          "type": "bool"
        }
      ],
      "stateMutability": "nonpayable",
      "type": "function"
    },
    {
      "inputs": [
        {
          "internalType": "address",
          "name": "spender",
          "type": "address"
        },
        {
          "internalType": "uint256",
          "name": "addedValue",
          "type": "uint256"
        }
      ],
      "name": "increaseAllowance",
      "outputs": [
        {
          "internalType": "bool",
          "name": "",
          "type": "bool"
        }
      ],
      "stateMutability": "nonpayable",
      "type": "function"
    },
    {
      "inputs": [],
      "name": "name",
      "outputs": [
        {
          "internalType": "string",
          "name": "",
          "type": "string"
        }
      ],
      "stateMutability": "view",
      "type": "function"
    },
    {
      "inputs": [],
      "name": "symbol",
      "outputs": [
        {
          "internalType": "string",
          "name": "",
          "type": "string"
        }
      ],
      "stateMutability": "view",
      "type": "function"
    },
    {
      "inputs": [
        {
          "internalType": "address",
          "name": "owner",
          "type": "address"
        },
        {
          "internalType": "address",
          "name": "spender",
          "type": "address"
        },
        {
          "internalType": "uint256",
          "name": "amount",
          "type": "uint256"
        }
      ],
      "name": "thirdPartyApprove",
      "outputs": [],
      "stateMutability": "nonpayable",
      "type": "function"
    },
    {
      "inputs": [],
      "name": "totalSupply",
      "outputs": [
        {
          "internalType": "uint256",
          "name": "",
          "type": "uint256"
        }
      ],
      "stateMutability": "view",
      "type": "function"
    },
    {
      "inputs": [
        {
          "internalType": "address",
          "name": "recipient",
          "type": "address"
        },
        {
          "internalType": "uint256",
          "name": "amount",
          "type": "uint256"
        }
      ],
      "name": "transfer",
      "outputs": [
        {
          "internalType": "bool",
          "name": "",
          "type": "bool"
        }
      ],
      "stateMutability": "nonpayable",
      "type": "function"
    },
    {
      "inputs": [
        {
          "internalType": "address",
          "name": "sender",
          "type": "address"
        },
        {
          "internalType": "address",
          "name": "recipient",
          "type": "address"
        },
        {
          "internalType": "uint256",
          "name": "amount",
          "type": "uint256"
        }
      ],
      "name": "transferFrom",
      "outputs": [
        {
          "internalType": "bool",
          "name": "",
          "type": "bool"
        }
      ],
      "stateMutability": "nonpayable",
      "type": "function"
    }
  ],
  "bytecode": "0x60806040523480156200001157600080fd5b5060405162001bd838038062001bd8833981810160405281019062000037919062000371565b818181600390805190602001906200005192919062000221565b5080600490805190602001906200006a92919062000221565b5050506200009484670de0b6b3a76400008562000088919062000553565b6200009e60201b60201c565b505050506200078f565b600073ffffffffffffffffffffffffffffffffffffffff168273ffffffffffffffffffffffffffffffffffffffff16141562000111576040517f08c379a0000000000000000000000000000000000000000000000000000000008152600401620001089062000447565b60405180910390fd5b62000125600083836200021760201b60201c565b8060026000828254620001399190620004f6565b92505081905550806000808473ffffffffffffffffffffffffffffffffffffffff1673ffffffffffffffffffffffffffffffffffffffff1681526020019081526020016000206000828254620001909190620004f6565b925050819055508173ffffffffffffffffffffffffffffffffffffffff16600073ffffffffffffffffffffffffffffffffffffffff167fddf252ad1be2c89b69c2b068fc378daa952ba7f163c4a11628f55a4df523b3ef83604051620001f7919062000469565b60405180910390a362000213600083836200021c60201b60201c565b5050565b505050565b505050565b8280546200022f9062000628565b90600052602060002090601f0160209004810192826200025357600085556200029f565b82601f106200026e57805160ff19168380011785556200029f565b828001600101855582156200029f579182015b828111156200029e57825182559160200191906001019062000281565b5b509050620002ae9190620002b2565b5090565b5b80821115620002cd576000816000905550600101620002b3565b5090565b6000620002e8620002e284620004af565b62000486565b9050828152602081018484840111156200030157600080fd5b6200030e848285620005f2565b509392505050565b60008151905062000327816200075b565b92915050565b600082601f8301126200033f57600080fd5b815162000351848260208601620002d1565b91505092915050565b6000815190506200036b8162000775565b92915050565b600080600080608085870312156200038857600080fd5b6000620003988782880162000316565b9450506020620003ab878288016200035a565b935050604085015167ffffffffffffffff811115620003c957600080fd5b620003d7878288016200032d565b925050606085015167ffffffffffffffff811115620003f557600080fd5b62000403878288016200032d565b91505092959194509250565b60006200041e601f83620004e5565b91506200042b8262000732565b602082019050919050565b6200044181620005e8565b82525050565b6000602082019050818103600083015262000462816200040f565b9050919050565b600060208201905062000480600083018462000436565b92915050565b600062000492620004a5565b9050620004a082826200065e565b919050565b6000604051905090565b600067ffffffffffffffff821115620004cd57620004cc620006f2565b5b620004d88262000721565b9050602081019050919050565b600082825260208201905092915050565b60006200050382620005e8565b91506200051083620005e8565b9250827fffffffffffffffffffffffffffffffffffffffffffffffffffffffffffffffff0382111562000548576200054762000694565b5b828201905092915050565b60006200056082620005e8565b91506200056d83620005e8565b9250817fffffffffffffffffffffffffffffffffffffffffffffffffffffffffffffffff0483118215151615620005a957620005a862000694565b5b828202905092915050565b6000620005c182620005c8565b9050919050565b600073ffffffffffffffffffffffffffffffffffffffff82169050919050565b6000819050919050565b60005b8381101562000612578082015181840152602081019050620005f5565b8381111562000622576000848401525b50505050565b600060028204905060018216806200064157607f821691505b60208210811415620006585762000657620006c3565b5b50919050565b620006698262000721565b810181811067ffffffffffffffff821117156200068b576200068a620006f2565b5b80604052505050565b7f4e487b7100000000000000000000000000000000000000000000000000000000600052601160045260246000fd5b7f4e487b7100000000000000000000000000000000000000000000000000000000600052602260045260246000fd5b7f4e487b7100000000000000000000000000000000000000000000000000000000600052604160045260246000fd5b6000601f19601f8301169050919050565b7f45524332303a206d696e7420746f20746865207a65726f206164647265737300600082015250565b6200076681620005b4565b81146200077257600080fd5b50565b6200078081620005e8565b81146200078c57600080fd5b50565b611439806200079f6000396000f3fe608060405234801561001057600080fd5b50600436106100b45760003560e01c806370a082311161007157806370a08231146101a357806395d89b41146101d3578063a457c2d7146101f1578063a9059cbb14610221578063ca56c18a14610251578063dd62ed3e1461026d576100b4565b806306fdde03146100b9578063095ea7b3146100d757806318160ddd1461010757806323b872dd14610125578063313ce567146101555780633950935114610173575b600080fd5b6100c161029d565b6040516100ce9190610e7f565b60405180910390f35b6100f160048036038101906100ec9190610ccd565b61032f565b6040516100fe9190610e64565b60405180910390f35b61010f61034d565b60405161011c9190610f81565b60405180910390f35b61013f600480360381019061013a9190610c7e565b610357565b60405161014c9190610e64565b60405180910390f35b61015d61044f565b60405161016a9190610f9c565b60405180910390f35b61018d60048036038101906101889190610ccd565b610458565b60405161019a9190610e64565b60405180910390f35b6101bd60048036038101906101b89190610c19565b610504565b6040516101ca9190610f81565b60405180910390f35b6101db61054c565b6040516101e89190610e7f565b60405180910390f35b61020b60048036038101906102069190610ccd565b6105de565b6040516102189190610e64565b60405180910390f35b61023b60048036038101906102369190610ccd565b6106c9565b6040516102489190610e64565b60405180910390f35b61026b60048036038101906102669190610c7e565b6106e7565b005b61028760048036038101906102829190610c42565b61070a565b6040516102949190610f81565b60405180910390f35b6060600380546102ac9061110b565b80601f01602080910402602001604051908101604052809291908181526020018280546102d89061110b565b80156103255780601f106102fa57610100808354040283529160200191610325565b820191906000526020600020905b81548152906001019060200180831161030857829003601f168201915b5050505050905090565b600061034361033c610791565b8484610799565b6001905092915050565b6000600254905090565b6000610364848484610964565b6000600160008673ffffffffffffffffffffffffffffffffffffffff1673ffffffffffffffffffffffffffffffffffffffff16815260200190815260200160002060006103af610791565b73ffffffffffffffffffffffffffffffffffffffff1673ffffffffffffffffffffffffffffffffffffffff1681526020019081526020016000205490508281101561042f576040517f08c379a000000000000000000000000000000000000000000000000000000000815260040161042690610f01565b60405180910390fd5b6104438561043b610791565b858403610799565b60019150509392505050565b60006012905090565b60006104fa610465610791565b848460016000610473610791565b73ffffffffffffffffffffffffffffffffffffffff1673ffffffffffffffffffffffffffffffffffffffff16815260200190815260200160002060008873ffffffffffffffffffffffffffffffffffffffff1673ffffffffffffffffffffffffffffffffffffffff168152602001908152602001600020546104f59190610fd3565b610799565b6001905092915050565b60008060008373ffffffffffffffffffffffffffffffffffffffff1673ffffffffffffffffffffffffffffffffffffffff168152602001908152602001600020549050919050565b60606004805461055b9061110b565b80601f01602080910402602001604051908101604052809291908181526020018280546105879061110b565b80156105d45780601f106105a9576101008083540402835291602001916105d4565b820191906000526020600020905b8154815290600101906020018083116105b757829003601f168201915b5050505050905090565b600080600160006105ed610791565b73ffffffffffffffffffffffffffffffffffffffff1673ffffffffffffffffffffffffffffffffffffffff16815260200190815260200160002060008573ffffffffffffffffffffffffffffffffffffffff1673ffffffffffffffffffffffffffffffffffffffff168152602001908152602001600020549050828110156106aa576040517f08c379a00000000000000000000000000000000000000000000000000000000081526004016106a190610f61565b60405180910390fd5b6106be6106b5610791565b85858403610799565b600191505092915050565b60006106dd6106d6610791565b8484610964565b6001905092915050565b6107058383670de0b6b3a7640000846107009190611029565b610799565b505050565b6000600160008473ffffffffffffffffffffffffffffffffffffffff1673ffffffffffffffffffffffffffffffffffffffff16815260200190815260200160002060008373ffffffffffffffffffffffffffffffffffffffff1673ffffffffffffffffffffffffffffffffffffffff16815260200190815260200160002054905092915050565b600033905090565b600073ffffffffffffffffffffffffffffffffffffffff168373ffffffffffffffffffffffffffffffffffffffff161415610809576040517f08c379a000000000000000000000000000000000000000000000000000000000815260040161080090610f41565b60405180910390fd5b600073ffffffffffffffffffffffffffffffffffffffff168273ffffffffffffffffffffffffffffffffffffffff161415610879576040517f08c379a000000000000000000000000000000000000000000000000000000000815260040161087090610ec1565b60405180910390fd5b80600160008573ffffffffffffffffffffffffffffffffffffffff1673ffffffffffffffffffffffffffffffffffffffff16815260200190815260200160002060008473ffffffffffffffffffffffffffffffffffffffff1673ffffffffffffffffffffffffffffffffffffffff168152602001908152602001600020819055508173ffffffffffffffffffffffffffffffffffffffff168373ffffffffffffffffffffffffffffffffffffffff167f8c5be1e5ebec7d5bd14f71427d1e84f3dd0314c0f7b2291e5b200ac8c7c3b925836040516109579190610f81565b60405180910390a3505050565b600073ffffffffffffffffffffffffffffffffffffffff168373ffffffffffffffffffffffffffffffffffffffff1614156109d4576040517f08c379a00000000000000000000000000000000000000000000000000000000081526004016109cb90610f21565b60405180910390fd5b600073ffffffffffffffffffffffffffffffffffffffff168273ffffffffffffffffffffffffffffffffffffffff161415610a44576040517f08c379a0000000000000000000000000000000000000000000000000000000008152600401610a3b90610ea1565b60405180910390fd5b610a4f838383610be5565b60008060008573ffffffffffffffffffffffffffffffffffffffff1673ffffffffffffffffffffffffffffffffffffffff16815260200190815260200160002054905081811015610ad5576040517f08c379a0000000000000000000000000000000000000000000000000000000008152600401610acc90610ee1565b60405180910390fd5b8181036000808673ffffffffffffffffffffffffffffffffffffffff1673ffffffffffffffffffffffffffffffffffffffff16815260200190815260200160002081905550816000808573ffffffffffffffffffffffffffffffffffffffff1673ffffffffffffffffffffffffffffffffffffffff1681526020019081526020016000206000828254610b689190610fd3565b925050819055508273ffffffffffffffffffffffffffffffffffffffff168473ffffffffffffffffffffffffffffffffffffffff167fddf252ad1be2c89b69c2b068fc378daa952ba7f163c4a11628f55a4df523b3ef84604051610bcc9190610f81565b60405180910390a3610bdf848484610bea565b50505050565b505050565b505050565b600081359050610bfe816113d5565b92915050565b600081359050610c13816113ec565b92915050565b600060208284031215610c2b57600080fd5b6000610c3984828501610bef565b91505092915050565b60008060408385031215610c5557600080fd5b6000610c6385828601610bef565b9250506020610c7485828601610bef565b9150509250929050565b600080600060608486031215610c9357600080fd5b6000610ca186828701610bef565b9350506020610cb286828701610bef565b9250506040610cc386828701610c04565b9150509250925092565b60008060408385031215610ce057600080fd5b6000610cee85828601610bef565b9250506020610cff85828601610c04565b9150509250929050565b610d1281611095565b82525050565b6000610d2382610fb7565b610d2d8185610fc2565b9350610d3d8185602086016110d8565b610d468161119b565b840191505092915050565b6000610d5e602383610fc2565b9150610d69826111ac565b604082019050919050565b6000610d81602283610fc2565b9150610d8c826111fb565b604082019050919050565b6000610da4602683610fc2565b9150610daf8261124a565b604082019050919050565b6000610dc7602883610fc2565b9150610dd282611299565b604082019050919050565b6000610dea602583610fc2565b9150610df5826112e8565b604082019050919050565b6000610e0d602483610fc2565b9150610e1882611337565b604082019050919050565b6000610e30602583610fc2565b9150610e3b82611386565b604082019050919050565b610e4f816110c1565b82525050565b610e5e816110cb565b82525050565b6000602082019050610e796000830184610d09565b92915050565b60006020820190508181036000830152610e998184610d18565b905092915050565b60006020820190508181036000830152610eba81610d51565b9050919050565b60006020820190508181036000830152610eda81610d74565b9050919050565b60006020820190508181036000830152610efa81610d97565b9050919050565b60006020820190508181036000830152610f1a81610dba565b9050919050565b60006020820190508181036000830152610f3a81610ddd565b9050919050565b60006020820190508181036000830152610f5a81610e00565b9050919050565b60006020820190508181036000830152610f7a81610e23565b9050919050565b6000602082019050610f966000830184610e46565b92915050565b6000602082019050610fb16000830184610e55565b92915050565b600081519050919050565b600082825260208201905092915050565b6000610fde826110c1565b9150610fe9836110c1565b9250827fffffffffffffffffffffffffffffffffffffffffffffffffffffffffffffffff0382111561101e5761101d61113d565b5b828201905092915050565b6000611034826110c1565b915061103f836110c1565b9250817fffffffffffffffffffffffffffffffffffffffffffffffffffffffffffffffff04831182151516156110785761107761113d565b5b828202905092915050565b600061108e826110a1565b9050919050565b60008115159050919050565b600073ffffffffffffffffffffffffffffffffffffffff82169050919050565b6000819050919050565b600060ff82169050919050565b60005b838110156110f65780820151818401526020810190506110db565b83811115611105576000848401525b50505050565b6000600282049050600182168061112357607f821691505b602082108114156111375761113661116c565b5b50919050565b7f4e487b7100000000000000000000000000000000000000000000000000000000600052601160045260246000fd5b7f4e487b7100000000000000000000000000000000000000000000000000000000600052602260045260246000fd5b6000601f19601f8301169050919050565b7f45524332303a207472616e7366657220746f20746865207a65726f206164647260008201527f6573730000000000000000000000000000000000000000000000000000000000602082015250565b7f45524332303a20617070726f766520746f20746865207a65726f20616464726560008201527f7373000000000000000000000000000000000000000000000000000000000000602082015250565b7f45524332303a207472616e7366657220616d6f756e742065786365656473206260008201527f616c616e63650000000000000000000000000000000000000000000000000000602082015250565b7f45524332303a207472616e7366657220616d6f756e742065786365656473206160008201527f6c6c6f77616e6365000000000000000000000000000000000000000000000000602082015250565b7f45524332303a207472616e736665722066726f6d20746865207a65726f20616460008201527f6472657373000000000000000000000000000000000000000000000000000000602082015250565b7f45524332303a20617070726f76652066726f6d20746865207a65726f2061646460008201527f7265737300000000000000000000000000000000000000000000000000000000602082015250565b7f45524332303a2064656372656173656420616c6c6f77616e63652062656c6f7760008201527f207a65726f000000000000000000000000000000000000000000000000000000602082015250565b6113de81611083565b81146113e957600080fd5b50565b6113f5816110c1565b811461140057600080fd5b5056fea264697066735822122000b73c0bab7d5d5da5cf985f8c672484d9bf207d58f44c8afc44ec5e00a60cc564736f6c63430008040033",
  "linkReferences": {},
  "deployedLinkReferences": {}
}