{
  "_format": "hh-sol-artifact-1",
  "contractName": "Minter",
  "sourceName": "contracts/Minter.sol",
  "abi": [
    {
      "inputs": [],
      "stateMutability": "nonpayable",
      "type": "constructor"
    },
    {
      "anonymous": false,
      "inputs": [
        {
          "indexed": true,
          "internalType": "address",
          "name": "owner",
          "type": "address"
        },
        {
          "indexed": true,
          "internalType": "address",
          "name": "approved",
          "type": "address"
        },
        {
          "indexed": true,
          "internalType": "uint256",
          "name": "tokenId",
          "type": "uint256"
        }
      ],
      "name": "Approval",
      "type": "event"
    },
    {
      "anonymous": false,
      "inputs": [
        {
          "indexed": true,
          "internalType": "address",
          "name": "owner",
          "type": "address"
        },
        {
          "indexed": true,
          "internalType": "address",
          "name": "operator",
          "type": "address"
        },
        {
          "indexed": false,
          "internalType": "bool",
          "name": "approved",
          "type": "bool"
        }
      ],
      "name": "ApprovalForAll",
      "type": "event"
    },
    {
      "anonymous": false,
      "inputs": [
        {
          "indexed": true,
          "internalType": "address",
          "name": "from",
          "type": "address"
        },
        {
          "indexed": true,
          "internalType": "address",
          "name": "to",
          "type": "address"
        },
        {
          "indexed": true,
          "internalType": "uint256",
          "name": "tokenId",
          "type": "uint256"
        }
      ],
      "name": "Transfer",
      "type": "event"
    },
    {
      "inputs": [
        {
          "internalType": "address",
          "name": "to",
          "type": "address"
        },
        {
          "internalType": "uint256",
          "name": "tokenId",
          "type": "uint256"
        }
      ],
      "name": "approve",
      "outputs": [],
      "stateMutability": "nonpayable",
      "type": "function"
    },
    {
      "inputs": [
        {
          "internalType": "address",
          "name": "owner",
          "type": "address"
        }
      ],
      "name": "balanceOf",
      "outputs": [
        {
          "internalType": "uint256",
          "name": "",
          "type": "uint256"
        }
      ],
      "stateMutability": "view",
      "type": "function"
    },
    {
      "inputs": [
        {
          "internalType": "uint256",
          "name": "tokenId",
          "type": "uint256"
        }
      ],
      "name": "getApproved",
      "outputs": [
        {
          "internalType": "address",
          "name": "",
          "type": "address"
        }
      ],
      "stateMutability": "view",
      "type": "function"
    },
    {
      "inputs": [
        {
          "internalType": "address",
          "name": "owner",
          "type": "address"
        },
        {
          "internalType": "address",
          "name": "operator",
          "type": "address"
        }
      ],
      "name": "isApprovedForAll",
      "outputs": [
        {
          "internalType": "bool",
          "name": "",
          "type": "bool"
        }
      ],
      "stateMutability": "view",
      "type": "function"
    },
    {
      "inputs": [
        {
          "internalType": "address",
          "name": "wallet",
          "type": "address"
        }
      ],
      "name": "mint",
      "outputs": [
        {
          "internalType": "uint256",
          "name": "",
          "type": "uint256"
        }
      ],
      "stateMutability": "nonpayable",
      "type": "function"
    },
    {
      "inputs": [],
      "name": "name",
      "outputs": [
        {
          "internalType": "string",
          "name": "",
          "type": "string"
        }
      ],
      "stateMutability": "view",
      "type": "function"
    },
    {
      "inputs": [
        {
          "internalType": "uint256",
          "name": "tokenId",
          "type": "uint256"
        }
      ],
      "name": "ownerOf",
      "outputs": [
        {
          "internalType": "address",
          "name": "",
          "type": "address"
        }
      ],
      "stateMutability": "view",
      "type": "function"
    },
    {
      "inputs": [
        {
          "internalType": "address",
          "name": "from",
          "type": "address"
        },
        {
          "internalType": "address",
          "name": "to",
          "type": "address"
        },
        {
          "internalType": "uint256",
          "name": "tokenId",
          "type": "uint256"
        }
      ],
      "name": "safeTransfer",
      "outputs": [],
      "stateMutability": "nonpayable",
      "type": "function"
    },
    {
      "inputs": [
        {
          "internalType": "address",
          "name": "from",
          "type": "address"
        },
        {
          "internalType": "address",
          "name": "to",
          "type": "address"
        },
        {
          "internalType": "uint256",
          "name": "tokenId",
          "type": "uint256"
        }
      ],
      "name": "safeTransferFrom",
      "outputs": [],
      "stateMutability": "nonpayable",
      "type": "function"
    },
    {
      "inputs": [
        {
          "internalType": "address",
          "name": "from",
          "type": "address"
        },
        {
          "internalType": "address",
          "name": "to",
          "type": "address"
        },
        {
          "internalType": "uint256",
          "name": "tokenId",
          "type": "uint256"
        },
        {
          "internalType": "bytes",
          "name": "_data",
          "type": "bytes"
        }
      ],
      "name": "safeTransferFrom",
      "outputs": [],
      "stateMutability": "nonpayable",
      "type": "function"
    },
    {
      "inputs": [
        {
          "internalType": "address",
          "name": "operator",
          "type": "address"
        },
        {
          "internalType": "bool",
          "name": "approved",
          "type": "bool"
        }
      ],
      "name": "setApprovalForAll",
      "outputs": [],
      "stateMutability": "nonpayable",
      "type": "function"
    },
    {
      "inputs": [
        {
          "internalType": "bytes4",
          "name": "interfaceId",
          "type": "bytes4"
        }
      ],
      "name": "supportsInterface",
      "outputs": [
        {
          "internalType": "bool",
          "name": "",
          "type": "bool"
        }
      ],
      "stateMutability": "view",
      "type": "function"
    },
    {
      "inputs": [],
      "name": "symbol",
      "outputs": [
        {
          "internalType": "string",
          "name": "",
          "type": "string"
        }
      ],
      "stateMutability": "view",
      "type": "function"
    },
    {
      "inputs": [
        {
          "internalType": "uint256",
          "name": "tokenId",
          "type": "uint256"
        }
      ],
      "name": "tokenURI",
      "outputs": [
        {
          "internalType": "string",
          "name": "",
          "type": "string"
        }
      ],
      "stateMutability": "view",
      "type": "function"
    },
    {
      "inputs": [
        {
          "internalType": "address",
          "name": "from",
          "type": "address"
        },
        {
          "internalType": "address",
          "name": "to",
          "type": "address"
        },
        {
          "internalType": "uint256",
          "name": "tokenId",
          "type": "uint256"
        }
      ],
      "name": "transferFrom",
      "outputs": [],
      "stateMutability": "nonpayable",
      "type": "function"
    }
  ],
  "bytecode": "0x60806040523480156200001157600080fd5b506040518060400160405280600781526020017f546573744e4654000000000000000000000000000000000000000000000000008152506040518060400160405280600481526020017f544e465400000000000000000000000000000000000000000000000000000000815250816000908051906020019062000096929190620000b8565b508060019080519060200190620000af929190620000b8565b505050620001cd565b828054620000c69062000168565b90600052602060002090601f016020900481019282620000ea576000855562000136565b82601f106200010557805160ff191683800117855562000136565b8280016001018555821562000136579182015b828111156200013557825182559160200191906001019062000118565b5b50905062000145919062000149565b5090565b5b80821115620001645760008160009055506001016200014a565b5090565b600060028204905060018216806200018157607f821691505b602082108114156200019857620001976200019e565b5b50919050565b7f4e487b7100000000000000000000000000000000000000000000000000000000600052602260045260246000fd5b61290480620001dd6000396000f3fe608060405234801561001057600080fd5b50600436106100f55760003560e01c80636a62784211610097578063b88d4fde11610066578063b88d4fde14610296578063c87b56dd146102b2578063d1660f99146102e2578063e985e9c5146102fe576100f5565b80636a627842146101fc57806370a082311461022c57806395d89b411461025c578063a22cb4651461027a576100f5565b8063095ea7b3116100d3578063095ea7b31461017857806323b872dd1461019457806342842e0e146101b05780636352211e146101cc576100f5565b806301ffc9a7146100fa57806306fdde031461012a578063081812fc14610148575b600080fd5b610114600480360381019061010f9190611a74565b61032e565b6040516101219190611e57565b60405180910390f35b610132610410565b60405161013f9190611e72565b60405180910390f35b610162600480360381019061015d9190611ac6565b6104a2565b60405161016f9190611df0565b60405180910390f35b610192600480360381019061018d9190611a38565b610527565b005b6101ae60048036038101906101a99190611932565b61063f565b005b6101ca60048036038101906101c59190611932565b61069f565b005b6101e660048036038101906101e19190611ac6565b6106bf565b6040516101f39190611df0565b60405180910390f35b610216600480360381019061021191906118cd565b610771565b6040516102239190612074565b60405180910390f35b610246600480360381019061024191906118cd565b61079e565b6040516102539190612074565b60405180910390f35b610264610856565b6040516102719190611e72565b60405180910390f35b610294600480360381019061028f91906119fc565b6108e8565b005b6102b060048036038101906102ab9190611981565b6108fe565b005b6102cc60048036038101906102c79190611ac6565b610960565b6040516102d99190611e72565b60405180910390f35b6102fc60048036038101906102f79190611932565b610ab2565b005b610318600480360381019061031391906118f6565b610ac2565b6040516103259190611e57565b60405180910390f35b60007f80ac58cd000000000000000000000000000000000000000000000000000000007bffffffffffffffffffffffffffffffffffffffffffffffffffffffff1916827bffffffffffffffffffffffffffffffffffffffffffffffffffffffff191614806103f957507f5b5e139f000000000000000000000000000000000000000000000000000000007bffffffffffffffffffffffffffffffffffffffffffffffffffffffff1916827bffffffffffffffffffffffffffffffffffffffffffffffffffffffff1916145b80610409575061040882610b56565b5b9050919050565b60606000805461041f90612299565b80601f016020809104026020016040519081016040528092919081815260200182805461044b90612299565b80156104985780601f1061046d57610100808354040283529160200191610498565b820191906000526020600020905b81548152906001019060200180831161047b57829003601f168201915b5050505050905090565b60006104ad82610bc0565b6104ec576040517f08c379a00000000000000000000000000000000000000000000000000000000081526004016104e390611fd4565b60405180910390fd5b6004600083815260200190815260200160002060009054906101000a900473ffffffffffffffffffffffffffffffffffffffff169050919050565b6000610532826106bf565b90508073ffffffffffffffffffffffffffffffffffffffff168373ffffffffffffffffffffffffffffffffffffffff1614156105a3576040517f08c379a000000000000000000000000000000000000000000000000000000000815260040161059a90612034565b60405180910390fd5b8073ffffffffffffffffffffffffffffffffffffffff166105c2610c2c565b73ffffffffffffffffffffffffffffffffffffffff1614806105f157506105f0816105eb610c2c565b610ac2565b5b610630576040517f08c379a000000000000000000000000000000000000000000000000000000000815260040161062790611f34565b60405180910390fd5b61063a8383610c34565b505050565b61065061064a610c2c565b82610ced565b61068f576040517f08c379a000000000000000000000000000000000000000000000000000000000815260040161068690612054565b60405180910390fd5b61069a838383610dcb565b505050565b6106ba838383604051806020016040528060008152506108fe565b505050565b6000806002600084815260200190815260200160002060009054906101000a900473ffffffffffffffffffffffffffffffffffffffff169050600073ffffffffffffffffffffffffffffffffffffffff168173ffffffffffffffffffffffffffffffffffffffff161415610768576040517f08c379a000000000000000000000000000000000000000000000000000000000815260040161075f90611f74565b60405180910390fd5b80915050919050565b600061077d6007611027565b6000610789600761103d565b9050610795838261104b565b80915050919050565b60008073ffffffffffffffffffffffffffffffffffffffff168273ffffffffffffffffffffffffffffffffffffffff16141561080f576040517f08c379a000000000000000000000000000000000000000000000000000000000815260040161080690611f54565b60405180910390fd5b600360008373ffffffffffffffffffffffffffffffffffffffff1673ffffffffffffffffffffffffffffffffffffffff168152602001908152602001600020549050919050565b60606001805461086590612299565b80601f016020809104026020016040519081016040528092919081815260200182805461089190612299565b80156108de5780601f106108b3576101008083540402835291602001916108de565b820191906000526020600020905b8154815290600101906020018083116108c157829003601f168201915b5050505050905090565b6108fa6108f3610c2c565b8383611219565b5050565b61090f610909610c2c565b83610ced565b61094e576040517f08c379a000000000000000000000000000000000000000000000000000000000815260040161094590612054565b60405180910390fd5b61095a84848484611386565b50505050565b606061096b82610bc0565b6109aa576040517f08c379a00000000000000000000000000000000000000000000000000000000081526004016109a190611fb4565b60405180910390fd5b60006006600084815260200190815260200160002080546109ca90612299565b80601f01602080910402602001604051908101604052809291908181526020018280546109f690612299565b8015610a435780601f10610a1857610100808354040283529160200191610a43565b820191906000526020600020905b815481529060010190602001808311610a2657829003601f168201915b505050505090506000610a546113e2565b9050600081511415610a6a578192505050610aad565b600082511115610a9f578082604051602001610a87929190611dcc565b60405160208183030381529060405292505050610aad565b610aa8846113f9565b925050505b919050565b610abd83838361069f565b505050565b6000600560008473ffffffffffffffffffffffffffffffffffffffff1673ffffffffffffffffffffffffffffffffffffffff16815260200190815260200160002060008373ffffffffffffffffffffffffffffffffffffffff1673ffffffffffffffffffffffffffffffffffffffff16815260200190815260200160002060009054906101000a900460ff16905092915050565b60007f01ffc9a7000000000000000000000000000000000000000000000000000000007bffffffffffffffffffffffffffffffffffffffffffffffffffffffff1916827bffffffffffffffffffffffffffffffffffffffffffffffffffffffff1916149050919050565b60008073ffffffffffffffffffffffffffffffffffffffff166002600084815260200190815260200160002060009054906101000a900473ffffffffffffffffffffffffffffffffffffffff1673ffffffffffffffffffffffffffffffffffffffff1614159050919050565b600033905090565b816004600083815260200190815260200160002060006101000a81548173ffffffffffffffffffffffffffffffffffffffff021916908373ffffffffffffffffffffffffffffffffffffffff160217905550808273ffffffffffffffffffffffffffffffffffffffff16610ca7836106bf565b73ffffffffffffffffffffffffffffffffffffffff167f8c5be1e5ebec7d5bd14f71427d1e84f3dd0314c0f7b2291e5b200ac8c7c3b92560405160405180910390a45050565b6000610cf882610bc0565b610d37576040517f08c379a0000000000000000000000000000000000000000000000000000000008152600401610d2e90611f14565b60405180910390fd5b6000610d42836106bf565b90508073ffffffffffffffffffffffffffffffffffffffff168473ffffffffffffffffffffffffffffffffffffffff161480610db157508373ffffffffffffffffffffffffffffffffffffffff16610d99846104a2565b73ffffffffffffffffffffffffffffffffffffffff16145b80610dc25750610dc18185610ac2565b5b91505092915050565b8273ffffffffffffffffffffffffffffffffffffffff16610deb826106bf565b73ffffffffffffffffffffffffffffffffffffffff1614610e41576040517f08c379a0000000000000000000000000000000000000000000000000000000008152600401610e3890611ff4565b60405180910390fd5b600073ffffffffffffffffffffffffffffffffffffffff168273ffffffffffffffffffffffffffffffffffffffff161415610eb1576040517f08c379a0000000000000000000000000000000000000000000000000000000008152600401610ea890611ed4565b60405180910390fd5b610ebc8383836114a0565b610ec7600082610c34565b6001600360008573ffffffffffffffffffffffffffffffffffffffff1673ffffffffffffffffffffffffffffffffffffffff1681526020019081526020016000206000828254610f1791906121af565b925050819055506001600360008473ffffffffffffffffffffffffffffffffffffffff1673ffffffffffffffffffffffffffffffffffffffff1681526020019081526020016000206000828254610f6e9190612128565b92505081905550816002600083815260200190815260200160002060006101000a81548173ffffffffffffffffffffffffffffffffffffffff021916908373ffffffffffffffffffffffffffffffffffffffff160217905550808273ffffffffffffffffffffffffffffffffffffffff168473ffffffffffffffffffffffffffffffffffffffff167fddf252ad1be2c89b69c2b068fc378daa952ba7f163c4a11628f55a4df523b3ef60405160405180910390a4505050565b6001816000016000828254019250508190555050565b600081600001549050919050565b600073ffffffffffffffffffffffffffffffffffffffff168273ffffffffffffffffffffffffffffffffffffffff1614156110bb576040517f08c379a00000000000000000000000000000000000000000000000000000000081526004016110b290611f94565b60405180910390fd5b6110c481610bc0565b15611104576040517f08c379a00000000000000000000000000000000000000000000000000000000081526004016110fb90611eb4565b60405180910390fd5b611110600083836114a0565b6001600360008473ffffffffffffffffffffffffffffffffffffffff1673ffffffffffffffffffffffffffffffffffffffff16815260200190815260200160002060008282546111609190612128565b92505081905550816002600083815260200190815260200160002060006101000a81548173ffffffffffffffffffffffffffffffffffffffff021916908373ffffffffffffffffffffffffffffffffffffffff160217905550808273ffffffffffffffffffffffffffffffffffffffff16600073ffffffffffffffffffffffffffffffffffffffff167fddf252ad1be2c89b69c2b068fc378daa952ba7f163c4a11628f55a4df523b3ef60405160405180910390a45050565b8173ffffffffffffffffffffffffffffffffffffffff168373ffffffffffffffffffffffffffffffffffffffff161415611288576040517f08c379a000000000000000000000000000000000000000000000000000000000815260040161127f90611ef4565b60405180910390fd5b80600560008573ffffffffffffffffffffffffffffffffffffffff1673ffffffffffffffffffffffffffffffffffffffff16815260200190815260200160002060008473ffffffffffffffffffffffffffffffffffffffff1673ffffffffffffffffffffffffffffffffffffffff16815260200190815260200160002060006101000a81548160ff0219169083151502179055508173ffffffffffffffffffffffffffffffffffffffff168373ffffffffffffffffffffffffffffffffffffffff167f17307eab39ab6107e8899845ad3d59bd9653f200f220920489ca2b5937696c31836040516113799190611e57565b60405180910390a3505050565b611391848484610dcb565b61139d848484846114a5565b6113dc576040517f08c379a00000000000000000000000000000000000000000000000000000000081526004016113d390611e94565b60405180910390fd5b50505050565b606060405180602001604052806000815250905090565b606061140482610bc0565b611443576040517f08c379a000000000000000000000000000000000000000000000000000000000815260040161143a90612014565b60405180910390fd5b600061144d6113e2565b9050600081511161146d5760405180602001604052806000815250611498565b806114778461163c565b604051602001611488929190611dcc565b6040516020818303038152906040525b915050919050565b505050565b60006114c68473ffffffffffffffffffffffffffffffffffffffff166117e9565b1561162f578373ffffffffffffffffffffffffffffffffffffffff1663150b7a026114ef610c2c565b8786866040518563ffffffff1660e01b81526004016115119493929190611e0b565b602060405180830381600087803b15801561152b57600080fd5b505af192505050801561155c57506040513d601f19601f820116820180604052508101906115599190611a9d565b60015b6115df573d806000811461158c576040519150601f19603f3d011682016040523d82523d6000602084013e611591565b606091505b506000815114156115d7576040517f08c379a00000000000000000000000000000000000000000000000000000000081526004016115ce90611e94565b60405180910390fd5b805181602001fd5b63150b7a0260e01b7bffffffffffffffffffffffffffffffffffffffffffffffffffffffff1916817bffffffffffffffffffffffffffffffffffffffffffffffffffffffff191614915050611634565b600190505b949350505050565b60606000821415611684576040518060400160405280600181526020017f300000000000000000000000000000000000000000000000000000000000000081525090506117e4565b600082905060005b600082146116b657808061169f906122fc565b915050600a826116af919061217e565b915061168c565b60008167ffffffffffffffff8111156116f8577f4e487b7100000000000000000000000000000000000000000000000000000000600052604160045260246000fd5b6040519080825280601f01601f19166020018201604052801561172a5781602001600182028036833780820191505090505b5090505b600085146117dd5760018261174391906121af565b9150600a856117529190612345565b603061175e9190612128565b60f81b81838151811061179a577f4e487b7100000000000000000000000000000000000000000000000000000000600052603260045260246000fd5b60200101907effffffffffffffffffffffffffffffffffffffffffffffffffffffffffffff1916908160001a905350600a856117d6919061217e565b945061172e565b8093505050505b919050565b600080823b905060008111915050919050565b600061180f61180a846120b4565b61208f565b90508281526020810184848401111561182757600080fd5b611832848285612257565b509392505050565b60008135905061184981612872565b92915050565b60008135905061185e81612889565b92915050565b600081359050611873816128a0565b92915050565b600081519050611888816128a0565b92915050565b600082601f83011261189f57600080fd5b81356118af8482602086016117fc565b91505092915050565b6000813590506118c7816128b7565b92915050565b6000602082840312156118df57600080fd5b60006118ed8482850161183a565b91505092915050565b6000806040838503121561190957600080fd5b60006119178582860161183a565b92505060206119288582860161183a565b9150509250929050565b60008060006060848603121561194757600080fd5b60006119558682870161183a565b93505060206119668682870161183a565b9250506040611977868287016118b8565b9150509250925092565b6000806000806080858703121561199757600080fd5b60006119a58782880161183a565b94505060206119b68782880161183a565b93505060406119c7878288016118b8565b925050606085013567ffffffffffffffff8111156119e457600080fd5b6119f08782880161188e565b91505092959194509250565b60008060408385031215611a0f57600080fd5b6000611a1d8582860161183a565b9250506020611a2e8582860161184f565b9150509250929050565b60008060408385031215611a4b57600080fd5b6000611a598582860161183a565b9250506020611a6a858286016118b8565b9150509250929050565b600060208284031215611a8657600080fd5b6000611a9484828501611864565b91505092915050565b600060208284031215611aaf57600080fd5b6000611abd84828501611879565b91505092915050565b600060208284031215611ad857600080fd5b6000611ae6848285016118b8565b91505092915050565b611af8816121e3565b82525050565b611b07816121f5565b82525050565b6000611b18826120e5565b611b2281856120fb565b9350611b32818560208601612266565b611b3b81612432565b840191505092915050565b6000611b51826120f0565b611b5b818561210c565b9350611b6b818560208601612266565b611b7481612432565b840191505092915050565b6000611b8a826120f0565b611b94818561211d565b9350611ba4818560208601612266565b80840191505092915050565b6000611bbd60328361210c565b9150611bc882612443565b604082019050919050565b6000611be0601c8361210c565b9150611beb82612492565b602082019050919050565b6000611c0360248361210c565b9150611c0e826124bb565b604082019050919050565b6000611c2660198361210c565b9150611c318261250a565b602082019050919050565b6000611c49602c8361210c565b9150611c5482612533565b604082019050919050565b6000611c6c60388361210c565b9150611c7782612582565b604082019050919050565b6000611c8f602a8361210c565b9150611c9a826125d1565b604082019050919050565b6000611cb260298361210c565b9150611cbd82612620565b604082019050919050565b6000611cd560208361210c565b9150611ce08261266f565b602082019050919050565b6000611cf860318361210c565b9150611d0382612698565b604082019050919050565b6000611d1b602c8361210c565b9150611d26826126e7565b604082019050919050565b6000611d3e60298361210c565b9150611d4982612736565b604082019050919050565b6000611d61602f8361210c565b9150611d6c82612785565b604082019050919050565b6000611d8460218361210c565b9150611d8f826127d4565b604082019050919050565b6000611da760318361210c565b9150611db282612823565b604082019050919050565b611dc68161224d565b82525050565b6000611dd88285611b7f565b9150611de48284611b7f565b91508190509392505050565b6000602082019050611e056000830184611aef565b92915050565b6000608082019050611e206000830187611aef565b611e2d6020830186611aef565b611e3a6040830185611dbd565b8181036060830152611e4c8184611b0d565b905095945050505050565b6000602082019050611e6c6000830184611afe565b92915050565b60006020820190508181036000830152611e8c8184611b46565b905092915050565b60006020820190508181036000830152611ead81611bb0565b9050919050565b60006020820190508181036000830152611ecd81611bd3565b9050919050565b60006020820190508181036000830152611eed81611bf6565b9050919050565b60006020820190508181036000830152611f0d81611c19565b9050919050565b60006020820190508181036000830152611f2d81611c3c565b9050919050565b60006020820190508181036000830152611f4d81611c5f565b9050919050565b60006020820190508181036000830152611f6d81611c82565b9050919050565b60006020820190508181036000830152611f8d81611ca5565b9050919050565b60006020820190508181036000830152611fad81611cc8565b9050919050565b60006020820190508181036000830152611fcd81611ceb565b9050919050565b60006020820190508181036000830152611fed81611d0e565b9050919050565b6000602082019050818103600083015261200d81611d31565b9050919050565b6000602082019050818103600083015261202d81611d54565b9050919050565b6000602082019050818103600083015261204d81611d77565b9050919050565b6000602082019050818103600083015261206d81611d9a565b9050919050565b60006020820190506120896000830184611dbd565b92915050565b60006120996120aa565b90506120a582826122cb565b919050565b6000604051905090565b600067ffffffffffffffff8211156120cf576120ce612403565b5b6120d882612432565b9050602081019050919050565b600081519050919050565b600081519050919050565b600082825260208201905092915050565b600082825260208201905092915050565b600081905092915050565b60006121338261224d565b915061213e8361224d565b9250827fffffffffffffffffffffffffffffffffffffffffffffffffffffffffffffffff0382111561217357612172612376565b5b828201905092915050565b60006121898261224d565b91506121948361224d565b9250826121a4576121a36123a5565b5b828204905092915050565b60006121ba8261224d565b91506121c58361224d565b9250828210156121d8576121d7612376565b5b828203905092915050565b60006121ee8261222d565b9050919050565b60008115159050919050565b60007fffffffff0000000000000000000000000000000000000000000000000000000082169050919050565b600073ffffffffffffffffffffffffffffffffffffffff82169050919050565b6000819050919050565b82818337600083830152505050565b60005b83811015612284578082015181840152602081019050612269565b83811115612293576000848401525b50505050565b600060028204905060018216806122b157607f821691505b602082108114156122c5576122c46123d4565b5b50919050565b6122d482612432565b810181811067ffffffffffffffff821117156122f3576122f2612403565b5b80604052505050565b60006123078261224d565b91507fffffffffffffffffffffffffffffffffffffffffffffffffffffffffffffffff82141561233a57612339612376565b5b600182019050919050565b60006123508261224d565b915061235b8361224d565b92508261236b5761236a6123a5565b5b828206905092915050565b7f4e487b7100000000000000000000000000000000000000000000000000000000600052601160045260246000fd5b7f4e487b7100000000000000000000000000000000000000000000000000000000600052601260045260246000fd5b7f4e487b7100000000000000000000000000000000000000000000000000000000600052602260045260246000fd5b7f4e487b7100000000000000000000000000000000000000000000000000000000600052604160045260246000fd5b6000601f19601f8301169050919050565b7f4552433732313a207472616e7366657220746f206e6f6e20455243373231526560008201527f63656976657220696d706c656d656e7465720000000000000000000000000000602082015250565b7f4552433732313a20746f6b656e20616c7265616479206d696e74656400000000600082015250565b7f4552433732313a207472616e7366657220746f20746865207a65726f2061646460008201527f7265737300000000000000000000000000000000000000000000000000000000602082015250565b7f4552433732313a20617070726f766520746f2063616c6c657200000000000000600082015250565b7f4552433732313a206f70657261746f7220717565727920666f72206e6f6e657860008201527f697374656e7420746f6b656e0000000000000000000000000000000000000000602082015250565b7f4552433732313a20617070726f76652063616c6c6572206973206e6f74206f7760008201527f6e6572206e6f7220617070726f76656420666f7220616c6c0000000000000000602082015250565b7f4552433732313a2062616c616e636520717565727920666f7220746865207a6560008201527f726f206164647265737300000000000000000000000000000000000000000000602082015250565b7f4552433732313a206f776e657220717565727920666f72206e6f6e657869737460008201527f656e7420746f6b656e0000000000000000000000000000000000000000000000602082015250565b7f4552433732313a206d696e7420746f20746865207a65726f2061646472657373600082015250565b7f45524337323155524953746f726167653a2055524920717565727920666f722060008201527f6e6f6e6578697374656e7420746f6b656e000000000000000000000000000000602082015250565b7f4552433732313a20617070726f76656420717565727920666f72206e6f6e657860008201527f697374656e7420746f6b656e0000000000000000000000000000000000000000602082015250565b7f4552433732313a207472616e73666572206f6620746f6b656e2074686174206960008201527f73206e6f74206f776e0000000000000000000000000000000000000000000000602082015250565b7f4552433732314d657461646174613a2055524920717565727920666f72206e6f60008201527f6e6578697374656e7420746f6b656e0000000000000000000000000000000000602082015250565b7f4552433732313a20617070726f76616c20746f2063757272656e74206f776e6560008201527f7200000000000000000000000000000000000000000000000000000000000000602082015250565b7f4552433732313a207472616e736665722063616c6c6572206973206e6f74206f60008201527f776e6572206e6f7220617070726f766564000000000000000000000000000000602082015250565b61287b816121e3565b811461288657600080fd5b50565b612892816121f5565b811461289d57600080fd5b50565b6128a981612201565b81146128b457600080fd5b50565b6128c08161224d565b81146128cb57600080fd5b5056fea2646970667358221220c65cc24017c4cc61e28d52a1175768dfe777db63a110a9b44eea6f9a46090f6964736f6c63430008040033",
  "linkReferences": {},
  "deployedLinkReferences": {}
}