{
  "_format": "hh-sol-artifact-1",
  "contractName": "FixedMath",
  "sourceName": "contracts/FixedMath.sol",
  "abi": [
    {
      "inputs": [
        {
          "internalType": "int256",
          "name": "x",
          "type": "int256"
        },
        {
          "internalType": "int256",
          "name": "y",
          "type": "int256"
        }
      ],
      "name": "add",
      "outputs": [
        {
          "internalType": "int256",
          "name": "",
          "type": "int256"
        }
      ],
      "stateMutability": "pure",
      "type": "function"
    },
    {
      "inputs": [
        {
          "internalType": "int256",
          "name": "x",
          "type": "int256"
        },
        {
          "internalType": "int256",
          "name": "y",
          "type": "int256"
        }
      ],
      "name": "divide",
      "outputs": [
        {
          "internalType": "int256",
          "name": "",
          "type": "int256"
        }
      ],
      "stateMutability": "pure",
      "type": "function"
    },
    {
      "inputs": [],
      "name": "fixed1",
      "outputs": [
        {
          "internalType": "int256",
          "name": "",
          "type": "int256"
        }
      ],
      "stateMutability": "pure",
      "type": "function"
    },
    {
      "inputs": [],
      "name": "fixed2",
      "outputs": [
        {
          "internalType": "int256",
          "name": "",
          "type": "int256"
        }
      ],
      "stateMutability": "pure",
      "type": "function"
    },
    {
      "inputs": [
        {
          "internalType": "int256",
          "name": "x",
          "type": "int256"
        }
      ],
      "name": "fractional",
      "outputs": [
        {
          "internalType": "int256",
          "name": "",
          "type": "int256"
        }
      ],
      "stateMutability": "pure",
      "type": "function"
    },
    {
      "inputs": [
        {
          "internalType": "int256",
          "name": "x",
          "type": "int256"
        }
      ],
      "name": "integer",
      "outputs": [
        {
          "internalType": "int256",
          "name": "",
          "type": "int256"
        }
      ],
      "stateMutability": "pure",
      "type": "function"
    },
    {
      "inputs": [],
      "name": "mulPrecision",
      "outputs": [
        {
          "internalType": "int256",
          "name": "",
          "type": "int256"
        }
      ],
      "stateMutability": "pure",
      "type": "function"
    },
    {
      "inputs": [
        {
          "internalType": "int256",
          "name": "x",
          "type": "int256"
        },
        {
          "internalType": "int256",
          "name": "y",
          "type": "int256"
        }
      ],
      "name": "multiply",
      "outputs": [
        {
          "internalType": "int256",
          "name": "",
          "type": "int256"
        }
      ],
      "stateMutability": "pure",
      "type": "function"
    },
    {
      "inputs": [
        {
          "internalType": "int256",
          "name": "x",
          "type": "int256"
        }
      ],
      "name": "reciprocal",
      "outputs": [
        {
          "internalType": "int256",
          "name": "",
          "type": "int256"
        }
      ],
      "stateMutability": "pure",
      "type": "function"
    },
    {
      "inputs": [
        {
          "internalType": "int256",
          "name": "x",
          "type": "int256"
        }
      ],
      "name": "sqrt",
      "outputs": [
        {
          "internalType": "int256",
          "name": "",
          "type": "int256"
        }
      ],
      "stateMutability": "pure",
      "type": "function"
    },
    {
      "inputs": [
        {
          "internalType": "int256",
          "name": "num",
          "type": "int256"
        }
      ],
      "name": "toFixed",
      "outputs": [
        {
          "internalType": "int256",
          "name": "",
          "type": "int256"
        }
      ],
      "stateMutability": "pure",
      "type": "function"
    }
  ],
  "bytecode": "0x610c41610053600b82828239805160001a607314610046577f4e487b7100000000000000000000000000000000000000000000000000000000600052600060045260246000fd5b30600052607381538281f3fe73000000000000000000000000000000000000000030146080604052600436106100b35760003560e01c80639ca7eb761161007b5780639ca7eb76146101845780639f17f3ff146101a2578063a5f3c23b146101d2578063cf94513a14610202578063e179f25214610232578063f598423614610262576100b3565b80632179bb6c146100b85780633c4308a8146100d65780636072326214610106578063665df460146101245780639c15bca414610154575b600080fd5b6100c0610292565b6040516100cd91906108c8565b60405180910390f35b6100f060048036038101906100eb919061087d565b6102a4565b6040516100fd91906108c8565b60405180910390f35b61010e610582565b60405161011b91906108c8565b60405180910390f35b61013e60048036038101906101399190610854565b610595565b60405161014b91906108c8565b60405180910390f35b61016e60048036038101906101699190610854565b610615565b60405161017b91906108c8565b60405180910390f35b61018c61067a565b60405161019991906108c8565b60405180910390f35b6101bc60048036038101906101b79190610854565b610687565b6040516101c991906108c8565b60405180910390f35b6101ec60048036038101906101e7919061087d565b6106a3565b6040516101f991906108c8565b60405180910390f35b61021c60048036038101906102179190610854565b61076c565b60405161022991906108c8565b60405180910390f35b61024c60048036038101906102479190610854565b6107a5565b60405161025991906108c8565b60405180910390f35b61027c6004803603810190610277919061087d565b6107d3565b60405161028991906108c8565b60405180910390f35b600069d3c21bcecceda1000000905090565b6000808314806102b45750600082145b156102c2576000905061057c565b6102ca610292565b8214156102d95782905061057c565b6102e1610292565b8314156102f05781905061057c565b60006102fa610292565b610303856107a5565b61030d9190610977565b9050600061031a8561076c565b90506000610326610292565b61032f866107a5565b6103399190610977565b905060006103468661076c565b90506000828561035691906109e1565b9050600085146103a25782858261036d9190610977565b146103a1577f4e487b7100000000000000000000000000000000000000000000000000000000600052600160045260246000fd5b5b60006103ac610292565b826103b791906109e1565b90506000821461040a576103c9610292565b82826103d59190610977565b14610409577f4e487b7100000000000000000000000000000000000000000000000000000000600052600160045260246000fd5b5b8091506000848661041b91906109e1565b905060008614610467578486826104329190610977565b14610466577f4e487b7100000000000000000000000000000000000000000000000000000000600052600160045260246000fd5b5b6000848861047591906109e1565b9050600088146104c15784888261048c9190610977565b146104c0577f4e487b7100000000000000000000000000000000000000000000000000000000600052600160045260246000fd5b5b6104c961067a565b876104d49190610977565b96506104de61067a565b856104e99190610977565b9450600085886104f991906109e1565b905060008814610545578588826105109190610977565b14610544577f4e487b7100000000000000000000000000000000000000000000000000000000600052600160045260246000fd5b5b600085905061055481856106a3565b905061056081846106a3565b905061056c81836106a3565b9050809a50505050505050505050505b92915050565b60006a01a784379d99db42000000905090565b6000806105a0610292565b905060006105ae84836107d3565b826105b991906108e3565b905060006105ce826105c9610582565b6107d3565b90505b80831461060a578092506105e585846107d3565b836105f091906108e3565b9150610603826105fe610582565b6107d3565b90506105d1565b809350505050919050565b60008082141561064e577f4e487b7100000000000000000000000000000000000000000000000000000000600052600160045260246000fd5b81610657610292565b61065f610292565b61066991906109e1565b6106739190610977565b9050919050565b600064e8d4a51000905090565b6000610691610292565b8261069c91906109e1565b9050919050565b60008082846106b291906108e3565b90506000841380156106c45750600083135b1561070b5783811380156106d757508281135b61070a577f4e487b7100000000000000000000000000000000000000000000000000000000600052600160045260246000fd5b5b60008412801561071b5750600083125b1561076257838112801561072e57508281125b610761577f4e487b7100000000000000000000000000000000000000000000000000000000600052600160045260246000fd5b5b8091505092915050565b6000610776610292565b61077e610292565b836107899190610977565b61079391906109e1565b8261079e9190610af8565b9050919050565b60006107af610292565b6107b7610292565b836107c29190610977565b6107cc91906109e1565b9050919050565b60006107dd610292565b8214156107ec57829050610839565b6000821415610824577f4e487b7100000000000000000000000000000000000000000000000000000000600052600160045260246000fd5b6108368361083184610615565b6102a4565b90505b92915050565b60008135905061084e81610bf4565b92915050565b60006020828403121561086657600080fd5b60006108748482850161083f565b91505092915050565b6000806040838503121561089057600080fd5b600061089e8582860161083f565b92505060206108af8582860161083f565b9150509250929050565b6108c281610b8c565b82525050565b60006020820190506108dd60008301846108b9565b92915050565b60006108ee82610b8c565b91506108f983610b8c565b9250817f7fffffffffffffffffffffffffffffffffffffffffffffffffffffffffffffff0383136000831215161561093457610933610b96565b5b817f800000000000000000000000000000000000000000000000000000000000000003831260008312161561096c5761096b610b96565b5b828201905092915050565b600061098282610b8c565b915061098d83610b8c565b92508261099d5761099c610bc5565b5b600160000383147f8000000000000000000000000000000000000000000000000000000000000000831416156109d6576109d5610b96565b5b828205905092915050565b60006109ec82610b8c565b91506109f783610b8c565b9250827f7fffffffffffffffffffffffffffffffffffffffffffffffffffffffffffffff0482116000841360008413161615610a3657610a35610b96565b5b817f80000000000000000000000000000000000000000000000000000000000000000583126000841260008413161615610a7357610a72610b96565b5b827f80000000000000000000000000000000000000000000000000000000000000000582126000841360008412161615610ab057610aaf610b96565b5b827f7fffffffffffffffffffffffffffffffffffffffffffffffffffffffffffffff0582126000841260008412161615610aed57610aec610b96565b5b828202905092915050565b6000610b0382610b8c565b9150610b0e83610b8c565b9250827f800000000000000000000000000000000000000000000000000000000000000001821260008412151615610b4957610b48610b96565b5b827f7fffffffffffffffffffffffffffffffffffffffffffffffffffffffffffffff018213600084121615610b8157610b80610b96565b5b828203905092915050565b6000819050919050565b7f4e487b7100000000000000000000000000000000000000000000000000000000600052601160045260246000fd5b7f4e487b7100000000000000000000000000000000000000000000000000000000600052601260045260246000fd5b610bfd81610b8c565b8114610c0857600080fd5b5056fea2646970667358221220ef5210e8bb69143cdb84f8c758081efc25b227059b9c4ff786aa8586b8dff8bc64736f6c63430008040033",
  "linkReferences": {},
  "deployedLinkReferences": {}
}